:100000000C9412020C942F020C942F020C942F02C9
:100010000C942F020C942F020C942F020C942F029C
:100020000C942F020C942F020C94DB280C94AE2914
:100030000C94E4230C942F020C942F020C942F02A6
:100040000C942F020C942F020C942F020C942F026C
:100050000C942F020C949C240C942F020C942F02CD
:100060000C942F020C942F020C942F020C942F024C
:100070000C942F020C942F020C942F020C942F023C
:100080000C942F020C942F020C942F020C942F022C
:100090000C942F020C942F020C942F020C942F021C
:1000A0000C942F020C942F020C942F0229003A007A
:1000B0003B003C003D003E003F004000410042004C
:1000C00043004400450000004600470035001E0084
:1000D0001F0020002100220023002400250026000C
:1000E00027002D002E002A0049004A002B00140092
:1000F0001A000800150017001C0018000C00120060
:1001000013002F00300031004C004D003900040076
:100110001600070009000A000B000D000E000F007A
:1001200033003400000028004B004E00E1001D00A9
:100130001B000600190005001100100036003700F2
:100140003800E5000000000052004800E000E30035
:10015000E200000000002C00000000000000E600AB
:1001600065002152E400500051004F0029003A0080
:100170003B003C003D003E003F004000410042008B
:1001800043004400450000004600470035001E00C3
:100190001F0020002100220023002400250026004B
:1001A00027002D002E002A0049004A002B001400D1
:1001B0001A000800150017001C0018000C0012009F
:1001C00013002F00300031004C004D0039000400B6
:1001D0001600070009000A000B000D000E000F00BA
:1001E00033003400000028004B004E00E1001D00E9
:1001F0001B00060019000500110010003600370032
:100200003800E5000000000052004800E000E30074
:10021000E2000000000021780000000000002178CA
:1002200022526500E400500051004F00000101011E
:1002300001010101010102020202020202020203A3
:100240000303030303030304040404040404050573
:100250000505050606060606070707070708080836
:1002600008090909090A0A0A0B0B0B0C0C0C0D0DE5
:100270000D0E0E0E0F0F0F1010111111121213137D
:100280001414151516161717181819191A1A1B1BF6
:100290001C1D1D1E1E1F2020212222232424252652
:1002A00026272829292A2B2C2D2D2E2F303132328A
:1002B000333435363738393A3B3C3D3E3F40414296
:1002C000434445464748494A4C4D4E4F505153547C
:1002D000555658595A5B5D5E5F6162646566686930
:1002E0006B6C6D6F7072737577787A7B7D7E8082B0
:1002F000838587888A8C8E8F91939596989A9C9EF9
:10030000A0A2A3A5A7A9ABADAFB1B3B5B7BABCBE08
:10031000C0C2C4C6C9CBCDCFD1D4D6D8DBDDDFE2D5
:10032000E4E7E9EBEEF0F3F5F8FAFDFF18036D00F2
:1003300061006F005F00310030005F004400530037
:100340003800370000000C0343005A004D00410004
:100350004F0000000403090409023B00020100A051
:10036000FA09040000010301010009211101000143
:10037000224400070581030800010904010001036C
:10038000000000092111010001223B000705820342
:100390002000011201000200000008134A134A0065
:1003A000010102000105010906A1018506050719E1
:1003B000E029E71500250195087501810205071957
:1003C0000029EF1500250195F07501810205081936
:1003D000012905950575019102950175039101C0EB
:1003E00005010906A101050719E029E71500250106
:1003F00095087501810295017508810105071900AD
:1004000029FF150026FF00950675088100050819CB
:1004100001290515002501950575019102950175C4
:10042000039101C011241FBECFEFDAE0DEBFCDBFC4
:1004300012E0A0E0B1E0EEEBF9E502C005900D920C
:10044000A23BB107D9F725E0A2EBB2E001C01D92B3
:10045000A43BB207E1F70E94EA100C946E2C0C94B6
:1004600000008230C8F46630B8F44031A8F4E62FBA
:10047000F0E096E0899FE00DF11D112484E0EE0F7D
:10048000FF1F8A95E1F7E40FF11DEE0FFF1FE45502
:10049000FF4F85919491089581E090E008950E9426
:1004A0003102089581E008950E945202089581E08A
:1004B00008950E94520208950E94590208950895D5
:1004C0000E945F020895A6E0B0E0E9E6F2E00C9435
:1004D000D72B49835A839E833091B90289819A81AF
:1004E00031111AC03E81332399F0222389F00E94F2
:1004F000A607182F682F89819A810E948307698136
:100500007A81812F0E94910E2696E3E00C94F32BC2
:100510000E949407182FF3CF0E94A60769817A8161
:10052000F1CFFC01262F408151816281738184814A
:1005300095810E9463020895CF93DF93D82FC92F2E
:1005400061E00E9491026D2F7C2F0E945402DF9186
:10055000CF910895CF93DF93D82FC92F60E00E94E9
:1005600091026D2F7C2F0E946002DF91CF91089540
:1005700081E008950E94B8020895CF93C82F0E9489
:1005800055068C2F0E94BA022FEF84E39CE0215085
:1005900080409040E1F700C00000CF91089581E0D5
:1005A0000E94BD020E94C024089580E00E94BD0206
:1005B0000E94D12408950F931F93CF93DF938C0152
:1005C00061E00E949102EC01B8010E945C02882364
:1005D000E1F1B801CE010E943E228823B1F1B801B9
:1005E000CE010E94F320882381F1B801CE010E9440
:1005F000C820882351F1B801CE010E941B20882316
:1006000021F1F8018581882381F0CA35FCE7DF07F5
:1006100039F178F4C130ECE7DE07F9F0C330FCE7DC
:10062000DF07C9F0C115DC4771F0C8010E9457020D
:100630000DC0CB35ECE7DE07B1F0CC35DC47A9F7D0
:100640000E94DA0BF2CF0E94CF0280E0DF91CF91BF
:100650001F910F9108950E94EC0B0E94D502F5CFD7
:100660000E94E40BE2CF0E94E80BDFCF0E94C02380
:100670000E94C51D0E945E0381E00E94C51E089570
:100680000E94620380E00E94C51E0E94C523089557
:1006900081E008950895CF93DF93D82F0E944803F7
:1006A000C82F882319F08D2F0E944A038C2FDF91C9
:1006B000CF91089508950E944B03089580E00E9411
:1006C0005B0308950E9484220E945B030895CF93E8
:1006D0000E948422C82F8091B4028C1779F0C093B5
:1006E000B4020E9450246093B5027093B6028093C6
:1006F000B7029093B8028C2F0E945B03CF910895AC
:10070000ADE0B0E0E6E8F3E00C94D82B48875987D9
:100710006A877B878C879D8791110E94E50A1F82DB
:1007200086E0FE013896DE01119601900D928A95C1
:10073000E1F78D8181110DC029813A814B815C8166
:100740006D817E818F810E942B0A2D96E2E00C94B0
:10075000F42BCE0101960E949C028111EDCFF5CFC2
:10076000FC018481813021F4808191810E94D8072D
:100770000895CF93C82F882399F08CEF8C0F813A7E
:1007800088F48C2F0E94CC22882329F08C2F0E9481
:1007900071230E947D0B8C2F0E945A230E947D0B97
:1007A000CF91089580E28C0F8830D0F7C77081E038
:1007B00001C0880FCA95EAF70E94C60AEFCF8823C6
:1007C00041F09CEF980F913A28F40E9471230E9407
:1007D0007D0B089590E2980F9830D8F7877091E0DC
:1007E00001C0990F8A95EAF7892F0E94CC0AEFCFB2
:1007F0001F93CF93DF93182FEB010E94B90320972B
:1008000039F4812F0E94DF03DF91CF911F9108956A
:100810008FE99FE00197F1F700C000002197EFCF2B
:1008200060E070E0893311F460E570E00E94F80345
:100830000895882321F00E94C60A0E947D0B089526
:10084000882321F00E94CC0A0E947D0B0895A0E02D
:10085000B0E0EDE2F4E00C94D22B6C01D62FC72F60
:10086000FC011581068102950F700E94BB0AE82EDB
:100870008823F9F0E12E1123E1F08C2F807F803462
:1008800061F080E28D0F8830D0F18C2F807E803235
:1008900021F4D230A0F1002391F18091440482FF31
:1008A0002EC082E00E94AD0B0E94BB0A91E0E82EB0
:1008B000E9269C2F92959F70983009F4C9C008F5DD
:1008C000923080F1925F9F70923008F45CC0EE200D
:1008D00089F00E94B70A80FD0DC0F60115820E94C2
:1008E000B10A0E94E006C6010E9428060E94B10AD1
:1008F0000E94F006CDB7DEB7E8E00C94EE2BE12CB9
:10090000D8CF993009F41BC19A5F9F709230F8F6E6
:10091000D23F09F025C18C2F8F7111111EC10E9489
:10092000E006C5C00C2F0F70C03110F00295007F9B
:10093000112399F0002359F080E28D0F883010F0D8
:10094000D11107C0802F0E94C60A0E947D0B8D2FF7
:100950003BC0802F0E94D70AF8CF8D2F0E94DF0363
:10096000002309F4B4CF80E28D0F883010F0D1114C
:1009700004C0802F0E94CC0A03C0802F0E94DD0A91
:100980000E947D0BA4CFFC2FFF70FF2EC07FC032D2
:1009900019F0F29480EFF822DD2341F0D130D1F14B
:1009A000112309F444C00023F1F0D1CF8091440415
:1009B00082FD15C0112359F0FF2029F08F2D0E94D0
:1009C000C60A0E947D0B80E00E94B90380CF80E0C0
:1009D0000E94DF03FF2009F47ACF8F2DCBCF1123A4
:1009E00069F0011104C08F2D0E94190470CF0130ED
:1009F00009F06DCF8F2D0E94FD0A69CF011167CFDD
:100A00008F2D0E9420048F2D0E94090B8F2D0E9494
:100A1000EC0A5DCF112321F0063008F058CFE3CF68
:100A2000053008F054CF8F2D0E94200450CF0023B2
:100A3000D1F3D93349F42FEF87EE93E02150804072
:100A40009040E1F700C000008D2F0E94DF033FCFF0
:100A50008C2F8370811139C0111129C04D2F4295FF
:100A600046954770440F440F2D2F2F7030E0042E11
:100A700002C0220F331F0A94E2F780E090E0D4FF17
:100A800009C08FE090E002C0880F991F4A95E2F7F5
:100A900080959095C695C695C370822B932BC230D6
:100AA00071F0C33079F0C13039F00E94B0060E9475
:100AB00084220E945B030BCF0E94A706F8CF0E94FE
:100AC000B906F5CF0E94A406F2CF112361F1C0FF51
:100AD000EECF4D2F429546954770440F440F2D2F72
:100AE0002F7030E0042E02C0220F331F0A94E2F769
:100AF00080E090E0D4FF09C08FE090E002C0880F52
:100B0000991F4A95E2F780959095C695C695C37052
:100B1000822B932BC23069F0C33071F0C13031F0B9
:100B20000E941B07C4CF823010F2D3CF0E9412075D
:100B3000BECF0E942407BBCF0E94C806B8CFCF709B
:100B4000112339F08C2F0E94E0068D2F0E9419048A
:100B5000AECF8D2F0E9420048C2F0E94F006A7CFCD
:100B6000D33F70F4D03FB9F0D13F79F1112309F4AC
:100B700046C0002309F440C08D2F0E94B90397CFCF
:100B8000D33FA9F0D43FE9F01111F3CF011144C0D4
:100B90008C2F8F71E2CF112341F0053008F087CF01
:100BA0008C2F8F710E94020782CF0530F7CF11235F
:100BB00029F08C2F8F710E94D40679CF0E94CF0626
:100BC00076CF8091440482FD05C08C2F8F71112354
:100BD00021F2A5CE112331F063E08C2F8F710E949A
:100BE0008F0B65CF81E00E94AD0B023008F45FCF20
:100BF00082E00E94AD0B5BCF8C2F8F7190CE0023D3
:100C000039F2D93349F4EFEFF7EE23E0E150F04049
:100C10002040E1F700C000008D2F0E94DF0347CF86
:100C20000F931F93CF93DF93EC01688179818D81BE
:100C30000E94E5078C010E942D070E94A306B801BF
:100C4000CE010E942704DF91CF911F910F9108954B
:100C5000CF93DF93EC018C81882399F0CE010E9421
:100C6000DB02811111C00E94BB0A882351F08D81E3
:100C7000882339F08091440482FF03C082E00E94FF
:100C8000AD0BDF91CF910895CE010E941006CE01E9
:100C90000E94AA02F6CF0E94E50A0E947D0B0895E9
:100CA0000E9488230E944B0608950E94D40A0E9445
:100CB00050060895282F92959F70963091F060F419
:100CC000925F9F70923030F481E0203F79F030F4F1
:100CD000283E30F080E008959A5FF3CF243FD1F7AB
:100CE000089581E0283EE0F3213FF9CF0895FC010B
:100CF0008481882339F0808191810E94D8070E94E5
:100D00005A06089580E00895A6E0B0E0EAE8F6E02B
:100D10000C94D82B2696E2E00C94F42BA7E0B0E0DC
:100D2000E4E9F6E00C94D82B2796E2E00C94F42B3F
:100D300008950E94980608950E9499069093ED02E6
:100D40008093EC02089508950E949C0608952091D6
:100D5000EC023091ED02822B932B0E949C060895A9
:100D60002091EC023091ED02822393230E949C0695
:100D700008952091EC023091ED02822793270E9482
:100D80009C0608950E94980608950E94C206089540
:100D90000E94C5069093EB028093EA02089580E0DA
:100DA00090E00E94C806089521E030E0A90102C049
:100DB000440F551F8A95E2F7CA010E94C80608959C
:100DC00021E030E002C0220F331F8A95E2F78091C4
:100DD000EA029091EB02822B932B0E94C8060895A1
:100DE00021E030E002C0220F331F8A95E2F7209500
:100DF00030958091EA029091EB02822393230E9426
:100E0000C806089521E030E002C0220F331F8A9502
:100E1000E2F78091EA029091EB02822793270E94E9
:100E2000C80608952091EA023091EB02822B932BA1
:100E30000E94C80608952091EA023091EB028223B5
:100E400093230E94C80608952091EA023091EB0294
:100E5000822793270E94C806089508959B01677012
:100E600091E001C0990F6A95EAF763E036952795FE
:100E70006A95E1F7220F331F220F331FFA01E20FA9
:100E8000F31F40E050E0682F70E08191DF0111977F
:100E90009B01042E02C0369527950A94E2F7217033
:100EA00021952827292328272C934F5F5F4F443013
:100EB000510559F708959C01982F977083E0369556
:100EC00027958A95E1F7220F331F220F331FFB016D
:100ED000E20FF31F40E050E080E0219130E0092E66
:100EE00002C0369527950A94E2F721703327042E25
:100EF00001C0220F0A94EAF7822B4F5F5F4F443004
:100F0000510559F70895282F862F963060F4203127
:100F100050F430E1939FB0011124620F711D4AEB30
:100F200052E00E942E070895282F963068F48031F1
:100F300058F430E1939FC00111246AEB72E0820FF4
:100F4000911D0E945B07089580E00895A0E0B0E045
:100F5000ECEAF7E00C94D12B8C01E090EA02F090DF
:100F6000EB028091EC029091ED02E82AF92ACFE0A1
:100F7000D0E0CC24C394D12CC6010C2E02C0880F23
:100F8000991F0A94E2F78E219F21892B49F421971A
:100F900098F7B12C8B2DCDB7DEB7E9E00C94ED2B93
:100FA000BC2EB8018C2F0E949D0E019781F3F2CFC9
:100FB000CF93DF93D82FC92F0E94A6076D2F7C2FC8
:100FC0000E949D0EDF91CF9108951F93CF93DF93E1
:100FD000162FD72F9091B902992341F0862F972F82
:100FE0000E94D807DF91CF911F910895882381F047
:100FF000862F972F0E94A607C82F682F812F9D2F1D
:101000000E948307612F7D2F8C2F0E949D0EEACFB7
:10101000862F972F0E949407C82FF4CF0F931F930A
:10102000CF93E091EE02C7E08091EF028E1304C0EF
:10103000CF911F910F9108950E2F10E0CE9FF001D8
:101040001124E051FD4F208131814281538164811F
:10105000758186810E948E06F8013196E770E4CF93
:10106000209128033091290340912A0350912B03AA
:1010700060912C0370912D0380912E030E948E06A7
:10108000089580912E03803178F480912D03882378
:1010900059F0E091EE022091EF0230912903409146
:1010A000280357E02E1301C008956E2F70E05E9F55
:1010B000F0011124DF01A051BD4F14968C911497BB
:1010C000882361F111968C911197831327C08C911D
:1010D000841324C015968C91159781111FC0129608
:1010E0008D919C91A0912A03B0912B038A1B9B0B9D
:1010F000883C910598F480912E038F7080618093D5
:101100002E03EA50FD4F80818F708061808388E2DA
:1011100093E00E9428060E940E080895FB01319674
:10112000E770C0CFE091EE029091EF0227E0E91363
:1011300002C080E00895AE2FB0E02E9FF001112490
:10114000E051FD4F3181361306C03081381303C0A2
:101150003581341304C0FD013196E770E8CF81E09A
:1011600008958F929F92AF92BF92DF92EF92FF927B
:101170000F931F93CF93DF93CDB7DEB72D970FB6A5
:10118000F894DEBF0FBECDBF8C0186E0F801DE0112
:10119000189601900D928A95E1F7F801E080F580AC
:1011A000A280B380848198E2892E93E0992E909159
:1011B0002C0391111BC0882309F4FCC0FF2009F403
:1011C0003DC1C8010E947706882309F437C187E032
:1011D000F801D40101900D928A95E1F7C4010E94B3
:1011E000B0030E9441080E943008E4C0D0902D0353
:1011F00020912A0330912B03A501421B530BDD20C4
:1012000009F4DBC0483C510508F0A6C0882309F466
:10121000D1C090912903918080912E03803108F0F4
:101220006BC0991228C0909128039E1124C0F11020
:101230005DC08F70806180932E030E94300888E229
:1012400093E00E94280680912E03F8018683F12CFA
:101250008F2D2D960FB6F894DEBF0FBECDBFDF9158
:10126000CF911F910F91FF90EF90DF90BF90AF90C3
:101270009F908F900895F11039C040E0692D8E2D18
:101280000E94920840E0692D8E2D0E949208F82E4F
:101290008111DDCF888599850E94D807292F229555
:1012A0002F70903450F49F70223080F0992399F081
:1012B000F8019681903178F4CBCF2A5F2F702230DD
:1012C00078F0C8010E942806FD2CC2CF992319F09E
:1012D000882309F4BDCF805E883008F4B9CFF1CF00
:1012E000803F08F4B5CF815F8230F7CF80912E0325
:1012F000816080932E03ABCF991207C09091280391
:101300009E1103C0FF2009F479C0C8010E9477062E
:10131000882309F493C0FF2009F490C080912E0324
:10132000803288F020912803309129033A83298361
:10133000BC82AB8290912C039D831E828F83CE0151
:1013400001960E94280687E0F801A8E2B3E0019028
:101350000D928A95E1F745CF90912E039031A0F43C
:10136000488559856A857B858C859D850E94840684
:1013700088E293E00E94280687E0F40111928A95A2
:10138000E9F70E94300863CF8823A1F02091290358
:1013900081812813BACF809128038E11B6CFF11026
:1013A000B4CF9683C8010E94280687E0F401119209
:1013B0008A95E9F7FF24F3944BCF483C510508F098
:1013C00041C08823B9F3FF20C9F19091290381819D
:1013D00098132AC0809128038E1126C080912E0375
:1013E00080FD19C08031B8F08683807F803F39F05E
:1013F0008681982F907F905F8F70892B8683C8019C
:101400000E94280687E0F801A8E2B3E001900D925F
:101410008A95E1F7E8CE87E0F801A8E2B3E0019011
:101420000D928A95E1F7C6CFC8010E947706811117
:101430008ACF80912E03816080932E03C8010E9481
:101440002806B8CF488559856A857B858C859D851A
:101450000E94840691CFAEE0B0E0E1E3FAE00C94A4
:10146000D72B288739874A875B876C877D878E874C
:10147000CE0108960E94B1088823B1F06C856623DE
:1014800041F0288539854A855B857D858E850E945A
:101490008E0617E08091EE029091EF0289133EC014
:1014A0002E96E3E00C94F32B87E0FE013896DE01E4
:1014B000119601900D928A95E1F72091EF024091EB
:1014C000EE028C85882329F330E0C90101968770EC
:1014D000992750E08417950799F097E0929FD001E3
:1014E000939FB00D1124A051BD4FFE013196019084
:1014F0000D929A95E1F78093EF020E940E08C9CFF2
:101500000E9455061092EF021092EE0287E0E8E288
:10151000F3E0DF011D928A95E9F7BBCF189FC00168
:10152000112480519D4F0E94B108882309F4B8CF3F
:10153000E091EE021E9FF0011124E051FD4F208149
:101540003181428153816481758186810E948E063A
:101550008091EE0290E00196877099278093EE02C9
:1015600099CF8091570386958695869508958091A9
:1015700057038770089590915703977081E09111F8
:1015800001C080E0089580918303089590918303C2
:10159000982B909383030895982F909580918303BF
:1015A0008923809383030895109283030895909173
:1015B0008203982B909382030895982F90958091A1
:1015C00082038923809382030895109282030895F1
:1015D00008950E94E80A089590915803292F28231E
:1015E000222331F080958923809358030E94E90AD1
:1015F000089508950E94F90A089590915903292F9A
:101600002823281729F0982B909359030E94FA0A4F
:10161000089590915903292F2823222331F0809592
:101620008923809359030E94FA0A089580915903EF
:10163000882329F01092590380E00E94FA0A089545
:10164000CF93DF93C091830380918203C82BD09105
:101650005903DD2331F00E94AB2281110E94160B49
:10166000CD2B8C2FDF91CF910895CF93DF93C09135
:101670007302D09174020E94200B8883C091730280
:10168000D091740248E050E06FE473E0CE010E9414
:10169000FF2B892B59F088E0FE01AFE4B3E0019005
:1016A0000D928A95E1F7CE010E949122DF91CF91B0
:1016B0000895CF93DF93C0917102D09172020E947E
:1016C000200B8983C0917102D091720240E250E0F8
:1016D0006FE273E0CE010E94FF2B892B59F080E26C
:1016E000FE01AFE2B3E001900D928A95E1F7CE01E1
:1016F0000E949C22DF91CF910895809187028823D8
:1017000039F08091430487FF03C00E94590B08956C
:101710000E94350B089508950E948B0B08959091B7
:10172000440492FF11C098E0899F90011124622B1C
:10173000609357030E94E006809157038695869533
:1017400086950E948C0B08950E94E00608951092E1
:10175000570380E00E948C0B089590915703809569
:10176000892380935703282F277021110DC08917D3
:1017700059F09091440492FF07C08695869586950E
:101780000E94F0060E94A70B08959091440492FBDA
:10179000222720F9281769F080FB92F990934404DE
:1017A00080914304909144040E940D0C82E00E94B9
:1017B000AD0B08958091440482FB882780F991E065
:1017C00089270E94C50B089581E00E94C50B0895EA
:1017D00080E00E94C50B08956FEF7FEF80E090E0FE
:1017E0000E94682C089580E090E00E94342C9C01B7
:1017F00081E0253E3E4F09F080E0089582E090E0D0
:101800000E942C2C089583E090E00E942C2C0895D7
:1018100084E090E00E94342C0895BC0184E090E0C4
:101820000E94682C0895AB01BC018FE090E00E94FB
:101830005C2C0895AB01BC0183E190E00E945C2C1C
:10184000089560E070E0CB010E941A0C089560E0FA
:1018500070E0CB010E94130C0E94210C0895A8E0B7
:10186000B0E0E5E3FCE00C94D82B65EE7EEF80E081
:1018700090E00E94682C60E082E090E00E944A2C98
:1018800081E090E09093ED028093EC0261E083E0D0
:1018900090E00E944A2C60E074E184E090E00E94B5
:1018A000682C60E086E090E00E944A2C60E087E0CF
:1018B00090E00E944A2C40E050E0BA0188E090E0BD
:1018C0000E945C2C60E083E290E00E944A2C60E081
:1018D0008CE090E00E944A2C60E08DE090E00E9455
:1018E0004A2C19821A821B821C821D821E821F8230
:1018F000188648E050E067E170E0CE0101960E9452
:101900003A2C40E050E0BA018FE190E00E945C2C5C
:101910000E94270C2896E2E00C94F42B0E942F0CD6
:101920000895682F8EE090E00E944A2C0895A6E06A
:10193000B0E0EDE9FCE00C94D62B0E9444248C012D
:1019400080918403909185038017910779F0198223
:101950001A820E944424BC0149815A8180E090E0AF
:101960000E94800310938503009384032696E4E08D
:101970000C94F22B0E94502460939603709397036B
:1019800080939803909399036093920370939303C9
:1019900080939403909395030895089508950E9469
:1019A000CD0C089508950E94D20C089585E99FE01A
:1019B0000E94FF100E94CE0C0E94CF0C089581E07F
:1019C00008950E94DF0C08950E94DF0C0895089589
:1019D00008950E94E70C0E94E80C08950E94F30B02
:1019E000811102C00E948E0C0E94FE0B80939A030C
:1019F0000E94080C90934404809343040E94C520E5
:101A00000E94030C90E00E94A4068091EA0290914B
:101A1000EB020E94C50608950E943B240E945210CA
:101A20000E94EE0C0E945A030E94981E0E94D30C42
:101A30000895A6E0B0E0EFE1FDE00C94CC2B0E940D
:101A4000E10C81110AC00E94970C0E94C51D0E94E2
:101A500067032696EEE00C94E82B0E94681026E8B7
:101A6000822E23E0922E640110E0F601E190F190C5
:101A70006F01812F0E949F0F1F5F163009F44BC02A
:101A8000E816F90691F380919A0381FD0E94A80F50
:101A90000E94E40C782E10E0812F0E949F0F7C01A1
:101AA000F401A190B1904F018A159B0571F1A82610
:101AB000B92600E0CC24C394D12CC5018C219D21F2
:101AC000892BD1F066246394C7018C219D21892B39
:101AD00009F4612C772059F009831A830E94442469
:101AE000BC0149815A8181E0962D0E948003462DD8
:101AF000602F812F0E9466160F5FCC0CDD1C003119
:101B0000E1F6F4013297F182E0821F5F163021F690
:101B10000E94BA0C9ACFE816F90609F0B4CF93CF19
:101B20001F93CF93DF930E94A20EEC01811522E553
:101B3000920708F04DC0811540E5940708F0C5C034
:101B4000883E910588F0811550E4950728F1992782
:101B50000E94A20ECC27DF70C82BD92BD06ACE01F1
:101B6000DF91CF911F910895803E9105C0F7853A8E
:101B7000910550F4049798F781E0219709F080E0EF
:101B8000C82F80E0D82FEBCF8D5C9109D0654397AB
:101B900030F3C0E0D0E0E3CFC11590E2D90708F000
:101BA000ADC0CE019A9581159F4198F78D2F0E9467
:101BB000460F182FCE0199270E94A20E212F30E048
:101BC000322F2227E901CC27DF71C82BD92BC7CFB1
:101BD000803842E59407C0F5803652E5950708F055
:101BE00055C0C03482E5D807B0F08C2F8695869515
:101BF000877020E2829FC0011124C37021E030E091
:101C0000A90102C0440F551FCA95E2F7EA01C82B8B
:101C1000D92BDC68A4CFC03252E5D50780F58C2FD4
:101C20008695869520E2829FC0011124C37021E031
:101C300030E0A90102C0440F551FCA95E2F7EA013E
:101C4000C82BD92BDD688BCF803C52E5950758F423
:101C50008F71C03AD24578F590E0982F8827EC0133
:101C6000C46FD06A7CCF805C9245809708F091CF9A
:101C7000DC2FCC27CC27DF71C06FD06A70CFCF713B
:101C8000D0E0DC2FCC27C16FD06A69CF86958695CE
:101C9000877020E2829FC0011124C37021E030E0F0
:101CA000A90102C0440F551FCA95E2F7EA01C82BEB
:101CB000D92BDA6854CF0E94460FC82FD0E0DC2F12
:101CC000CC27CC27DF71D0624ACF8F710E94460F9C
:101CD00065E0D695C7956A95E1F7CF70D0E0DC2F27
:101CE000CC27282F30E084FF05C054E0220F331F9B
:101CF0005A95E1F7C22BD32BD06931CF8D2F8F713D
:101D00000E94460F182FCE0199270E94A20E212F64
:101D100030E0322F222722273F71282B392BE9016F
:101D2000D2CF462F672F763028F4403118F40E9426
:101D30004F02089580E090E008950E94910E0E9465
:101D4000900D0895803E9105D1F1C8F4813391053D
:101D500009F47FC048F48932910509F46FC08A32D2
:101D6000910509F47DC0089589339105E1F0823829
:101D70009105C9F08533910509F45BC00895843E4F
:101D80009105D1F148F4823E910531F1833E9105F0
:101D900041F181EE90E00895863E9105C1F1873EC4
:101DA0009105E1F10895209143042370211165C04C
:101DB0002091440423FF14C089E290E0089520910B
:101DC000430420FD43C03091440430FF09C024FF88
:101DD0004EC080E090E008952091430422FDF7CFAB
:101DE00008952091430422FD45C03091440430FD04
:101DF00044C024FFF5CFEDCF2091440421FFF0CF64
:101E00008091430484FDE5CF87EE90E00895209112
:101E1000430423FFE5CF24FDDCCFF6CF209143041C
:101E200023FD2EC03091440431FFE3CF84EE90E0D7
:101E300008952091430425FFD3CFBECF20914304C2
:101E400025FD21C02091440423FFCACF89E390E0FF
:101E500008952091430426FFC3CF8AE290E00895BD
:101E60002091430426FFBCCF81E390E0089583EEE8
:101E700090E0089582EE90E0089580EE90E008955D
:101E800086EE90E0089585E390E0AACF9091430418
:101E900092FF10C041E0282F2471243009F040E067
:101EA00031E0282F2871283009F030E0431711F075
:101EB0002CE0822793FF10C041E0282F24712431A9
:101EC00009F040E031E0282F2871283109F030E096
:101ED000431711F02CE082273091440430FF10C0EA
:101EE00051E0282F2171213009F050E041E0282FE6
:101EF0002871283009F040E0541711F029E08227BA
:101F000031FF10C041E0282F2171213109F040E05C
:101F100031E0282F2871283109F030E0431711F003
:101F200029E0822794FD877E089580E00895089532
:101F30000E94970F089508950E949B0F0895E82F1F
:101F4000F0E0EE0FFF1FEF5AFB4F80819181089563
:101F5000089580EA8A95F1F7089500C008950E94D7
:101F6000A90F0895F894E82FE295EF70F0E041A1F1
:101F70008F7021E030E0B90102C0660F771F8A95AB
:101F8000E2F7CB01962F9095942391A392A1892BF0
:101F900082A3789408950F931F93CF93DF93CBE997
:101FA000D2E089918F3F11F00E94B20F82E0C13AD6
:101FB000D807B9F7CBE8D2E00BE912E089918F3F5F
:101FC00011F00E94B20F0C171D07C1F7DF91CF91DE
:101FD0001F910F910895A0E0B0E0E1EFFFE00C94B5
:101FE000D12BEC01B62E062F10E0C80185569D4F6F
:101FF0007C01FC0180818F3F09F44FC0F894E82FE9
:10200000E295EF70F0E091A18F7021E030E001C027
:10201000220F8A95EAF7892F822B81A382A120952E
:10202000282322A378940E94AD0FEBE8F2E041E070
:1020300050E0C12CD12C21912F3F89F0A22FA295E5
:10204000AF70A05EB0E08C9190E02F7002C09595CB
:1020500087952A95E2F781709A01882311F020E094
:1020600030E0C22AD32A440F551F82E0EB39F8072B
:1020700011F7F70180818F3F11F00E94B20F61E0EC
:10208000C114D10409F460E08B2D0E94AF0F000F42
:10209000111FC00FD11FD982C882CDB7DEB7E9E0CA
:1020A0000C94ED2B0E94CB0F8CE0E1E5F4E0DF0116
:1020B000982F1D929A95E9F7E5E4F4E0DF011D926F
:1020C0008A95E9F786E00E94A5100E94980F08956E
:1020D000ACE0B0E0EEE6F0E10C94D52BFE013196D9
:1020E0008CE0DF011D928A95E9F710E0FE2E0F2F9C
:1020F000612F8F2D902F0E94EB0F1F5F1630C1F7BD
:102100004CE050E06F2D702F85E494E00E94FF2B8F
:1021100021E0892B81F420E046E061E574E085E46C
:1021200094E00E94A610182F0E949C0F812F2C96DD
:10213000E5E00C94F12B8CE0EF2DF02FA5E4B4E05A
:1021400001900D928A95E1F7E7CF0895A0E0B0E005
:10215000ECEAF0E10C94D22BD82EE92EF62ED72FF4
:10216000042FC22F222379F081E080939D030E94E7
:10217000442490939C0380939B0380E0CDB7DEB70B
:10218000E8E00C94EE2BC0909D03CC20B1F380913D
:102190009B0390919C030E946D24059770F310E0BF
:1021A000000F111FA8016D2D7E2D8F2D9D2F0E94D8
:1021B000FF2B892B41F0A8016D2D7E2D8F2D9D2F9A
:1021C0000E940C2CCC2D10929D038C2FD7CF0E94F7
:1021D000190D08950E94DD230E9419260E94D60C35
:1021E0000E9433260E940C0D0E9440260E94452624
:1021F0000E94E7100E945F260E94E90CF7CF90939F
:10220000B3028093B2020895A0E0B0E0EAE0F1E109
:102210000C94D02BE82F71110DC0442321F0F0E075
:10222000E45DFD4F8491682F782FCDB7DEB7EAE0EB
:102230000C94EC2B262F30E0C72FD0E0F0E04423A5
:1022400021F0E45DFD4FE491F0E086E0829F7001B3
:10225000839FF00C11240FEF10E0C701B8010E941A
:10226000592BAB01220F331F65E5649FC001659FA9
:10227000900D1124281B390BC22ECC0CC20EC801A4
:102280008C1B9D0B8E9F90018F9F300D9E9F300D5C
:102290001124832FCC9EB001CD9E700D1124672F89
:1022A00077275801A61AB70AAE9ED001AF9EB00D8F
:1022B000BE9EB00D11247B2F5801AC18B1086501EA
:1022C000CC9E5001CD9EB00CDC9EB00C1124AB2CEA
:1022D000BB240A191B090E9FE0010F9FD00D1E9F02
:1022E000D00D11246E2F43305105C9F09CEFE91633
:1022F00093E0F90650F44130510509F496CF42308D
:10230000510589F07E2F6D2F90CF4430510571F02B
:1023100046305105B9F3632F8B2F7E2F86CF6B2F5D
:10232000732F8E2F82CF732F8D2F7FCF7D2F632F13
:10233000F8CF41E00E94041108959C0180E090E0F4
:10234000269F812D369F800D911D112408959C019B
:102350008230910508F408959FEF213E8EE1380701
:1023600040F4C90145E0969587954A95E1F798E0D4
:10237000980F61E0E62FE90FFF27FF1FAF0155958A
:102380004795842F449FF001459FF00DF00D1124D7
:102390002E173F0738F49FEF940F961758F78FEFDB
:1023A000860F08954F3FE9F361E0640FF6CF409147
:1023B0007B0250917C0225E038E0429FC001439FA0
:1023C000900D529F900D1124875E994C90937C0242
:1023D00080937B02890F0895982FE82F96FDE09552
:1023E0008E2F8F7096FD8F5FE695E695E695E670E9
:1023F000F0E0EF55FD4F2181289F202D812D1124E4
:1024000022952F708295807F282B8081820F97FDE7
:102410008195805808951F93172F922FE42FF0E095
:10242000EE0FFF1FE05AFE4F408124EE429F412DE8
:102430001124E72FF0E050E09A01245E3F4F291B62
:10244000310937FF03C031952195310993E0220FFF
:10245000331F9A95E1F7E21BF30BF7FF02C0E0E0B0
:10246000F0E07E2F719F712D11241F9108951F930D
:10247000182F822FE42FF0E0EE0FFF1FE05AFE4FDF
:10248000408124EE429F412D1124E12FF0E050E0E5
:102490009A01245E3F4F281B310937FF03C0319555
:1024A0002195310983E0220F331F8A95E1F7CF018F
:1024B000821B930B9C0197FF02C020E030E0219F1C
:1024C000212D1124822F1F910895622F0895E42F4A
:1024D000F0E0EE0FFF1FE05AFE4F6081621B08958F
:1024E000E42FF0E0EE0FFF1FEF59FE4F6081621BFB
:1024F0000895322F50E0FA01EE0FFF1FEF59FE4F03
:102500009081905297FD9195440F551FFA01E05A22
:10251000FE4F2081231B330B290F311D97FD3A9568
:10252000620F0895EF920F931F9310E09801220F0E
:10253000331F200F311F359527956E2D620F1F9188
:102540000F91EF9008950F93CF93DF93D72FC82F5C
:10255000B90147FD419528E330E0241B310947FDCF
:102560003395229FA001239F500D500D1124669F8B
:10257000C001679F900D900D1124840F951F0E943C
:10258000A711982F990F692F680F600F7D2F8C2F3F
:10259000DF91CF910F9108950F931F93522F10E069
:1025A000F801EE0FFF1FEF59FE4FA081A052BB0BA9
:1025B0009D015203F001539FF00D1124000F111FD4
:1025C000D801A05ABE4F2C912057330B4203D001A3
:1025D000439FB00D11249F012A0F3B1F37FF02C0FC
:1025E00021583F4F220F232F221F330B620F1F91C1
:1025F0000F9108950F931F93522F10E0F801EE0FE3
:10260000FF1FEF59FE4FA081A052BB0B9D0152034B
:10261000F001539FF00D1124000F111FD801A05A93
:10262000BE4F2C912057330B4203D001439FB00D76
:1026300011249F012A0F3B1F37FF02C0215C3F4F2F
:1026400096E0359527959A95E1F7620F1F910F91C6
:1026500008950F931F93A42F10E0F801EE0FFF1FB2
:10266000E05AFE4F9081905797FD9195000F111FF2
:10267000F801EF59FE4F00810052110B2003A00119
:10268000219F500D112428E330E0291B310997FDCB
:1026900033951A2F1203F001139FF00D11244E0FE2
:1026A0005F1F9A01220F331F240F351F37FF02C00F
:1026B00021583F4F220F232F221F330B620F1F91F0
:1026C0000F9108950F931F93CF93DF93D62F072F6A
:1026D000182FC42F822F0E94EC11982FEC2FF0E0BE
:1026E000EE0FFF1FE05AFE4F80818058980F97FD34
:1026F0009195990F292F3CE0239F212D1124622FC2
:102700006D0F702F812FDF91CF911F910F91089541
:10271000E42FF0E0EE0FFF1FE05AFE4F9081921B76
:1027200097FD9195292F38E1239F212D1124620FC8
:1027300008954095282F429F412D1124842F0895FC
:10274000409520E4429F412D1124640F0895EF929B
:10275000FF920F93970195E0099F200D311D1124E1
:102760002F3F310519F010F02FEF30E02095382F72
:10277000320F08F43FEF832F0F91FF90EF900895F1
:10278000EF92FF920F93E00EF11CF90137FF03C0A7
:10279000F195E195F10924E0EE0FFF1F2A95E1F78D
:1027A000EF3FF10519F014F0EFEFF0E09A0157FF59
:1027B00003C031952195310994E0220F331F9A957A
:1027C000E1F72E173F070CF4F901EE0DFF1DEF3F67
:1027D000F10519F010F0EFEFF0E02E2F2095382FD3
:1027E000320F08F43FEF832F0F91FF90EF90089581
:1027F000EF92FF920F93972FFA01B90197010934D5
:1028000030F4201B31092F3F310519F010F02FEF64
:1028100030E03896719740F0AB01485F5F4F41312F
:10282000510510F02FEF30E02095382F320F08F4CB
:102830003FEF832F77FF02C06D5F7F4F75956795E0
:102840007595679520915E04620F792F0F91FF9027
:10285000EF900895EF92FF920F939701201B31099B
:102860002F3F310519F010F02FEF30E0322F309567
:10287000482F430F08F44FEF842F620F0F91FF9002
:10288000EF900895EF92FF920F939701201B31096B
:102890002F3F310519F010F02FEF30E02095382F41
:1028A000320F08F43FEF832F0F91FF90EF900895C0
:1028B00090919E03982B90939E030895FC019B0199
:1028C000009719F4832F80780895AC0197FF04C016
:1028D00044275527481B590BB901640F751F37FD55
:1028E0000FC0C901841B950BA5E0880F991FAA95FD
:1028F000E1F70E946D2B80E2861BF7FD819508951C
:10290000CB0165E0880F991F6A95E1F7BA01621B58
:10291000730B0E946D2B80E6EFCF0F931F93CF9325
:10292000DF93D62F172FC82FBA01C901212F201BE3
:10293000022F0E945E14982F990F990F782F791B00
:10294000700F719F712D11246D2F8C2FDF91CF91FE
:102950001F910F910895FF920F931F93CF93DF93D1
:10296000D62FC72F182FBA01C901F12EF01A0E94D5
:102970005E14982F990F990F082F091B0F0D019FB7
:10298000012D11246D2F7C2F802FCDB7DEB7E5E010
:102990000C94F12BEF920F931F93CF93DF93D62FCD
:1029A000172FC82FBA01C9010E19010F0E945E141A
:1029B000702F781B719F712D11246D2F8C2FDF913B
:1029C000CF911F910F91EF900895EF920F931F9366
:1029D000CF93DF93D62FC72F182FBA01C9010E1935
:1029E000010F0E945E14081B019F012D11246D2F01
:1029F0007C2F802FDF91CF911F910F91EF90089541
:102A00000F93CF93DF93D72FC82FBA01C9010E942C
:102A10005E14682F600F7D2F8C2FDF91CF910F9167
:102A20000895EF920F93CF93DF93D72FC82FBA015A
:102A3000C9010E190E945E14602F681B7D2F8C2F18
:102A4000DF91CF910F91EF90089548E050E067E15A
:102A500070E08DE594E00E943A2C10929E03089558
:102A60000E9499110895A0E0B0E0E9E3F5E10C942B
:102A7000CB2B882E762E062F10E020E1829FC001FE
:102A800011249C0120503F4FF901E00FF11FC0813C
:102A9000CF3FB1F1A12CB12C612CD0E09E01220FCF
:102AA000331FA901405A5E4F6A01E901CF59DE4F39
:102AB00083539C4F080F191F7501912C88E2582EE3
:102AC000F701E050FF4F20812F3F59F086101DC0C5
:102AD00079101BC0F801208130E2230F08F42FEF9A
:102AE000208393947FEFE71AF70A80E19812E8CFEA
:102AF0006394E0E1AE0EB11CF0E6AF16B104E1F66E
:102B0000CDB7DEB7EFE00C94E72B30E0F601408163
:102B1000F901EE0FFF1FE05AFE4F8081481B550B55
:102B20008881220F331FF901EF59FE4F9081682FE2
:102B3000691B770B9B01449FB001459F700D700D81
:102B40001124229FC001239F900D900D1124860F08
:102B5000971F0E94A711382F893218F6252D231BA5
:102B600008F420E0F701E353FC4F213108F020E1A5
:102B70003081320F08F43FEF3083B3CFEDE5F4E05E
:102B800089E680838091880290918902A0918A02CF
:102B900081839283A3838FE784838FEF85830E9451
:102BA0002515089580E008950F931F93CF93DF9329
:102BB000C82FD62F8A010E94D21590E1C99F90019B
:102BC000112420503F4FF901ED0FF11D90819F3FDF
:102BD00029F0F801E80FF11D90838F5FDF91CF910D
:102BE0001F910F910895E091AF02F091B002099505
:102BF0000895E091AB02F091AC02099508951F93FE
:102C0000CF93DF93EC01FC01EA5EFD4F80816823E6
:102C10006623B1F00E94D711182F0E94D71120E827
:102C2000829FC00111247FE7790F612F809160049A
:102C30000E943015462F672F282FCE010E94F915CC
:102C4000DF91CF911F910895A0E0B0E0EAE2F6E1B4
:102C50000C94D32BEC01FC01EA5EFD4F80816823CC
:102C6000662349F1D0905F040091600410915E04E6
:102C7000E12EF12C0E94D711482FC7018C549F4F91
:102C800068E671E00E946D2B8E199F0997FD0396EF
:102C900095958795959587954370612F489F600D11
:102CA00011247D2D802F0E943015462F672F282F4D
:102CB000CE010E94F915CDB7DEB7E7E00C94EF2BFB
:102CC000E091AD02F091AE0209950895A8E0B0E060
:102CD000ECE6F6E10C94D02BE82EB62EA42E0E9442
:102CE000DF0C882309F457C0F12CAA2041F0AE0173
:102CF0004F5F5F4F6B2D8E2D0E94D415F82E0F2D38
:102D000010E080919F03800F912F911D09976CF126
:102D100088E090E06C01C01AD10AB80160567C4F7F
:102D2000A60180EA93E00E940C2CB80168557C4F04
:102D3000A60188EA93E00E940C2CA601440F551FBF
:102D4000B801660F771F68547C4F88EB93E00E94B0
:102D50000C2CB80160557C4FA60180EB93E00E94DB
:102D60000C2C88E08F1980939F0310919F03DE0144
:102D7000119640E0242F210FF41211C020939F03DD
:102D8000AA2049F080915D048C7F883621F46B2D58
:102D90008E2D0E9433152896EAE00C94EC2B5D9161
:102DA000852F90E030E0B90161567C4FFC01EE0FB9
:102DB000FF1FE05AFE4F0081FB010183880F991F1E
:102DC000FC01EF59FE4F8081FB018187518BF90196
:102DD000EE0FFF1FE156FC4F128E118E4F5FCACFD0
:102DE00081E008950E94F016089593E1899F802D57
:102DF0001124980F9C3508F09BE50895A0E0B0E001
:102E0000E4E0F7E10C94CA2B3C012B01FC0180812A
:102E10000E94F516C82F192F609161046695809164
:102E20006504909166040E949D11F82ED0E0CE01B9
:102E3000880F991F9C01205A3E4F6901C11748F025
:102E400081E01B3508F080E0CDB7DEB7E0E10C94FF
:102E5000E62BFE01EA5EFD4F8081F301918189231B
:102E6000882379F1F6018081282F2057330B5901EF
:102E70008181E82FE052FF0B4F01AA9C9001AB9C8F
:102E8000300D300D1124EE9FC001EF9F900D900D7D
:102E90001124820F931F0E94A711082F60915E04D6
:102EA00070915F0480916004EF2C9401A501F20100
:102EB00009950E943015462F672F282FCE010E94BA
:102EC000F915F2E0CF0ED11C2196B8CF6AEC74E16F
:102ED0000E94FE16089565EE74E10E94FE160895A4
:102EE00062E972E10E94FE16089561E175E10E94B7
:102EF000FE1608958F929F92BF92CF92DF92EF922B
:102F0000FF920F931F93CF93DF936C014B01FC0152
:102F100080810E94F516C82F192F60916104669573
:102F200080916504909166040E949D11B82ED0E0B6
:102F3000CE01880F991F9C01205A3E4F7901C1177D
:102F400080F081E01B3508F080E0DF91CF911F9188
:102F50000F91FF90EF90DF90CF90BF909F908F9058
:102F60000895FE01EA5EFD4F8081F601918189237B
:102F70008823C1F0F70121812052330B4081405753
:102F8000550B60915E0470915F04809160040B2D7D
:102F9000F40109950E943015462F672F282FCE0186
:102FA0000E94F915F2E0EF0EF11C2196C8CF6DE8F2
:102FB00074E10E947A1708956BEA74E10E947A170F
:102FC000089563EA72E10E947A17089560E075E15E
:102FD0000E947A170895A0E0B0E0E1EFF7E10C94C9
:102FE000D22B7C016B01FC0180810E94F516C82F59
:102FF000192F609161046695669521E0620F08F4CF
:103000006FEF80916504909166040E949D11082FD6
:10301000D0E0C11748F081E01B3508F080E0CDB763
:10302000DEB7E8E00C94EE2BFE01EA5EFD4F8081F6
:10303000F70191818923882391F060915E0470915A
:103040005F0480916004202F4C2FF60109950E94A7
:103050003015462F672F282FCE010E94F915219693
:10306000D8CF6BE072E10E94EB17089567E372E13D
:103070000E94EB17089565E672E10E94EB17089530
:1030800067E672E10E94EB17089560E772E10E9423
:10309000EB17089569E772E10E94EB17089562E665
:1030A00073E10E94EB17089568E873E10E94EB1743
:1030B0000895A4E0B0E0EFE5F8E10C94D02B6C01AA
:1030C0005B01FC0180810E94F5168B83F92E6091D3
:1030D00061046695669580916504909166040E94EE
:1030E0009D11182F80E4810F0E94EC118058898374
:1030F000812F0E94EC1180588A839B81892F90E058
:103100009C838B839B819F1548F081E0EAE5EF1556
:1031100008F480E02496EAE00C94EC2BEB81FC812F
:10312000EA5EFD4F8081F601918189238823A9F011
:1031300060915E0470915F0480916004E12E0B81C8
:103140002A814981F50109950E943015462F672F84
:10315000282F8B819C810E94F9158B819C8101967F
:10316000CFCF6CEC72E10E94591808956AEF72E1BA
:103170000E945918089569E273E10E945918089550
:10318000A0E0B0E0E6ECF8E10C94CF2B8C017B01E1
:10319000FC0180810E94F516C82FB92E2091610490
:1031A00031E0230F08F42FEF30E040E050E06FEF04
:1031B0007FEF80E090E00E94A32B6901D0E0A22E77
:1031C0009D2C2C2FCB1550F081E0FAE5FB1508F46F
:1031D00080E0CDB7DEB7EBE00C94EB2BFE01EA5EAE
:1031E000FD4F8081F80191818923882319F1409155
:1031F00069044150042E000C550B47FF1DC08A2D59
:10320000992D6091610421E0620F08F46FEF0E9434
:103210009D11AC0160915E0470915F048091600427
:10322000F70109950E943015462F672F282FCE01F0
:103230000E94F9152196C5CFFA01E759FB4F818904
:1032400082130AC0FA01EE0FFF1FE759FB4F818D71
:10325000928D8C159D05A8F241505109CECF69E998
:1032600073E10E94C018089560EA73E10E94C018DB
:103270000895AAE0B0E0EFE3F9E10C94C82B382EF2
:103280002B0149835A83FB0180810E94F5169D839F
:10329000F0916904FE83282F30E03A872987C9011D
:1032A000880F991FFC01E05AFE4F6F01832D90E0BB
:1032B0009C012F5F3F4F38872F838D819985981709
:1032C00048F081E0ED81EB3508F080E02A96E2E1FC
:1032D0000C94E42BE985FA85EA5EFD4F8081F201CA
:1032E00091818923882309F1F0915E04FB83209169
:1032F0005F042C838F81988587599B4F3C01232C39
:1033000010E0FE812F16D8F020916004129F112D3D
:1033100011246B817C81812F0E943015462F672FED
:10332000282F89859A850E94F91529853A852F5F6E
:103330003F4F3A87298732E0C30ED11CBECFF3013D
:1033400081913F01F601A080A81ABB088180F3019A
:103350008781881A9908AA9C9001AB9C300D300D8A
:103360001124889CC001899C900D900D1124820F1E
:10337000931F0E94A711082F6091610421E0620F42
:1033800008F46FEFF301EE0FFF1FE956F440858953
:1033900096890E949D117C019401A5016B817C811D
:1033A000812FE981FA8109956B837C83182F2394FF
:1033B000A8CFBC012091690431E0231B08F420E070
:1033C00047EA53E1822F0E9439190895BC0147EA68
:1033D00053E180E00E9439190895BC0120916904ED
:1033E00031E0231B08F420E040EC53E1822F0E94DF
:1033F00039190895BC0140EC53E180E00E9439196D
:103400000895BC012091690431E0231B08F420E0F9
:1034100048EF53E1822F0E9439190895BC0148EF0B
:1034200053E180E00E9439190895BC01209169049C
:1034300031E0231B08F420E04AE254E1822F0E948D
:1034400039190895BC014AE254E180E00E9439191B
:103450000895BC012091690431E0231B08F420E0A9
:1034600042E454E1822F0E9439190895BC0142E4DC
:1034700054E180E00E9439190895A0E0B0E0E3E44F
:10348000FAE10C94D22B7C01FC0180810E94F5169C
:10349000C82F192F60915E0470915F0480916004C1
:1034A0000E943015062FD72EC82ED0E0C11748F045
:1034B00081E01B3508F080E0CDB7DEB7E8E00C9482
:1034C000EE2BFE01EA5EFD4F8081F7019181892399
:1034D000882331F02C2D402F6D2DCE010E94F9153F
:1034E0002196E4CFA0E0B0E0E8E7FAE10C94D12B1C
:1034F0006C01FC0180810E94F516F92EE0905F04BA
:10350000B09060042091610400E4029F012D112419
:10351000C82FD0E010E0CF1550F081E09AE59F155C
:1035200008F480E0CDB7DEB7E9E00C94ED2BFE01A6
:10353000EA5EFD4F8081F601918189238823E9F0BD
:10354000FE01EE0FFF1FE05AFE4F2081209FC001B9
:10355000219F900D112425E0959587952A95E1F7F7
:1035600060915E04680F7E2D8B2D0E943015462FD2
:10357000672F282FCE010E94F9152196CCCFA0E00D
:10358000B0E0E5ECFAE10C94D22B7C01FC018081E7
:103590000E94F516C82F192F00915E04D0915F0488
:1035A000D0906004609161046695669566958091FF
:1035B0006504909166040E949D110E94EC11805850
:1035C00087FD8195880F282F3D2D239F212D1124C4
:1035D000822F602F7D2F0E943015062FD72EC82EE8
:1035E000D0E0C11748F081E01B3508F080E0CDB78E
:1035F000DEB7E8E00C94EE2BFE01EA5EFD4F808121
:10360000F70191818923882331F02C2D402F6D2DD6
:10361000CE010E94F9152196E4CFCF92DF92FF925E
:103620000F931F93CF93DF938C01FC0180810E9445
:10363000F516F92EF801928191112DC06091610467
:1036400020E1620F08F46FEF8091650490916604A9
:103650000E949D116AE070E00E94592B892B71F441
:103660000E94D711FBE58F9F90011124F801618121
:10367000832F932F990F990B0E94241681E0FAE56E
:10368000FF1508F480E0DF91CF911F910F91FF901B
:10369000DF90CF900895C82FD0E0CF2CD12CCC153F
:1036A000DD0564F7F8016181CE010E9424162196A0
:1036B000F6CFCF92DF92FF920F931F93CF93DF93BA
:1036C0008C01FC0180810E94F516F92EF80192818F
:1036D00091112DC06091610420E1620F08F46FEF39
:1036E00080916504909166040E949D1165E070E0F0
:1036F0000E94592B892B71F40E94D711FBE58F9FF3
:1037000090011124F8016181832F932F990F990B58
:103710000E94FF1581E0FAE5FF1508F480E0DF91D3
:10372000CF911F910F91FF90DF90CF900895C82FF8
:10373000D0E0CF2CD12CCC15DD0564F7F8016181E8
:10374000CE010E94FF152196F6CFA0E0B0E0EBEA93
:10375000FBE10C94D22B8C01FC0180810E94F516B8
:10376000C82FF92ED0905F04E0906004D0915E04E1
:103770006091610466956695669580916504909167
:1037800066040E949D110E94EC1120E8280F27FD7D
:103790002195220F3CE0239F212D11246D2F620FD4
:1037A0007D2D8E2D0E949911E62ED72EC82ED0E0A9
:1037B000CF1550F081E09AE59F1508F480E0CDB771
:1037C000DEB7E8E00C94EE2BFE01EA5EFD4F80814F
:1037D000F80191818923882331F02C2D4E2D6D2DF8
:1037E000CE010E94F9152196E3CFA0E0B0E0EBEF07
:1037F000FBE10C94CA2BEC0188810E94F516582E2F
:10380000092F8A81882361F040E060E080E00E9417
:103810006016EDECF3E080E6DF011D928A95E9F792
:103820008881882399F1C12CD12C612C9AEA492EE8
:10383000760180E1782EF701E050FF4F5F01E081D3
:10384000E51558F0E01748F4F0E0EA5EFD4F80819E
:1038500099818923811133C063947A94BFEFEB1A65
:10386000FB0A7110E8CFE0E5CE16D10431F0F0E1AB
:10387000CF0ED11C22E12615D8F681E00B3508F0D9
:1038800080E0CDB7DEB7E0E10C94E62B80912E040A
:1038900090912F040E946D249C0181E02931310513
:1038A00008F480E080932D042931310508F4BBCF62
:1038B0000E94442490932F0480932E04B4CFC70118
:1038C00083539C4F4C01DC011C91612F25E5621B49
:1038D00008F460E0842D861B682F70915F04242D0E
:1038E000210F08F42FEF30916004822F880F820F90
:1038F0008E5F282F239F212D1124822F0E943015A7
:10390000462F672F282FD5018C9190E00E94F91542
:1039100080912D04882309F49FCF21E0121B08F425
:1039200010E0D4011C9398CFCF93C82F80917902D7
:103930008C1325C020915D04237030E040917A0201
:1039400050E081E02417350709F480E0817080930E
:1039500078028091620490917702981739F08093F1
:10396000770240E060E080E00E946016C73208F015
:10397000EEC0EC2FF0E0E059F34D0C94C22B81E047
:10398000E5CF80917802882309F4EAC040E060E046
:1039900080E00E946016809176028F5F80937602AD
:1039A00082E08093750280917802882309F4DDC05B
:1039B000CF91089586E792E00E943D1A9091760299
:1039C0009F5F909376028111F3CF82E0809375021E
:1039D000809178028111ECCFCC23E8CF86E792E08A
:1039E0000E94721AEBCF86E792E00E94BF1AE6CFE0
:1039F00086E792E00E943118E1CF86E792E00E94CC
:103A00003618DCCF86E792E00E94D717D7CF86E73B
:103A100092E00E94DC17D2CF86E792E00E94661700
:103A2000CDCF86E792E00E946B17C8CF86E792E081
:103A30000E943B18C3CF86E792E00E944018BECF99
:103A400086E792E00E944518B9CF86E792E00E948F
:103A50004A18B4CF86E792E00E947017AFCF86E78E
:103A600092E00E94E117AACF86E792E00E94E61753
:103A7000A5CF86E792E00E947517A0CF86E792E077
:103A80000E94B1189BCF86E792E00E94B61896CFAD
:103A900086E792E00E94BB1891CF86E792E00E94F1
:103AA0000D1B8CCF86E792E00E94591B87CF86E7DB
:103AB00092E00E94A51B82CF86E792E00E944F18F9
:103AC0007DCF86E792E00E94541878CF86E792E097
:103AD0000E94F51B73CF86E792E00E942F196ECFEC
:103AE00086E792E00E94341969CF86E792E00E944F
:103AF000D91964CF86E792E00E94E6195FCF86E786
:103B000092E00E94ED195ACF86E792E00E94FA19DE
:103B100055CF86E792E00E94011A50CF86E792E0E7
:103B20000E940E1A4BCF86E792E00E94151A46CFEC
:103B300086E792E00E94221A41CF86E792E00E9437
:103B4000291A3CCF86E792E00E94361A37CF80913F
:103B500076028F5F8093760282E08093750228CF91
:103B6000809176028F5F8093760283E0F6CF81E0CA
:103B700008950E94B71D0895FC01808181500E9424
:103B8000F516692F0E94B91D08954F925F926F92AA
:103B90007F928F929F92AF92BF92CF92DF92EF92DD
:103BA000FF92CF93DF9300D000D0CDB7DEB78091E6
:103BB000C8039091C903A091CA03B091CB03898334
:103BC0009A83AB83BC83BC01CD010E947C246B0132
:103BD0007C010E9450246093C8037093C9038093B2
:103BE000CA039093CB03A0919F03EFE9F3E02A2F40
:103BF00030E088248A94982CA12CB12C8C189D0834
:103C0000AE08BF08A3132FC020939F032091CC03BD
:103C100021113CC020915D04A22FA370A983AA2387
:103C200019F026952695298320917502223009F4F2
:103C300055C070F5211141C0109276026093650461
:103C400070936604809367049093680489E2EFE9B7
:103C5000F3E0A9E6B4E001900D928A95E1F781E0E6
:103C60008093750217C0418D528D2A01612C712CF1
:103C700084149504A604B70420F421503F5F3296C3
:103C8000C1CF4C0D5D1D528F418FF8CF1982CCCF23
:103C9000233081F10F900F900F900F90DF91CF9113
:103CA000FF90EF90DF90CF90BF90AF909F908F905C
:103CB0007F906F905F904F90089589810E94941C2F
:103CC000B981BB2339F380917502823011F40E94CF
:103CD000F21686E792E00E94BC1DDCCF398130935A
:103CE000790280915D04837080937A020E94F315BB
:103CF00083E0B6CF80919E0381110E9425158091AB
:103D0000650490916604A0916704B0916804BC01B9
:103D1000CD010E947C2469837A838B839C836031EC
:103D200071058105910508F4B5CF10927502B2CFE7
:103D3000E091A902F091AA0209951092690440E16C
:103D400050E06FEF70E082E894E00E94152C109232
:103D50009F0340E150E06FEF70E088EB93E00E943A
:103D6000152C81E080939E0348E050E067E170E00D
:103D70008DE594E00E941C2C10929E0380915D04BE
:103D8000843010F40E94BE150895CF93C82F882365
:103D900091F08091CC0381110EC00E94941C10926E
:103DA000790280915D04837080937A020E94F315FA
:103DB00083E080937502C093CC03CF910895EDE525
:103DC000F4E0908121E092279083109275020E9486
:103DD0005814089581E00E94DF1E0895982F862FC1
:103DE00020915D042370222389F0992381F097327A
:103DF00080F49F73990F990F20915D042370922B8B
:103E000090935D04109275020E945814089591E0F9
:103E1000F1CF96E2EFCF61E00E94EE1E0895682F89
:103E200080915D04869586958F5F873208F081E0EA
:103E30000E94EE1E089581E00E940F1F0895682FD2
:103E400090915D04969596958FEF890F913009F4C6
:103E500086E20E94EE1E089581E00E941F1F0895D1
:103E6000982F822F20915D042370222359F0909384
:103E70005E0460935F04453B08F044EB40936004AC
:103E80000E9458140895282FEDE5F4E09181892FC0
:103E900090E04381628108960E94301F089581E07E
:103EA0000E94431F0895282FEDE5F4E081814381AE
:103EB00062818850990B0E94301F089581E00E9412
:103EC000531F0895282FEDE5F4E0628130E1630F80
:103ED00008F46FEF8181438190E00E94301F0895C4
:103EE00081E00E94621F0895282FEDE5F4E06281D1
:103EF00030E1631B08F460E08181438190E00E941F
:103F0000301F089581E00E94741F0895282FEDE569
:103F1000F4E0438130E1430F08F44FEF8181628187
:103F200090E00E94301F089581E00E94861F08954E
:103F3000282FEDE5F4E0438130E1431B08F440E035
:103F40008181628190E00E94301F089581E00E948B
:103F5000981F0895EDE5F4E0248130E1230F08F483
:103F60002FEF24830E945814089581E00E94AA1F15
:103F70000895EDE5F4E0248130E1231B08F420E00E
:103F800024830E945814089581E00E94B91F089567
:103F9000CF93DF93DC01FC01EE0FFF1FEF01CA0F8F
:103FA000DB1FCE56DB4F8981861306C088818413C0
:103FB00003C08A81821751F081E080933004EA0FB8
:103FC000FB1FEE56FB4F618340832283DF91CF912D
:103FD0000895FF920F931F93CF93DF93182F062F0F
:103FE000F42EC0E0D0E02F2D402F612FCE010E9493
:103FF000C81F2196CB35D105B1F7CDB7DEB7E5E0C7
:104000000C94F12B80913004882341F06BE570E033
:1040100082E994E00E947A201092300408950E9470
:104020007820109230040895FA01882311F0099540
:104030000895FB01FCCF1F93CF93DF93EC01FB01AD
:104040001581111153C00E94C30A8272FE01E05211
:10405000F847E531F10508F049C0E956F34D0C94F5
:10406000C22B0E94EA1E812FDF91CF911F910895EC
:104070004CE25FE16BE17FE10E941420F4CF4BE161
:104080005FE16CE27FE1F8CF4EE55FE16FE47FE155
:10409000F3CF4FE45FE16EE57FE1EECF42E85FE111
:1040A00060E77FE1E9CF40E75FE162E87FE1E4CFED
:1040B00046EA5FE164E97FE1DFCF44E95FE166EA78
:1040C0007FE1DACF44EC5FE165EB7FE1D5CF45EBF3
:1040D0005FE164EC7FE1D0CF81E00E940B1FC3CF92
:1040E00083E0FBCF8BE0F9CF80E1F7CF11E0BBCFCE
:1040F0006E9A08959C01AB016EB16F7B7EB17064C6
:10410000EFB7F894CA01880F991F840F951F820F8B
:10411000931F8217930741F4EFBF8FE594E0019757
:10412000F1F700C000000895D9014D919D0158E0BC
:104130007EB9000000C047FF6EB9440F000000C008
:1041400000C000C06EB900C05A9591F7E2CF0E943E
:10415000EC0B089580E00E949F0F817008950E94EB
:1041600068102FEF86E791E0215080409040E1F702
:1041700000C000000E9468100E94AA20882321F03D
:104180000E94A7200E94C02408950E94AF20089595
:10419000CF93DF93EB0186319C4719F50E94C30A48
:1041A0009D819923A1F08A7A91E0811101C090E06C
:1041B00090933104882349F085E30E945A230E949A
:1041C0007D0B80E0DF91CF91089589E2F6CF809159
:1041D0003104882321F085E30E947123F0CF89E226
:1041E000FBCF81E0EFCFCF93DF93EC01FB01858123
:1041F000882309F4D2C09E0130572332310508F0DC
:10420000B2C00E94080C9093440480934304FE01C2
:10421000E150F047E232F10520F4E455F34D0C94FF
:10422000C22B8091430481608093430493C08091AA
:1042300044048860809344048DC08091430482606C
:10424000F3CF809143048460EFCF80914304886072
:10425000EBCF809144048160EDCF80914404826073
:10426000E9CF809143048061DFCF80914304806275
:10427000DBCF809143048064D7CF0E9455068091A4
:1042800043048068D1CF809143048C60CDCF80916E
:1042900044048360CFCF809143048E7FC5CF80914B
:1042A0004404877FC7CF809143048D7FBDCF809129
:1042B00043048B7FB9CF80914304877FB5CF809132
:1042C00044048E7FB7CF809144048D7FB3CF80911B
:1042D00043048F7EA9CF809143048F7DA5CF809129
:1042E00043048F7BA1CF0E945506809143048F77B2
:1042F0009BCF80914304837F97CF809144048C7F30
:1043000099CF8091430482FB992790F921E092276D
:1043100090FB82F990FB83F987CF80914404982F1A
:10432000909591708E7F892B90FB81F983CF90912E
:104330004304892F8F7B96FF806476CF0E945506B9
:1043400090914304892F97FB87F980586DCF81E0C6
:104350000E94910C80914304909144040E940D0CA2
:104360000E94550680E0DF91CF91089580E0F0CF64
:1043700090914304892F8F7E94FF806155CF909157
:104380004304892F8E7F90FF81604ECF909144042B
:10439000892F877F93FF88604DCF81E0E4CF0F9313
:1043A0001F93CF93DF93C42FD22FFC0185818823E5
:1043B000C9F0409334040E944424909333048093C2
:1043C000320480E28C0F883040F4C77081E001C075
:1043D000880FCA95EAF70E941904DF91CF911F91C7
:1043E0000F9108951091340414133CC0809132044D
:1043F000909133040E946D24883C910598F5C0E2A9
:10440000CD0F1D1741F180E2810F883040F4177005
:1044100081E001C0880F1A95EAF70E942004C83095
:1044200020F0802F0E941004D8CF91E08D2F87704C
:1044300001C0990F8A95EAF7892F0E941904802FED
:104440000E941004D77081E001C0880FDA95EAF766
:104450000E942004C2CF802F0E941004C83008F0B0
:10446000BCCFF0CF80E28C0F883008F0B6CFC77099
:1044700081E001C0880FCA95EAF7EACF0F93FC01EB
:10448000CB01E851FC47E730F10590F5E253F34DDD
:104490000C94C22B06E221EE41EE6AE17CE70E9419
:1044A000CF2180E00F91089507E225EE45EE6BE104
:1044B0007CE7F5CF06E221EE40EE68E17CE7EFCF46
:1044C00007E225EE44EE69E17CE7E9CF06E221EE62
:1044D00042EE6CE17CE7E3CF07E225EE46EE6DE1CC
:1044E0007CE7DDCF08E221E045EE6EE17CE7D7CF47
:1044F000FB01858181111092340481E0D3CF909328
:104500003604809335040895E0913504F091360423
:10451000309729F00190F081E02D0995089580E011
:104520000895E0913504F0913604309721F002802F
:10453000F381E02D09950895DC01E0913504F091B7
:104540003604309739F086E08C930480F581E02DB5
:10455000CD010995089520917302309174022E5F68
:104560003F4F809187028823A9F08091430487FF01
:1045700011C020917102309172022E5F3F4F9DE178
:1045800080E0F90140812F5F3F4F41118F5F9150D3
:10459000C0F7089595E0F4CF882321F19091870228
:1045A000992311F19091430497FF1EC0982F96957F
:1045B00096959695803FB0F4E0917102F091720269
:1045C000E90FF11D228130E0877041E050E0BA012F
:1045D00002C0660F771F8A95E2F72623372381E012
:1045E000232B91F480E0089520917302309174029E
:1045F000F9013296285F3F4F9191981721F0E21709
:10460000F307D1F7EFCF81E008959C01FC013296CA
:104610008FEF90E04191461751F08F3F19F441110F
:1046200001C0892F9F5F9630A9F78F3F09F4089545
:10463000280F311D87FD3A95F901628308959C0189
:10464000FC013296285F3F4F8191861303C0DF0142
:1046500011971C92E217F307B9F70895FC01862F12
:10466000869586958695603F60F4E80FF11D67702A
:1046700021E030E001C0220F6A95EAF78281822BA7
:1046800082830895FC01862F869586958695603FE6
:1046900080F4E80FF11D677081E090E09C0102C09A
:1046A000220F331F6A95E2F7B90160958281682372
:1046B00062830895682F80918702882359F0809142
:1046C000430487FF07C080917102909172020E949B
:1046D0002E23089580917302909174020E94052305
:1046E0000895682F80918702882359F080914304B0
:1046F00087FF07C080917102909172020E9442234D
:10470000089580917302909174020E941F2308956E
:1047100080918702882379F08091430487FF0BC042
:10472000E0917102F091720232968EE1DF011D92EA
:104730008A95E9F70895E0917302F0917402329638
:1047400086E0F4CF08950E94A22308958F5F80939E
:1047500037040E94A323089583E0809337040E94C6
:10476000A32308950E94A623089581E0809337042F
:104770000E94A32308950E94B523089508950895E3
:104780000E94BF230895089508950E94BE230895AE
:10479000CF930E94C3230E9468100E94C423C0E0EC
:1047A0008C2F0E949F0F892B31F4CF5FC630C1F749
:1047B00080E0CF91089581E0FCCF85B7806885BF08
:1047C00085B7806885BF08951F921FB61F92112478
:1047D0008F939F93AF93BF9380913804811113C03F
:1047E0008091A3059091A405A091A505B091A6057F
:1047F0004196A11DB11D8093A3059093A405A0939C
:10480000A505B093A605BF91AF919F918F911F9081
:104810001FBE1F9018958091AB05843031F10E9426
:1048200036031092380488E190E020E40FB6F89443
:10483000A895809360000FBE2093600083B7817FAE
:10484000846083BF83B7816083BF7894889583B782
:104850008E7F83BF0FB6F894A89580916000886121
:1048600080936000109260000FBE08950E9455066C
:104870000E944003089582E084BD93E095BD9AEFC5
:1048800097BD80936E0008952FB7F8948091A3058B
:104890009091A405A091A505B091A6052FBF0895FC
:1048A000A4E0B0E0E6E5F4E20C94D82B8FB7F894DE
:1048B0002091A3053091A4054091A5055091A6052E
:1048C00029833A834B835C838FBF69817A818B8193
:1048D0009C812496E2E00C94F42B9C014FB7F89451
:1048E0008091A3059091A405A091A505B091A6057E
:1048F0004FBF821B930B0895A4E0B0E0E2E8F4E21E
:104900000C94D62B462F572FBC012FB7F8948091CB
:10491000A3059091A405A091A505B091A6052FBF70
:104920008C019D01041B150B260B370BC901B80127
:104930002496E4E00C94F22B78941F921FB61F92F9
:1049400011248F939F93AF93BF938091A305909170
:10495000A405A091A505B091A6050196A11DB11DC4
:104960008093A3059093A405A093A505B093A605F5
:10497000BF91AF919F918F911F901FBE1F9018956F
:1049800087E797E7909301088093000888E19AE011
:104990000FB6F894A895809360000FBE90936000C6
:1049A000FFCF88E19AE00FB6F894A8958093600055
:1049B0000FBE90936000FFCF809141040895089549
:1049C0000895282FCB01BA013091AB053430E1F4C2
:1049D0002F702093E9002FEF3091E80035FD07C0DC
:1049E00035ED3A95F1F7000021502111F5CF2091D6
:1049F000E80025FF09C040E050E00E94D7268091E2
:104A0000E8008E778093E8000895BC0140E250E012
:104A100082E00E94E1240895CF93DF93D82FC92F1D
:104A200048E050E0682F792F81E00E94E12488E07F
:104A3000ED2FFC2FA9E3B4E001900D928A95E1F7E8
:104A4000DF91CF9108958091AA05811109C00E943C
:104A50005F280E94BC288091E20084608093E2007D
:104A600008951092AA0508950E94B52308956091B3
:104A7000A70581E0611101C080E00E94AC23089588
:104A80009091AB0581E0943009F080E06091A7053A
:104A90000E94B223089542E061EC81E00E94DB278E
:104AA00042E261EC82E00E94DB279091AB0581E05D
:104AB000943009F080E06091A7050E94A623089534
:104AC0008091AD05893089F148F4823009F4A0C0A5
:104AD000833009F45AC0813041F008958A3009F4D6
:104AE00087C08B3009F46CC008958091AC05813A81
:104AF00009F04AC08091E800877F8093E8008091A8
:104B0000B0059091B105892B61F060E080E090E004
:104B100070E00E9426278091E8008B778093E80060
:104B2000089568E089E394E0F3CF8091AC05813289
:104B300059F58091B0059091B105029728F58091C3
:104B4000E800877F8093E8008091E80082FF18C02A
:104B50009091F3008091F200029731F48091F1007E
:104B6000813011F0863021F48091F100809341046E
:104B70008091E8008B778093E8000E940F2804C0A2
:104B80008091AB058111E0CF08958091AC05813A09
:104B9000D9F78091B0059091B105892BA9F7809143
:104BA000E800877F8093E8008091E80080FFFCCFD9
:104BB000809187028093F1008091E8008E77DBCFAF
:104BC0008091AC05813201F78091B0059091B105DB
:104BD000892BD1F68091E800877F8093E8000E94BE
:104BE0000F288091AE05809387020E945506089594
:104BF0008091AC05813241F68091E800877F8093F7
:104C0000E8000E940F288091AF0580934204089528
:104C10008091AC05813A09F0B7CF8091E800877F99
:104C20008093E8008091E80080FFFCCF80914204EF
:104C3000C1CF84B7877F84BF0FB6F894A8958091C1
:104C40006000886180936000109260000FBE80E871
:104C500090E00FB6F89480936100909361000FBECE
:104C60000E94BB2308950E945F280E94BC28E2EEA8
:104C7000F0E080818460808378940E943F2B0895C7
:104C80008DE792E00E947F2208958091AB058530E8
:104C900031F48091AB05853019F00E9436240895D7
:104CA0000E940B240E94C823882399F38091A905B0
:104CB000882379F30E94C1260E945506EACF089501
:104CC0009A014091B2055091B3050E94682608955B
:104CD000AC01CB01D901252F332723303105E1F079
:104CE00058F421303105C9F122303105D9F180E085
:104CF00090E020E030E01EC02132310521F1223267
:104D00003105A9F7892BC1F16130710581F78BE37A
:104D100090E025EA33E00EC0CA019927413069F0DE
:104D20008230910569F0E4E5F3E0892B01F7849185
:104D300090E09F012D933C930895E6E4F3E0F7CFD4
:104D4000ECE2F3E0F4CF892B91F06130710579F654
:104D500089E090E023E833E0EDCF82E190E023E9C1
:104D600033E0E8CF8BE390E028E533E0E3CF89E060
:104D700090E02AE633E0DECF84E490E020EE33E0FA
:104D8000D9CF80E189BD82E189BD09B400FEFDCFA4
:104D90008091D8008F7D8093D8008091E000826060
:104DA0008093E0008091E00081FDFCCF0895AF92F8
:104DB000BF92CF92DF92FF920F931F93CF93DF9317
:104DC0006C01EB018A010E942E28F82E811123C06C
:104DD0000115110539F0F80180819181C81BD90BAB
:104DE000C80ED91EA12CB12C2097A9F08091E80003
:104DF00085FD22C08091E8008E778093E800011540
:104E00001105A1F0F801808191818A0D9B1D91838C
:104E1000808385E0F82E8F2DDF91CF911F910F9128
:104E2000FF90DF90CF90BF90AF9008950E942E2802
:104E30008823E1F2F82EEFCFF60181916F01809384
:104E4000F1002197FFEFAF1ABF0ACECFFC019B0103
:104E50008091B2059091B3058617970718F0672BDC
:104E600061F0C90140E0009771F441110CC08091DC
:104E7000E80082FF35C080E008958091E8008E77D9
:104E80008093E800EECF2091AB052223A9F12530D5
:104E9000A9F12091E80023FD2DC02091E80022FD1A
:104EA000E6CF2091E80020FFDECF3091F300209183
:104EB000F200009719F02830310558F041E0283011
:104EC000310509F040E02091E8002E772093E800BA
:104ED000CACF41914093F10001972F5F3F4FE9CF37
:104EE0008091AB05882341F0853041F08091E80046
:104EF00083FFBDCF81E0089582E0089583E00895A7
:104F0000FC019B018091B2059091B305861797072C
:104F100018F0672B61F0C90140E0009771F441116E
:104F20000CC08091E80082FF36C080E00895809137
:104F3000E8008E778093E800EECF2091AB05222326
:104F4000B1F12530B1F12091E80023FD2EC0209170
:104F5000E80022FDE6CF2091E80020FFDECF30916F
:104F6000F3002091F200009719F02830310558F035
:104F700041E02830310509F040E02091E8002E772B
:104F80002093E800CACF44914093F10031960197F5
:104F90002F5F3F4FE8CF8091AB05882341F08530EC
:104FA00041F08091E80083FFBCCF81E0089582E06A
:104FB000089583E00895982F973028F08F7080939C
:104FC000E90081E008959093E900242F762F50E0C6
:104FD000981731F07091EC002091ED005091F000A5
:104FE00021FD02C09F5FE8CF3091EB003E7F309300
:104FF000EB003091ED003D7F3093ED003091EB0000
:1050000031603093EB007093EC002093ED005093EF
:10501000F0002091EE0027FDE5CF80E0089580911B
:10502000AC0587FF13C08091E80082FF06C0809125
:10503000E8008B778093E80004C08091AB05811174
:10504000F2CF08958091AB058823D9F38091E800D1
:1050500080FFF8CF8091E8008E77ECCF2091E400BC
:105060003091E50095E6A9018091EC0081708823DC
:1050700031F08091E80080FF06C080E00895209123
:10508000E80022FD1BC08091AB05882391F085309C
:1050900091F08091EB0085FD10C02091E4003091EB
:1050A000E5004217530701F391509111DCCF84E0E2
:1050B000089582E0089583E0089581E008950E94B4
:1050C000CE280E94D628E0EEF0E0808181608083C7
:1050D000E8EDF0E080818F77808319BCA7EDB0E028
:1050E0008C918E7F8C9380818F7E80831092AA0515
:1050F00008950F931F93CF93DF930E94CE280E94B1
:10510000D628C8EDD0E088818F7788838881806831
:10511000888388818F7D888319BC1092AB0510929B
:10512000A7051092A9051092A80500EE10E0F8015D
:1051300080818B7F808388818160888342E060E00A
:1051400080E00E94DB27E1EEF0E080818E7F8083AB
:10515000E2EEF0E0808181608083808188608083DE
:10516000F80180818E7F8083888180618883DF91D0
:10517000CF911F910F910895E8EDF0E080818F7E2F
:105180008083E7EDF0E080818160808384E082BFEE
:1051900081E08093AA050E9479280895E8EDF0E067
:1051A00080818E7F80831092E20008951092DA0051
:1051B0001092E10008951F920F920FB60F921124E2
:1051C0002F933F934F935F936F937F938F939F930F
:1051D000AF93BF93EF93FF938091E10082FF0BC0E9
:1051E0008091E20082FF07C08091E1008B7F809375
:1051F000E1000E943E2B8091DA0080FF19C080916F
:10520000D80080FF15C08091DA008E7F8093DA008D
:105210008091D90080FF94C080E189BD82E189BD81
:1052200009B400FEFDCF81E08093AB050E942325E9
:105230008091E10080FF19C08091E20080FF15C0DD
:105240008091E2008E7F8093E2008091E200806195
:105250008093E2008091D80080628093D80019BCCE
:1052600085E08093AB050E9437258091E10084FFA3
:1052700029C08091E20084FF25C080E189BD82E1E0
:1052800089BD09B400FEFDCF8091D8008F7D809349
:10529000D8008091E1008F7E8093E1008091E20050
:1052A0008F7E8093E2008091E20081608093E20033
:1052B0008091A705882309F449C084E08093AB0559
:1052C0000E9440258091E10083FF29C08091E20087
:1052D00083FF25C08091E100877F8093E10082E019
:1052E0008093AB051092A7058091E1008E7F80939B
:1052F000E1008091E2008E7F8093E2008091E200E5
:1053000080618093E20042E060E080E00E94DB2761
:105310008091F00088608093F0000E943425FF9116
:10532000EF91BF91AF919F918F917F916F915F911D
:105330004F913F912F910F900FBE0F901F90189596
:1053400019BC1092AB050E94312572CF8091E30009
:1053500087FF02C083E0B2CF81E0B0CF1F920F92EF
:105360000FB60F921124FF920F931F932F933F9329
:105370004F935F936F937F938F939F93AF93BF935D
:10538000CF93DF93EF93FF9309EE10E0F801808154
:10539000C091EC00C795CC27C7958F70FC2EF82ADA
:1053A0001082C0EFD0E08881877F888378940E9444
:1053B000F729F8011082888188608883CF2DCF700B
:1053C000C083FF91EF91DF91CF91BF91AF919F91FA
:1053D0008F917F916F915F914F913F912F911F918D
:1053E0000F91FF900F900FBE0F901F901895AAE29B
:1053F000B0E0EDEFF9E20C94D72B8CEA95E0FC01DC
:1054000001962091F100208325E0843B9207B9F7B3
:105410000E9460258091E80083FF38C08091AC0530
:105420009091AD059A3090F5E92FF0E0EB52F34DF5
:105430000C94C22B803889F0823841F58091B005F8
:105440008F70873018F58093E9008091EB0085FB21
:10545000882780F91092E90006C08091A8059091F4
:10546000A905911182609091E800977F9093E800E0
:105470008093F1001092F1008091E8008E7723C0B4
:10548000811116C08091AE05813011F18091E80044
:1054900083FF0AC08091E800877F8093E8008091B5
:1054A000EB0080628093EB00AA96E3E00C94F32B70
:1054B000823061F78091AE05882389F01092E9006F
:1054C0008091E800877F8093E8000E940F28DECF5C
:1054D00081E0933009F080E08093A905EFCF8091BF
:1054E000B0058F702FEF280F263080F68093E900EB
:1054F0002091EB0020FFE2CF933031F48091EB005C
:1055000080628093EB00DACF9091EB0090619093F2
:10551000EB0021E030E0A90102C0440F551F8A953D
:10552000E2F74093EA001092EA008091EB00886075
:10553000E8CF8111ABCF1091AE051F778091E300CA
:105540008078812B8093E3008091E800877F8093AF
:10555000E8000E940F288091E80080FFFCCF809136
:10556000E30080688093E30083E0111101C082E0D2
:105570008093AB058BCF8058823008F087CF809125
:10558000AE059091AF058C3D53E0950799F583E00A
:105590008A838AE289834FB7F894DE01139620E06C
:1055A0003EE051E2E32FF0E050935700849120FF5A
:1055B00003C082958F703F5F8F708A30C8F0895C1E
:1055C00090E08D939D932F5F243161F74FBF8091C1
:1055D000E800877F8093E8006AE270E0CE010196E0
:1055E0000E9426278091E8008B778093E8004ECFB9
:1055F000805DE6CF6091B0057091B105AE014F5F5F
:105600005F4F0E946026BC01892B09F43FCF809137
:10561000E800877F8093E80089819A810E94802733
:10562000E1CF803809F032CF8091E800877F809306
:10563000E8008091A7058093F1001ECF811126CF4D
:105640009091AE05923008F021CF8091E800877FDD
:105650008093E8009093A7050E940F288091A705EA
:10566000882331F084E08093AB050E944B250ECF58
:105670008091E30087FDF6CF81E0F5CF0895CF93C9
:105680008091AB05882399F08091E900C091EC00EE
:10569000C795CC27C7958F70C82B1092E9008091D1
:1056A000E80083FD0E94F729CF70C093E900CF91F5
:1056B0000895AA1BBB1B51E107C0AA1FBB1FA61759
:1056C000B70710F0A61BB70B881F991F5A95A9F7AB
:1056D00080959095BC01CD01089597FB072E16F497
:1056E000009407D077FD09D00E94592B07FC05D004
:1056F0003EF4909581959F4F0895709561957F4FE9
:105700000895A1E21A2EAA1BBB1BFD010DC0AA1F02
:10571000BB1FEE1FFF1FA217B307E407F50720F01A
:10572000A21BB30BE40BF50B661F771F881F991F95
:105730001A9469F760957095809590959B01AC01DE
:10574000BD01CF010895052E97FB1EF400940E9421
:10575000BA2B57FD07D00E94812B07FC03D04EF4D3
:105760000C94BA2B50954095309521953F4F4F4F53
:105770005F4F089590958095709561957F4F8F4FFD
:105780009F4F0895EE0FFF1F0590F491E02D0994AF
:105790002F923F924F925F926F927F928F929F9241
:1057A000AF92BF92CF92DF92EF92FF920F931F932F
:1057B000CF93DF93CDB7DEB7CA1BDB0B0FB6F894E0
:1057C000DEBF0FBECDBF09942A88398848885F8420
:1057D0006E847D848C849B84AA84B984C884DF8091
:1057E000EE80FD800C811B81AA81B981CE0FD11D75
:1057F0000FB6F894DEBF0FBECDBFED010895FB01DB
:10580000DC0104C08D910190801921F44150504079
:10581000C8F7881B990B0895FB01DC0102C00190B9
:105820000D9241505040D8F70895DC0101C06D93AE
:1058300041505040E0F70895DC01CB01FC01F9999B
:10584000FECF06C0F2BDE1BDF89A319600B40D92CC
:1058500041505040B8F70895F999FECF92BD81BDEF
:10586000F89A992780B50895A8E1B0E042E050E0A9
:105870000C941E2CDC01A40FB51F4150504048F081
:10588000CB01840F951F2E910E944B2C415050400C
:10589000D0F70895262FF999FECF92BD81BDF89AD1
:1058A000019700B4021639F01FBA20BD0FB6F89464
:1058B000FA9AF99A0FBE08950396272F0E944B2C4F
:1058C0000E944A2C252F0E944B2C242F0C944B2CE9
:1058D0000196272F0E944B2C0C944A2CF894FFCF52
:1058E000C11CDA1CEE1CF31CF81CFD1C021D071D5C
:1058F0000C1D111D161D1B1D201D251D2A1D2F1DD4
:10590000341D391D3E1D431D481D4D1D521D571D83
:105910005C1D611D661D6B1D701D751D7A1D7F1D33
:10592000841D891D8E1D931D981D9D1DA21D312056
:1059300038203F20442049204E20532058205D200D
:10594000622067206C207020722074203320332066
:1059500033203320332033204B21BF2153211D21FD
:105960002121572125215B2167213121B8213521B2
:105970006B2139216F2197213D2173219E214321E4
:105980007921812129215F212D21632147217D2139
:105990008D21A721B62117214F21C6215A2260222D
:1059A0004A22542266226C2272221A2A402A462A4D
:0E59B000402A462A992ABB2A462A112B1E2B72
:1059BE00000102030405060708090A0B0CFF0D0E71
:1059CE00101112131415161718191A1B1C1D1E1F51
:1059DE002122232425262728292A2B2C2D2E2F3031
:1059EE0032333435363738393A3B3C3D3EFF203181
:1059FE003F404142434445464748494AFFFF4B0F0B
:105A0E004C4D4EFF505153FFFF5455565758595A4F
:105A1E00060000002C003900450058006500720099
:105A2E007E0091009E00AA00B700C700D300E000E0
:105A3E00000D0F0D1E0D2D0D3C0D4B0D5A0D690D4C
:105A4E006E0D7D0D8C0D9B0DA00DAF0DBE0DCD0DF4
:105A5E00E00D091A191A261A321A3F1A4C1A581A38
:105A6E00651A721A7E1A8B1A971AA41AB41AC71AC2
:105A7E00D31AE01A0B261C262926362642264F2636
:105A8E005B266826752681268E269B26AF260E332C
:105A9E0023332F333C334933553362336E337B33E9
:105AAE0088339433AC33D333084016402440364009
:105ABE00464054406440724083409340A240B240FE
:105ACE00C740D340E0400101010101010101010184
