:100000000C943C060C9459060C9459060C94590611
:100010000C9459060C9459060C9459060C945906E4
:100020000C9459060C9459060C945B260C94AC273E
:100030000C9410260C9459060C9459060C945906ED
:100040000C9459060C9459060C9459060C945906B4
:100050000C9459060C9437260C9459060C945906A6
:100060000C9459060C9459060C9459060C94590694
:100070000C9459060C9459060C9459060C94590684
:100080000C9459060C9459060C9459060C94590674
:100090000C9459060C9459060C9459060C94590664
:1000A0000C9459060C9459060C9459060631FF0914
:1000B00074A1010975150026FF00952075088102BD
:1000C000C005010902A10185020901A10005091964
:1000D000012908150025019508750181020501090E
:1000E0003009311581257F9502750881060938157B
:1000F00081257F950175088106050C0A3802158156
:10010000257F950175088106C0C005010980A10100
:10011000850319012AB700150126B700950175104E
:100120008100C0050C0901A101850419012AA00262
:10013000150126A002950175108100C00501090670
:10014000A1018506050719E029E715002501950895
:10015000750181020507190029EF1500250195F0A9
:10016000750181020508190129059505750191029E
:10017000950175039101C00660FF0961A101096243
:10018000150026FF009520750881020963150026D9
:10019000FF00952075089102C005010906A101051F
:1001A0000719E029E71500250195087501810295D9
:1001B00001750881010507190029FF150026FF00B8
:1001C0009506750881000508190129051500250106
:1001D000950575019102950175039101C0703A0969
:1001E0007072696E742076616C7565730A643A0981
:1001F0007365742064656661756C74730A75703A12
:10020000092B310A646E3A092D310A6C743A092BB4
:1002100031300A72743A092D31300A4553432F7137
:100220003A09717569740A0A7370656564203D2026
:1002300064656C7461202A206D61785F73706565F8
:1002400064202A2028726570656174202F207469EB
:100250006D655F746F5F6D6178290A776865726597
:100260002064656C74613A20637572736F723D250A
:10027000642C20776865656C3D25640A53656520AC
:10028000687474703A2F2F656E2E77696B6970658C
:100290006469612E6F72672F77696B692F4D6F7577
:1002A00073655F6B6579730A004D3E20004D2575BF
:1002B0003A25733E20003F0A003D2025750A003F85
:1002C0000A0064656661756C74730A0025750A001E
:1002D0003F0A000A092D2056616C756573202D0AAE
:1002E00000710A000A092D204D6F7573656B6579E1
:1002F000202D0A0009027400040100A0FA0904007C
:10030000000103010100092111010001224400073D
:10031000058103080001090401000203000000092F
:10032000211101000122220007058203200001079C
:100330000503032000010904020001030000000975
:10034000211101000122B6000705840320000109E4
:10035000040300010300000009211101000122151E
:1003600000070585032000011201000200000008BB
:10037000254A254A000101020001160363007A00A4
:100380006D0061006F005F006D0071003600340089
:1003900000000C0343005A004D0041004F000000D4
:1003A000040309045B435D005B445D005B535D0037
:1003B0005B575D005B525D0064656C5F6B65795FE8
:1003C0006269743A2063616E27742064656C3A2018
:1003D000253032580A006164645F6B65795F626939
:1003E000743A2063616E2774206164643A2025307A
:1003F00032580A00290A002575002F002575005D76
:1004000028002564002000256400200025640020C9
:10041000002564007C0025303258006D6F757365CF
:100420006B6579205B62746E7C7820792076206819
:100430005D287265702F61636C293A205B0029008A
:100440001E001F00200021002200230024002500A0
:10045000260027002D002E0000002A002B0000009F
:1004600014001A000800150017001C0018000C00EA
:10047000120013002F00300031003900000004008A
:100480001600070009000A000B000D000E000F0007
:100490003300340028000000E10000001D001B00B4
:1004A0000600190005001100100036003700380062
:1004B000E50052004C00E000E300E2000000000014
:1004C00000002C00000000000000E6002152500057
:1004D00051004F0035003A003B003C003D003E001B
:1004E0003F0040004100420043004400450000003E
:1004F00001000100000001005200010001000100A4
:100500000100010001000100AE00AA00A9000100E5
:1005100001000000500051004F00010001000100E7
:1005200001000100010001000100010000000100C4
:1005300000000100010001000100010001000100B4
:100540000100AC00AB0001000100010001000B70D4
:100550000100000000000000010000000000000099
:1005600022520100010001000100037C0100010092
:100570000100010001000100010001000100010073
:100580000100010000000100010000000100010065
:100590000100010001000100010001000100B300A1
:1005A00001000100010002700000010001000100D3
:1005B0000100010001000100010001000100010033
:1005C000010000000100000001000100B200010074
:1005D0000100010013700100010001000100010091
:1005E00001001D700100010000000000000001007A
:1005F00000000000000001000100010001000100F6
:100600004C25640A00313A0964656C6179282A3105
:10061000306D73293A2025750A323A09696E74657E
:100620007276616C286D73293A2025750A333A0970
:100630006D61785F73706565643A2025750A343A98
:100640000974696D655F746F5F6D61783A20257517
:100650000A353A09776865656C5F6D61785F73701C
:100660006565643A2025750A363A09776865656CD0
:100670005F74696D655F746F5F6D61783A20257591
:100680000A006B65796D61705F636F6E6669672ED6
:100690007261773A20253032580A2E737761705F85
:1006A000636F6E74726F6C5F636170736C6F636B9A
:1006B0003A2025750A2E636170736C6F636B5F74EB
:1006C0006F5F636F6E74726F6C3A2025750A2E73BC
:1006D0007761705F6C63746C5F6C6775693A202535
:1006E000750A2E737761705F7263746C5F726775E1
:1006F000693A2025750A2E737761705F6C616C749E
:100700005F6C6775693A2025750A2E737761705F93
:1007100072616C745F726775693A2025750A2E6E76
:100720006F5F6775693A2025750A2E737761705F70
:1007300067726176655F6573633A2025750A2E736B
:100740007761705F6261636B736C6173685F626134
:10075000636B73706163653A2025750A2E6E6B7248
:100760006F3A2025750A2E737761705F6573636138
:1007700070655F636170736C6F636B3A2025750AF7
:100780000064656275675F636F6E6669672E72618C
:10079000773A20253032580A2E656E61626C653AD0
:1007A0002025750A2E6D61747269783A2025750AC4
:1007B0002E6B6579626F6172643A2025750A2E6D21
:1007C0006F7573653A2025750A006565636F6E66FF
:1007D00069673A0A64656661756C745F6C61796516
:1007E000723A2025750A000A092D204D6167696358
:1007F000202D0A443A094465627567204D6573737C
:1008000061676520546F67676C650A583A094D61E6
:1008100074726978204465627567204D6F64652045
:10082000546F67676C65202D2053686F77206B6568
:10083000797072657373657320696E206D6174726F
:10084000697820677269640A4B3A094B6579626F6F
:1008500061726420446562756720546F67676C65D8
:10086000202D2053686F77206B65797072657373E4
:10087000207265706F72740A4D3A0944656275673B
:10088000204D6F75736520546F67676C650A563A23
:100890000956657273696F6E0A533A09537461742D
:1008A00075730A433A09416374697661746520433C
:1008B0006F6E736F6C65204D6F64650A46312D460F
:1008C00031303A0953776974636820746F204C6142
:1008D00079657220302D392028463130203D204C5A
:1008E00030290A302D393A095377697463682074C6
:1008F0006F204C6179657220302D390A475241567C
:10090000453A0953776974636820746F204C6179A4
:10091000657220302028616C7465726E617465297F
:100920000A423A094A756D7020746F20426F6F74E5
:100930006C6F616465720A4553433A094A756D707C
:1009400020746F20426F6F746C6F61646572202831
:10095000616C7465726E617465290A453A0950725A
:10096000696E7420454550524F4D2053657474692B
:100970006E67730A4241434B53504143453A094322
:100980006C65617220454550524F4D0A4E3A094EF2
:100990004B524F20546F67676C650A002573000A3D
:1009A000092D20537461747573202D0A686F737458
:1009B0005F6B6579626F6172645F6C65647328292F
:1009C0003A20253032580A6B6579626F6172645F34
:1009D00070726F746F636F6C3A20253032580A6BF7
:1009E0006579626F6172645F69646C653A20253075
:1009F00032580A6B65796D61705F636F6E66696707
:100A00002E6E6B726F3A20253032580A74696D650C
:100A1000725F72656164333228293A202530386C60
:100A2000580A003F004E4B524F3A206F66660A004C
:100A30004E4B524F3A206F6E0A000A6D6F75736508
:100A40003A206F66660A000A6D6F7573653A206F0B
:100A50006E0A000A6B6579626F6172643A206F6694
:100A6000660A000A6B6579626F6172643A206F6E84
:100A70000A000A6D61747269783A206F66660A002E
:100A80000A6D61747269783A206F6E0A000A6465B3
:100A90006275673A206F66660A000A646562756768
:100AA0003A206F6E0A000A0A4A756D70696E6720F7
:100AB000746F20626F6F746C6F616465722E2E2E7E
:100AC0002000433E2000436C656172696E672045DB
:100AD0004550524F4D0A0073757370656E64696EB0
:100AE00067206B6579626F6172640D0A000A0025E8
:100AF00030313662003A200025303258000A722F19
:100B0000632030313233343536373839414243444B
:100B100045460A006C65645F7461736B3A2025304A
:100B200032580A000A002530325820006E6B726F6E
:100B30005F7265706F72743A2025303258207C20C5
:100B4000000A002530325820006B6579626F6172AF
:100B5000645F7265706F72743A2025303258207C61
:100B600020004F6E6573686F743A20616374697614
:100B7000653A2025640A000A092D20436F6E736FC1
:100B80006C65202D0A4553432F713A0971756974BC
:100B90000A6D3A096D6F7573656B65790A003F00E0
:100BA000433E2000000000000000000000000000A4
:100BB0000000000000000000000000000000000035
:100BC00000000000000000007E0F00D4FFFFFFC700
:100BD0000000007800000000000000002A2B280020
:100BE00000000000000000000000000000000029DC
:100BF000000000002C1E3420212224342627252E1C
:100C0000362D3738271E1F20212223242526333353
:100C1000362E37381F0405060708090A0B0C0D0E7F
:100C20000F101112131415161718191A1B1C1D2F4B
:100C30003130232D350405060708090A0B0C0D0E6B
:100C40000F101112131415161718191A1B1C1D2F2B
:100C50003130354C44454255473A206469736162EE
:100C60006C65642E0A0044454255473A20656E6122
:100C7000626C65642E0A000011241FBECFEFDAE01B
:100C8000DEBFCDBF12E0A0E0B1E0E8EEF2E502C0C9
:100C900005900D92A83DB107D9F723E0A8EDB2E089
:100CA00001C01D92A13FB207E1F70E94FB210C9405
:100CB000CE280C940000FF93EF93E091D802F091BE
:100CC000D902309709F00995EF91FF910895FC0141
:100CD0008591803011F0EFDFFBCF0895FF27E0E230
:100CE00030E247FF0CC0419597FF09C0EDE26095E7
:100CF000709580959095611D711D811D911D27FF37
:100D000002C0219530E350E2AA27660F771F881FA3
:100D1000991FAA1FA41710F0A41B63955A95A9F751
:100D2000AA3008F0A95FA05DAF93F3956115710536
:100D30008105910541F7ED3211F4EF93F395F21728
:100D400018F43F93F395FBCF8F91B5DFFA95E1F758
:100D50000895E991F9918591803021F0853219F05B
:100D6000AADFF9CF089520E0E89455915532C1F3F8
:100D7000503311F4689455915A3348F4505390F31A
:100D8000220F022E220F220F200D250FF4CF0EF47A
:100D9000219589919991533619F3533729F1533598
:100DA00059F1BC0188279927E8945C3621F4899190
:100DB000999168945591543639F446EF7EF077FF57
:100DC0000DC08FEF9FEF0AC055374AE039F0583514
:100DD00040E121F0523642E009F00895FF93EF938D
:100DE0007DDFEF91FF91B7CFFF93EF93FC018191EE
:100DF0008030B9F360DFFBCFFF93EF9368DFF1CF73
:100E0000DF93CF93CDB7DEB72596A3DFCF91DF91E8
:100E100008958295982F990F990F9C7C86958695B9
:100E20008373982B892F880F8A7A96959575892BCD
:100E300008958093AA0308958093AB03089521E059
:100E400030E001C0220F8A95EAF78091AB03822B34
:100E50000E941C07089521E030E0A90102C0440F60
:100E6000551F8A95E2F7CA0180959091AB038923BB
:100E70000E941C070895292F953090F58F3080F53A
:100E800090E03FE0239F800D911D1124282F2770B3
:100E900041E001C0440F2A95EAF723E09695879533
:100EA0002A95E1F7FC01EE0FFF1FE80FF91FE45848
:100EB000FC4F20E030E070E05191DF01CB01022EC9
:100EC00002C0969587950A94E2F7817081958527EF
:100ED000842385278E932F5F3F4F2330310561F7A1
:100EE0000895292F953078F58F3068F590E03FE030
:100EF000239F800D911D1124682F677023E0969524
:100F000087952A95E1F7FC01EE0FFF1FE80FF91F07
:100F1000E458FC4F40E050E080E0219130E0062EA4
:100F200002C0369527950A94E2F721703327042EE4
:100F300001C0220F0A94EAF7822B4F5F5F4F4330C4
:100F4000510559F7089580E008959091AB0321E091
:100F500030E0F90101C0EE0F8A95EAF7D90102C02D
:100F6000AA0FBB1F6A95E2F7EA2B01C0220F4A9530
:100F7000EAF7892F8E23E81305C0892F822B0E9460
:100F80001C0708952095822F8923F9CF8091B10302
:100F90009091B003981301C008958F5F8770FACFC6
:100FA0009091AC03809589238093AC03282F277000
:100FB00021110DC0891759F09091AE0392FF07C01F
:100FC0008695869586950E942B071092AC0308950E
:100FD0008091A7039091AF03892B5091A8035115DD
:100FE00091F090911201913021F49091AD0397FD11
:100FF0000BC096E02CED32E040E0915048F44111F6
:101000001092A803852B08959EE124EE32E0F4CFE0
:10101000F90161919F01611581F34F5FEECF982F28
:1010200090958091A70389238093A70308959C013D
:10103000803E910509F448C0D8F48133910509F444
:101040007DC048F48932910509F46DC08A9709F48E
:101050007CC0C90108958933910551F18238910509
:1010600039F1C597B1F78091AD0385FFF2CF29C063
:10107000843E910509F447C048F4823E910599F1F8
:10108000833E9105A9F121EE30E0E3CF863E910544
:1010900009F444C0873E9105E1F68091AD0383FDDC
:1010A00061C09091AE0391FF2BC024EE30E0D1CF10
:1010B0008091AD038370811152C08091AE0383FF94
:1010C000C8CF29E230E0C5CF8091AD0380FD33C0A9
:1010D0009091AE0390FFBDCF23EE30E084FFB9CFF7
:1010E00020E030E0B6CF8091AD0382FDF5CFB1CFE7
:1010F0008091AD0382FD30C09091AE0390FD2FC072
:1011000084FFA7CFEDCF8091AE0381FFA2CF809166
:10111000AD0327EE30E084FDE3CF9BCF8091AD039C
:1011200083FDF7CF96CF8091AD0385FD1EC08091E2
:10113000AE0383FF8ECF29E330E08BCF8091AD03E8
:1011400086FF87CF2AE230E084CF8091AD0386FF0F
:1011500080CF21E330E07DCF22EE30E07ACF20EE69
:1011600030E077CF26EE30E074CF25E330E071CF6A
:101170009091AD0392FF10C041E0282F24712430DC
:1011800009F040E031E0282F2871283009F030E0E4
:10119000431711F02CE0822793FF10C041E0282F65
:1011A0002471243109F040E031E0282F28712831E2
:1011B00009F030E0431711F02CE082273091AE03A4
:1011C00030FF10C051E0282F2171213009F050E08C
:1011D00041E0282F2871283009F040E0541711F021
:1011E00029E0822731FF10C041E0282F21712131F1
:1011F00009F040E031E0282F2871283109F030E073
:10120000431711F029E0822794FD877E08951F93EC
:10121000CF93DF930E941708EC01811522E5920716
:1012200008F055C0811540E5940708F0D1C0803E14
:10123000910520F58D3C910508F0A4C0883A9105F0
:1012400070F4853A910508F09AC081309105D1F18A
:101250000497813A9105B0F1C0E0D0E033C0885ADC
:1012600091094B97C8F7C85AD0E0CC0FDD1FC4597D
:10127000DD4F0990D881C02DD46424C0811550E47D
:101280009507C0F4C11580E2D80708F0B7C0C83E82
:10129000D105C0F0CE019A9581159F41E8F68D2FBA
:1012A0000E94B808182FCE0199270E941708EC0158
:1012B000D12B08C099270E941708CC27DF70C82BB4
:1012C000D92BD06ACE01DF91CF911F91089580383C
:1012D00042E59407C8F5803652E5950708F05BC0F3
:1012E000C03482E5D807D0F4C03292E5D90708F0BF
:1012F0004BC08C2F8695869520E2829FC0011124D9
:10130000C37021E030E0A90102C0440F551FCA9507
:10131000E2F7EA01C82BD92BDD68D4CF8C2F869554
:101320008695877050E2859FC0011124C37021E02B
:1013300030E0A90102C0440F551FCA95E2F7EA0147
:10134000C82BD92BDC68BECF803C52E5950758F4FA
:101350008F71C03AD245A0F590E0982F8827EC0114
:10136000C46FD06AAFCF805C9245809708F074CF8D
:10137000DC2FCC27CC27DF71C06FD06AA3CFA49716
:10138000D064A0CFD0659ECFCF71D0E0DC2FCC272A
:10139000C16FD06A97CF86958695877020E2829F2D
:1013A000C0011124C37021E030E0A90102C0440F44
:1013B000551FCA95E2F7EA01C82BD92BDA6882CF0C
:1013C0000E94B808C82FD0E0DC2FCC27D0627ACF9B
:1013D0008F710E94B80893E0CC0FDD1F9A95E1F75A
:1013E000CC27DF70282F30E084FF04C050E1859FB8
:1013F00090011124C22BD32BD06964CF8D2F8F7114
:101400000E94B808182FCE0199270E941708EC01F6
:10141000D12BDCCFF894E82FE295EF70F0E041A1FA
:101420008F7021E030E0B90102C0660F771F8A9506
:10143000E2F7CB01962F9095942391A392A1892B4B
:1014400082A378940895282F35EB2303C00111243B
:1014500097FF04C080589109892F089580589F4FA5
:10146000FBCF80919D0380FF0DC06091000170E073
:10147000660F771F60387105B0F561157105A9F128
:10148000862F089581FF07C06091000184E0689F66
:10149000B0011124EFCF82FF04C06091000188E009
:1014A000F6CF90919C039115D9F020910101809184
:1014B0000001682F70E0921730F043E0660F771F4D
:1014C0004A95E1F7D7CF899FC001112433E0880FF7
:1014D000991F3A95E1F7622F70E00E940328CACF66
:1014E00068E070E0CDCF8FE7089581E008958091A6
:1014F0009D0380FF0CC06091020170E075956795B7
:10150000759567956115710549F1862F089581FFDD
:1015100006C06091020170E075956795F3CF609108
:10152000020182FD0BC090919B039115A1F0609187
:10153000030180910201961738F0682F70E060383F
:10154000710500F38FE70895899FC001112470E0B1
:101550000E940328F4CF61E070E0D7CF81E00895C6
:10156000E0917203F0917303309729F00190F081BC
:10157000E02D0995089580E00895A3E0B0E0E3EC44
:10158000FAE00C9434289C0180912803909129035F
:1015900082179307A1F03093290320932803E09149
:1015A0007203F0917303309751F083E089833B839A
:1015B0002A830084F185E02DCE01019609952396BA
:1015C000E2E00C945028A3E0B0E0E9EEFAE00C94DD
:1015D00034289C018091260390912703821793075A
:1015E000A1F03093270320932603E0917203F0913A
:1015F0007303309751F084E089833B832A8300840E
:10160000F185E02DCE01019609952396E2E00C9438
:1016100050288091110108952FB7F89480912203EA
:1016200090912303A0912403B09125032FBF089527
:101630002FB7F894609122037091230380912403C3
:10164000909125032FBF08959C014FB7F894809186
:10165000220390912303A0912403B09125034FBF4F
:10166000821B930B089587E797E790930108809377
:10167000000888E19AE00FB6F894A895809360007E
:101680000FBE90936000FFCFFC019B018091160379
:10169000909117038617970740F0672B29F48091E4
:1016A000E8008E778093E800C90140E0009741F49C
:1016B000411106C08091E80082FF2FC080E00895AC
:1016C00020914F032115A9F12530A9F12091E800BF
:1016D00023FD2DC02091E80022FDECCF2091E800F1
:1016E00020FFE4CF3091F3002091F200009719F031
:1016F0002830310558F041E02830310509F040E04C
:101700002091E8002E772093E800D0CF41914093BC
:10171000F10001972F5F3F4FE9CF80914F03811573
:1017200041F0853041F08091E80083FFC3CF81E034
:10173000089582E0089583E008958091100387FF63
:1017400013C08091E80082FF06C08091E8008B778B
:101750008093E800089580914F038111F2CF08959E
:1017600080914F038115D9F38091E80080FFF8CF75
:101770008091E8008E77ECCF2091E4003091E50075
:1017800095E6A9012091EC00822F817020FF06C010
:101790008091E80080FF06C080E008952091E80075
:1017A00022FD1AC080914F03811589F0853089F0A0
:1017B0008091EB0085FD0FC02091E4003091E500A1
:1017C00042175307F9F29A95E1F684E0089582E012
:1017D000089583E0089581E00895E8EDF0E08081C8
:1017E0008E7F80831092E2001092DA001092E10066
:1017F000A0EEB0E08C9181608C9380818F778083A4
:1018000019BCA7EDB0E08C918E7F8C9380818F7E88
:10181000808310920F030895982F9093E900891701
:1018200071F07091EC002091ED005091F00021FDDD
:1018300009C09F5F973089F78093E9000895762F5C
:10184000242F50E03091EB003E7F3093EB0030913D
:10185000ED003D7F3093ED003091EB00316030932F
:10186000EB007093EC002093ED005093F00020917A
:10187000EE0027FDDECF0895A0E0B0E0E2E4FCE05A
:101880000C942E28C8EDD0E088818F7E8883E7ED08
:10189000F0E080818160808384E082BF81E080937A
:1018A0000F0388818E7F888302EE10E0F80110829A
:1018B0001092DA0081EEC82ED12CF60110828881B8
:1018C0008F77888388818068888388818F7D8883EB
:1018D00019BC10924F0310920E0310923503109210
:1018E0000D0390EEE92EF12CF70180818B7F808330
:1018F00088818160888342E060E080E00E940C0C77
:10190000F60180818E7F8083F801808181608083F1
:10191000808188608083F70180818E7F80838881C9
:1019200080618883CDB7DEB7E8E00C944A28E09167
:10193000B1039091B00327E0E91302C080E008955D
:10194000AE2FB0E02E9FF0011124EE54FC4F3181F8
:10195000361306C03081381303C03581341304C0F8
:10196000FD013196E770E8CF81E008959FB7F894C4
:10197000109219039FBF90914F03943009F047C014
:101980002091E9009091EC002F70979599279795F9
:10199000922B25E02093E9002091EB0020FF34C03A
:1019A0002091EE0027FF30C020911803211521F06F
:1019B0002091E80025FF28C01092180326E03091FE
:1019C000E80035FF14C08093F1008091E80085FDA8
:1019D00027C08091E80080FFFCCF8091E8008E77DF
:1019E0008093E8009F709093E90080E00895309123
:1019F0004F03343049F43091EB0035FD05C02A9592
:101A000041F481E0809318039F709093E9008FEF79
:101A10000895EFE9FFE03197F1F700C00000CFCF64
:101A20008FB7F89421E0209319038FBFDBCF0F937A
:101A30001F93CF93DF938B01EA0190914F03943072
:101A400059F58093E9008FEF9091E80095FD06C06D
:101A500095ED9A95F1F700008A95B1F78091E8002D
:101A600085FF1AC00E94BC0B811111C08091E80053
:101A700085FD06C08091E8008E778093E800F2CF64
:101A8000F80181918F018093F100219779F780917E
:101A9000E8008E778093E800DF91CF911F910F913E
:101AA0000895CF93DF93D82FC92F48E050E0682FD7
:101AB000792F81E00E94170D88E0ED2FFC2FAAE11D
:101AC000B3E001900D928A95E1F7DF91CF910895EF
:101AD000BC0140E250E084E00E94170D0895BC0173
:101AE00046E050E084E00E94170D0895BC0143E0F9
:101AF00050E084E00E94170D0895809103011F9229
:101B00008F93809102011F928F93809101011F9208
:101B10008F93809100011F928F9380910F011F92EC
:101B20008F9380910E011F928F9385E096E09F9393
:101B30008F930E9400078DB79EB70E960FB6F8944C
:101B40009EBF0FBE8DBF08958091A60383FF96C0F0
:101B50008BE194E09F938F930E94000780919F03F5
:101B60001F928F9386E194E09F938F930E940007CA
:101B700084E194E09F938F930E9400078091A003DB
:101B8000282F082E000C330B3F938F9381E194E0B4
:101B90009F938F930E9400078FE094E09F938F9311
:101BA0000E9400078091A103282F082E000C330B00
:101BB0003F938F938CE094E09F938F930E94000754
:101BC0008AE094E09F938F930E9400078091A20384
:101BD000282F082E000C330B3F938F9387E094E05F
:101BE0009F938F930E94000785E094E09F938F93CB
:101BF0000E9400078091A303282F082E000C330BAE
:101C00003F938F9382E094E09F938F930E9400070D
:101C10008FEF93E09F938F930E9400078DB79EB73D
:101C200080960FB6F8949EBF0FBE8DBF80919C0327
:101C30001F928F938CEF93E09F938F930E940007E6
:101C40008AEF93E09F938F930E94000780919D03FA
:101C50001F928F9387EF93E09F938F930E940007CB
:101C600084EF93E09F938F930E9400078DB79EB7F8
:101C70000C960FB6F8949EBF0FBE8DBF0E940C0B42
:101C80002091A0033091A103232B211521F08093F3
:101C90004203909343032091A2033091A303232B8B
:101CA000211521F08093400390934103E09172034A
:101CB000F0917303309749F082E080939E03068091
:101CC000F781E02D8EE993E009950895611509F4F7
:101CD0004BC0E3E3E80FE33150F4F0E0E053F74D9D
:101CE0000C9417280E94310A81958093A1030E94C9
:101CF000A40D08950E94310AF8CF0E94310A8195FF
:101D00008093A003F4CF0E94310AFACF0E94770A91
:101D10008093A203ECCF0E94770A8195F9CF0E94AD
:101D2000770A81958093A303E2CF0E94770AFACFC6
:101D3000815D990B21E030E001C0220F8A95EAF71E
:101D400080919F03822B80939F03D1CF80919D032D
:101D5000816080939D03CBCF80919D038260F9CFFA
:101D600080919D038460F5CF4091A0038D3C59F490
:101D70008091A10387FF0DC01092A103411559F472
:101D800010929C0308C08E3C81F48091A103181628
:101D90009CF3411581F08091A2039091A303892BBC
:101DA0008111A5CF10929B03A2CF8F3C41F447FF36
:101DB000F0CF1092A0038091A1038115E0CF803D68
:101DC00019F41416B4F3E5CF9091A203893D29F4D8
:101DD0001916FCF61092A203DCCF8A3D19F497FF86
:101DE000D8CFF8CF9091A3038B3D29F497FFD1CFA3
:101DF0001092A303CECF8C3D19F41916CCF3C9CFA2
:101E00009FE2980F983090F4815D990B21E030E0CB
:101E1000B90102C0660F771F8A95E2F7CB01809562
:101E200090919F03892380939F03B3CF8D3D31F41D
:101E300080919D038E7F80939D03ABCF8E3D21F4D7
:101E400080919D038D7FF7CF8F3D09F0A2CF8091C8
:101E50009D038B7FF0CF90911201913091F0ACED0A
:101E6000B2E0EFEF90E02D91821751F0EF3F19F4BF
:101E7000211101C0E92F9F5F9630A9F7EF3F51F57F
:101E800008959091AD0397FFEACFE82FE695E69588
:101E9000E695803F70F4F0E0EE51FD4F877021E051
:101EA00030E001C0220F8A95EAF78281822B82837B
:101EB00008959091A60390FFE3CF1F928F9386ED34
:101EC00093E09F938F930E9400070F900F900F90C5
:101ED0000F9008950E2E000CFF0BE652FD4FE7CF3A
:101EE00090911201913021F49091AD0397FD0CC0B7
:101EF000ECEDF2E09191891302C0DF011E9252E0F5
:101F0000E23EF507B9F70895E82FE695E695E695E0
:101F1000803F90F4F0E0EE51FD4F877021E030E01B
:101F2000A90102C0440F551F8A95E2F7CA018095A6
:101F300092818923828308959091A60390FFE3CF35
:101F40001F928F9388EB93E09F938F930E940007DB
:101F50000F900F900F900F900895893209F46EC082
:101F600010F5833109F482C040F4873009F4DFC0F2
:101F70008B3051F18FEB92E0EEC0843109F45EC0FA
:101F800092EE980F9A30B0F78D5180930903843008
:101F900009F077C081E091E09093080380930703F4
:101FA0008AE391E093C0803509F4DAC030F48833D5
:101FB00059F08F34F9F68AE0D4C0813509F4E9C0CC
:101FC0008235C1F681E0CDC084EE92E09F938F937D
:101FD0000E9400070E947D0D1F9281E08F931F9247
:101FE00088E08F938DED91E09F938F930E9400077F
:101FF0008DB79EB708960FB6F8949EBF0FBE8DBFE3
:1020000020910903211509F4CDC080910503909119
:102010000603009711F484E191E09F938F931F9240
:102020002F938DEA92E09F938F930E9400070F9069
:102030000F900F900F900F900F90089581EE92E007
:102040009F938F930E9400070F900F908091090338
:10205000811509F4AFC01092090310920803109281
:1020600007031092060310920503CACF83ED92E096
:102070009F938F930E9400070E947D0D0F900F90F9
:10208000BFCF68F48230C1F18330C1F480E091E0C9
:1020900090930803809307038DE291E017C0853089
:1020A000A1F18630D9F11092090380ED92E09F935F
:1020B0008F930E9400070F900F900CC08EE091E06C
:1020C000909308038093070388E191E090930603BF
:1020D0008093050380910903811509F491CF1F9224
:1020E0008F938CEC92E09F938F930E9400070F9048
:1020F0000F900F900F9084CF8FE091E090930803A2
:102100008093070381E291E0E1CF82E091E0909338
:1021100008038093070389E491E0D8CF83E091E03E
:1021200090930803809307038CE591E0CFCF81E083
:1021300080930E0184E180930F018AE08093000177
:102140008EE18093010188E08093020188E2809310
:10215000030182EC92E09F938F930E9400078ECF41
:1021600086EFE0910703F09108033097C1F02081DA
:10217000082E000C990B820F911D811521E092070A
:1021800054F497FD0AC080831F928F9389EB92E0ED
:10219000AACF8FEFE6CF8FEFF6CF80E0F4CF86EBBC
:1021A00092E0D9CF89EA92E09F938F930E94000733
:1021B0000F900F900895CF93C82F8091AE0382FBAC
:1021C000992790F99C17F9F0C0FB82F98093AE0330
:1021D0006091AD037091AE0384E090E00E94AB2863
:1021E00082E00E94D0078091A60380FF0CC01F925E
:1021F000CF9382E69BE09F938F930E9400070F90FE
:102200000F900F900F90CF9108951F93CF93DF936E
:10221000962F122F632F8430D8F49530C8F44F30A6
:10222000B8F4C42FD0E0CC0FDD1F2EE1929FC00D7B
:10223000D11D112496E9899FC00DD11D1124CE0115
:1022400088960E948D28612FCE0189960E948D2844
:10225000DF91CF911F910895AF92BF92CF92DF92FD
:10226000FF920F931F93CF93DF93A12CB12CC0E06B
:102270006501D0E019C021E030E0C33021F0F80161
:10228000859194919C014F2D6D2F8C2F0E940511EB
:10229000F3940E5F1F4F8FE0F812EDCFDF5F8FE0FA
:1022A000C80ED11CD53039F08601000F111F025C19
:1022B0001B4FF12CE0CFCF5F8BE4A80EB11CC430D4
:1022C000B9F6DF91CF911F910F91FF90DF90CF90E2
:1022D000BF90AF900895CF93DF93C0E8D2E060E065
:1022E000CE010E948D282196C11584E0D807B9F748
:1022F000DF91CF910895CF93C82F65E2811101C07E
:102300006FEF84E290E00E948D2865E0C11101C06A
:102310006FEF85E290E00E948D2869E2C11101C053
:102320006FEF86E290E00E948D28CF91089580E0C3
:102330000E947B1160E087E290E00E948D280E945D
:102340002C110E946B1181E00E947B1108950F9364
:102350001F93CF93DF93843030F5653020F54F30F5
:1023600010F5C42FD0E0CC0FDD1F2EE1629FC00D11
:10237000D11D112436E9839FC00DD11D1124CE013A
:1023800088960E946F28082F10E0102F0027CE019A
:1023900089960E946F289801282BC901DF91CF915F
:1023A0001F910F91089580E090E0F8CF462F672F9E
:1023B000753038F44F3028F4843018F40E94A71197
:1023C000089580E090E00895A0E0B0E0EAEEF1E149
:1023D0000C942F287C010091AB038091AA03082B59
:1023E000C3E0D0E010E0C8010C2E02C0959587959F
:1023F0000A94E2F780FD09C02197A8F7D12C8D2D12
:10240000CDB7DEB7E7E00C944B28DC2EB7018C2F5C
:102410000E94D6110E940709019771F3F0CF0F9324
:102420001F93CF93FC01858100811181811591F06B
:10243000611581F0C8010E94E411C82F682FC801FE
:102440000E943B07B8018C2F0E94D611CF911F919B
:102450000F910895C8010E947107C82FF3CFCF9341
:10246000DF93D82FC92F0E94E4116D2F7C2F0E947B
:10247000D6110E940709DF91CF910895FC01848154
:102480008115A1F0808191810E942F12282F9295B1
:102490009F70963099F060F4925F9F70923030F4A4
:1024A000203FB1F038F481E0283E38F080E0089514
:1024B0009A5FF3CF81E0243FC9F7089591E0213F6F
:1024C00009F090E081E0283E08F080E0892B089533
:1024D00081E0089584E290E00E946F28853289F4BB
:1024E00085E290E00E946F28853059F486E290E002
:1024F0000E946F2891E0893209F090E0892F817065
:10250000089580E0FCCF0F931F93CF93DF938091CA
:102510001201813009F069C08091AD0387FF65C069
:102520000E94E8078093E30240E250E062E573E036
:1025300082EE92E00E94C128892B09F451C080E20A
:10254000E2EEF2E0A2E5B3E001900D928A95E1F7A8
:10255000E0917203F0917303309709F441C086E073
:102560008093E2020480F581E02D82EE92E00995ED
:102570008091A60382FF34C080FF0EC08091E302E9
:102580001F928F938CE29BE09F938F930E94000792
:102590000F900F900F900F90C2EED2E006E21BE07A
:1025A0008091A60380FF0BC08A811F928F931F9397
:1025B0000F930E9400070F900F900F900F9021969D
:1025C00083E0C030D80761F78091A60380FF08C080
:1025D00084E29BE09F938F930E9400070F900F90DF
:1025E000DF91CF911F910F9108950E94E80780938A
:1025F000DA0248E050E064E773E08AED92E00E947E
:10260000C128892B69F388E0EAEDF2E0A4E7B3E0A2
:1026100001900D928A95E1F7E0917203F0917303B6
:102620003097F1F20280F381E02D8AED92E0099576
:102630008091A60382FFD4CF80FF0EC08091DA0282
:102640001F928F9389E49BE09F938F930E940007D2
:102650000F900F900F900F90CAEDD2E003E41BE0B3
:102660008091A60380FF0BC08A811F928F931F93D6
:102670000F930E9400070F900F900F900F902196DC
:1026800082E0C03ED80761F78091A60380FFA8CF03
:1026900081E49BE09FCF811581F19CEF980F913AE7
:1026A00028F40E94700F0E948312089590E2980F00
:1026B000983050F4877091E001C0990F8A95EAF73D
:1026C000892F0E940F08EFCF9BE5980F933028F4D5
:1026D00080E090E00E94BD0A089598E5980F9B3134
:1026E00028F480E090E00E94E30A089593E3980FB5
:1026F000933118F460E00E94660E0895811539F058
:102700009091A703892B8093A7030E9483120895B9
:10271000811521F00E940F080E94831208951092E3
:10272000A70380911201813039F58091AD0387FFB5
:1027300023C0E4EEF2E08EE1DF011D928A95E9F715
:1027400080E090E00E94BD0A80E090E00E94E30AF1
:102750001092AF030E94831286E0EEE9F3E0DF01FE
:102760001D928A95E9F710929C0310929B03109298
:102770009D030E94A40D0895ECEDF2E086E0DCCF0D
:102780000E948F132FEF84E39CE021508040904003
:10279000E1F700C0000088E19AE00FB6F894A89530
:1027A000809360000FBE90936000FFCFCF93C82F3F
:1027B0001F928F9380E096E09F938F930E94000773
:1027C00081E001C0880FCA95EAF70E9419070E94AC
:1027D0008F130F900F900F900F90CF910895AAE252
:1027E000B0E0E5EFF3E10C94332880E193E0FC01E5
:1027F00001962091F100208323E088319207B9F7F8
:1028000080911103893009F45AC0C8F4823009F468
:10281000B7C0833009F486C0813091F18091E8001F
:1028200083FFEBC080911003909111039A3008F060
:10283000E4C0E92FF0E0ED51F74D0C9417288A30F1
:1028400009F48DC08B3051F780911003813231F73C
:102850008091140390911503892B01F78091E80072
:10286000877F8093E8000E949D0B81E09091120386
:10287000911101C080E0809312010E948F13CECF8E
:1028800080911003813A51F68091E800877F809310
:10289000E8008091140390911503892B61F060E0AA
:1028A00080E090E070E00E94440B8091E8008B771C
:1028B0008093E800B3CF68E08AE193E0F3CF8091A2
:1028C0001003813209F0AACF80911403909115036F
:1028D0008D7F892B09F0A2CF8091E800877F8093BC
:1028E000E8008091E80082FF18C09091F300809189
:1028F000F200029731F48091F100813011F08630BE
:1029000021F48091F100809311018091E8008B7790
:102910008093E8000E949D0B81CF80914F0381112D
:10292000E0CF7CCF80911003813A09F077CF80917E
:10293000140390911503892B09F070CF8091E80062
:10294000877F8093E8008091E80080FFFCCF809132
:1029500012018093F1008091E8008E77D9CF8091A9
:102960001003813209F05ACF8091E800877F80936D
:10297000E8000E949D0B80911303809310014ECFBD
:1029800080911003813A09F049CF8091E800877F58
:102990008093E8008091E80080FFFCCF80911001D7
:1029A000D8CF803889F0823841F5809114038F7038
:1029B000873018F58093E9008091EB0085FB88272C
:1029C00080F91092E90006C080913503880F90913C
:1029D0000D03892B9091E800977F9093E8008093F6
:1029E000F1001092F1008091E8008E7723C08111F0
:1029F00016C080911203813011F18091E80083FFAD
:102A00000AC08091E800877F8093E8008091EB0006
:102A100080628093EB00AA96E3E00C944F2882300A
:102A200061F780911203811589F01092E90080917D
:102A3000E800877F8093E8000E949D0BDECF81E055
:102A4000933009F080E080933503EFCF8091140339
:102A50008F702FEF280F263080F68093E9002091A9
:102A6000EB0020FFE2CF933031F48091EB008062E5
:102A70008093EB00DACF9091EB0090619093EB00A4
:102A800021E030E0A90102C0440F551F8A95E2F70A
:102A90004093EA001092EA008091EB008860E8CF52
:102AA0008111ABCF109112031F778091E3008078E2
:102AB000812B8093E3008091E800877F8093E8007A
:102AC0000E949D0B8091E80080FFFCCF8091E30085
:102AD00080688093E30083E0111101C082E080935D
:102AE0004F038BCF8058823008F087CF809112033C
:102AF000909113038C3D53E0950799F583E08A8309
:102B00008AE289834FB7F894DE01139620E03EE015
:102B100051E2E32FF0E050935700849120FF03C06F
:102B200082958F703F5F8F708A30C8F0895C90E02B
:102B30008D939D932F5F243161F74FBF8091E80003
:102B4000877F8093E8006AE270E0CE0101960E94E0
:102B5000440B8091E8008B778093E8004ECF805D36
:102B6000E6CF292F33272330310509F44EC078F5FD
:102B70002130310509F47DC084E790E0E4EFF2E014
:102B80002230310509F039CF2091E800277F2093CA
:102B9000E80020911603309117038217930708F479
:102BA0009C0140E02115310509F068C0411166C063
:102BB0008091E80082FDCDCF80914F03811549F2CD
:102BC000853039F28091E80083FFF2CFC2CF809147
:102BD0001403909115032132310509F43BC02232D0
:102BE000310509F00ACF8430910508F006CFFC01C9
:102BF000EE0FFF1FE85BFD4F0190F081E02D8C5B35
:102C00009D4FDC018C9190E011C09C0133278130F5
:102C100089F022303105B1F0232B09F0EECEE0EA45
:102C2000F3E0E4918E2F90E0E0EAF3E0009709F4FE
:102C3000E4CEAACFE2E9F3E0E4918E2F90E0E2E95E
:102C4000F3E0F4CFEAE7F3E0E4918E2F90E0EAE7D7
:102C5000F3E0ECCF8430910508F0CFCEFC01EE0F0D
:102C6000FF1FE05BFD4F0190F081E02D89E090E0D7
:102C70008BCF82E190E0E8E6F3E086CF80914F03CE
:102C8000811509F466CF853009F463CF8091E8009F
:102C900083FD5FCF8091E80082FD8ACF8091E800BC
:102CA00080FF80CF9091F3008091F20021153105D3
:102CB00019F08830910550F041E0089709F040E0A4
:102CC0008091E8008E778093E8006CCF4491409328
:102CD000F1003196215031090196E8CF803809F092
:102CE0008CCE8091E800877F8093E80080910E036E
:102CF0008093F10078CE811180CE109112031230B2
:102D000008F07BCE8091E800877F8093E8001093E5
:102D10000E030E949D0B111521F184E080934F0357
:102D200042E061EC81E00E940C0C42E261EC84E044
:102D30000E940C0C42E261EC82E00E940C0C42E228
:102D400060EC83E00E940C0C42E261EC85E00E94A2
:102D50000C0C80914F03843051F482E08093130176
:102D60004CCE8091E30087FDD8CF81E0D7CF81E0C2
:102D7000F5CFA8E0B0E0EFEBF6E10C94342865EE77
:102D80007EEF80E090E00E94AB2860E082E090E07F
:102D90000E948D2881E08093AA0361E083E090E0A7
:102DA0000E948D2860E074E184E090E00E94AB28EE
:102DB00060E086E090E00E948D2860E087E090E08F
:102DC0000E948D2840E050E0BA0188E090E00E9427
:102DD0009F2860E083E290E00E948D2860E08CE014
:102DE00090E00E948D2860E08DE090E00E948D28A8
:102DF00019821A821B821C821D821E821F821886E3
:102E000048E050E067E170E0CE0101960E947D2825
:102E100040E050E0BA018FE190E00E949F2880E0FE
:102E20000E947B110E94971140E050E0BA018FE0B0
:102E300090E00E949F2840E050E0BA0183E190E0DA
:102E40000E949F282896E2E00C945028A0E0B0E071
:102E5000ECE2F7E10C942F28EBEFE80FEF3308F0EA
:102E60005EC1F0E0E351F74D0C94172883E090E049
:102E70000E946F281F928F938AEC97E09F938F9305
:102E80000E94000782E090E00E946F2883FB992750
:102E900090F91F929F9382FB992790F91F929F931D
:102EA00081FB992790F91F929F93982F91701F9201
:102EB0009F931F928F9381E897E09F938F930E9437
:102EC000000784E090E00E94772893FB222720F9F6
:102ED0001F922F9387FB222720F91F922F9386FBA7
:102EE000222720F91F922F9385FB222720F91F927A
:102EF0002F9384FB222720F91F922F9383FB2227F5
:102F000020F91F922F9382FB222720F91F922F93E3
:102F100091FB222720F91F922F93292F21701F92B6
:102F20002F9381FB222720F91F922F93282F2170A6
:102F30001F922F939F938F9382E896E09F938F9396
:102F40000E9400078DB79EB78A960FB6F8949EBF71
:102F50000FBE8DBF81E0CDB7DEB7E7E00C944B2804
:102F600086EC9AE09F938F930E9400070E94B91607
:102F70000F900F90EFCF87EE97E09F938F930E9473
:102F80000007F6CF8091A603807F8093A60387E792
:102F90009BE09F938F930E94000782EC9AE09F939F
:102FA0008F930E94000781E080939A030F900F9007
:102FB0000F900F90CFCF86EA9AE09F938F930E9455
:102FC00000070E948F139FEF24E38CE09150204074
:102FD0008040E1F700C000000E94330B9091A603EF
:102FE000892F8E7F90FF81608093A60380FF03C0AE
:102FF0008AE99AE0C2CF8DE89AE09F938F930E946E
:1030000000078091A603817F8093A603B1CF9091A2
:10301000A603892F8D7F91FF82608093A60381FF95
:103020000AC080E89AE09F938F930E9400078091E6
:10303000A6038160E9CF82E79AE09FCF9091A60333
:10304000892F8B7F92FF84608093A60382FF03C049
:1030500083E69AE0E8CF83E59AE08FCF9091A603CC
:10306000892F877F93FF88608093A60383FF03C027
:1030700087E49AE0D8CF8AE39AE07FCF81E791E0B6
:103080009F938F938CE999E09F938F930E94000701
:103090008DCF0E94180BD62F172F082FF92EC09115
:1030A000AD03C7FBCC27C0F9D0901001E09012010E
:1030B0000E94B00AFF920F931F93DF931F92CF934A
:1030C0001F92DF921F92EF921F928F938FE999E0E8
:1030D0009F938F930E9400078DB79EB70E960FB6F1
:1030E000F8949EBF0FBE8DBF35CF0E948F13909175
:1030F000AD03892F97FB87F980588093AD0387FF35
:1031000003C080E39AE039CF85E29AE036CF80E0D1
:103110000E94D6131FCF8953FBCF8D51F9CF83E285
:103120009AE09F938F930E9400070F900F9080E08A
:1031300012CFCF93C82F811509F455C08CEF8C0F97
:10314000813A08F07FC080919A03813021F182306A
:1031500009F455C0811149C08091A703823229F436
:103160008C2F0E94261781113EC080911201813060
:1031700009F447C0ECEDF2E082EE92E02191C21733
:1031800009F45AC08E179F07C9F78C2F0E942B0F86
:103190000E94831228C08091A703823209F3C431B0
:1031A00021F168F4CB3079F0C03111F18EE99BE068
:1031B0009F938F930E9400070F900F90D6CFC93234
:1031C000A1F0C83399F787E79BE09F938F930E9404
:1031D000000780EA9BE09F938F930E9400070F9067
:1031E0000F900F900F90CF91089510929A03BDCF3A
:1031F00082E080939A0388E30E94AD0FF4CF8C2F76
:10320000FBCF8091AD0387FFB5CFEC2FE695E69518
:10321000E695F0E0EE51FD4F828190E04C2F477033
:1032200021E030E002C0220F331F4A95E2F78223EB
:103230009323892B09F4A9CF8C2F0E94700F0E9431
:103240008312A3CF80E28C0F883068F4C77081E0CE
:1032500090E001C0880FCA95EAF7C091A703C82B78
:10326000C093A70395CF8BE58C0F833038F42C2FB8
:103270002452330BC9010E94BD0AB5CFE8E5EC0F1B
:10328000EB3150F4F0E0EE0FFF1FEE55FD4F808163
:1032900091810E94E30AA7CF83E38C0F833108F06A
:1032A000A2CF61E08C2F0E94660E9DCF0F931F93DB
:1032B000CF93C82F8B010E9499180115110539F47D
:1032C0008C2F0E944B13CF911F910F9108958FE97E
:1032D0009FE00197F1F700C0000001501109EDCF08
:1032E000FF920F931F93CF93DF93C62FD42F122FEC
:1032F0008115A9F06093A4030E940C0B90930B031B
:1033000080930A03C77081E001C0880FCA95EAF76D
:103310000E947E13CDB7DEB7E5E00C944D28809176
:10332000A403681332C080910A0390910B030E949A
:10333000240B883C910548F500E20D0FCD17A9F04C
:10334000C770FF24F3948F2D01C0880FCA95EAF748
:103350000E948813083048F48D2F877001C0FF0C3D
:103360008A95EAF78F2D0E947E1360E070E0812F2E
:103370000E945619083070F6D77081E001C0880F9E
:10338000DA95EAF70E948813C5CFC77081E001C0C3
:10339000880FCA95EAF7F6CFA8E0B0E0E2EDF9E1D0
:1033A0000C9424285C01FC018481811509F4AAC0D5
:1033B00061E0C5010E940F128C01F5018581811524
:1033C00009F441C1980137572038310508F011C57B
:1033D000003108F087C08FEF93E00E946F288111C1
:1033E00081C040E8E42E42E0F42E01114FC0CE012E
:1033F00001964C0188E0F40111928A95E9F73AE0D0
:10340000332E87010F5F1F4FC7010E946F288983EA
:103410001A82811509F466C0813009F077C067010E
:10342000F2E0CF0ED11CC8010E946F288A8381155B
:1034300009F458C09FEF980F9330B8F523E0E20EDF
:10344000F11CC6010E946F288B83811509F44AC0C4
:103450001C828401F8012081211599F2213009F0A4
:1034600096C08181813009F053C06801F2E0CF0E2F
:10347000D11CF801828160E5893309F060E070E0D9
:103480000E94561986010F5F1F4FE4CFE114F4E04C
:10349000FF0641F1C7010E946F2897012F5F3F4F40
:1034A00079018111F3CF0150A0CF8430A1F402E063
:1034B00010E0C6013FEFC31AD30A0E946F28F4013F
:1034C000E00FF11F8083811569F08C3731F4FE0124
:1034D000E00FF11F12827601BCCF0F5F1F4F073044
:1034E000110539F78091AC038770811559F0F5010A
:1034F0008581811539F08091AE0382FF03C082E09F
:103500000E94D0072896E2E10C9440287801A1CFD0
:10351000823049F46801F2E0CF0ED11CF8018281BB
:103520000E949918AFCF833049F46801F2E0CF0EC2
:10353000D11CF80182810E944B13A4CF843019F072
:103540000F5F1F4FA0CF22810E5F1F4F80E090E0E2
:10355000A8014F5F5F4F2053330B2A30310558F0DD
:10356000009709F490CFEFE9FFE03197F1F700C041
:1035700000000197F5CF389EB001399E700D1124DF
:10358000C901860F971FF80121818A01E1CFE22F3F
:10359000F0E0EC52F44F2490822F86958695869524
:1035A00090E0FC01EC53F44FE4912770F0E0022E20
:1035B00002C0F595E7950A94E2F7E1704E2E552486
:1035C000FC01EC54F44FE491F0E0022E02C0F595BA
:1035D000E7950A94E2F7E1706E2E7724FC01EC5532
:1035E000F44FC490D12C02C0D594C7942A95E2F729
:1035F000C0FACC24DD24C0F84114510419F081EE46
:103600000E9499186114710419F086EE0E949918AD
:1036100060E070E0822D0E9456196114710419F067
:1036200086EE0E944B134114510419F081EE0E9462
:103630004B13C114D10409F426CF60E070E08CE292
:103640000E94561920CFF801E851FC47E730F105F8
:1036500008F0AAC3E45DF64D0C94172826E241EE6B
:1036600061EE0E9470193ECF27E245EE65EEF9CF7C
:1036700026E241EE60EEF5CF27E245EE64EEF1CFB3
:1036800026E241EE62EEEDCF27E245EE66EEE9CFAF
:1036900028E241E0EBCF8091AD0381608093AD03E0
:1036A0006091AD037091AE0384E090E00E94AB287E
:1036B0000E948F1317CF8091AE0388608093AE0372
:1036C000EFCF8091AD038260E9CF8091AD0384603C
:1036D000E5CF8091AD038860E1CF8091AE0381603A
:1036E000EDCF8091AE038260E9CF8091AD03806120
:1036F000D5CF8091AD038062D1CF8091AD0380643E
:10370000CDCF0E948F138091AD038068C7CF809189
:10371000AD038C60C3CF8091AE038360CFCF809127
:10372000AD038E7FBBCF8091AE03877FC7CF8091E3
:10373000AD038D7FB3CF8091AD038B7FAFCF8091F1
:10374000AD03877FABCF8091AE038E7FB7CF8091E3
:10375000AE038D7FB3CF8091AD038F7E9FCF8091DD
:10376000AD038F7D9BCF8091AD038F7B97CF0E9460
:103770008F138091AD038F7791CF8091AD03837FBD
:103780008DCF8091AE038C7F99CF8091AD03992727
:1037900082FF939590FB82F990FB83F97FCF809114
:1037A000AE03982F909590FB80F990FB81F986CF1E
:1037B0009091AD03892F8F7B96FF80646FCF0E941D
:1037C0008F139091AD03892F97FB87F9805866CFAF
:1037D00061E08EE090E00E948D2862CF60E0F9CF3A
:1037E0009091AD03892F8F7E94FF806157CF909188
:1037F000AD03892F8E7F90FF816050CF9091AE03F3
:10380000892F877F93FF886059CF89E2EDC289E2D3
:10381000D6C20737FCE71F07F9F008372CE7120775
:1038200051F19801205E32452032310550F5811169
:103830003FC00F7181E090E0FC0102C0EE0FFF1F5E
:103840000A95E2F78F016E2F83E090E00E948D28A9
:10385000802F0E94190746CE811549F081E00E9411
:103860001F0743E062E081E00E94A5073BCE81E0B4
:103870000E942B07F6CF811511F082E0F0CF82E095
:10388000F7CF8115A9F00330FCE71F0709F490C0BA
:1038900008F05BC001303CE7130709F48FC0023029
:1038A0008CE7180709F46EC001151C4709F45DC0C8
:1038B000F5018581E080F180811509F48AC0C70196
:1038C0000E94E411182F682FC7010E943B07B7011F
:1038D000812F0E94D6110E9407098C01F501D58025
:1038E000C680C2942FE0C2228091AC0387708115FC
:1038F00001F1FD2CD114F1F0812F807F803461F033
:1039000080E2800F8830A8F0812F807E803221F401
:10391000023078F0C11469F08091AE0382FF09C0D3
:1039200082E00E94D0078091AC038770FF24F3945B
:103930008111F12CE12FE295EF70103C08F0B4C03A
:10394000F0E0ED5CF64D0C9417280B35ECE71E0704
:10395000F1F10C35FCE71F0799F181E00A351C47AE
:1039600009F0A6CF0E94DB10A3CF0E948F133FEF78
:1039700084E39CE0315080409040E1F700C00000BB
:103980000E94330B9091A603892F8E7F90FF816058
:103990008093A60380FF09C086E69CE09F938F93E7
:1039A0000E9400070F900F909DCD84E59CE0F6CF1C
:1039B0006FEF7FEF80E090E00E94AB280E94C01381
:1039C0008091AE03002482FF0394802DCBCF80E052
:1039D000C9CFC7010E947107182F79CFF12FFF704F
:1039E000EF2E103118F0E29490EFE922D114B9F0E3
:1039F000E11469F080E2800F883010F0011109C0F5
:103A00008091A7038E298093A7030E948312802FA1
:103A100043C08091AF038E298093AF03F6CF802FF0
:103A20000E944B13E11409F43FC080E2800F8830FC
:103A300010F0011104C08E2D0E940F0806C0E09402
:103A40008091AF038E218093AF030E9483122CC01C
:103A5000212F2F70E22E107F103219F0E29480EFA8
:103A6000E822011549F0013009F46BC0D11409F4C2
:103A700077C0C114C9F1CBCF8091AE0382FD30C0B5
:103A8000D11469F0E11439F08091A7038E29809355
:103A9000A7030E94831280E00E94991805C080E06D
:103AA0000E944B13E110C7CFF114A9F08091AC0331
:103AB00080FD11C0F50115828695869586950E9438
:103AC0001F07C5010E94CC198091AC03869586958D
:103AD00086950E942B0760E0C5010E940F1212CD4F
:103AE000D11499F0C11004C08E2D0E947E13DCCF3A
:103AF00031E0C312D9CF9091A8038E2D8923E81607
:103B000099F29E299093A803CFCFC110CDCF8E2DCF
:103B10000E9488139091A8038E2D8923811529F086
:103B20008E2D809589238093A8038091A9039E2DD3
:103B30009823911509F4B8CFE094E822E092A90304
:103B4000B3CFD11429F086E0C81608F0ADCFCCCFA2
:103B500095E0C91608F0A8CF8E2D0E948813A4CF37
:103B6000C114D1F3093349F4EFEFF7EE23E0E1504C
:103B7000F0402040E1F700C00000802F0E944B136E
:103B800093CF812F869586958370811561F0813062
:103B900009F08ACFC8019370D11002C080E090E094
:103BA0000E94E30A81CFC8019370D11002C080E067
:103BB00090E00E94BD0A78CF6D2D802F0E94660E86
:103BC00073CF812F8370811134C0D11027C0402F53
:103BD000429546954770440F440F802F8F70042EF6
:103BE00001C0880F0A94EAF7202F207104FF07C054
:103BF0002FE030E001C0220F4A95EAF72095169594
:103C000016951370123081F0133061F03091AA03D1
:103C1000113039F0822B83230E9419070E94B00AC9
:103C200043CF832B822BF8CF822B9091AA03892735
:103C3000F3CFD11451F110FFF1CF402F42954695AB
:103C40004770440F440F802F8F70042E01C0880FDF
:103C50000A94EAF7202F207104FF07C02FE030E01C
:103C600001C0220F4A95EAF7209516951695137014
:103C7000123089F0133069F03091AB03113041F00C
:103C8000822B83230E941C07C9CF8230B0F6C6CF97
:103C9000832B822BF7CF822B9091AB038927F2CF16
:103CA0001F70D11439F0812F0E941F07802F0E94AE
:103CB0007E13B4CF802F0E948813812F0E942B0780
:103CC000ADCF023F71F170F4003FC9F0013F91F0B8
:103CD000D11409F455C0C11409F44FC0802F0E94BB
:103CE00099189CCF033F21F1043F91F79091AE03C7
:103CF00092FD2AC0812F8F71D11401F316C0D11407
:103D000069F035E0C31608F089CF1F7181E090E0BB
:103D1000012E01C0880F0A94EAF7BECF86E0C816CC
:103D2000F2CF812F8F71D110C9CF0E941F0776CF9C
:103D300080E0D11409F4A6CF1F7181E0012E01C0EB
:103D4000880F0A94EAF79ECFD11461F0812F8F710A
:103D500092FFEBCF982F990F990F990F9360909343
:103D6000AC03E3CF81E00E94D00792E0C91608F4CB
:103D700055CF82E00E94D00751CF812F8F71D5CFD0
:103D8000C11479F0093349F4EFEFF7EE23E0E15085
:103D9000F0402040E1F700C00000802F0E944B134C
:103DA0003DCF812F8F718ACF0631FCE71F0709F0C5
:103DB00030CD8091A503811509F429CD85E30E94BA
:103DC000700F14C006312CE7120709F022CD809144
:103DD000A7038A7A91E0811101C090E09093A50336
:103DE000811509F412CD85E30E942B0F0E948312E6
:103DF00079CBF801E851FC47E730F10508F42ACC0B
:103E00001092A4039801305723323105D8F684E08C
:103E100090E00E9477289093AE038093AD03F80161
:103E2000E150F047E232F10508F035CCE15CF64DA7
:103E30000C9417288091F003803178F48091EF037F
:103E4000811559F0E091B1032091B0033091EB035B
:103E50004091EA0357E02E1301C008956E2F70E0E1
:103E60005E9FF0011124DF01AE54BC4F14968C917B
:103E70001497811561F111968C911197831327C0C6
:103E80008C91841324C015968C91159781111FC0B5
:103E900012968D919C91A091EC03B091ED038A1B39
:103EA0009B0B883C910598F48091F0038F708061A2
:103EB0008093F003E854FC4F80818F708061808391
:103EC0008AEE93E00E94CC190E94C6070895FB0178
:103ED0003196E770C0CFADE0B0E0E1E7FFE10C94D0
:103EE00028288C0186E0F801DE01189601900D92D9
:103EF0008A95E1F7F801F58084819AEE892E93E0A6
:103F0000992E6090EE03611018C0811599F0F1149C
:103F100009F415C1C8010E943E12811509F40FC1B0
:103F200087E0F801AAEEB3E001900D928A95E1F7DF
:103F30000E941A1FFF24F39456C07080A280B380A1
:103F4000D090EF032091EC033091ED03A501421BCB
:103F5000530BD11409F4C3C0483C510508F079C093
:103F6000811541F38091EB03C180E090F00350E1B3
:103F7000E51608F059C0C81215C08091EA038711F0
:103F800011C0F1104BC08E2D8F7080618093F003B3
:103F90008AEE93E00E94CC198091F003F8018683A9
:103FA000F12C21C0F1103AC040E06C2D872D0E9409
:103FB000970C40E06C2D872D0E94970CF82E8111F4
:103FC000EFCF888599850E942F12292F22952F7077
:103FD000903470F49F702230A0F09115B1F0F80188
:103FE0009681903190F48F2D2D96EEE00C9444281C
:103FF0002A5F2F70223068F0C8010E94CC19FD2C76
:10400000F2CF911511F0811571F3805E883058F36D
:10401000F3CF803F40F3815F8330F9CF8091F0038D
:1040200081608093F003BCCFC8123BC08091EA034B
:10403000871137C0F11035C0E682C8010E94CC1943
:1040400087E0F801AAEEB3E001900D928A95E1F7BE
:1040500071CFE090F003F0E1EF1650F48AEE93E0B8
:104060000E94CC1987E0F40111928A95E9F798CF64
:10407000811509F45FCF9091EB03F80181819813CA
:1040800010C08091EA0387110CC0F1100AC0E682CB
:10409000C8010E94CC1987E0F40111928A95E9F7D2
:1040A00049CFC8010E943E12811509F448C0F1149D
:1040B00009F445C08091F003803208F431CF80913B
:1040C000EA039091EB039A838983BC82AB826D8271
:1040D0001E82EF82CE0101960E94CC1921CF483C6E
:1040E000510508F0BFCF811509F424CFF11439F13F
:1040F0009091EB038181981318C08091EA03871196
:1041000014C08091F00380FD9BCF803108F498CFDC
:104110008683807F803F09F490CF8681982F907F9F
:10412000905F8F70892B868388CFC8010E943E12D2
:104130008111F6CE8091F00381608093F003C80175
:104140000E94CC19F7CEABE1B0E0E9EAF0E20C94C2
:1041500032284E8B5F8B688F798F8A8F192F9B8FB8
:1041600091111092AF031D8A86E0FE017696DE0162
:104170001F9601900D928A95E1F70A8D011539F08D
:104180000B8B1C8B61E0CE010F960E940F120B8BE4
:104190001C8B87E0FE013F96DE01189601900D9280
:1041A0008A95E1F7CE0108960E946B1F811128C005
:1041B0002091B0033091B10387E0FE013896DE0113
:1041C000119601900D928A95E1F78C858115C1F0C9
:1041D000822F90E001968770992738171906D9F039
:1041E00097E0929FD0011124AE54BC4FFE0131964E
:1041F00001900D929A95E1F78093B0030E94C60753
:1042000017E08091B1039091B003891312C06B96AF
:10421000E4E00C944E280E948F131092B003109289
:10422000B10387E0EAEEF3E0DF011D928A95E9F73A
:10423000E7CF189FC00111248E549C4F0E946B1F22
:10424000811529F38091B10390E001968770992739
:104250008093B103D6CFA6E0B0E0E1E3F1E20C94A5
:1042600032280E940C0B8C018091500390915103D5
:104270008017910779F019821A820E940C0BBC01F9
:1042800049815A8180E090E00E94A320109351035D
:10429000009350032696E4E00C944E28AAE0B0E088
:1042A000E4E5F1E20C942628FE0131968AE0DF0174
:1042B0001D928A95E9F798E5C92E92E0D92E8F01D3
:1042C0002F0166246394712C3CE6832E32E0932EFA
:1042D000F60181916F018F3F09F445C0F894E82FF2
:1042E000E295EF70F0E021A18F70A30102C0440FAE
:1042F000551F8A95E2F7CA01922F982B91A392A19C
:104300008095892382A3789400C0EDE5F2E021E056
:1043100030E0A12CB12C41914F3F81F0A42FA29508
:10432000AF70A05EB0E08C9190E04F7002C09595A8
:1043300087954A95E2F7790180FF02C0E12CF12CC4
:10434000AE28BF28220F331F8E169F0621F7F601D5
:1043500082918F3F11F00E940A0A50EA5A95F1F7B4
:10436000D801AD92BC920E5F1F4FBDE5CB16B2E0F7
:10437000DB0609F0ADCF4AE050E0B2018AE293E0FB
:104380000E94C128892BA9F08AE0F201AAE2B3E0D9
:1043900001900D928A95E1F781E0809304030E94D9
:1043A0000C0B90930303809302032A96E0E10C9494
:1043B0004228809104038115C1F3809102039091FA
:1043C00003030E94240B059780F34AE050E06AE261
:1043D00073E085E493E00E94C128892B49F08AE0CC
:1043E000EAE2F3E0A5E4B3E001900D928A95E1F7EB
:1043F00010920403DACFCDB7DEB7A4970FB6F894C6
:10440000DEBF0FBECDBF85B7806885BF85B780682A
:1044100085BF84B7877F84BF0FB6F894A895809135
:104420006000886180936000109260000FBE80E899
:1044300090E00FB6F89480936100909361000FBEF6
:1044400081E08093130186EB9CE09093D9028093E6
:10445000D8020E94ED0B0E943C0C8091E200846027
:104460008093E200789480914F03811599F08091B8
:10447000E9001091EC008F70179511271795182BF4
:104480001092E9008091E80083FD0E94EF131F70F5
:104490001093E90082E084BD93E095BD9AEF97BD4B
:1044A00080936E000E946A12811102C00E949711CF
:1044B00008E512E0ADE5EA2EA2E0FA2ED8018D91D2
:1044C0008D018F3F11F00E940A0AE016F106B1F744
:1044D0000DE512E0F80181918F018F3F11F00E94EC
:1044E0000A0AF2E00C361F07A9F78AE0E5E4F3E0D8
:1044F000DF01282F1D922A95E9F7EAE2F3E0DF01B8
:104500001D928A95E9F780E090E00E947728853E29
:104510009E4F21F40E946A12811102C00E94B916B6
:1045200082E090E00E946F288093A60384E090E0F0
:104530000E9477289093AE038093AD030E944E2192
:10454000EFE3FCE93197F1F700C000000E944E2133
:104550008091450380FF08C06FEF7FEF80E090E01F
:104560000E94AB280E94330B83E090E00E946F28EA
:104570000E94190784E091E0909373038093720383
:1045800080914F038530A9F48091A60380FF08C075
:1045900087ED9AE09F938F930E9400070F900F90F2
:1045A00080914F03853009F4A8C00E948F130E94A8
:1045B000B00A0E944E21F6E38F2EF3E09F2EA5E471
:1045C000B3E0BBA3AAA3F401219131918D919D91F8
:1045D00043E0E034F40709F4C6C028173907A1F313
:1045E0008091A60381FF49C08DEF9AE09F938F933E
:1045F0000E9400070F900F9055E4E52E53E0F52E32
:1046000000E010E068EF662E6AE0762E75EF472E28
:104610007AE0572EEFEE2E2EEAE03E2E1F930F93F8
:104620007F926F920E9400075F924F920E94000754
:10463000D7018C911196BC91BCA3E2E0EE0EF11C67
:104640000E94090789A38CA10E940907F9A1FF9381
:104650008F933F922F920E9400078DEE9AE09F93D6
:104660008F930E9400070F5F1F4F0FB6F894DEBFB5
:104670000FBECDBF0530110589F6512CAAA1BBA1F3
:104680000D911D91BBA3AAA3F401619071904F01FC
:104690006016710659F160267126412CEE24E394D0
:1046A000F12CC3018E219F21892BB9F049825A82B6
:1046B0000E940C0B9C838B83F1E0FD8391E09801B9
:1046C0002E213F21232B09F490E09E8349815A81BA
:1046D0006B817C818D810E94A3204394EE0CFF1C92
:1046E0002FE04212DECFF40112930293539445E07F
:1046F0005412C4CF0E94180B3CC080914F038430E9
:1047000021F110923403E8E1F0E020E40FB6F894D0
:10471000A895E09360000FBE2093600083B7817F6F
:10472000846083BF83B7816083BF7894889583B7A3
:104730008E7F83BF0FB6F894A89580916000886142
:1047400080936000109260000FBE0E944E21E5E44D
:10475000F3E081919191892B09F045C243E0EF3458
:10476000F407B9F71DCF2817390709F039CF0E9490
:104770002B2186E0EEE9F3E0DE01119601900D9227
:104780008A95E1F780909F030091A0031091A10307
:10479000E090A203F090A3031092A0031092A10353
:1047A0001092A2031092A303812F802B811509F48C
:1047B0004AC080914203909143030E94240B6C01F4
:1047C00080919C038115B1F190910F019C151D04FE
:1047D000D0F58F3F19F08F5F80939C03011559F03E
:1047E0000E94310A91E010160CF09FEF899F802DF6
:1047F00011248093A003111559F00E94310A91E011
:1048000011160CF09FEF899F802D11248093A10336
:104810008091A0038115B9F09090A103911499F0B3
:104820000E94230A8093A003892D0E94230A80936B
:10483000A10309C020910E019AE0299F9001112443
:104840002C153D0540F28E2D8F29811509F440C0AD
:1048500080914003909141030E94240B5C01809160
:104860009B03811509F4B9C1A1E5AA16B10480F131
:104870008F3F19F08F5F80939B03E11459F00E94E2
:10488000770A91E01E140CF09FEF899F802D112470
:104890008093A203F11459F00E94770A91E01F144B
:1048A0000CF09FEF899F802D11248093A3038091AA
:1048B000A203811569F0E090A303E11449F00E947E
:1048C000230A8093A2038E2D0E94230A8093A303C0
:1048D00080919F03881219C08091A003811511F067
:1048E000801313C02091A103211511F021130DC0D5
:1048F0009091A303911511F09F1107C03091A2036D
:10490000311103C0822B892B81110E94A40D86E0F6
:10491000FE013196AEE9B3E001900D928A95E1F780
:104920000E94B00A182F809144031817A9F0109321
:1049300044030E94180B8091A6038570853061F4B2
:104940001F921F9384E19BE09F938F930E94000727
:104950000F900F900F900F9080914F03843009F0CB
:104960000FCE83E08093E9008091E80082FF08CEBB
:104970008091E80090E085FF05C00E94BC0B811586
:1049800091F091E08091E8008B778093E800911599
:1049900009F4F6CDE981E150E33168F5F0E0EF5933
:1049A000F64D0C94172800E210E0FE0131967F01CD
:1049B0008091E80085FD0AC08091E8008B778093A4
:1049C000E8000E94BC0B811599F3DBCF8091F100C8
:1049D000D7018D937D010150104051F7D2CF1A823B
:1049E0008CE08B831AC08A81833049F138F481309E
:1049F00061F08230D9F08FEF89830FC08430D9F70E
:104A00001B821C821D821E8208C00E94180B0E94FD
:104A10001D286B837C838D839E8340E250E0BE0122
:104A20006F5F7F4F82E00E94170DAACD87E290E072
:104A30000E946F281B821C821D828E83EECF8B8189
:104A400090E0FE01319632968530910534F7DC0115
:104A5000AA0FBB1FAB5BBC4F2C9111963C913183CD
:104A600022830196F0CF8A81823019F08530A9F235
:104A7000C2CF6B817C818D819E810E941D2887E23F
:104A800090E00E948D28C9CF4C816B818A810E9461
:104A9000A7119827892798279E838D83BECF2D81C4
:104AA0003E813227232732274C816B818A810E94E5
:104AB0000511B3CF0E942C11B0CF80E18A83ADCF16
:104AC00081E08A8380E88DCF0A811B81102701272E
:104AD00010278C814801880E911C7E01B5E0EB0EF9
:104AE000F11C0815190509F498CF80E00038E1E0C1
:104AF0001E0728F4C80180589D4F0E946F28D701D7
:104B00008D937D010F5F1F4FECCF0A811B81102712
:104B100001271027FE0131967F018C814F01880EFD
:104B2000911C8E149F0409F478CF0038F1E01F0720
:104B300040F4D70114966C91C80180589D4F0E9493
:104B40008D280F5F1F4FBFEFEB1AFB0AEACF0E94C1
:104B50006B1163CF84E0B2CF0A811B81102701273C
:104B600010278C814801880E911C7E01E5E0EE0E35
:104B7000F11C8016910609F450CF80E00835F2E070
:104B80001F0720F4C80188960E946F28D7018D93D3
:104B90007D010F5F1F4FEDCF0A811B811027012779
:104BA0001027FE0131967F018C814F01880E911CE8
:104BB0008E149F0409F431CF0835F2E01F0738F452
:104BC000D70114966C91C80188960E948D280F5FBA
:104BD0001F4FBFEFEB1AFB0AEBCFEBE0AE16B104B1
:104BE00008F048CE75CE80913503811509F4D8CCF4
:104BF00080E189BD92E199BD09B400FEFDCF8091AD
:104C0000D8008F7D8093D8008091E00082608093EF
:104C1000E0008091E00081FDFCCF0E948F13C0CCAA
:104C20001F921FB61F9211248F939F93AF93BF9330
:104C300080913403811113C080912203909123034A
:104C4000A0912403B09125034196A11DB11D80932D
:104C5000220390932303A0932403B0932503BF91D1
:104C6000AF919F918F911F901FBE1F9018957894C0
:104C70001F921FB61F9211248F939F93AF93BF93E0
:104C80008091220390912303A0912403B0912503E6
:104C90000196A11DB11D8093220390932303A0933D
:104CA0002403B0932503BF91AF919F918F911F90E3
:104CB0001FBE1F9018951F920F920FB60F921124CE
:104CC0002F933F934F935F936F937F938F939F9314
:104CD000AF93BF93EF93FF938091E10082FF15C0E4
:104CE0008091E20082FF11C08091E1008B7F809370
:104CF000E10020910C032F5F822F62E30E94F727CF
:104D0000911509F4DCC020930C038091DA0080FF38
:104D10002CC08091D80080FF28C08091DA008E7F5F
:104D20008093DA008091D90080FFFEC080E189BDC8
:104D300082E189BD09B400FEFDCF81E080934F037D
:104D400084EA93E09F938F930E94000780910F0362
:104D50000F900F90811109C00E94ED0B0E943C0C36
:104D60008091E20084608093E2008091E10080FF06
:104D700022C08091E20080FF1EC08091E2008E7F01
:104D80008093E2008091E20080618093E200809154
:104D9000D80080628093D80019BC85E080934F03CF
:104DA0008CEA93E09F938F930E94000783E08093A7
:104DB00013010F900F908091E10084FF37C0809124
:104DC000E20084FF33C080E189BD82E189BD09B47E
:104DD00000FEFDCF8091D8008F7D8093D800809118
:104DE000E1008F7E8093E1008091E2008F7E8093CE
:104DF000E2008091E20081608093E20080910E03E6
:104E0000811509F49FC084E080934F0380EB93E009
:104E10009F938F930E94000780914F030F900F90F4
:104E2000843009F097C082E0809313018091E10003
:104E300083FF34C08091E20083FF30C08091E100A5
:104E4000877F8093E10082E080934F0310920E03EE
:104E50008091E1008E7F8093E1008091E2008E7F5F
:104E60008093E2008091E20080618093E20042E062
:104E700060E080E00E940C0C8091F00088608093DC
:104E8000F00084EB93E09F938F930E94000781E0F2
:104E900080931301809312010F900F90FF91EF9177
:104EA000BF91AF919F918F917F916F915F914F9142
:104EB0003F912F910F900FBE0F901F901895109259
:104EC0000C0380911903811509F41FCF80914F03C2
:104ED0008430B9F49091E9008091EC009F7087953F
:104EE00088278795892B95E09093E9009091EB00B6
:104EF00090FF04C09091EE0097FD08C08F708093E2
:104F0000E9001092190301CF1092F1009091E8008E
:104F100095FDFACF9091E80090FFF0CF9091E800D6
:104F20009E779093E800EACF19BC10924F0388EA6D
:104F300093E09F938F930E94000710920F030F90AE
:104F40000F9013CF8091E30087FF02C083E05CCF16
:104F500081E05ACF81E068CF1F920F920FB60F9277
:104F60001124EF92FF920F931F932F933F934F9330
:104F70005F936F937F938F939F93AF93BF93CF93E1
:104F8000EF93FF9309EE10E0F8018081C091EC00EF
:104F90008F70C795CC27C795C82B108280EFE82E5D
:104FA000F12CF7018081877F808378940E94EF1332
:104FB000F8011082F701808188608083CF70F8014A
:104FC000C083FF91EF91CF91BF91AF919F918F914E
:104FD0007F916F915F914F913F912F911F910F9111
:104FE000FF90EF900F900FBE0F901F90189599278C
:104FF00078E0880F991F961708F0961B881F7A95FE
:10500000C9F78095089597FB072E16F4009407D0F2
:1050100077FD09D00E945B2807FC05D03EF49095EF
:1050200081959F4F0895709561957F4F0895EE0F7C
:10503000FF1F0590F491E02D0994692796276927B1
:1050400078278727782708952F923F924F925F9273
:105050006F927F928F929F92AF92BF92CF92DF9288
:10506000EF92FF920F931F93CF93DF93CDB7DEB7ED
:10507000CA1BDB0B0FB6F894DEBF0FBECDBF099481
:105080002A88398848885F846E847D848C849B84D8
:10509000AA84B984C884DF80EE80FD800C811B81E6
:1050A000AA81B981CE0FD11D0FB6F894DEBF0FBE15
:1050B000CDBFED010895AA1BBB1B51E107C0AA1F7C
:1050C000BB1FA617B70710F0A61BB70B881F991FA9
:1050D0005A95A9F780959095BC01CD010895F9994D
:1050E000FECF92BD81BDF89A992780B50895A8E1B9
:1050F000B0E042E050E00C94B328DC01A40FB51FEF
:105100004150504048F0CB01840F951F2E910E94D2
:105110008E2841505040D0F70895262FF999FECFA0
:1051200092BD81BDF89A019700B4021639F01FBAFA
:1051300020BD0FB6F894FA9AF99A0FBE0895039617
:10514000272F0E948E280E948D28252F0E948E28AE
:10515000242F0C948E280196272F0E948E280C94C1
:105160008D28DC01CB01FC01F999FECF06C0F2BD10
:10517000E1BDF89A319600B40D9241505040B8F715
:105180000895FB01DC0104C08D910190801921F488
:1051900041505040C8F7881B990B0895F894FFCFF1
:1051A000720E7A0E7D0E830E980E980E980E980E43
:1051B000980E980E980E980E860E8B0E8F0E950EEA
:1051C000A60EAC0EB00ED114F714FD14F714FD1496
:1051D00050157215FD146E167B16DB17C217EE17ED
:1051E00036178F188F18BB178F188F181E188F1827
:1051F0002E1875188F188F188F188F1849188F1838
:105200008F183E188F1807188F188F188D188D1843
:105210008D188D188D188D188D188D188D1887186C
:105220008F18DB17B0178F188F188F188F188F18DB
:105230008F188F188F188F188F1887188F188F183E
:10524000BB178F188B188B188B188B188B188B1813
:105250008B188B188B188718381B3C1B2E1B341B84
:10526000401B441B481BEE1CEE1C281D281DC11DA5
:10527000DC1D541D541DE11D501E611E611E8F1B3F
:10528000F71B971B611B651B9B1B691B9F1BAB1BA4
:10529000751BF01B791BAF1B7D1BB31BD81B811B20
:1052A000B71BDF1B871BBD1BC51B6D1BA31B711B06
:1052B000A71B8B1BC11BCF1BE81BEE1B5B1B931B90
:1052C000FE1BEF24F324332544254F255A25FB24C8
:1052D000FB24FB24FB24FB245D2560256425852518
:0852E000A725AA25AC25CC2569
:1052E8000A1E0828090B510D680D6F0D760D011463
:1052F800000001003F3F3F006D6B5F64656C6179A2
:10530800006D6B5F696E74657276616C006D6B5FC2
:105318006D61785F7370656564006D6B5F74696D4E
:10532800655F746F5F6D6178006D6B5F7768656549
:105338006C5F6D61785F7370656564006D6B5F7736
:105348006865656C5F74696D655F746F5F6D6178C2
:10535800000A092D2056657273696F6E202D0A5652
:1053680049443A203078344132352822435A4D4155
:105378004F2229205049443A203078344132352888
:1053880022637A6D616F5F6D71363422292056452C
:10539800523A203078303130300A4255494C443A3C
:1053A8002020284D61792032392032303235290ABF
:1053B8004F5054494F4E533A204C55464120424F86
:1053C8004F544D41474943204D4F5553454B45593F
:1053D8002045585452414B455920434F4E534F4C4A
:1053E8004520434F4D4D414E44204E4B524F204C8B
:1053F800544F20343039360A4743433A2031342E4B
:10540800322E30204156522D4C4942433A20322EFA
:10541800312E30204156525F415243483A2061763E
:1054280072350A004422B61599017701C100AC0013
:1054380006031F033F035803313233343567F6F54B
:10544800F4F1C6909291939594969736E200E9000C
:10545800EA00B500B600B700CD008301CC008A0190
:105468009201940121022302240225022602270226
:105478002A02B300B4006F0070009F01CB019F02A5
:10548800A002E200E900EA00B500B600B700CD00CE
:105498008301CC008A019201940121022302240293
:1054A8002502260227022A02B300B4006F0070000A
:0854B8009F01CB019F02A0023D
:00000001FF
