:100000000C9457020C9474020C9474020C947402B5
:100010000C9474020C9474020C9474020C94740288
:100020000C9474020C9474020C9475270C944D2853
:100030000C942A270C9474020C9474020C9474028D
:100040000C9474020C9474020C9474020C94740258
:100050000C9474020C9451270C9474020C94740246
:100060000C9474020C9474020C9474020C94740238
:100070000C9474020C9474020C9474020C94740228
:100080000C9474020C9474020C9474020C94740218
:100090000C9474020C9474020C9474020C94740208
:1000A0000C9474020C9474020C94740205010906F9
:1000B000A1018506050719E029E715002501950826
:1000C000750181020507190029EF1500250195F03A
:1000D000750181020508190129059505750191022F
:1000E000950175039101C00660FF0961A1010962D4
:1000F000150026FF0095207508810209631500266A
:10010000FF00952075089102C005010906A10105AF
:100110000719E029E7150025019508750181029569
:1001200001750881010507190029FF150026FF0048
:100130009506750881000508190129051500250196
:10014000950575019102950175039101C009025B46
:1001500000030100A0FA09040000010301010009E5
:100160002111010001224400070581030800010953
:1001700004010002030000000921110100012222F4
:100180000007058203200001070503032000010981
:100190000402000103000000092111010001223BBB
:1001A000000705840320000112010002000000087E
:1001B000134A134A00010102000118036D00610097
:1001C0006F005F00310030005F00440053003600D4
:1001D000300000000C0343005A004D0041004F0066
:1001E00000000403090435001E001F002000210048
:1001F0002200230024002500260027002D002E00C9
:100200002A002B0014001A000800150017001C001B
:1002100018000C00120013002F00300031003900CC
:1002200004001600070009000A000B000D000E0074
:100230000F003300340028000000E1001D001B0007
:1002400006001900050011001000360037003800C4
:10025000E50000000000E000E300E2000000000014
:100260002C0000000000E60065002152E4000000C0
:10027000000035001E001F00200021002200230086
:1002800024002500260027002D002E002A002B0028
:1002900014001A000800150017001C0018000C00BC
:1002A000120013002F003000310039000400160046
:1002B000070009000A000B000D000E000F003300BC
:1002C000340028000000E1001D001B00060019009A
:1002D000050011001000360037003800E50000006E
:1002E0000000E000E300E200000000002C0000003D
:1002F0000000E60065002152E4000000000000015B
:1003000001010101010101010202020202020202D5
:1003100002030303030303030304040404040404A7
:10032000050505050506060606060707070707086B
:10033000080808090909090A0A0A0B0B0B0C0C0C1E
:100340000D0D0D0E0E0E0F0F0F10101111111212B8
:1003500013131414151516161717181819191A1A35
:100360001B1B1C1D1D1E1E1F202021222223242496
:10037000252626272829292A2B2C2D2D2E2F3031D2
:100380003232333435363738393A3B3C3D3E3F40E4
:100390004142434445464748494A4C4D4E4F5051CF
:1003A0005354555658595A5B5D5E5F616264656689
:1003B00068696B6C6D6F7072737577787A7B7D7E10
:1003C0008082838587888A8C8E8F91939596989A60
:1003D0009C9EA0A2A3A5A7A9ABADAFB1B3B5B7BA78
:1003E000BCBEC0C2C4C6C9CBCDCFD1D4D6D8DBDD4C
:1003F000DFE2E4E7E9EBEEF0F3F5F8FAFDFF0000E9
:1004000000000000000000000000000000000000EC
:1004100000000000000000000000000000000000DC
:1004200000007E0F00D4FFFFFFC70000007800002F
:100430000000000000002A2B28000000000000003F
:1004400000000000000000000029000000002C1E39
:100450003420212224342627252E362D3738271EF6
:100460001F202122232425263333362E37381F041C
:1004700005060708090A0B0C0D0E0F1011121314B4
:1004800015161718191A1B1C1D2F3130232D350472
:1004900005060708090A0B0C0D0E0F101112131494
:1004A00015161718191A1B1C1D2F3130354C112425
:1004B0001FBECFEFDAE0DEBFCDBF12E0A0E0B1E0BB
:1004C000ECE6F4E502C005900D92AA34B107D9F725
:1004D00024E0AAE4B2E001C01D92A93BB207E1F713
:1004E0000E94FC210C94B2290C94000080937204A9
:1004F000089580937304089521E030E001C0220F35
:100500008A95EAF780917304822B0E9479020895FC
:1005100021E030E0A90102C0440F551F8A95E2F79F
:10052000CA0180959091730489230E9479020895ED
:10053000292F953098F58E3088F590E03EE0239F86
:10054000800D911D1124282F277041E001C0440F18
:100550002A95EAF723E0969587952A95E1F7FC011D
:10056000EE0FFF1FE80FF91FE65BFB4F20E030E0C6
:1005700070E05191DF011197CB01022E02C09695D8
:1005800087950A94E2F781708195852784238527D2
:100590008C932F5F3F4F2330310559F70895292F52
:1005A000953078F58E3068F590E03EE0239F800D21
:1005B000911D1124682F677023E0969587952A95E1
:1005C000E1F7FC01EE0FFF1FE80FF91FE65BFB4FA1
:1005D00040E050E080E0219130E0062E02C03695E8
:1005E00027950A94E2F721703327042E01C0220FC9
:1005F0000A94EAF7822B4F5F5F4F4330510559F75A
:10060000089580E008959091730421E030E0F901AD
:1006100001C0EE0F8A95EAF7D90102C0AA0FBB1FED
:100620006A95E2F7EA2B01C0220F4A95EAF7892F73
:100630008E23E81305C0892F822B0E94790208952A
:100640002095822F8923F9CF8091790490917804A5
:10065000981301C008958F5F8770FACF909174044A
:100660008095892380937404282F277021110DC051
:10067000891759F09091760492FF07C08695869568
:1006800086950E94880210927404089580916F04E8
:1006900090917704892B509170045523C1F090916B
:1006A00011019923A9F09091750497FF11C09DE164
:1006B00026E532E040E0F90160812F5F3F4F611194
:1006C0004F5F9150C0F7411110927004852B08952F
:1006D00095E02EE432E0EECF982F909580916F0454
:1006E000892380936F040895803E9105D1F1C8F469
:1006F0008133910509F47FC048F48932910509F4EA
:100700006FC08A32910509F47DC00895893391053F
:10071000E1F082389105C9F08533910509F45BC099
:100720000895843E9105D1F148F4823E910531F15E
:10073000833E910541F181EE90E00895863E91055A
:10074000C1F1873E9105E1F1089520917504237070
:10075000211165C02091760423FF14C089E290E046
:1007600008952091750420FD43C03091760430FF38
:1007700009C024FF4EC080E090E0089520917504E8
:1007800022FDF7CF08952091750422FD45C03091D8
:10079000760430FD44C024FFF5CFEDCF20917604E0
:1007A00021FFF0CF8091750484FDE5CF87EE90E0C6
:1007B00008952091750423FFE5CF24FDDCCFF6CF0B
:1007C0002091750423FD2EC03091760431FFE3CFD4
:1007D00084EE90E008952091750425FFD3CFBECF1D
:1007E0002091750425FD21C02091760423FFCACFF6
:1007F00089E390E008952091750426FFC3CF8AE233
:1008000090E008952091750426FFBCCF81E390E02D
:10081000089583EE90E0089582EE90E0089580EED2
:1008200090E0089586EE90E0089585E390E0AACFE9
:100830009091750492FF10C041E0282F247124305C
:1008400009F040E031E0282F2871283009F030E02D
:10085000431711F02CE0822793FF10C041E0282FAE
:100860002471243109F040E031E0282F287128312B
:1008700009F030E0431711F02CE082273091760424
:1008800030FF10C051E0282F2171213009F050E0D5
:1008900041E0282F2871283009F040E0541711F06A
:1008A00029E0822731FF10C041E0282F217121313A
:1008B00009F040E031E0282F2871283109F030E0BC
:1008C000431711F029E0822794FD877E08951F9336
:1008D000CF93DF930E947403EC01811522E5920708
:1008E00008F04DC0811540E5940708F0C5C0883E6A
:1008F000910588F0811550E4950728F199270E9409
:100900007403CC27DF70C82BD92BD06ACE01DF91BE
:10091000CF911F910895803E9105C0F7853A9105CA
:1009200050F4049798F781E0219709F080E0C82FF0
:1009300080E0D82FEBCF8D5C9109D065439730F3E1
:10094000C0E0D0E0E3CFC11590E2D90708F0ADC018
:10095000CE019A9581159F4198F78D2F0E9418041A
:10096000182FCE0199270E947403212F30E0322FD7
:100970002227E901CC27DF71C82BD92BC7CF8038BC
:1009800042E59407C0F5803652E5950708F055C05A
:10099000C03482E5D807B0F08C2F86958695877095
:1009A00020E2829FC0011124C37021E030E0A90140
:1009B00002C0440F551FCA95E2F7EA01C82BD92B94
:1009C000DC68A4CFC03252E5D50780F58C2F869520
:1009D000869520E2829FC0011124C37021E030E09F
:1009E000A90102C0440F551FCA95E2F7EA01C82BBE
:1009F000D92BDD688BCF803C52E5950758F48F7179
:100A0000C03AD24578F590E0982F8827EC01C46F62
:100A1000D06A7CCF805C9245809708F091CFDC2F24
:100A2000CC27CC27DF71C06FD06A70CFCF71D0E0F8
:100A3000DC2FCC27C16FD06A69CF869586958770E9
:100A400020E2829FC0011124C37021E030E0A9019F
:100A500002C0440F551FCA95E2F7EA01C82BD92BF3
:100A6000DA6854CF0E941804C82FD0E0DC2FCC27BE
:100A7000CC27DF71D0624ACF8F710E94180465E0E5
:100A8000D695C7956A95E1F7CF70D0E0DC2FCC27DB
:100A9000282F30E084FF05C054E0220F331F5A9501
:100AA000E1F7C22BD32BD06931CF8D2F8F710E94EC
:100AB0001804182FCE0199270E947403212F30E0CB
:100AC000322F222722273F71282B392BE901D2CF41
:100AD00080E00895F894E82FE295EF70F0E041A1EE
:100AE0008F7021E030E0B90102C0660F771F8A9550
:100AF000E2F7CB01962F9095942391A392A1892B95
:100B000082A378940895A0E0B0E0E9E8F5E00C94C1
:100B1000F228E82FF0E0E250FD4F711109C0E49196
:100B20008E2F7E2F6E2FCDB7DEB7EAE00C940E2904
:100B3000262F30E0C72FD0E0F491EF2F86E0829F80
:100B40008001839F100D1124EE24EA94F12CC8013A
:100B5000B7010E949628AB01220F331F65E5649F01
:100B6000C001659F900D1124281B390B822F880F1F
:100B7000280FC7018C1B9D0BF89FD001F99FB00D6A
:100B800011248B2F2C9FB0012D9F700D1124672FE6
:100B900077275701A61AB70AFA9D6001FB9DD00C72
:100BA00011247D2D5701A21AB10895012C9F5001E7
:100BB0002D9FB00C3C9FB00C1124AB2CBB24EA1829
:100BC000FB08FE9DE001FF9DD00D1124433051052F
:100BD000C1F00C3F93E0190750F44130510509F47E
:100BE000A1CF4230510589F07E2FED2F9BCF4430AD
:100BF000510571F046305105B9F3EB2F8D2D7F2F44
:100C000091CFED2D7B2F8F2F8DCF7B2F8D2F8ACFE7
:100C10007D2FEB2FF8CF9C0180E090E0269F812D67
:100C2000369F800D911D112408959C0182309105FD
:100C300008F408959FEF213E8EE1380740F4C90182
:100C400045E0969587954A95E1F798E0980F61E021
:100C5000E62FE90FFF27FF1FAF0155954795842F1A
:100C6000449FF001459FF00DF00D11242E173F0712
:100C700038F49FEF940F961758F78FEF860F08956B
:100C80004F3FE9F361E0640FF6CF409103015091CB
:100C9000040125E038E0429FC001439F900D529F20
:100CA000900D1124875E994C909304018093030169
:100CB000890F0895982FE82F96FDE0958E2F8F705D
:100CC00096FD8F5FE695E695E695E670F0E0EB5DC4
:100CD000FE4F2181289F202D812D112422952F70D8
:100CE0008295807F282B8081820F97FD8195805887
:100CF0000895FC019B01009719F4832F80780895D3
:100D0000AC0197FF04C044275527481B590BB90174
:100D1000640F751F37FD0FC0C901841B950BA5E03B
:100D2000880F991FAA95E1F70E94AA2880E2861BE6
:100D3000F7FD81950895CB0165E0880F991F6A95AD
:100D4000E1F7BA01621B730B0E94AA2880E6EFCF7D
:100D50001F93172F922FE42FF0E0EE0FFF1FEA579B
:100D6000FE4F408124EE429F412D1124E72FF0E0F9
:100D700050E09A01245E3F4F291B310937FF03C021
:100D800031952195310993E0220F331F9A95E1F7B0
:100D9000E21BF30BF7FF02C0E0E0F0E07E2F719F53
:100DA000712D11241F9108951F93182F822FE42F66
:100DB000F0E0EE0FFF1FEA57FE4F408124EE429F06
:100DC000412D1124E12FF0E050E09A01245E3F4FC5
:100DD000281B310937FF03C031952195310983E084
:100DE000220F331F8A95E1F7CF01821B930B9C01E1
:100DF00097FF02C020E030E0219F212D1124822F97
:100E00001F9108950F931F93CF93DF93D62F172F22
:100E1000C82FBA01C901212F201B022F0E94790679
:100E2000982F990F990F782F791B700F719F712D43
:100E300011246D2F8C2FDF91CF911F910F91089569
:100E4000FF920F931F93CF93DF93D62FC72F182FA7
:100E5000BA01C901F12EF01A0E947906982F990F54
:100E6000990F082F091B0F0D019F012D11246D2FC4
:100E70007C2F802FCDB7DEB7E5E00C941329EF92DD
:100E80000F931F93CF93DF93D62F172FC82FBA013D
:100E9000C9010E19010F0E947906702F781B719FEE
:100EA000712D11246D2F8C2FDF91CF911F910F91F8
:100EB000EF900895EF920F931F93CF93DF93D62F68
:100EC000C72F182FBA01C9010E19010F0E94790608
:100ED000081B019F012D11246D2F7C2F802FDF9186
:100EE000CF911F910F91EF900895622F0895E42FF5
:100EF000F0E0EE0FFF1FEA57FE4F6081621B08957E
:100F0000E42FF0E0EE0FFF1FE957FE4F6081621BF8
:100F10000895322F50E0FA01EE0FFF1FE957FE4F00
:100F20009081905297FD9195440F551FFA01EA5711
:100F3000FE4F2081231B330B290F311D97FD3A955E
:100F4000620F0895EF920F931F9310E09801220F04
:100F5000331F200F311F359527956E2D620F1F917E
:100F60000F91EF9008950F93CF93DF93D72FC82F52
:100F7000B90147FD419528E330E0241B310947FDC5
:100F80003395229FA001239F500D500D1124669F81
:100F9000C001679F900D900D1124840F951F0E9432
:100FA0001506982F990F692F680F600F7D2F8C2FD2
:100FB000DF91CF910F9108950F93CF93DF93D72FA8
:100FC000C82FBA01C9010E947906682F600F7D2FD2
:100FD0008C2FDF91CF910F910895EF920F93CF93C4
:100FE000DF93D72FC82FBA01C9010E190E947906C5
:100FF000602F681B7D2F8C2FDF91CF910F91EF9089
:1010000008950F931F93522F10E0F801EE0FFF1F6A
:10101000E957FE4FA081A052BB0B9D015203F00186
:10102000539FF00D1124000F111FD801AA57BE4F76
:101030002C912057330B4203D001439FB00D112454
:101040009F012A0F3B1F37FF02C021583F4F220F3D
:10105000232F221F330B620F1F910F9108950F93BF
:101060001F93522F10E0F801EE0FFF1FE957FE4FBC
:10107000A081A052BB0B9D015203F001539FF00DC4
:101080001124000F111FD801AA57BE4F2C912057D1
:10109000330B4203D001439FB00D11249F012A0F4F
:1010A0003B1F37FF02C0215C3F4F96E035952795E7
:1010B0009A95E1F7620F1F910F9108950F931F9377
:1010C000A42F10E0F801EE0FFF1FEA57FE4F9081AA
:1010D000905797FD9195000F111FF801E957FE4FAA
:1010E00000810052110B2003A001219F500D1124FB
:1010F00028E330E0291B310997FD33951A2F12039D
:10110000F001139FF00D11244E0F5F1F9A01220F63
:10111000331F240F351F37FF02C021583F4F220FC6
:10112000232F221F330B620F1F910F9108950F93EE
:101130001F93CF93DF93D62F072F182FC42F822F03
:101140000E945A06982FEC2FF0E0EE0FFF1FEA578F
:10115000FE4F80818058980F97FD9195990F292F08
:101160003CE0239F212D1124622F6D0F702F812FC2
:10117000DF91CF911F910F910895E42FF0E0EE0FD2
:10118000FF1FEA57FE4F9081921B97FD9195292FE3
:1011900038E1239F212D1124620F08954095282FB7
:1011A000429F412D1124842F0895409520E4429FB1
:1011B000412D1124640F0895EF92FF920F93970130
:1011C00095E0099F200D311D11242F3F310519F0A5
:1011D00010F02FEF30E02095382F320F08F43FEF5A
:1011E000832F0F91FF90EF900895EF92FF920F934E
:1011F000E00EF11CF90137FF03C0F195E195F1090B
:1012000024E0EE0FFF1F2A95E1F7EF3FF10519F0FB
:1012100014F0EFEFF0E09A0157FF03C031952195EC
:10122000310994E0220F331F9A95E1F72E173F07FB
:101230000CF4F901EE0DFF1DEF3FF10519F010F070
:10124000EFEFF0E02E2F2095382F320F08F43FEF0C
:10125000832F0F91FF90EF900895EF92FF920F93DD
:10126000972FFA01B9019701093430F4201B310995
:101270002F3F310519F010F02FEF30E038967197BD
:1012800040F0AB01485F5F4F4131510510F02FEF47
:1012900030E02095382F320F08F43FEF832F77FF8F
:1012A00002C06D5F7F4F7595679575956795209125
:1012B0006804620F792F0F91FF90EF900895EF92DD
:1012C000FF920F939701201B31092F3F310519F031
:1012D00010F02FEF30E0322F3095482F430F08F4F5
:1012E0004FEF842F620F0F91FF90EF900895EF92D0
:1012F000FF920F939701201B31092F3F310519F001
:1013000010F02FEF30E02095382F320F08F43FEF28
:10131000832F0F91FF90EF90089590916B03982B7E
:1013200090936B0308950E94550A08950E94760ACF
:1013300008959DE0899F802D1124980F923408F024
:1013400091E40895982F862F20916704237022231B
:1013500089F0992381F0973280F49F73990F990F48
:10136000209167042370922B9093670410921201CE
:101370000E948D09089591E0F1CF96E2EFCF809120
:101380006704869586958F5F873208F081E061E07B
:101390000E94A209089590916704969596958FEF03
:1013A000890F913009F486E261E00E94A209089554
:1013B000982F822F209167042370222359F0909355
:1013C000680460936904453B08F044EB40936A0469
:1013D0000E948D090895E7E6F4E0818190E021E024
:1013E0004381628108960E94D8090895E7E6F4E0F7
:1013F000818121E0438162818850990B0E94D80944
:101400000895E7E6F4E0628120E1620F08F46FEFEF
:10141000818121E0438190E00E94D8090895E7E6A8
:10142000F4E0628120E1621B08F460E0818121E048
:10143000438190E00E94D8090895E7E6F4E04381F3
:1014400020E1420F08F44FEF818121E0628190E0BA
:101450000E94D8090895E7E6F4E0438120E1421BA9
:1014600008F440E0818121E0628190E00E94D80987
:101470000895E7E6F4E0248130E1230F08F42FEF2C
:10148000248381E00E948D090895E7E6F4E0248139
:1014900030E1231B08F420E0248381E00E948D09C1
:1014A0000895259A109251030895CF93DF93DC019C
:1014B000FC01EE0FFF1FEF01CA0FDB1FC257DD4F0C
:1014C0008981861306C08881841303C08A818217AC
:1014D00051F081E080935103EA0FFB1FE257FD4F6B
:1014E000618340832283DF91CF910895FF920F9310
:1014F0001F93CF93DF93182F062FF42EC0E0D0E078
:101500002F2D402F612FCE010E94550A2196C13404
:10151000D105B1F7CDB7DEB7E5E00C941329FA0198
:10152000882311F009950895FB01FCCFE091400458
:10153000F0914104309729F00190F081E02D099558
:10154000089580E00895909111019923C1F0909140
:10155000750497FF14C0E82FE695E695E695803F61
:10156000F8F4F0E0EC5AFD4F877021E030E001C064
:10157000220F8A95EAF78281822B82830895AEE456
:10158000B2E0EFEF90E02D91821751F0EF3F19F4A8
:10159000211101C0E92F9F5F9630A9F7EF3F09F4B1
:1015A00008950E2E000CFF0BE45BFD4FE6CF9091EB
:1015B00011019923E1F09091750497FF18C0E82F6D
:1015C000E695E695E695803FF0F4F0E0EC5AFD4FA5
:1015D000877021E030E0A90102C0440F551F8A95B1
:1015E000E2F7CA0180959281892382830895EEE40F
:1015F000F2E09191891303C0DF0111971C9252E030
:10160000E435F507B1F708952FB7F89480915603A4
:1016100090915703A0915803B09159032FBF08959B
:10162000A4E0B0E0E6E1FBE00C94FA288FB7F89470
:10163000209156033091570340915803509159031C
:1016400029833A834B835C838FBF69817A818B8145
:101650009C812496E2E00C9416299C014FB7F894E3
:101660008091560390915703A0915803B09159036C
:101670004FBF821B930B089587E797E7909301086C
:101680008093000888E19AE00FB6F894A8958093BB
:1016900060000FBE90936000FFCF80918D0208958F
:1016A00008950895FC019B0180918302909184022A
:1016B0008617970740F0672B29F48091E8008E7712
:1016C0008093E800C90140E0009741F4411106C051
:1016D0008091E80082FF2FC080E0089520911D04D2
:1016E0002223A9F12530A9F12091E80023FD2DC086
:1016F0002091E80022FDECCF2091E80020FFE4CF0C
:101700003091F3002091F200009719F02830310554
:1017100058F041E02830310509F040E02091E80020
:101720002E772093E800D0CF41914093F1000197AC
:101730002F5F3F4FE9CF80911D04882341F0853012
:1017400041F08091E80083FFC3CF81E0089582E0FB
:10175000089583E0089580917D0287FF13C08091F2
:10176000E80082FF06C08091E8008B778093E80054
:1017700004C080911D048111F2CF089580911D0451
:101780008823D9F38091E80080FFF8CF8091E800AA
:101790008E77ECCF2091E4003091E50095E6A90129
:1017A0008091EC008170882331F08091E80080FF07
:1017B00006C080E008952091E80022FD1BC08091C2
:1017C0001D04882391F0853091F08091EB0085FD18
:1017D00010C02091E4003091E5004217530701F357
:1017E00091509111DCCF84E0089582E0089583E068
:1017F000089581E00895E8EDF0E080818E7F808398
:101800001092E2001092DA001092E100A0EEB0E037
:101810008C9181608C9380818F77808319BCA7ED38
:10182000B0E08C918E7F8C9380818F7E808310922C
:101830007C020895AF92BF92DF92EF92FF920F93D6
:101840001F93CF93DF935C01809100010E9499095F
:10185000C82F192F60916B04669580915D0390915C
:101860005E030E940B06D82ED0E0CE01880F991F90
:101870009C012A573E4F7901C11770F081E0113465
:1018800008F080E0DF91CF911F910F91FF90EF90D2
:10189000DF90BF90AF900895FE01E85FFD4F80811B
:1018A0009091010189238823C1F0F7012181205201
:1018B000330B40814057550B609168047091690467
:1018C00080916A040D2DF50109950E948305462F2C
:1018D000672F282FCE010E949309F2E0EF0EF11C32
:1018E0002196CACFA0E0B0E0E8E7FCE00C94EE2837
:1018F0003C01809100010E949909C82F192F609125
:101900006B04669580915D0390915E030E940B06C7
:10191000F82ED0E0CE01880F991F9C012A573E4F28
:101920006901C11748F081E0113408F080E0CDB7BB
:10193000DEB7EEE00C940A29FE01E85FFD4F8081DE
:10194000909101018923882379F1F6018081282F64
:101950002057330B59018181E82FE052FF0B4F01D3
:10196000AA9C9001AB9C300D300D1124EE9FC0015C
:10197000EF9F900D900D1124820F931F0E9415066A
:10198000082F609168047091690480916A04EF2CBB
:101990009401A501F30109950E948305462F672F45
:1019A000282FCE010E949309F2E0CF0ED11C219680
:1019B000B8CFA4E0B0E0EFEDFCE00C94F4286C01AB
:1019C000809100010E9499098B83F92E60916B042C
:1019D0006695669580915D0390915E030E940B066B
:1019E000182F80E4810F0E945A0680588983812F26
:1019F0000E945A0680588A839B81892F90E09C839D
:101A00008B839B819F1548F081E0E0E4EF1508F49B
:101A100080E02496E8E00C941029EB81FC81E85FDB
:101A2000FD4F80819091010189238823A9F0609165
:101A300068047091690480916A04E12E0B812A8107
:101A40004981F60109950E948305462F672F282FAB
:101A50008B819C810E9493098B819C810196CFCFC1
:101A6000A0E0B0E0E6E3FDE00C94F528EC01FC0119
:101A7000E85FFD4F8081909101018923882349F11E
:101A8000D090690400916A0410916804E12EF12C51
:101A90000E944506482FC7018C549F4F68E671E0AD
:101AA0000E94AA288E199F0997FD03969595879500
:101AB000959587954370612F489F600D11247D2D6A
:101AC000802F0E948305462F672F282FCE010E946A
:101AD0009309CDB7DEB7E7E00C9411291F93CF939C
:101AE000DF93EC01FC01E85FFD4F808190910101E3
:101AF00089238823B1F00E944506182F0E944506CD
:101B000020E8829FC00111247FE7790F612F809127
:101B10006A040E948305462F672F282FCE010E945A
:101B20009309DF91CF911F910895EF92FF920F9348
:101B30001F93CF93DF937C01809100010E9499094C
:101B4000C82F192F60916B046695669521E0620F8E
:101B500008F46FEF80915D0390915E030E940B0685
:101B6000082FD0E0C11748F081E0113408F080E080
:101B7000CDB7DEB7E6E00C941229FE01E85FFD4F19
:101B80008081909101018923882391F060916804FC
:101B90007091690480916A04202F4C2FF7010995F8
:101BA0000E948305462F672F282FCE010E9493099C
:101BB0002196D8CFA0E0B0E0E0EEFDE00C94F32851
:101BC0008C01809100010E949909C82FD92E209183
:101BD0006B0431E0230F08F42FEF30E040E050E0D9
:101BE0006FEF7FEF80E090E00E94BE287901D0E0A7
:101BF000C22EBF2C2C2FCD1550F081E0F0E4FD1546
:101C000008F480E0CDB7DEB7E9E00C940F29FE01BF
:101C1000E85FFD4F8081909101018923882319F1AC
:101C200040916C034150042E000C550B47FF1DC022
:101C30008C2D9B2D60916B0421E0620F08F46FEFF7
:101C40000E940B06AC016091680470916904809158
:101C50006A04F80109950E948305462F672F282FF3
:101C6000CE010E9493092196C5CFFA01E459FC4F99
:101C7000818982130AC0FA01EE0FFF1FE459FC4F5D
:101C8000818D928D8E159F05A8F241505109CECFBE
:101C9000A8E0B0E0EEE4FEE00C94EA28282E698388
:101CA0007A83809100010E9499099B8320916C03A3
:101CB0002C83E82FF0E0F887EF83CF01880F991F7E
:101CC0009C012A573E4F6901822D90E0FC0131961C
:101CD000FE83ED838B819F81981748F081E0EB8133
:101CE000E13408F080E02896E2E10C940629EF81C7
:101CF000F885E85FFD4F8081909101018923882359
:101D0000F1F040906804509069042D813E8124597F
:101D10003C4F3901322C10E0FC813F16D0F020916D
:101D20006A04129F112D1124B201812F0E94830594
:101D3000462F672F282F8F8198850E9493092F8126
:101D400038852F5F3F4F38872F8332E0C30ED11C79
:101D5000C1CFF30181913F01F601A080A81ABB0811
:101D60008180F3018781881A9908AA9C9001AB9C15
:101D7000300D300D1124889CC001899C900D900D70
:101D80001124820F931F0E941506082F60916B0487
:101D900021E0620F08F46FEFF301EE0FFF1FEC5626
:101DA000F340858996890E940B067C019401A50168
:101DB000B201812FE981FA8109952B01182F339403
:101DC000ABCF982FE42FE2709093E900891308C0FD
:101DD000762F242F50E0E11111C091E0980FF4CF3D
:101DE0007091EC002091ED005091F00021FD06C0B3
:101DF0009F5F973049F78093E90008953091EB0099
:101E00003E7F3093EB003091ED003D7F3093ED004D
:101E10003091EB0031603093EB007093EC00209335
:101E2000ED005093F0002091EE0027FDE1CF0895E2
:101E3000A0E0B0E0EEE1FFE00C94F428C8EDD0E0C3
:101E400088818F7E8883E7EDF0E0808181608083E8
:101E500084E082BF81E080937C0288818E7F8883CA
:101E600002EE10E0F80110821092DA0081EEC82E26
:101E7000D12CF601108288818F77888388818068D1
:101E8000888388818F7D888319BC10921D041092ED
:101E90007B021092970310927A0290EEE92EF12CB9
:101EA000F70180818B7F808388818160888342E015
:101EB00060E080E00E94E10EF60180818E7F8083E9
:101EC000F801808181608083808188608083F70150
:101ED00080818E7F8083888180618883CDB7DEB7E3
:101EE000E8E00C941029E09179049091780427E0BF
:101EF000E91302C080E00895AE2FB0E02E9FF001FC
:101F00001124E658FB4F3181361306C03081381357
:101F100003C03581341304C0FD013196E770E8CF6A
:101F200081E0089580915103882339F135B13F7DD7
:101F300025B120624FB7F8948EE892E0FC0101963B
:101F4000508168E025B9000000C057FF35B9550F32
:101F5000000000C000C000C035B900C06A9591F70C
:101F600053E08135950751F74FBF8FE594E0019716
:101F7000F1F700C000001092510308950F931F93D2
:101F8000CF93DF93EB018A0190911D04943079F592
:101F90008093E9008FEF9091E80095FD07C095EDE3
:101FA0009A95F1F7000081508111F5CF8091E800FA
:101FB00085FF1DC00E94CA0B811114C08091E800EA
:101FC00085FD06C08091E8008E778093E800F2CF0F
:101FD00088818093F100015011090115110511F05C
:101FE0002196ECCF8091E8008E778093E800DF9116
:101FF000CF911F910F910895CF93DF93D82FC92FC1
:1020000048E050E0682F792F81E00E94BE0F88E001
:10201000ED2FFC2FA5E8B2E001900D928A95E1F733
:10202000DF91CF910895BC0140E250E084E00E942E
:10203000BE0F08959091760492FB222720F928176D
:1020400079F080FB92F99093760460917504709119
:10205000760484E090E00E948F2982E00E942E03A3
:1020600008951F93CF93DF93962F122F632F843001
:10207000D8F49530C8F44E30B8F4C42FD0E0CC0F6B
:10208000DD1F2CE1929FC00DD11D11249CE8899F7A
:10209000C00DD11D1124CE0188960E947129612F97
:1020A000CE0189960E947129DF91CF911F910895E9
:1020B000AF92BF92CF92DF92FF920F931F93CF9375
:1020C000DF93A12CB12CC0E06501D0E019C021E064
:1020D00030E0C23020F4F801859194919C014F2D9D
:1020E0006D2F8C2F0E943110F3940E5F1F4F8EE0E6
:1020F000F812EDCFDF5F8EE0C80ED11CD53039F07D
:102100008601000F111F0A511E4FF12CE0CFCF5F47
:1021100086E4A80EB11CC430B9F6DF91CF911F91AF
:102120000F91FF90DF90CF90BF90AF900895CF9325
:10213000DF93C8E5D2E060E0CE010E9471292196CC
:10214000C11584E0D807B9F7DF91CF9108958823AE
:1021500081F064E284E290E00E94712960E185E20E
:1021600090E00E94712968E186E290E00E94712966
:1021700008956FEF84E290E00E9471296FEF85E28D
:1021800090E00E9471296FEFEFCF80E00E94A710CE
:1021900060E087E290E00E9471290E9458100E943E
:1021A000971081E00E94A71008950F931F93CF937B
:1021B000DF93843030F5653020F54E3010F5C42FB4
:1021C000D0E0CC0FDD1F2CE1629FC00DD11D11248A
:1021D0003CE8839FC00DD11D1124CE0188960E943A
:1021E0005329082F10E0102F0027CE0189960E9456
:1021F00053299801282BC901DF91CF911F910F918D
:10220000089580E090E0F8CF462F672F753038F4BE
:102210004E3028F4843018F40E94D510089580E0E0
:1022200090E00895A0E0B0E0E8E1F1E10C94F52839
:102230007C010091730480917204082BC3E0D0E00C
:1022400010E0C8010C2E02C0959587950A94E2F71C
:1022500080FD09C02197A8F7D12C8D2DCDB7DEB711
:10226000E7E00C941129DC2EB7018C2F0E94041199
:102270000E946704019771F3F0CF0F931F93CF93E0
:10228000FC01858100811181882391F0662381F012
:10229000C8010E941211C82F682FC8010E9498021D
:1022A000B8018C2F0E940411CF911F910F910895B6
:1022B000C8010E94CF02C82FF3CFCF93DF93D82F4E
:1022C000C92F0E9412116D2F7C2F0E9404110E94B1
:1022D0006704DF91CF910895FC0184818823A1F0E8
:1022E000808191810E945D11282F92959F70963078
:1022F00091F060F4925F9F70923030F481E0203F63
:1023000079F030F4283E30F080E004C09A5FF3CFDB
:10231000243FD1F7089581E0283E18F0213FF9CFFE
:102320000895089584E290E00E945329843289F44C
:1023300085E290E00E945329803159F486E290E0D2
:102340000E94532991E0883109F090E0892F817033
:10235000089580E0FCCFA0E0B0E0E1EBF1E10C9467
:10236000ED28C82F809110018C1325C0209167049F
:10237000237030E040910F0150E081E024173507D1
:1023800009F480E081708093020180916C04909147
:102390000101981739F08093010140E060E080E08E
:1023A0000E949609C73208F0B1C2EC2FF0E0EC545D
:1023B000F64D0C94DD2881E0E5CF80910201882361
:1023C00009F4ADC240E060E080E00E94960980918F
:1023D00000018F5F8093000182E080931201809161
:1023E0000201882309F4A0C2CDB7DEB7EFE00C9458
:1023F0000929809100010E949909082FD92F609125
:1024000068047091690480916A040E948305F62E25
:10241000E72ED82E10E00D1730F081E0D13408F40B
:1024200096C080E094C0F801E85FFD4F80819091F4
:1024300001018923882331F02D2D4F2D6E2DC801E8
:102440000E9493090F5F1F4FE6CF809100010E9409
:102450009909D92FD0906904C0906A0430916B0417
:1024600020E4239F212D1124082F10E0E22EF12CCF
:102470000D1798F6F801E85FFD4F808190910101FA
:1024800089238823E9F0F801EE0FFF1FEA57FE4F7A
:1024900020812E9DC0012F9D900D112425E0959542
:1024A00087952A95E1F760916804680F7D2D8C2D42
:1024B0000E948305462F672F282FC8010E94930989
:1024C0000F5F1F4FD5CF809100010E949909082FFF
:1024D000D92FF090680410916904E0906A0460912B
:1024E0006B0466956695669580915D0390915E0399
:1024F0000E940B060E945A06805887FD8195880F1E
:10250000282F3E2D239F212D1124822F6F2D712FD7
:102510000E948305F62EE72ED82E10E00D1708F046
:102520007CCFF801E85FFD4F808190910101892304
:10253000882331F02D2D4F2D6E2DC8010E94930957
:102540000F5F1F4FEBCF88EA96E00E94950D9091A8
:1025500000019F5F90930001811146CF82E080933C
:1025600012018091020181113FCFCC233BCF84ED3A
:1025700096E0EBCF82E097E00E941A0CE8CF80E271
:1025800097E0FACF8FE397E00E94720CE0CF8AE5E4
:1025900097E0FACF85E797E0D8CF87E797E0D5CFE8
:1025A00080E897E0D2CF89E897E0CFCF82EA97E042
:1025B000EBCF83EB97E0E0CF8CED97E0DDCF8DEEB6
:1025C00097E0E2CF81E098E00E94D90CC0CF8FE283
:1025D00098E0FACF8EE598E0F7CF809100010E9455
:1025E0009909D92F90910201911120C060916B043B
:1025F00020E1620F08F46FEF80915D0390915E031C
:102600000E940B066AE070E00E949628892B09F070
:1026100004CF0E94450691E4899F90011124832FE5
:10262000932F990F990B0E94300DF7CE082F10E0D1
:10263000ED2EF12C0E151F050CF0EFCEC8010E94F7
:10264000300D0F5F1F4FF6CF809100010E94990956
:10265000D92F90910201911120C060916B0420E16B
:10266000620F08F46FEF80915D0390915E030E940A
:102670000B0665E070E00E949628892B09F0CDCE0C
:102680000E944506A1E48A9F90011124832F932F75
:10269000990F990B0E946E0DC0CE082F10E0ED2E01
:1026A000F12C0E151F050CF0B8CEC8010E946E0D5E
:1026B0000F5F1F4FF6CF809100010E949909082FEC
:1026C000D92FE0906904F0906A0410916804609139
:1026D0006B0466956695669580915D0390915E03A7
:1026E0000E940B060E945A0620E8280F27FD21951C
:1026F000220F3CE0239F212D1124612F620F7E2D9C
:102700008F2D0E948305F62EE72ED82E10E00D1790
:1027100008F083CEF801E85FFD4F808190910101C0
:102720008923882331F02D2D4F2D6E2DC8010E9455
:1027300093090F5F1F4FEBCF87E998E006CF8DEB32
:1027400098E003CF809100010E949909682E092F1B
:1027500080910201882361F040E060E080E00E9407
:102760009609E8E9F3E086E4DF011D928A95E9F72E
:1027700080910001811117C080915B0390915C03EF
:102780000E942D0B9C0181E02931310508F480E085
:1027900080935A032931310530F00E94040B909345
:1027A0005C0380935B03A12CB12C712C8AEA582E18
:1027B0006501D0E0F601E05CFE4FE080E61408F42D
:1027C0003EC0E01608F03BC0F12CF701E85FFD4F7A
:1027D0008081909101018923882309F42FC0F6019B
:1027E000E856FC4F4F011081612F25E5621B08F46C
:1027F00060E070916904352D310F08F43FEF40918E
:102800006A04232F220F230F2E5F249F212D1124D2
:10281000352D361B632F822F0E948305462F672F8D
:10282000282FC7010E94930980915A03882331F011
:1028300021E0121B08F410E0D4011C937394DF5FB5
:10284000BFEFCB1ADB0ADE3009F0B4CFE8E3AE16F7
:10285000B10419F481E00034E2CDFEE0AF0EB11C0A
:102860002CE0271508F0A4CFF5CF8EEC98E00E945D
:10287000DA0D6DCE85ED98E0FACF80916C0321E002
:10288000382F321B08F430E0832F6CED78E00E9483
:10289000480E5DCE6CED78E080E0F9CF80916C035E
:1028A00021E0382F321B08F430E0832F65EF78E009
:1028B000EECF65EF78E0F0CF80916C0321E0382F08
:1028C000321B08F430E0832F6DE279E0E0CF6DE257
:1028D00079E0E2CF80916C0321E0382F321B08F4BD
:1028E00030E0832F6FE579E0D2CF6FE579E0D4CF88
:1028F00080916C0321E0382F321B08F430E0832FE5
:1029000067E779E0C4CF67E779E0C6CF809100013F
:102910008F5F8093000182E08093120165CD8091EA
:1029200000018F5F8093000183E0F6CF8091110159
:10293000882359F18091750487FF27C00E944603C0
:102940008093550240E250E060E274E084E592E05A
:102950000E949529892BC1F080E2E4E5F2E0A0E233
:10296000B4E001900D928A95E1F7E0914004F09176
:102970004104309749F086E0809354020480F58149
:10298000E02D84E592E0099508950E944603809326
:102990004C0248E050E062E474E08CE492E00E9473
:1029A0009529892B89F388E0ECE4F2E0A2E4B4E015
:1029B00001900D928A95E1F7E0914004F091410475
:1029C000309711F30280F381E02D8CE492E0DBCFAD
:1029D000CF93C82F8823B1F18CEF8C0F813AA0F5EB
:1029E00080911101882301F18091750487FF1CC03B
:1029F000EC2FE695E695E695F0E0EC5AFD4F8281E6
:102A000090E04C2F477021E030E002C0220F331FCE
:102A10004A95E2F782239323892B79F08C2F0E9429
:102A2000D70A0E94961409C0EEE4F2E08191C8171B
:102A3000A9F382E0E435F807C9F78C2F0E94A30AB6
:102A40000E949614CF91089580E28C0F8830D0F7C1
:102A5000C77021E030E001C0220FCA95EAF78091EB
:102A60006F04822B80936F04EBCF882341F09CEF9F
:102A7000980F913A28F40E94D70A0E94961408955C
:102A800090E2980F9830D8F7877091E001C0990FC5
:102A90008A95EAF7892F0E946C03EFCF1F93CF939B
:102AA000DF93182FEB010E94E814209739F4812F4F
:102AB0000E943515DF91CF911F9108958FE99FE016
:102AC0000197F1F700C000002197EFCF882339F07C
:102AD00090916F04892B80936F040E94961408953F
:102AE000882321F00E946C030E94961408950F938E
:102AF0001F93CF93DF93C62FD42F122F8823A9F0D3
:102B0000609365040E94040B90937802809377028F
:102B1000C77081E001C0880FCA95EAF70E94661568
:102B2000DF91CF911F910F910895809165046813F3
:102B300036C080917702909178020E942D0B883CDC
:102B4000910568F5CD130EC060E070E0812F0E9402
:102B50004E15D77081E001C0880FDA95EAF70E9420
:102B60007015DECFC77001E0802F01C0880FCA95B5
:102B7000EAF70E94701580E28D0F883050F48D2F97
:102B8000877001C0000F8A95EAF7802F0E946615B2
:102B9000DBCF60E070E0812F0E944E15C1CFC7707F
:102BA00081E001C0880FCA95EAF7D9CF10926F046F
:102BB00080911101882381F08091750487FF0CC0FA
:102BC000E6E5F2E08EE1DF011D928A95E9F71092C9
:102BD00077040E9496140895EEE4F2E086E0F3CFC5
:102BE0000E94D6152FEF84E39CE021508040904056
:102BF000E1F700C0000088E19AE00FB6F894A895CC
:102C0000809360000FBE90936000FFCFA8E0B0E01B
:102C1000ECE0F6E10C94ED286C01DC0114968C914B
:102C2000882309F4B4C061E0C6010E943D118C0103
:102C3000F6018581882309F448C598013757203863
:102C4000310508F04DC5003108F090C08FEF93E0DA
:102C50000E94532981118AC048E5E42E42E0F42EF7
:102C6000011153C01A821982FE01339686E0DF01FA
:102C70001D928A95E9F75701BFEFAB1ABB0AC7014E
:102C80000E94532989831A82882309F46FC08130F6
:102C900009F081C087010E5F1F4FC5010E945329B3
:102CA0008A83882309F462C09FEF980F9330E0F580
:102CB000E3E0EE0EF11CC8010E9453298B838823A8
:102CC00009F454C01C828E010F5F1F4FD8018C91F4
:102CD000882389F2813009F0A1C011968C91119757
:102CE000813009F05AC05801B2E0AB0EB11CF801B6
:102CF000828160E070E0893311F460E570E00E9449
:102D00004E1585010F5F1F4FE1CFE114F4E0FF0680
:102D100069F1C7010E94532997012F5F3F4F790145
:102D20008111F3CF01509CCF8430B9F432E0E32E0F
:102D3000F12CC8010F5F1F4F0E945329E1E0F0E022
:102D4000EC0FFD1FEE0DFF1D8083882379F08C377B
:102D500031F4FE01EE0DFF1D12827801B4CFFFEFBA
:102D6000EF1AFF0A27E0E216F10419F780917404C4
:102D70008770882361F0D60115968C91882339F0ED
:102D80008091760482FF03C082E00E942E03289681
:102D9000EFE00C940929750196CF823049F458016F
:102DA000F2E0AF0EB11C12968C910E94E814A9CFEC
:102DB000833049F45801B2E0AB0EB11CF8018281B6
:102DC0000E9435159ECF843019F00F5F1F4F9ACFA8
:102DD00012962C910E5F1F4F80E090E06AE0A801F0
:102DE0004F5F5F4F2053330B2A30310558F0009767
:102DF00009F488CFAFE9BFE01197F1F700C00000F8
:102E00000197F5CF689FF001699FF00D1124C9016A
:102E10008E0F9F1FF80121818A01E1CFE82FF0E09A
:102E2000E25DFB4F6490282F26952695269530E08D
:102E3000F901E25EFB4FA4908770782EB12C082E2A
:102E400002C0B594A7940A94E2F7B1E0AB22BB2488
:102E5000F901E25FFB4F8490912C02C09594879416
:102E60008A95E2F7E1E08E229924F901E250FC4FC5
:102E70005490A114B104C1F48114910421F560E0CF
:102E800070E0862D0E944E15E52DF0E0072C02C063
:102E9000F595E7950A94E2F7E0FF34CF60E070E043
:102EA0008CE20E944E152ECF81EE0E94E814811410
:102EB000910449F460E070E0862D0E944E1581EE89
:102EC0000E943515E1CF86EE0E94E81460E070E0C4
:102ED000862D0E944E1586EE0E943515AB28A1F274
:102EE000EECF26E241EE61EE0E9477153FCF27E25A
:102EF00045EE65EEF9CF26E241EE60EEF5CF27E232
:102F000045EE64EEF1CF26E241EE62EEEDCF27E230
:102F100045EE66EEE9CF28E241E0EBCF0631FCE773
:102F20001F0709F0DFC0809166048111D9C089E2D2
:102F30000E94D70AD0C08091750481608093750487
:102F4000609175047091760484E090E00E948F296E
:102F50000E94D6150BCF809176048860809376040A
:102F6000EFCF809175048260E9CF80917504846011
:102F7000E5CF809175048860E1CF8091760481600F
:102F8000EDCF809176048260E9CF809175048061F5
:102F9000D5CF809175048062D1CF80917504806413
:102FA000CDCF0E94D615809175048068C7CF8091DF
:102FB00075048C60C3CF809176048360CFCF8091FD
:102FC00075048E7FBBCF80917604877FC7CF8091B9
:102FD00075048D7FB3CF809175048B7FAFCF8091C7
:102FE0007504877FABCF809176048E7FB7CF8091B9
:102FF00076048D7FB3CF809175048F7E9FCF8091B3
:1030000075048F7D9BCF809175048F7B97CF0E9435
:10301000D615809175048F7791CF80917504837F49
:103020008DCF809176048C7F99CF8091750482FB3F
:10303000992790F921E0922790FB82F990FB83F980
:103040007DCF80917604982F909591708E7F892BFB
:1030500090FB81F983CF90917504892F8F7B96FF28
:1030600080646CCF0E94D61590917504892F97FBD0
:1030700087F9805863CF61E08EE090E00E9471296B
:103080005FCF60E0F9CF90917504892F8F7E94FF18
:10309000806154CF90917504892F8E7F90FF81605D
:1030A0004DCF90917604892F877F93FF886056CF0C
:1030B00006312CE7120709F071C080916F048A7AFB
:1030C00091E0811101C090E090936604882331F073
:1030D00085E30E94A30A0E94961448CE89E2F9CFA4
:1030E00085E326CF80916F048272F801E052F847A1
:1030F000E531F10508F07DC0E552F64D0C94DD2870
:103100008091670491E089278093670410921201EF
:1031100081E00E948D092ACE4BEC59E06FEB79E0FB
:103120000E948F0A23CE4FEB59E06BEC79E0F8CF89
:1031300046EF59E06BEE79E0F3CF4BEE59E066EFE6
:1031400079E0EECF4FE05AE061E07AE0E9CF41E08C
:103150005AE06FE07AE0E4CF4BE25AE06DE17AE0CA
:10316000DFCF4DE15AE06BE27AE0DACF45E45AE096
:1031700069E37AE0D5CF49E35AE065E47AE0D0CF5D
:1031800061E081E00E94A209F1CD61E083E0FACF25
:1031900061E08BE0F7CF61E080E1F4CF07373CE7F7
:1031A000130709F4A3C008378CE7180709F4ABC06C
:1031B0000A35BCE71B0709F4C2C008F0A6C00130FD
:1031C000FCE71F0709F4B9C003302CE7120709F424
:1031D000AEC001151C47C1F40E94D615AFEFB4E391
:1031E000ECE0A150B040E040E1F700C000000E94D8
:1031F0003C0B07379CE7190709F481C082E00837C8
:10320000ACE71A0709F47CC0F6018581E080F18003
:10321000882309F498C0C7010E941211182F682F43
:10322000C7010E949802B701812F0E9404110E94D9
:1032300067048C01D6011596BC9015971696AC9034
:10324000A2942FE0A222809174048770882301F158
:10325000EB2CBB20F1F0812F807F803461F080E285
:10326000800F8830A8F0812F807E803221F40230D8
:1032700078F0AA2069F08091760482FF09C082E08C
:103280000E942E03809174048770EE24E3948111D0
:10329000E12C812F82958F70883009F425C108F0C8
:1032A00057C0823008F466C0825F8F70823008F4A5
:1032B0009BC0EE20B1F08091740480FD12C0D60155
:1032C00015961C928695869586950E947C02C6016D
:1032D0000E940616809174048695869586950E94B4
:1032E000880260E0C6010E943D1151CD81E00E943C
:1032F0007C0243E062E081E00E94030337CD81E07D
:103300000E948802F6CF82E0F2CF0B358CE71807D7
:10331000C1F00C351C4709F077CF8091760482FB11
:10332000882780F991E089270E941A106DCF6FEFEE
:103330007FEF80E090E00E948F290E94F01581E0ED
:10334000F3CF80E0F1CFC7010E94CF02182F6BCFDF
:10335000893009F438C18A5F8F70823008F0A9CFB4
:10336000023F09F041C1812F8F71B1103AC10E9413
:103370007C02E7C0B12FBF70FB2E103118F0F29421
:1033800090EFF922BB20B9F0FF2069F080E2800FB6
:10339000883010F0011109C080916F048F2980934B
:1033A0006F040E949614802F43C0809177048F2968
:1033B00080937704F6CF802F0E943515FF2009F403
:1033C00078CF80E2800F883010F0011104C08F2D7B
:1033D0000E946C0306C0F094809177048F21809343
:1033E00077040E94961465CFE12FEF70FE2E107FB8
:1033F000103219F0F29480EFF822002349F00130E6
:1034000009F452C0BB2009F45EC0AA20F9F0CBCF6A
:103410008091760482FD16C0BB2069F0FF2039F050
:1034200080916F048F2980936F040E94961480E02E
:103430000E94E8143ECF80E00E943515FF2009F479
:1034400038CFC5CFBB20A1F0A11004C08F2D0E94A2
:1034500066152FCFF1E0AF122CCF809170049F2D15
:103460009823F91609F425CF8F298093700421CF72
:10347000A1101FCF8F2D0E947015909170048F2D79
:103480008923882329F08F2D8095892380937004C8
:10349000809171049F2D9823992309F40ACFF09409
:1034A000F822F092710405CFBB2029F025E02A15FF
:1034B00008F4FFCECBCF34E03A1508F4FACE8F2DC6
:1034C0000E947015F6CEAA20D1F3093349F48FEF8C
:1034D00097EEA3E081509040A040E1F700C00000CB
:1034E000802F0E943515E5CE812F8370811134C065
:1034F000B11027C0402F429546954770440F440FA6
:10350000802F8F70042E01C0880F0A94EAF7007193
:10351000002341F02FE030E001C0220F4A95EAF786
:10352000022F0095169516951370123081F0133006
:1035300061F020917204113039F0802B82230E94B7
:1035400076020E94960AB5CE822B802BF8CF802B74
:10355000909172048927F3CFBB2051F110FFF1CF76
:10356000402F429546954770440F440F802F8F702F
:10357000042E01C0880F0A94EAF70071002341F07D
:103580002FE030E001C0220F4A95EAF7022F0095A4
:10359000169516951370123089F0133069F020914A
:1035A0007304113041F0802B82230E947902C9CF2D
:1035B000823038F2D5CF822B802BF7CF802B9091A1
:1035C00073048927F2CF1F70BB2039F0812F0E942E
:1035D0007C02802F0E946615B4CF802F0E94701548
:1035E000812F0E948802ADCF033F70F4003FB9F0F5
:1035F000013FB9F1BB2009F456C0AA2009F450C01C
:10360000802F0E94E8149DCF033FD9F0043F29F199
:10361000B110F3CFA11055C0812F8F71E2CFBB2025
:1036200069F0B4E0BA1508F48CCF1F7181E090E026
:10363000012E01C0880F0A94EAF7C1CFE5E0AE166B
:10364000F2CF80E0BB2009F4B0CF1F7181E0012EE2
:1036500001C0880F0A94EAF7A8CF9091760492FDF2
:1036600006C0812F8F71BB2009F4BBCF80CEBB2059
:1036700061F0812F8F7192FF7ACEF8E08F9F9001D9
:10368000112423602093740472CE81E00E942E03E3
:1036900021E02A1508F055CF82E00E942E0351CF79
:1036A000812F8F7164CEAA2009F4B6CF093349F473
:1036B0003FEF87EE93E0315080409040E1F700C04B
:1036C0000000802F0E9435153CCFF801E851FC47DF
:1036D000E730F10508F022CCE051F64D0C94DD28DE
:1036E000F801E851FC47E730F105B0F310926504AA
:1036F000C8019057839708F0DBCC84E090E00E94EB
:103700005B299093760480937504F801E150F047AB
:10371000E232F10508F00FCCE950F64D0C94DD28AB
:103720008091B804803178F48091B704882359F0EF
:10373000E0917904209178043091B3044091B2046F
:1037400057E02E1301C008956E2F70E05E9FF001C8
:103750001124DF01A658BB4F14968C91149788232F
:1037600061F111968C911197831327C08C9184136A
:1037700024C015968C91159781111FC012968D91BA
:103780009C91A091B404B091B5048A1B9B0B883C1A
:10379000910598F48091B8048F7080618093B8048B
:1037A000E058FB4F80818F708061808382EB94E0D2
:1037B0000E9406160E9424030895FB013196E770CB
:1037C000C0CFADE0B0E0E7EEFBE10C94EE288C0159
:1037D00086E0F801DE01189601900D928A95E1F7D6
:1037E000F8017080F580A280B380848192EB892EED
:1037F00094E0992E6090B604611018C0882399F067
:10380000FF2009F413C1C8010E946C11882309F438
:103810000DC187E0F801A2EBB4E001900D928A950A
:10382000E1F70E94901BFF24F39453C0D090B7049B
:103830002091B4043091B504A501421B530BDD2047
:1038400009F4C4C0483C510508F07AC0882359F3F4
:103850008091B304C180E090B804FFE0FE1508F445
:1038600059C0C81215C08091B204871111C0F1105F
:103870004BC08E2D8F7080618093B80482EB94E0F2
:103880000E9406168091B804F8018683F12C21C0AD
:10389000F1103AC040E06C2D872D0E94730F40E07C
:1038A0006C2D872D0E94730FF82E8111EFCF888524
:1038B00099850E945D11292F22952F70903470F404
:1038C0009F702230A0F09923B1F0F80196819031D9
:1038D00090F48F2D2D96EEE00C940A292A5F2F701C
:1038E000223068F0C8010E940616FD2CF2CF992301
:1038F00011F0882371F3805E883058F3F3CF803F56
:1039000040F3815F8230F9CF8091B8048160809369
:10391000B804BCCFC8123CC08091B204871138C033
:10392000F11036C0F801E682C8010E94061687E051
:10393000F801A2EBB4E001900D928A95E1F773CF04
:10394000E090B804FFE0FE1550F082EB94E00E9496
:10395000061687E0F40111928A95E9F797CF88233C
:1039600009F461CF9091B304F8018181981310C0DC
:103970008091B20487110CC0F1100AC0E682C80120
:103980000E94061687E0F40111928A95E9F74BCF61
:10399000C8010E946C11882309F448C0FF2009F473
:1039A00045C08091B804803208F433CF8091B204CE
:1039B0009091B3049A838983BC82AB826D821E820C
:1039C000EF82CE0101960E94061623CF483C510596
:1039D00008F0BFCF882309F426CFFF2039F190915A
:1039E000B3048181981318C08091B204871114C068
:1039F0008091B80480FD9BCF803108F498CF8683F6
:103A0000807F803F09F490CF8681982F907F905FD0
:103A10008F70892B868388CFC8010E946C11811119
:103A2000F8CE8091B80481608093B804C8010E94E8
:103A30000616F9CEABE1B0E0E0E2FDE10C94F92826
:103A40004E8B5F8B688F798F8A8F9B8F911110922D
:103A500077041D8A86E0FE017696DE011F960190AE
:103A60000D928A95E1F78B89882329F061E0CE01D8
:103A70000F960E943D1187E0FE013F96DE011896E9
:103A800001900D928A95E1F7CE0108960E94E11B04
:103A900081112BC087E0FE013896DE01119601905E
:103AA0000D928A95E1F720917804409179048C85F4
:103AB0008823D9F030E0C90101968770992750E03A
:103AC00084179507E9F097E0929FD001939FB00D7E
:103AD0001124A658BB4FFE01319601900D929A9584
:103AE000E1F7809378040E94240317E08091790421
:103AF00090917804891312C06B96E3E00C94152919
:103B00000E94D615109278041092790487E0E2EBB7
:103B1000F4E0DF011D928A95E9F7E7CF189FC00115
:103B2000112486589B4F0E94E11B882329F3809122
:103B3000790490E001968770992780937904D6CF15
:103B4000A6E0B0E0E6EAFDE10C94F8280E94040B40
:103B50008C0180911E0490911F048017910779F0C9
:103B600019821A820E94040BBC0149815A8180E0AB
:103B700090E00E941A1D10931F0400931E042696C5
:103B8000E4E00C941429AAE2B0E0E9ECFDE10C9425
:103B9000F9288DE792E0FC0101962091F100208345
:103BA00022E085389207B9F780917E02893009F4C6
:103BB00056C0C8F4823009F4B3C0833009F482C01F
:103BC000813071F18091E80083FFE7C080917D0230
:103BD00090917E029A3008F0E0C0E92FF0E0E75EB5
:103BE000F54D0C94DD288A3009F489C08B3051F7EB
:103BF00080917D02813231F7809181029091820221
:103C0000892B01F78091E800877F8093E8000E946C
:103C1000AB0B80917F02809311010E94D615D2CF09
:103C200080917D02813A71F68091E800877F8093D0
:103C3000E8008091810290918202892B61F060E01E
:103C400080E090E070E00E94520B8091E8008B775A
:103C50008093E800B7CF68E085E892E0F3CF8091E9
:103C60007D02813209F0AECF809181029091820273
:103C70008D7F892B09F0A6CF8091E800877F809304
:103C8000E8008091E80082FF18C09091F3008091D5
:103C9000F200029731F48091F100813011F086300A
:103CA00021F48091F10080938D028091E8008B7760
:103CB0008093E8000E94AB0B85CF80911D04811199
:103CC000E0CF80CF80917D02813A09F07BCF809157
:103CD000810290918202892B09F074CF8091E800D3
:103CE000877F8093E8008091E80080FFFCCF80917F
:103CF00011018093F1008091E8008E77D9CF8091F7
:103D00007D02813209F05ECF8091E800877F809349
:103D1000E8000E94AB0B809180028093790252CF21
:103D200080917D02813A09F04DCF8091E800877F34
:103D30008093E8008091E80080FFFCCF80917902B9
:103D4000D8CF803889F0823841F5809181028F7018
:103D5000873018F58093E9008091EB0085FB882778
:103D600080F91092E90006C080917A029091970341
:103D7000911182609091E800977F9093E800809382
:103D8000F1001092F1008091E8008E7723C081113C
:103D900016C080917F02813011F18091E80083FF8D
:103DA0000AC08091E800877F8093E8008091EB0053
:103DB00080628093EB00AA96E3E00C941529823090
:103DC00061F780917F02882389F01092E900809149
:103DD000E800877F8093E8000E94AB0BDECF81E094
:103DE000933009F080E080939703EFCF80918102B8
:103DF0008F702FEF280F263080F68093E9002091F6
:103E0000EB0020FFE2CF933031F48091EB00806231
:103E10008093EB00DACF9091EB0090619093EB00F0
:103E200021E030E0A90102C0440F551F8A95E2F756
:103E30004093EA001092EA008091EB008860E8CF9E
:103E40008111ABCF10917F021F778091E3008078C2
:103E5000812B8093E3008091E800877F8093E800C6
:103E60000E94AB0B8091E80080FFFCCF8091E300C3
:103E700080688093E30083E0111101C082E08093A9
:103E80001D048BCF8058823008F087CF40917F028D
:103E9000509180024C3D83E0580799F583E08A8376
:103EA0008AE289834FB7F894DE01139620E03EE062
:103EB00051E2E32FF0E050935700849120FF03C0BC
:103EC00082958F703F5F8F708A30C8F0895C90E078
:103ED0008D939D932F5F243161F74FBF8091E80050
:103EE000877F8093E8006AE270E0CE0101960E942D
:103EF000520B8091E8008B778093E8004ECF805D75
:103F0000E6CF8091810290918202252F33272330C2
:103F1000310509F44AC078F52130310509F479C03A
:103F20008BE590E0EDE4F1E02230310509F035CF8A
:103F30002091E800277F2093E800209183023091B0
:103F400084028217930708F49C0140E02115310593
:103F500009F064C0411162C08091E80082FDC9CFC0
:103F600080911D04882329F2853019F28091E800A0
:103F700083FFF2CFBECF2132310509F43BC022329C
:103F8000310509F00ACF8330910508F006CFFC0116
:103F9000EE0FFF1FE75EFE4F0190F081E02D8A5E7D
:103FA0009E4FDC018C9190E011C0CA0199274130ED
:103FB00089F082309105B1F0892B09F0EECEE2EE66
:103FC000F1E0E4918E2F90E0E2EEF1E0009709F449
:103FD000E4CEAECFE4EDF1E0E4918E2F90E0E4ED9D
:103FE000F1E0F4CFEAEBF1E0E4918E2F90E0EAEB20
:103FF000F1E0ECCF8330910508F0CFCEFC01EE0F5D
:10400000FF1FE15EFE4F0190F081E02D89E090E01E
:104010008FCF82E190E0E8EAF1E08ACF80911D0441
:10402000882309F466CF853009F463CF8091E800D6
:1040300083FD5FCF8091E80082FD8ECF8091E80004
:1040400080FF84CF9091F3008091F200211531051B
:1040500019F08830910550F041E0089709F040E0F0
:104060008091E8008E778093E80070CF4491409370
:10407000F1003196215031090196E8CF803809F0DE
:104080008CCE8091E800877F8093E80080917B024E
:104090008093F10078CE811180CE10917F02123092
:1040A00008F07BCE8091E800877F8093E800109332
:1040B0007B020E94AB0B1123D1F084E080931D049E
:1040C00042E061EC81E00E94E10E42E261EC84E0BA
:1040D0000E94E10E42E261EC82E00E94E10E42E2C7
:1040E00060EC83E00E94E10E80911D0456CE809129
:1040F000E30087FDE2CF81E0E1CFAAE0B0E0E3E8B2
:10410000F0E20C94EE28FE0131968AE0DF011D9268
:104110008A95E9F79DE2A92E91E0B92E8F0122E35D
:10412000E22E21E0F22E3F01CC24C394D12CF501E4
:1041300081915F018F3F09F447C0F894E82FE29521
:10414000EF70F0E021A18F70A60102C0440F551F4F
:104150008A95E2F7CA01922F982B91A392A180959C
:10416000892382A3789400C0E2E3F1E021E030E00B
:10417000812C912C41914F3F09F44AC0A42FA29564
:10418000AF70A05EB0E08C9190E04F7002C095954A
:1041900087954A95E2F7817081113AC0C901882A52
:1041A000992A220F331F51E0E034F50719F7F50182
:1041B000319780818F3F11F00E946A0580EA8A95CD
:1041C000F1F7D8018D929C920E5F1F4FEA14FB0409
:1041D00009F0ADCF4AE050E0B30181E693E00E94E0
:1041E0009529892BC1F08AE0F301A1E6B3E00190A3
:1041F0000D928A95E1F781E0809376020E94040B8C
:1042000090937502809374022A96EEE00C940A292A
:1042100080E090E0C4CF809176028823A9F380915A
:104220007402909175020E942D0B059768F34AE085
:1042300050E061E673E083E194E00E949529892BC8
:1042400049F08AE0E1E6F3E0A3E1B4E001900D92E9
:104250008A95E1F710927602D7CF48E050E067E107
:1042600070E087E694E00E94612910926B03089544
:104270004F925F926F927F928F929F92AF92BF9276
:10428000CF92DF92EF92FF92C0905203D0905303EF
:10429000E0905403F09055038FB7F8944090560384
:1042A0005090570360905803709059038FBF53018B
:1042B00042018C189D08AE08BF080E94100B282FE1
:1042C0006093520370935303809354039093550368
:1042D000A091DE03EEEDF3E08A2F30E04FEFC40E45
:1042E000D41EE11CF11CC418D508E608F708A31376
:1042F0002EC08093DE038091960381113BC03091E4
:104300006704832F8370882319F0832F8695869501
:1043100030911201323009F441C070F531113BC0C7
:104320001092000160935D0370935E0320935F031E
:104330009093600389E2EEEDF3E0ACE6B3E0019028
:104340000D928A95E1F781E08093120117C0418DAB
:10435000528D2A01612C712CC414D504E604F70493
:1043600020F481503F5F3296C2CF480D591D528FC5
:10437000418FF8CF80E0CCCF3330D9F0FF90EF9071
:10438000DF90CF90BF90AF909F908F907F906F9075
:104390005F904F9008950E94AB11F0CF8093100171
:1043A00080916704837080930F010E94920F83E0D5
:1043B000CBCF80916B0381110E942D2140915D0331
:1043C00050915E0360915F03709160032FB7F89482
:1043D0008091560390915703A0915803B0915903CF
:1043E0002FBF841B950BA60BB70B4097A105B105FA
:1043F00028F210921201C2CFCDB7DEB7AF970FB639
:10440000F894DEBF0FBECDBF85B7806885BF85B786
:10441000806885BF84B7877F84BF0FB6F894A8955E
:1044200080916000886180936000109260000FBEF0
:1044300080E890E00FB6F89480936100909361005B
:104440000FBE88E695E090934B0280934A020E944B
:10445000FB0B0E94180F8091E20084608093E200C1
:10446000789480911D04882399F08091E90010913F
:10447000EC001795112717958F70182B1092E900F3
:104480008091E80083FD0E94C31D1F701093E90016
:1044900082E084BD93E095BD9AEF97BD80936E0056
:1044A0000E949211811102C00E94C5100DE211E01C
:1044B000E2E3EE2EE1E0FE2ED8018D918D018F3FDB
:1044C00011F00E946A05E016F106B1F702E311E06F
:1044D000F80181918F018F3F11F00E946A05F1E090
:1044E00000341F07A9F78AE0E3E1F4E0DF01282F99
:1044F0001D922A95E9F7E1E6F3E0DF011D928A9526
:10450000E9F780E090E00E945B29853E9E4F21F410
:104510000E949211811163C065EE7EEF80E090E011
:104520000E948F2960E082E090E00E94712981E082
:104530008093720461E083E090E00E94712960E062
:1045400074E184E090E00E948F2960E086E090E0D2
:104550000E94712960E087E090E00E94712940E0AC
:1045600050E0BA0188E090E00E94832960E083E295
:1045700090E00E94712960E08CE090E00E94712937
:1045800060E08DE090E00E94712919821A821B82FE
:104590001C821D821E821F82188648E050E067E15F
:1045A00070E0CE0101960E94612940E050E0BA011E
:1045B0008FE190E00E94832980E00E94A7100E9472
:1045C000C51040E050E0BA018FE090E00E948329DE
:1045D00040E050E0BA0183E190E00E94832982E04C
:1045E00090E00E9453298093070484E090E00E94A9
:1045F0005B2990937604809375040E947D20EFEFF1
:10460000F6E721E0E150F0402040E1F700C0000073
:104610000E947D208091130480FF08C06FEF7FEF20
:1046200080E090E00E948F290E943C0B83E090E0A4
:104630000E9453290E9476020E94510A10926C0334
:1046400040E150E06FEF70E085E893E00E94AB2915
:104650001092DE0340E150E06FEF70E087EF93E0EF
:104660000E94AB2981E080936B0348E050E067E152
:1046700070E087E694E00E94432910926B038091DA
:1046800067048430B8F48DE080936704809113014F
:1046900090911401A091150180936804909369048E
:1046A000A0936A048FE780936B048FEF80936C0470
:1046B0000E942D2185E091E0909341048093400475
:1046C00080911D04853099F411E000E453E0F52E4B
:1046D00060E1E62E72E1D72E80911D04853009F449
:1046E00069C00E94D6150E94960A109296030E94F5
:1046F0007D20A8E0B4E0BFA3AEA3E3E1F4E0F9A716
:10470000E8A742E154E0DF01E8E0F4E021913191D3
:104710008D919D914E175F0709F498C028173907AE
:10472000A9F3612C712CF12CA8A5B9A52D903D9071
:10473000B9A7A8A7EEA1FFA181919191FFA3EEA334
:104740008215930509F442C19C01222533253BA71C
:104750002AA76301E12C44244394512C8AA59BA5EC
:1047600084219521892B09F423C1420182209320C1
:10477000E982FA820E94040B9C838B8331E03D83A3
:1047800091E08114910409F490E09E8349815A815B
:104790006B817C818D810E941A1D9091DE038114B2
:1047A000910409F07BC0993008F402C100E010E0E8
:1047B00019A2CBC080911D04843009F438C00E9436
:1047C00038218091960381110DC00E94AB11109287
:1047D000100180916704837080930F010E94920FF3
:1047E000F0921201109396031092950348E150E065
:1047F0000FB6F894A895409360000FBE0093600038
:1048000083B7817F846083BF83B7816083BF7894DF
:10481000889583B78E7F83BF0FB6F894A895809153
:104820006000886180936000109260000FBE0E945B
:104830007D20E3E1F4E081919191892B09F0EFC2B1
:104840008DE194E08E179F07B1F746CF28173907FF
:1048500009F067CF0E94A01D0E9438210E94960A8D
:1048600090911204891721F0809312040E94100B7A
:1048700080911D04843009F023CF83E08093E90008
:104880008091E80082FF1CCF8091E80085FD08C17F
:104890008091E8008B778093E80012CFF601E05C0E
:1048A000FE4F80818F3F09F048C0993008F07ECFDD
:1048B000809167048C7F883609F07AC0F601E05C4D
:1048C000FE4F80818F3F09F473C0A12CB12C812C45
:1048D00090E09C01220F331FF901EA57FE4FFDA71C
:1048E000ECA729573E4F3FA72EA7A60148565C4F7D
:1048F0005AA349A38501912CF801E05CFE4F808109
:104900008F3F61F0F81091C09E108FC0A9A1BAA18D
:104910002C9130E2230F08F42FEF2C9393940F5F28
:104920001F4FFEE09F12E8CF83942EE0A20EB11C31
:1049300036E4A316B104F1F63BC08DA3983008F419
:104940004FC001E010E041E049A398E0A92EB12C4E
:10495000A01AB10AB80161527C4FA5018FED93E016
:104960000E94A229B80169517C4FA50187EE93E00E
:104970000E94A229A501440F551FB801660F771F99
:1049800069507C4F87EF93E00E94A229B8016151E2
:104990007C4FA5018FEE93E00E94A22988E059A1E7
:1049A000851B8093DE0351111BC0892809F080CF3D
:1049B000E394440C551C4FEFC41AD40A5EE0E51290
:1049C000CDCEEEA1FFA1329731822082F3948EE00A
:1049D000680E711C95E0F912A7CE0E94100B3CCF17
:1049E0004091DE03ADA18A2F90E0242F30E0F90141
:1049F000E252FC4FDC01AA0FBB1FAA57BE4F5C91CD
:104A00005183880F991FDC01A957BE4F8C91818774
:104A1000BDA1B18BF901EE0FFF1FE252FC4F128EC8
:104A2000118E4F5F4093DE03C0CF90E0ACA5BDA5D3
:104A30004C91FC01EE0FFF1FEA57FE4F2081421BF5
:104A4000550BEEA5FFA52081880F991FFC01E957A2
:104A5000FE4F8081281B330B449FB001459F700D92
:104A6000700D1124229FC001239F900D900D1124E1
:104A7000860F971F0E941506382F893208F04ECFF7
:104A800028E2231B08F420E0F801E856FC4F21310E
:104A900008F020E13081320F08F43FEF30833ECF41
:104AA0000E94CA0B30E2E32EF12C8E010F5F1F4FE4
:104AB0008823D9F08091E8008B778093E800898182
:104AC000EFEFE80FE33158F5F0E0ED5DF54D0C94B4
:104AD000DD288091F100D8018C93B1E0EB1AF10848
:104AE000E114F10439F30F5F1F4F8091E80085FD59
:104AF000F0CF8091E8008B778093E8000E94CA0B8A
:104B0000882399F3D7CF1A828CE08B831AC08A81CD
:104B1000833049F138F4813061F08230D9F08FEF81
:104B200089830FC08430D9F71B821C821D821E82AC
:104B300008C00E94100B0E94E3286B837C838D8346
:104B40009E8340E250E0BE016F5F7F4F82E00E9493
:104B5000BE0FB6CD87E290E00E9453291B821C82D3
:104B60001D828E83EECF8B8190E0DE01119612962E
:104B70008530910534F7FC01FF27EE0FFF1FED5E36
:104B8000FB4F2081318111963C93119712962C9303
:104B900012970196ECCF8A81823079F0853009F046
:104BA000BECF8091670491E08927809367041092BB
:104BB000120180E00E948D09C4CF2B813C814D8180
:104BC0005E8129A33AA34BA35CA3CA01B9010E9449
:104BD000E32887E290E00E947129B3CF4C816B817A
:104BE0008A810E94D5109827892798279E838D83D4
:104BF000A8CF2D813E813227232732274C816B811C
:104C00008A810E9431109DCF0E9458109ACF9A81BC
:104C1000933009F084CF883009F441C0893009F419
:104C20006BC08B818330B9F198F48130D1F0823040
:104C300009F087CF8C8190916704292F237081110F
:104C40001EC02111109212019C7F9093670479CFAE
:104C5000843009F076CF8C8120E040916A046D8128
:104C60000AC04C8124EB429F412D1124809168049D
:104C700020E06091690490E00E94D80962CF211180
:104C800002C0109212019C7F91609093670460E0D3
:104C90000E94A20956CF8C8180936B048ACF8B81AE
:104CA000833039F180F48130C1F0823009F049CF8E
:104CB00080916704982F937086958695911101C015
:104CC00080E08C833ECF843009F03BCF8091680434
:104CD0008C83809169048D8334CF80916A043FEF87
:104CE000839FC001112464EB70E00E9496286C83BE
:104CF00028CF80916B04E5CF0E942D2122CF80E147
:104D00008A831FCF81E08A8388EAFFCE0A811B81D4
:104D10001027012710278C816801C80ED11C7E0145
:104D200045E0E40EF11C0C151D0509F40ACF80E0E6
:104D3000083A51E0150728F4C801885A9D4F0E948F
:104D40005329D7018D937D010F5F1F4FECCF0A814F
:104D50001B81102701271027FE0131967F01CC808F
:104D6000CE0EDF2ED11CEC14FD0409F4EACE083A75
:104D7000F1E01F0740F4D70114966C91C801885ADE
:104D80009D4F0E9471290F5F1F4FBFEFEB1AFB0A67
:104D9000EACF0E949710D5CE84E0B2CF0A811B8162
:104DA0001027012710278C816801C80ED11C7E01B5
:104DB000E5E0EE0EF11C0C151D0509F4C2CE80E0F5
:104DC0000033F2E01F0720F4C80188960E9453299F
:104DD000D7018D937D010F5F1F4FEDCF0A811B819E
:104DE000102701271027FE0131967F01CC80CE0EBF
:104DF000DF2ED11CEC14FD0409F4A3CE0033F2E045
:104E00001F0738F4D70114966C91C80188960E9448
:104E100071290F5F1F4FBFEFEB1AFB0AEBCF809199
:104E20009703882309F458CCE9BCD9BC09B400FE27
:104E3000FDCF8091D8008F7D8093D8008091E000D5
:104E400082608093E0008091E00081FDFCCF0E94B1
:104E5000D61542CC1F921FB61F9211248F939F9399
:104E6000AF93BF9380919503811113C08091560336
:104E700090915703A0915803B09159034196A11DF9
:104E8000B11D8093560390935703A0935803B0939A
:104E90005903BF91AF919F918F911F901FBE1F909B
:104EA000189578941F921FB61F9211248F939F9389
:104EB000AF93BF938091560390915703A0915803ED
:104EC000B09159030196A11DB11D80935603909393
:104ED0005703A0935803B0935903BF91AF919F918B
:104EE0008F911F901FBE1F9018951F920F920FB6A3
:104EF0000F9211242F933F934F935F936F937F9360
:104F00008F939F93AF93BF93EF93FF938091E100B3
:104F100082FF09C08091E20082FF05C08091E1001C
:104F20008B7F8093E1008091DA0080FF24C0809124
:104F3000D80080FF20C08091DA008E7F8093DA0055
:104F40008091D90080FF9BC080E189BD82E189BD4D
:104F500009B400FEFDCF81E080931D0480917C02A6
:104F6000811109C00E94FB0B0E94180F8091E20082
:104F700084608093E2008091E10080FF17C08091FF
:104F8000E20080FF13C08091E2008E7F8093E200F8
:104F90008091E20080618093E2008091D80080627D
:104FA0008093D80019BC85E080931D048091E100B6
:104FB00084FF29C08091E20084FF25C080E189BD83
:104FC00082E189BD09B400FEFDCF8091D8008F7DBC
:104FD0008093D8008091E1008F7E8093E1008091E2
:104FE000E2008F7E8093E2008091E20081608093F6
:104FF000E20080917B02882309F447C084E080931B
:105000001D0480911D048091E10083FF27C08091E1
:10501000E20083FF23C08091E100877F8093E1005D
:1050200082E080931D0410927B028091E1008E7FCC
:105030008093E1008091E2008E7F8093E200809176
:10504000E20080618093E20042E060E080E00E9444
:10505000E10E8091F00088608093F000FF91EF9165
:10506000BF91AF919F918F917F916F915F914F9180
:105070003F912F910F900FBE0F901F90189519BC64
:1050800010921D0410927C0276CF8091E30087FF7E
:1050900002C083E0B4CF81E0B2CF1F920F920FB66F
:1050A0000F921124FF920F931F932F933F934F93CF
:1050B0005F936F937F938F939F93AF93BF93CF93A0
:1050C000DF93EF93FF9309EE10E0F8018081C09128
:1050D000EC00C795CC27C7958F70FC2EF82A10825C
:1050E000C0EFD0E08881877F888378940E94C31DB9
:1050F000F8011082888188608883CF2DCF70C083AB
:10510000FF91EF91DF91CF91BF91AF919F918F91DF
:105110007F916F915F914F913F912F911F910F91CF
:10512000FF900F900FBE0F901F901895AA1BBB1BEE
:1051300051E107C0AA1FBB1FA617B70710F0A61B97
:10514000B70B881F991F5A95A9F780959095BC01B8
:10515000CD01089597FB072E16F4009407D077FD34
:1051600009D00E94962807FC05D03EF490958195C1
:105170009F4F0895709561957F4F0895052E97FB79
:105180001EF400940E94D52857FD07D00E942129C3
:1051900007FC03D04EF40C94D528509540953095DB
:1051A00021953F4F4F4F5F4F089590958095709593
:1051B00061957F4F8F4F9F4F0895EE0FFF1F059012
:1051C000F491E02D09946927962769277827872786
:1051D000782708952F923F924F925F926F927F921D
:1051E0008F929F92AF92BF92CF92DF92EF92FF92F7
:1051F0000F931F93CF93DF93CDB7DEB7CA1BDB0BA3
:105200000FB6F894DEBF0FBECDBF09942A88398847
:1052100048885F846E847D848C849B84AA84B9844E
:10522000C884DF80EE80FD800C811B81AA81B9815A
:10523000CE0FD11D0FB6F894DEBF0FBECDBFED016E
:105240000895A1E21A2EAA1BBB1BFD010DC0AA1FC7
:10525000BB1FEE1FFF1FA217B307E407F50720F0DF
:10526000A21BB30BE40BF50B661F771F881F991F5A
:105270001A9469F760957095809590959B01AC01A3
:10528000BD01CF010895DC01CB01FC01F999FECFEE
:1052900006C0F2BDE1BDF89A319600B40D924150BE
:1052A0005040B8F70895F999FECF92BD81BDF89AA4
:1052B000992780B50895A8E1B0E042E050E00C9451
:1052C0004529DC01A40FB51F4150504048F0CB01E7
:1052D000840F951F2E910E94722941505040D0F7A3
:1052E0000895262FF999FECF92BD81BDF89A0197B6
:1052F00000B4021639F01FBA20BD0FB6F894FA9A1E
:10530000F99A0FBE08950396272F0E9472290E94D2
:105310007129252F0E947229242F0C94722901963D
:10532000272F0E9472290C947129FB01DC0104C013
:105330008D910190801921F441505040C8F7881B8D
:10534000990B0895FB01DC0102C001900D924150C0
:105350005040D8F70895DC0101C06D934150504092
:10536000E0F70895F894FFCFDD11F91125126312CB
:10537000A312B712BA12BF12C212C712CA12CD12AA
:10538000D012D312D612D912DC12DF12E212E712B7
:10539000EA12ED1224135B139C139F13A21335140E
:1053A0003A143D144A144E1459145C1467146A14C8
:1053B00075147814831480188C18931898189D18F5
:1053C000A218A718AC18B118B618BB18C018C51881
:1053D000C818CB18B616B616B616B616B616B61642
:1053E0007B177F1771177717831787178B17DF17AF
:1053F0004A18E717B117B517EB17B917EF17FB17CF
:10540000C5174318C917FF17CD1703182B18D11745
:1054100007183218D7170D181518BD17F317C1172D
:10542000F717DB17111821183B184118AB17E317B2
:105430005118A11EC71ECD1EC71ECD1E201F421F04
:10544000CD1E3E204B2083258725CB25EE25F92533
:1054500004260726072607268F258F257F268226E6
:0C5460008626A726C926CC26CE26EE26DE
:10546C0000FF0039054D0BFC0F1310500B510BFFB7
:10547C00FF010300FFB444223B0901E700AC005FCD
:10548C000178019801003131295A1B750A303137E6
:10549C0067F7F032336636349796949593929190E1
:1054AC00000102030405060708090A0B0C0D0E0F78
:1054BC00101112131415161718191A1B1C1D1E1F68
:1054CC00202122232425262728FF292A2B2C2D2E88
:1054DC002F3031323334FFFF353637FFFF3CFFFFBF
:1054EC003D3E3F40FFFF060000002C003900450008
:1054FC005800650072007E0091009E00AA00B70063
:10550C00C700000D0F0D1E0D2D0D3C0D4B0D5A0D32
:10551C00690D6E0D7D0D8C0D9B0DA00DAF0D091A37
:10552C00191A261A321A3F1A4C1A581A651A721A74
:10553C007E1A8B1A971AA41A0B261C262926362695
:10554C0042264F265B266826752681268E269B26AC
:10555C0023332F333C3349334933493349334933AC
:10556C00553362336E337B330101010101010101BB
:10557C00010101010101010101010101010101010F
:10558C0001010101010101010101010101010101FF
:10559C0001010101010101010101010101010101EF
:0A55AC0001010101010101010100EC
:00000001FF
