:100000000C9429020C9446020C9446020C9446026D
:100010000C9446020C9446020C9446020C94460240
:100020000C9446020C9446020C94E2290C94B52AD6
:100030000C94E9240C9446020C9446020C9446025B
:100040000C9446020C9446020C9446020C94460210
:100050000C9446020C94A1250C9446020C94460282
:100060000C9446020C9446020C9446020C944602F0
:100070000C9446020C9446020C9446020C944602E0
:100080000C9446020C9446020C9446020C944602D0
:100090000C9446020C9446020C9446020C944602C0
:1000A0000C9446020C9446020C94460229001E0051
:1000B0001F0020002100220023002400250026002C
:1000C00027002D002E002A002B0014001A00080023
:1000D000150017001C0018000C00120013002F0060
:1000E00030003100390004001600070009000A0042
:1000F0000B000D000E000F0033003400280000003C
:10010000E1001D001B000600190005001100100091
:10011000360037003800E50000000000E000E30092
:10012000E200000000002C0000000000E600650076
:100130002152E4000000000035003A003B003C0082
:100140003D003E003F0040004100420043004400AB
:1001500045004C00010001005200010001000100B7
:1001600001000100010046004700480001000100B5
:100170000100500051004F0001000100010001008A
:10018000010049004A004B0001000000010001008D
:10019000010001000100010001004C004D004E0073
:1001A000010001000000000001000100597C000076
:1001B00000000100000000000100225201000100C7
:1001C0000000000001000100010001000100010029
:1001D0000100010001000100010001000100010017
:1001E00001000100520001000100010001000100B6
:1001F00001000100010001000100010001000100F7
:1002000001002178237825782778297801000100DA
:10021000010001000100000001002078217824780D
:10022000267828782A7801000100010001000100E9
:1002300000000000010001000100000000000100BA
:1002400000000000010001000100010000000000AA
:100250000001010101010101010102020202020289
:10026000020202030303030303030304040404045C
:100270000404050505050506060606060707070723
:100280000708080808090909090A0A0A0B0B0B0CD8
:100290000C0C0D0D0D0E0E0E0F0F0F101011111175
:1002A00012121313141415151616171718181919F6
:1002B0001A1A1B1B1C1D1D1E1E1F2020212222235B
:1002C0002424252626272829292A2B2C2D2D2E2F9C
:1002D00030313232333435363738393A3B3C3D3EB3
:1002E0003F404142434445464748494A4C4D4E4FA2
:1002F00050515354555658595A5B5D5E5F61626464
:10030000656668696B6C6D6F7072737577787A7BF0
:100310007D7E8082838587888A8C8E8F9193959647
:10032000989A9C9EA0A2A3A5A7A9ABADAFB1B3B567
:10033000B7BABCBEC0C2C4C6C9CBCDCFD1D4D6D843
:10034000DBDDDFE2E4E7E9EBEEF0F3F5F8FAFDFFE1
:1003500022036D0061006F005F00310034005F0018
:1003600044005300360030005F0061006E007300EF
:10037000690000000C0343005A004D0041004F008B
:1003800000000403090409023B00020100A0FA096D
:1003900004000001030101000921110100012244B0
:1003A00000070581030800010904010001030000A2
:1003B00000092111010001223B00070582032000F2
:1003C000011201000200000008604A604A000101B9
:1003D00002000105010906A1018506050719E029AA
:1003E000E715002501950875018102050719002907
:1003F000EF1500250195F075018102050819012905
:1004000005950575019102950175039101C00501DE
:100410000906A101050719E029E71500250195083E
:10042000750181029501750881010507190029FFF1
:10043000150026FF00950675088100050819012999
:10044000051500250195057501910295017503912A
:1004500001C011241FBECFEFDAE0DEBFCDBF12E036
:10046000A0E0B1E0E2EDFBE502C005900D92AC34F6
:10047000B107D9F724E0ACE4B2E001C01D92A03D81
:10048000B207E1F70E9440110C94752D0C94000006
:100490008330B8F46530A8F44E3098F4E42FF0E0DF
:1004A0009EE0699FE00DF11D112496E4899FE00D07
:1004B000F11D1124EE0FFF1FE455FF4F859194911C
:1004C000089581E090E008950E944802089581E037
:1004D00008950E946702089581E008950E946702CE
:1004E00008950E946E02089508950E94740208956E
:1004F000A6E0B0E0EEE7F2E00C94DE2C49835A83EC
:100500009E833091530289819A8131111AC03E81B4
:10051000332399F0222389F00E94E707182F682FD0
:1005200089819A810E94C30769817A81812F0E9403
:10053000D50E2696E3E00C94FA2C0E94D507182FCE
:10054000F3CF0E94E70769817A81F1CFFC01262F62
:100550004081518162817381848195810E947802FA
:100560000895CF93DF93D82FC92F61E00E94A60290
:100570006D2F7C2F0E946902DF91CF910895CF9358
:10058000DF93D82FC92F60E00E94A6026D2F7C2F29
:100590000E947502DF91CF91089521E030E0A9011A
:1005A00002C0440F551F8A95E2F7CA010E94E40673
:1005B0000895CF93C82F81E090E00C2E02C0880FE1
:1005C000991F0A94E2F70E944A0C8C2F0E94CD02D8
:1005D000CF91089581E008950E94EA020895CF9393
:1005E000C82F0E9495068C2F0E94EC022FEF84E307
:1005F0009CE0215080409040E1F700C00000CF9186
:10060000089581E00E94EF020E94C525089580E0D0
:100610000E94EF020E94D62508950F931F93CF9357
:10062000DF938C0161E00E94A602EC01B8010E94F8
:100630007102882309F449C0B801CE010E94AE229C
:10064000882309F442C0B801CE010E9463218823A7
:10065000E1F1B801CE010E9438218823B1F1B8013F
:10066000CE010E945A11882381F1B801CE010E9467
:10067000A811882351F1B801CE010E94DB0F882315
:1006800021F1F8018581882381F0CA35FCE7DF0775
:1006900039F178F4C130ECE7DE07F9F0C330FCE75C
:1006A000DF07C9F0C115DC4771F0C8010E946C0278
:1006B0000DC0CB35ECE7DE07B1F0CC35DC47A9F750
:1006C0000E941B0CF2CF0E94010380E0DF91CF91CA
:1006D0001F910F9108950E942D0C0E940703F5CFE2
:1006E0000E94250CE2CF0E94290CDFCF0E94C52476
:1006F0000E94A61E0E949E0381E00E94A61F0895EC
:100700000E94A20380E00E94A61F0E94CA240895AE
:1007100081E008950895CF93DF93D82F0E94880336
:10072000C82F882319F08D2F0E948A038C2FDF9108
:10073000CF91089508950E948B03089580E00E9450
:100740009B0308950E94F4220E949B030895CF9377
:100750000E94F422C82F80914E028C1779F0C0932A
:100760004E020E94552560934F0270935002809371
:100770005102909352028C2F0E949B03CF910895B7
:10078000ADE0B0E0E6ECF3E00C94DF2C488759874D
:100790006A877B878C879D8791110E94260B1F8219
:1007A00086E0FE013896DE01119601900D928A9541
:1007B000E1F78D8181110DC029813A814B815C81E6
:1007C0006D817E818F810E946C0A2D96E2E00C94EF
:1007D000FB2CCE0101960E94B1028111EDCFF5CF25
:1007E000FC018481813021F4808191810E9419086B
:1007F0000895CF93C82F882399F08CEF8C0F813AFE
:1008000088F48C2F0E943C23882329F08C2F0E948F
:10081000E5230E94BE0B8C2F0E94CB230E94BE0BAF
:10082000CF91089580E28C0F8830D0F7C77081E0B7
:1008300001C0880FCA95EAF70E94070BEFCF882303
:1008400041F09CEF980F913A28F40E94E5230E9412
:10085000BE0B089590E2980F9830D8F7877091E01A
:1008600001C0990F8A95EAF7892F0E940D0BEFCFEF
:100870001F93CF93DF93182FEB010E94F90320976A
:1008800039F4812F0E941F04DF91CF911F910895A9
:100890008FE99FE00197F1F700C000002197EFCFAB
:1008A00060E070E0893311F460E570E00E94380484
:1008B0000895882321F00E94070B0E94BE0B089523
:1008C000882321F00E940D0B0E94BE0B0895A0E02A
:1008D000B0E0EDE6F4E00C94D92C6C01D62FC72FD4
:1008E000FC011581068102950F700E94FC0AE82E1A
:1008F0008823F9F0E12E1123E1F08C2F807F8034E2
:1009000061F080E28D0F8830D0F18C2F807E8032B4
:1009100021F4D230A0F1002391F18091B20382FF43
:100920002EC082E00E94EE0B0E94FC0A91E0E82EAD
:10093000E9269C2F92959F70983009F4C9C008F55C
:10094000923080F1925F9F70923008F45CC0EE208C
:1009500089F00E94F80A80FD0DC0F60115820E9400
:10096000F20A0E942007C6010E9468060E94F20A4D
:100970000E943007CDB7DEB7E8E00C94F52CE12CEF
:10098000D8CF993009F41BC19A5F9F709230F8F666
:10099000D23F09F025C18C2F8F7111111EC10E9409
:1009A0002007C5C00C2F0F70C03110F00295007FDA
:1009B000112399F0002359F080E28D0F883010F058
:1009C000D11107C0802F0E94070B0E94BE0B8D2FF4
:1009D0003BC0802F0E94180BF8CF8D2F0E941F0460
:1009E000002309F4B4CF80E28D0F883010F0D111CC
:1009F00004C0802F0E940D0B03C0802F0E941E0B8D
:100A00000E94BE0BA4CFFC2FFF70FF2EC07FC03210
:100A100019F0F29480EFF822DD2341F0D130D1F1CA
:100A2000112309F444C00023F1F0D1CF8091B20327
:100A300082FD15C0112359F0FF2029F08F2D0E944F
:100A4000070B0E94BE0B80E00E94F90380CF80E07C
:100A50000E941F04FF2009F47ACF8F2DCBCF1123E2
:100A600069F0011104C08F2D0E94590470CF01302C
:100A700009F06DCF8F2D0E943E0B69CF011167CF1A
:100A80008F2D0E9460048F2D0E944A0B8F2D0E9493
:100A90002D0B5DCF112321F0063008F058CFE3CFA6
:100AA000053008F054CF8F2D0E94600450CF0023F2
:100AB000D1F3D93349F42FEF87EE93E021508040F2
:100AC0009040E1F700C000008D2F0E941F043FCF2F
:100AD0008C2F8370811139C0111129C04D2F42957F
:100AE00046954770440F440F2D2F2F7030E0042E91
:100AF00002C0220F331F0A94E2F780E090E0D4FF97
:100B000009C08FE090E002C0880F991F4A95E2F774
:100B100080959095C695C695C370822B932BC23055
:100B200071F0C33079F0C13039F00E94F0060E94B4
:100B3000F4220E949B030BCF0E94E706F8CF0E948D
:100B4000F906F5CF0E94E406F2CF112361F1C0FF50
:100B5000EECF4D2F429546954770440F440F2D2FF1
:100B60002F7030E0042E02C0220F331F0A94E2F7E8
:100B700080E090E0D4FF09C08FE090E002C0880FD1
:100B8000991F4A95E2F780959095C695C695C370D2
:100B9000822B932BC23069F0C33071F0C13031F039
:100BA0000E945B07C4CF823010F2D3CF0E9452075D
:100BB000BECF0E946407BBCF0E940807B8CFCF709A
:100BC000112339F08C2F0E9420078D2F0E94590489
:100BD000AECF8D2F0E9460048C2F0E943007A7CFCC
:100BE000D33F70F4D03FB9F0D13F79F1112309F42C
:100BF00046C0002309F440C08D2F0E94F90397CF0F
:100C0000D33FA9F0D43FE9F01111F3CF011144C053
:100C10008C2F8F71E2CF112341F0053008F087CF80
:100C20008C2F8F710E94420782CF0530F7CF11239E
:100C300029F08C2F8F710E94140779CF0E940F0723
:100C400076CF8091B20382FD05C08C2F8F71112366
:100C500021F2A5CE112331F063E08C2F8F710E9419
:100C6000D00B65CF81E00E94EE0B023008F45FCF1D
:100C700082E00E94EE0B5BCF8C2F8F7190CE002311
:100C800039F2D93349F4EFEFF7EE23E0E150F040C9
:100C90002040E1F700C000008D2F0E941F0447CFC5
:100CA0000F931F93CF93DF93EC01688179818D813E
:100CB0000E9426088C010E946D070E94E306B8017D
:100CC000CE010E946704DF91CF911F910F9108958B
:100CD000CF93DF93EC018C81882399F0CE010E94A1
:100CE0000D03811111C00E94FC0A882351F08D81EF
:100CF000882339F08091B20382FF03C082E00E9412
:100D0000EE0BDF91CF910895CE010E945006CE01E7
:100D10000E94BF02F6CF0E94260B0E94BE0B0895D0
:100D20000E94FF230E948B0608950E94150B0E94CB
:100D300090060895282F92959F70963091F060F458
:100D4000925F9F70923030F481E0203F79F030F470
:100D5000283E30F080E008959A5FF3CF243FD1F72A
:100D6000089581E0283EE0F3213FF9CF0895FC018A
:100D70008481882339F0808191810E9419080E9422
:100D80009A06089580E00895A6E0B0E0EAECF6E067
:100D90000C94DF2C2696E2E00C94FB2CA7E0B0E04C
:100DA000E4EDF6E00C94DF2C2796E2E00C94FB2CAB
:100DB00008950E94D80608950E94D90690937B0258
:100DC00080937A02089508950E94DC060895209188
:100DD0007A0230917B02822B932B0E94DC060895CD
:100DE00020917A0230917B02822393230E94DC06B9
:100DF000089520917A0230917B02822793270E94E6
:100E0000DC0608950E94D80608950E9402070895FE
:100E10000E9405079093790280937802089580E0FC
:100E200090E00E940807089521E030E0A90102C087
:100E3000440F551F8A95E2F7CA010E9408070895DA
:100E400021E030E002C0220F331F8A95E2F7809143
:100E5000780290917902822B932B0E9408070895C3
:100E600021E030E002C0220F331F8A95E2F720957F
:100E700030958091780290917902822393230E9489
:100E80000807089521E030E002C0220F331F8A9541
:100E9000E2F78091780290917902822793270E944D
:100EA000080708952091780230917902822B932BC4
:100EB0000E940807089520917802309179028223D8
:100EC00093230E94080708952091780230917902B7
:100ED000822793270E940807089508959B01677051
:100EE00091E001C0990F6A95EAF763E0369527957E
:100EF0006A95E1F7220F331F220F331FFA01E20F29
:100F0000F31F40E050E0682F70E08191DF011197FE
:100F10009B01042E02C0369527950A94E2F72170B2
:100F200021952827292328272C934F5F5F4F443092
:100F3000510559F708959C01982F977083E03695D5
:100F400027958A95E1F7220F331F220F331FFB01EC
:100F5000E20FF31F40E050E080E0219130E0092EE5
:100F600002C0369527950A94E2F721703327042EA4
:100F700001C0220F0A94EAF7822B4F5F5F4F443083
:100F8000510559F70895282F862F953068F42E3093
:100F900058F4622F70E02EE0929F600D711D1124B5
:100FA00044E552E00E946E070895292F953068F4B9
:100FB0008E3058F490E064E572E03EE0239F800DAF
:100FC000911D11240E949B07089580E00895A0E0E0
:100FD000B0E0EDEEF7E00C94D82C8C01E0907802B4
:100FE000F090790280917A0290917B02E82AF92AA6
:100FF000CFE0D0E0CC24C394D12CC6010C2E02C08B
:10100000880F991F0A94E2F78E219F21892B49F4BA
:10101000219798F7B12C8B2DCDB7DEB7E9E00C9472
:10102000F42CBC2EB8018C2F0E94E10E019781F3A5
:10103000F2CFCF93DF93D82FC92F0E94E7076D2FF0
:101040007C2F0E94E10EDF91CF9108951F93CF93E3
:10105000DF93162FD72F90915302992341F0862FBB
:10106000972F0E941908DF91CF911F91089588232F
:1010700081F0862F972F0E94E707C82F682F812FB6
:101080009D2F0E94C307612F7D2F8C2F0E94E10EA0
:10109000EACF862F972F0E94D507C82FF4CF0F9342
:1010A0001F93CF93E0917C02C7E080917D028E1365
:1010B00004C0CF911F910F9108950E2F10E0CE9F85
:1010C000F0011124E258FD4F20813181428153818A
:1010D0006481758186810E94CE06F8013196E770A1
:1010E000E4CF2091B6023091B7024091B8025091FE
:1010F000B9026091BA027091BB028091BC020E9459
:10110000CE0608958091BC02803178F48091BB02B4
:10111000882359F0E0917C0220917D023091B70242
:101120004091B60257E02E1301C008956E2F70E073
:101130005E9FF0011124DF01A258BD4F14968C91DF
:101140001497882361F111968C911197831327C00E
:101150008C91841324C015968C91159781111FC012
:1011600012968D919C91A091B802B091B9028A1B00
:101170009B0B883C910598F48091BC028F70806134
:101180008093BC02EC57FD4F80818F70806180831B
:1011900086EB92E00E9468060E944F080895FB01CA
:1011A0003196E770C0CFE0917C0290917D0227E0FC
:1011B000E91302C080E00895AE2FB0E02E9FF00149
:1011C0001124E258FD4F3181361306C030813813A7
:1011D00003C03581341304C0FD013196E770E8CFB8
:1011E00081E008958F929F92AF92BF92DF92EF922B
:1011F000FF920F931F93CF93DF93CDB7DEB72D9759
:101200000FB6F894DEBF0FBECDBF8C0186E0F801AB
:10121000DE01189601900D928A95E1F7F801E080C1
:10122000F580A280B380848196EB892E92E0992E7E
:101230009091BA0291111BC0882309F4FCC0FF20D1
:1012400009F43DC1C8010E94B706882309F437C1DB
:1012500087E0F801D40101900D928A95E1F7C4016D
:101260000E94F0030E9482080E947108E4C0D0909E
:10127000BB022091B8023091B902A501421B530B69
:10128000DD2009F4DBC0483C510508F0A6C08823E6
:1012900009F4D1C09091B70291808091BC02803155
:1012A00008F06BC0991228C09091B6029E1124C01C
:1012B000F1105DC08F7080618093BC020E94710844
:1012C00086EB92E00E9468068091BC02F80186835A
:1012D000F12C8F2D2D960FB6F894DEBF0FBECDBF2B
:1012E000DF91CF911F910F91FF90EF90DF90BF9012
:1012F000AF909F908F900895F11039C040E0692D14
:101300008E2D0E94D30840E0692D8E2D0E94D308B7
:10131000F82E8111DDCF888599850E941908292F23
:1013200022952F70903450F49F70223080F09923D2
:1013300099F0F8019681903178F4CBCF2A5F2F7025
:10134000223078F0C8010E946806FD2CC2CF992394
:1013500019F0882309F4BDCF805E883008F4B9CF36
:10136000F1CF803F08F4B5CF815F8230F7CF809115
:10137000BC0281608093BC02ABCF991207C09091F0
:10138000B6029E1103C0FF2009F479C0C8010E9473
:10139000B706882309F493C0FF2009F490C0809118
:1013A000BC02803288F02091B6023091B7023A83B5
:1013B0002983BC82AB829091BA029D831E828F8367
:1013C000CE0101960E94680687E0F801A6EBB2E024
:1013D00001900D928A95E1F745CF9091BC02903132
:1013E000A0F4488559856A857B858C859D850E94FA
:1013F000C40686EB92E00E94680687E0F401119231
:101400008A95E9F70E94710863CF8823A1F02091A3
:10141000B70281812813BACF8091B6028E11B6CF60
:10142000F110B4CF9683C8010E94680687E0F401EA
:1014300011928A95E9F7FF24F3944BCF483C51056C
:1014400008F041C08823B9F3FF20C9F19091B70299
:10145000818198132AC08091B6028E1126C0809196
:10146000BC0280FD19C08031B8F08683807F803F48
:1014700039F08681982F907F905F8F70892B8683BB
:10148000C8010E94680687E0F801A6EBB2E001906F
:101490000D928A95E1F7E8CE87E0F801A6EBB2E07D
:1014A00001900D928A95E1F7C6CFC8010E94B70658
:1014B00081118ACF8091BC0281608093BC02C801F7
:1014C0000E946806B8CF488559856A857B858C85DA
:1014D0009D850E94C40691CFAEE0B0E0E2E7FAE05D
:1014E0000C94DE2C288739874A875B876C877D8739
:1014F0008E87CE0108960E94F2088823B1F06C8591
:10150000662341F0288539854A855B857D858E85F2
:101510000E94CE0617E080917C0290917D02891393
:101520003EC02E96E3E00C94FA2C87E0FE0138963C
:10153000DE01119601900D928A95E1F720917D02CE
:1015400040917C028C85882329F330E0C901019603
:101550008770992750E08417950799F097E0929F3C
:10156000D001939FB00D1124A258BD4FFE013196BA
:1015700001900D929A95E1F780937D020E944F08A9
:10158000C9CF0E94950610927D0210927C0287E0DE
:10159000E6EBF2E0DF011D928A95E9F7BBCF189FD9
:1015A000C001112482589D4F0E94F208882309F43B
:1015B000B8CFE0917C021E9FF0011124E258FD4F4C
:1015C00020813181428153816481758186810E94AD
:1015D000CE0680917C0290E00196877099278093D7
:1015E0007C0299CF8091E50286958695869508952F
:1015F0008091E502877008959091E502977081E0EF
:10160000911101C080E00895809111030895909197
:101610001103982B909311030895982F9095809122
:1016200011038923809311030895109211030895E3
:1016300090911003982B909310030895982F9095F4
:101640008091100389238093100308951092100352
:10165000089508950E94290B08959091E602292F7C
:101660002823222331F0809589238093E6020E946B
:101670002A0B089508950E943A0B08959091E7026D
:10168000292F2823281729F0982B9093E7020E94EE
:101690003B0B08959091E702292F2823222331F054
:1016A000809589238093E7020E943B0B08958091E7
:1016B000E702882329F01092E70280E00E943B0BAA
:1016C0000895CF93DF93C091110380911003C82B2D
:1016D000D091E702DD2331F00E941B2381110E948B
:1016E000570BCD2B8C2FDF91CF910895CF93DF93A4
:1016F000C0910B02D0910C020E94610B8883C091B3
:101700000B02D0910C0248E050E06DED72E0CE018A
:101710000E94062D892B59F088E0FE01ADEDB2E064
:1017200001900D928A95E1F7CE010E940123DF918D
:10173000CF910895CF93DF93C0910902D0910A020F
:101740000E94610B8983C0910902D0910A0240E294
:1017500050E06DEB72E0CE010E94062D892B59F00E
:1017600080E2FE01ADEBB2E001900D928A95E1F7C7
:10177000CE010E940C23DF91CF9108950E948A240C
:10178000813039F48091B10387FF03C00E949A0B26
:1017900008950E94760B089508950E94CC0B089539
:1017A0009091B20392FF11C098E0899F900111249B
:1017B000622B6093E5020E9420078091E5028695E6
:1017C000869586950E94CD0B08950E942007089566
:1017D0001092E50280E00E94CD0B08959091E50201
:1017E000809589238093E502282F277021110DC051
:1017F000891759F09091B20392FF07C0869586959C
:1018000086950E9430070E94E80B08959091B203DC
:1018100092FB222720F9281769F080FB92F9909318
:10182000B2038091B1039091B2030E94550C82E003
:101830000E94EE0B08958091B20382FB882780F905
:1018400091E089270E94060C089581E00E94060C11
:10185000089580E00E94060C08956FEF7FEF80E00E
:1018600090E00E946F2D089580E090E00E943B2D53
:101870009C0181E0253E3E4F09F080E0089582E022
:1018800090E00E94332D089583E090E00E94332D74
:1018900090E00895682F83E090E00E94512D089514
:1018A00084E090E00E943B2D0895BC0184E090E02C
:1018B0000E946F2D0895AB01BC018FE090E00E9463
:1018C000632D0895AB01BC0183E190E00E94632D7C
:1018D000089560E070E0CB010E94620C089560E022
:1018E00070E0CB010E945B0C0E94690C0895A8E097
:1018F000B0E0EDE7FCE00C94DF2C65EE7EEF80E0DD
:1019000090E00E946F2D60E082E090E00E94512DF7
:1019100081E090E090937B0280937A020E944A0CCF
:1019200060E074E184E090E00E946F2D60E086E06A
:1019300090E00E94512D60E087E090E00E94512DE0
:1019400040E050E0BA0188E090E00E94632D60E042
:1019500083E290E00E94512D60E08CE090E00E94D4
:10196000512D60E08DE090E00E94512D19821A8285
:101970001B821C821D821E821F82188648E050E056
:1019800067E170E0CE0101960E94412D40E050E0F9
:10199000BA018FE190E00E94632D0E946F0C28969F
:1019A000E2E00C94FB2C0E94770C0895682F8EE0E7
:1019B00090E00E94512D0895A6E0B0E0E2EEFCE038
:1019C0000C94DD2C0E9449258C018091120390918A
:1019D00013038017910779F019821A820E94492512
:1019E000BC0149815A8180E090E00E94C0031093BD
:1019F0001303009312032696E4E00C94F92C0E9442
:101A000055256093220370932303809324039093BE
:101A1000250360931E0370931F038093200390930C
:101A200021030895089508950E94120D08950895C0
:101A30000E94170D089589ED9FE00E9455110E94A4
:101A4000130D0E94140D089581E008950E94240D45
:101A500008950E94240D0895089508950E942C0D64
:101A60000E942D0D08950E94340C811102C00E9425
:101A7000D30C0E943F0C809326030E94500C90933D
:101A8000B2038093B1030E9435210E94440C0E944E
:101A9000E40680917802909179020E9405070895EA
:101AA0000E9440250E94A8100E94330D0E949A03B4
:101AB0000E94791F0E94180D0895A6E0B0E0E3E6A9
:101AC000FDE00C94D32C0E94260D81110AC00E94C7
:101AD000DC0C0E94A61E0E94A7032696EEE00C9442
:101AE000EF2C0E94BE1024E1822E23E0922E64018E
:101AF00010E0F601E190F1906F01812F0E94F50F47
:101B00001F5F153009F44BC0E816F90691F3809178
:101B1000260381FD0E94FE0F0E94290D782E10E001
:101B2000812F0E94F50F7C01F401A190B1904F012B
:101B30008A159B0571F1A826B92600E0CC24C39430
:101B4000D12CC5018C219D21892BD1F06624639471
:101B5000C7018C219D21892B09F4612C772059F034
:101B600009831A830E944925BC0149815A8181E079
:101B7000962D0E94C003462D602F812F0E948D1745
:101B80000F5FCC0CDD1C0E30E1F6F4013297F182D0
:101B9000E0821F5F153021F60E94FF0C9ACFE816F5
:101BA000F90609F0B4CF93CF1F93CF93DF930E9430
:101BB000E60EEC01811522E5920708F04DC0811573
:101BC00040E5940708F0C5C0883E910588F081156E
:101BD00050E4950728F199270E94E60ECC27DF7084
:101BE000C82BD92BD06ACE01DF91CF911F910895D8
:101BF000803E9105C0F7853A910550F4049798F717
:101C000081E0219709F080E0C82F80E0D82FEBCF4A
:101C10008D5C9109D065439730F3C0E0D0E0E3CF0D
:101C2000C11590E2D90708F0ADC0CE019A95811593
:101C30009F4198F78D2F0E948A0F182FCE01992768
:101C40000E94E60E212F30E0322F2227E901CC2717
:101C5000DF71C82BD92BC7CF803842E59407C0F578
:101C6000803652E5950708F055C0C03482E5D807A4
:101C7000B0F08C2F86958695877020E2829FC001F8
:101C80001124C37021E030E0A90102C0440F551FA8
:101C9000CA95E2F7EA01C82BD92BDC68A4CFC03281
:101CA00052E5D50780F58C2F8695869520E2829F98
:101CB000C0011124C37021E030E0A90102C0440F2B
:101CC000551FCA95E2F7EA01C82BD92BDD688BCFE7
:101CD000803C52E5950758F48F71C03AD24578F5AB
:101CE00090E0982F8827EC01C46FD06A7CCF805C8D
:101CF0009245809708F091CFDC2FCC27CC27DF715D
:101D0000C06FD06A70CFCF71D0E0DC2FCC27C16F0D
:101D1000D06A69CF86958695877020E2829FC00140
:101D20001124C37021E030E0A90102C0440F551F07
:101D3000CA95E2F7EA01C82BD92BDA6854CF0E9482
:101D40008A0FC82FD0E0DC2FCC27CC27DF71D062E0
:101D50004ACF8F710E948A0F65E0D695C7956A9524
:101D6000E1F7CF70D0E0DC2FCC27282F30E084FFC4
:101D700005C054E0220F331F5A95E1F7C22BD32B35
:101D8000D06931CF8D2F8F710E948A0F182FCE010D
:101D900099270E94E60E212F30E0322F222722279A
:101DA0003F71282B392BE901D2CF462F672F753091
:101DB00028F44E3018F40E946402089580E090E008
:101DC00008950E94D50E0E94D40D0895803E91057D
:101DD000D1F1C8F48133910509F47FC048F4893208
:101DE000910509F46FC08A32910509F47DC0089508
:101DF00089339105E1F082389105C9F08533910569
:101E000009F45BC00895843E9105D1F148F4823E07
:101E1000910531F1833E910541F181EE90E0089505
:101E2000863E9105C1F1873E9105E1F1089520912B
:101E3000B1032370211165C02091B20323FF14C0A8
:101E400089E290E008952091B10320FD43C03091D4
:101E5000B20330FF09C024FF4EC080E090E0089537
:101E60002091B10322FDF7CF08952091B10322FD07
:101E700045C03091B20330FD44C024FFF5CFEDCF13
:101E80002091B20321FFF0CF8091B10384FDE5CF13
:101E900087EE90E008952091B10323FFE5CF24FD64
:101EA000DCCFF6CF2091B10323FD2EC03091B203D9
:101EB00031FFE3CF84EE90E008952091B10325FF38
:101EC000D3CFBECF2091B10325FD21C02091B20315
:101ED00023FFCACF89E390E008952091B10326FF44
:101EE000C3CF8AE290E008952091B10326FFBCCFD2
:101EF00081E390E0089583EE90E0089582EE90E013
:101F0000089580EE90E0089586EE90E0089585E3D0
:101F100090E0AACF9091B10392FF10C041E0282F2A
:101F20002471243009F040E031E0282F2871283056
:101F300009F030E0431711F02CE0822793FF10C026
:101F400041E0282F2471243109F040E031E0282FAE
:101F50002871283109F030E0431711F02CE0822776
:101F60003091B20330FF10C051E0282F2171213091
:101F700009F050E041E0282F2871283009F040E0B6
:101F8000541711F029E0822731FF10C041E0282FBB
:101F90002171213109F040E031E0282F28712831EA
:101FA00009F030E0431711F029E0822794FD877E85
:101FB000089580E00895CF939C01FB01805E9245D7
:101FC000C1E0809738F4C581C11104C0822F8F71A0
:101FD0000E94D9028C2FCF91089508950E94ED0F91
:101FE000089508950E94F10F0895E82FF0E0EE0F94
:101FF000FF1FE354FC4F808191810895089580EA8A
:102000008A95F1F7089500C008950E94FF0F089582
:10201000F894E82FE295EF70F0E041A18F7021E095
:1020200030E0B90102C0660F771F8A95E2F7CB0155
:10203000962F9095942391A392A1892B82A37894B3
:1020400008950F931F93CF93DF93C6E3D2E0899156
:102050008F3F11F00E94081082E0CB33D807B9F708
:10206000C8E2D2E006E312E089918F3F11F00E94AE
:1020700008100C171D07C1F7DF91CF911F910F9129
:102080000895A0E0B0E0E7E4F0E10C94D82CEC0176
:10209000B62E062F10E0C8018A5C9D4F7C01FC0122
:1020A00080818F3F09F44FC0F894E82FE295EF70DC
:1020B000F0E091A18F7021E030E001C0220F8A95FD
:1020C000EAF7892F822B81A382A12095282322A3BE
:1020D00078940E940310E8E2F2E041E050E0C12C65
:1020E000D12C21912F3F89F0A22FA295AF70A05E35
:1020F000B0E08C9190E02F7002C0959587952A955D
:10210000E2F781709A01882311F020E030E0C22AC2
:10211000D32A440F551F82E0E633F80711F7F70181
:1021200080818F3F11F00E94081061E0C114D1043A
:1021300009F460E08B2D0E940510000F111FC00FE5
:10214000D11FD982C882CDB7DEB7E9E00C94F42C58
:102150000E9421108AE0EDEBF3E0DF01982F1D9241
:102160009A95E9F7E3EBF3E0DF011D928A95E9F731
:1021700085E00E94FB100E94EE0F0895AAE0B0E0F7
:10218000E4ECF0E10C94DC2CFE0131968AE0DF01F6
:102190001D928A95E9F710E0FE2E0F2F612F8F2DEB
:1021A000902F0E9441101F5F1530C1F74AE050E0A8
:1021B0006F2D702F83EB93E00E94062D21E0892B79
:1021C00081F420E045E06DEB73E083EB93E00E9447
:1021D000FC10182F0E94F20F812F2A96E5E00C9434
:1021E000F82C8AE0EF2DF02FA3EBB3E001900D92D5
:1021F0008A95E1F7E7CF0895A0E0B0E0E2E0F1E1F1
:102200000C94D92CD82EE92EF62ED72F042FC22FBE
:10221000222379F081E0809329030E94492590933D
:1022200028038093270380E0CDB7DEB7E8E00C9465
:10223000F52CC0902903CC20B1F380912703909115
:1022400028030E947225059770F310E0000F111FFC
:10225000A8016D2D7E2D8F2D9D2F0E94062D892B7F
:1022600041F0A8016D2D7E2D8F2D9D2F0E94132DE5
:10227000CC2D109229038C2FD7CF0E945D0D08958D
:102280000E94E2240E9420270E941B0D0E943A27F0
:102290000E94500D0E9447270E944C270E943D112A
:1022A0000E9466270E942E0DF7CF90934D028093D7
:1022B0004C020895CF93DF93EC01FB0185818111DE
:1022C00004C081E0DF91CF9108950E94040B8272D7
:1022D000FE01E052F847EB30F10598F7E958F24D6E
:1022E0000C94C92C0E94CB1F80E0ECCF882329F0EE
:1022F0000E942F20F9CF8823D9F30E941E20F4CF0B
:10230000882329F00E946120EFCF8823D9F30E940F
:102310005220EACF882329F00E948520E5CF882328
:10232000D9F30E947320E0CF882329F00E94A920CE
:10233000DBCF8823D9F30E949720D6CF882329F0BA
:102340000E94C720D1CF8823D9F30E94B820CCCFD8
:102350001F93CF93DF93EC01FB011581112331F023
:1023600011E0812FDF91CF911F9108950E94040BFE
:102370008272FE01E054F847ED30F10588F7EE5720
:10238000F24D0C94C92C0E94DD1FEBCF0E94EF1F71
:10239000E8CF0E94CB1FE5CF882329F00E942F2091
:1023A000E0CF8823D9F30E941E20DBCF882329F0B9
:1023B0000E946120D6CF8823D9F30E945220D1CF2A
:1023C000882329F00E948520CCCF8823D9F30E944E
:1023D0007320C7CF882329F00E94A920C2CF882369
:1023E000D9F30E949720BDCF882329F00E94C720EF
:1023F000B8CF8823D9F30E94B820B3CFA0E0B0E0D3
:10240000E4E0F2E10C94D92CE82F71110DC04423C3
:1024100021F0F0E0E05BFD4F8491682F782FCDB77D
:10242000DEB7E8E00C94F52C262F30E0C72FD0E083
:10243000F0E0442321F0E05BFD4FE491F0E086E022
:10244000829F7001839FF00C11240FEF10E0C701F1
:10245000B8010E94602CAB01220F331F65E5649F19
:10246000C001659F900D1124281B390B622F660F48
:10247000620FC8018C1B9D0B8E9F90018F9F300DAA
:102480009E9F300D1124832F6C9F60016D9FD00C97
:102490001124CD2CDD24D801AC19BD096D01CE9ECF
:1024A000D001CF9EB00DDE9EB00D11246801C61A7A
:1024B000D108B6016C9F60016D9FD00C7C9FD00C41
:1024C0001124CD2CDD240C191D090E9FE0010F9F56
:1024D000D00D1E9FD00D11247D2F6E2F433051053E
:1024E000D1F09CEFE91693E0F90658F4413051051C
:1024F000B1F04230510509F092CF632F8D2F7E2F1E
:102500008ECF4430510571F04630510509F487CF24
:10251000732F8B2F84CF7B2F632F8E2F80CF7E2F17
:102520006B2F7DCF6D2F732FF8CF41E00E94FE11EE
:1025300008959C0180E090E0269F812D369F800DBC
:10254000911D112408959C018230910508F408958D
:102550009FEF213E8EE1380740F4C90145E0969592
:1025600087954A95E1F798E0980F61E0E62FE90F2B
:10257000FF27FF1FAF0155954795842F449FF0011A
:10258000459FF00DF00D11242E173F0738F49FEFF3
:10259000940F961758F78FEF860F08954F3FE9F382
:1025A00061E0640FF6CF409115025091160225E0CC
:1025B00038E0429FC001439F900D529F900D11241F
:1025C000875E994C9093160280931502890F0895A7
:1025D000982FE82F96FDE0958E2F8F7096FD8F5FD8
:1025E000E695E695E695E670F0E0E55CFD4F218125
:1025F000289F202D812D112422952F708295807F78
:10260000282B8081820F97FD8195805808951F9314
:10261000CF93DF93D62FC72F182F822F86950E9436
:10262000E812805887FD8195880F282F219F212D42
:102630001124822F6D2F7C2FDF91CF911F91089550
:102640001F93172F922FE42FF0E0EE0FFF1FEA5B8E
:10265000FE4F408124EE429F412D1124E72FF0E0F0
:1026600050E09A01245E3F4F291B310937FF03C018
:1026700031952195310993E0220F331F9A95E1F7A7
:10268000E21BF30BF7FF02C0E0E0F0E07E2F719F4A
:10269000712D11241F9108951F93182F822FE42F5D
:1026A000F0E0EE0FFF1FEA5BFE4F408124EE429FF9
:1026B000412D1124E12FF0E050E09A01245E3F4FBC
:1026C000281B310937FF03C031952195310983E07B
:1026D000220F331F8A95E1F7CF01821B930B9C01D8
:1026E00097FF02C020E030E0219F212D1124822F8E
:1026F0001F910895622F0895E42FF0E0EE0FFF1F61
:10270000EA5BFE4F6081621B0895E42FF0E0EE0F5C
:10271000FF1FE95BFE4F6081621B0895322F50E07E
:10272000FA01EE0FFF1FE95BFE4F9081905297FD7B
:102730009195440F551FFA01EA5BFE4F2081231B40
:10274000330B290F311D97FD3A95620F0895EF92D3
:102750000F931F9310E09801220F331F200F311F9A
:10276000359527956E2D620F1F910F91EF9008956B
:102770000F93CF93DF93D72FC82FB90147FD419512
:1027800028E330E0241B310947FD3395229FA00147
:10279000239F500D500D1124669FC001679F900D1F
:1027A000900D1124840F951F0E94A312982F990F4A
:1027B000692F680F600F7D2F8C2FDF91CF910F91C4
:1027C00008950F931F93522F10E0F801EE0FFF1F93
:1027D000E95BFE4FA081A052BB0B9D015203F001AB
:1027E000539FF00D1124000F111FD801AA5BBE4F9B
:1027F0002C912057330B4203D001439FB00D11247D
:102800009F012A0F3B1F37FF02C021583F4F220F65
:10281000232F221F330B620F1F910F9108950F93E7
:102820001F93522F10E0F801EE0FFF1FE95BFE4FE0
:10283000A081A052BB0B9D015203F001539FF00DEC
:102840001124000F111FD801AA5BBE4F2C912057F5
:10285000330B4203D001439FB00D11249F012A0F77
:102860003B1F37FF02C0215C3F4F96E0359527950F
:102870009A95E1F7620F1F910F9108950F931F939F
:10288000A42F10E0F801EE0FFF1FEA5BFE4F9081CE
:10289000905797FD9195000F111FF801E95BFE4FCE
:1028A00000810052110B2003A001219F500D112423
:1028B00028E330E0291B310997FD33951A2F1203C5
:1028C000F001139FF00D11244E0F5F1F9A01220F8C
:1028D000331F240F351F37FF02C021583F4F220FEF
:1028E000232F221F330B620F1F910F9108950F9317
:1028F0001F93CF93DF93D62F072F182FC42F822F2C
:102900000E94E812982FEC2FF0E0EE0FFF1FEA5B19
:10291000FE4F80818058980F97FD9195990F292F30
:102920003CE0239F212D1124622F6D0F702F812FEA
:10293000DF91CF911F910F910895E42FF0E0EE0FFA
:10294000FF1FEA5BFE4F9081921B97FD9195292F07
:1029500038E1239F212D1124620F08954095282FDF
:10296000429F412D1124842F0895409520E4429FD9
:10297000412D1124640F0895EF92FF920F93970158
:1029800095E0099F200D311D11242F3F310519F0CD
:1029900010F02FEF30E02095382F320F08F43FEF82
:1029A000832F0F91FF90EF900895EF92FF920F9376
:1029B000E00EF11CF90137FF03C0F195E195F10933
:1029C00024E0EE0FFF1F2A95E1F7EF3FF10519F024
:1029D00014F0EFEFF0E09A0157FF03C03195219515
:1029E000310994E0220F331F9A95E1F72E173F0724
:1029F0000CF4F901EE0DFF1DEF3FF10519F010F099
:102A0000EFEFF0E02E2F2095382F320F08F43FEF34
:102A1000832F0F91FF90EF900895EF92FF920F9305
:102A2000972FFA01B9019701093430F4201B3109BD
:102A30002F3F310519F010F02FEF30E038967197E5
:102A400040F0AB01485F5F4F4131510510F02FEF6F
:102A500030E02095382F320F08F43FEF832F77FFB7
:102A600002C06D5F7F4F759567957595679520914D
:102A7000C803620F792F0F91FF90EF900895EF92A6
:102A8000FF920F939701201B31092F3F310519F059
:102A900010F02FEF30E0322F3095482F430F08F41D
:102AA0004FEF842F620F0F91FF90EF900895EF92F8
:102AB000FF920F939701201B31092F3F310519F029
:102AC00010F02FEF30E02095382F320F08F43FEF51
:102AD000832F0F91FF90EF90089590912A03982BE8
:102AE00090932A030895FC019B01009719F4832F0A
:102AF00080780895AC0197FF04C044275527481BF0
:102B0000590BB901640F751F37FD0FC0C901841B34
:102B1000950BA5E0880F991FAA95E1F70E94742CE8
:102B200080E2861BF7FD81950895CB0165E0880F53
:102B3000991F6A95E1F7BA01621B730B0E94742C0E
:102B400080E6EFCF0F931F93CF93DF93D62F172FEE
:102B5000C82FBA01C901212F201B022F0E94731513
:102B6000982F990F990F782F791B700F719F712DE6
:102B700011246D2F8C2FDF91CF911F910F9108950C
:102B8000FF920F931F93CF93DF93D62FC72F182F4A
:102B9000BA01C901F12EF01A0E947315982F990FEE
:102BA000990F082F091B0F0D019F012D11246D2F67
:102BB0007C2F802FCDB7DEB7E5E00C94F82CEF9298
:102BC0000F931F93CF93DF93D62F172FC82FBA01E0
:102BD000C9010E19010F0E947315702F781B719F88
:102BE000712D11246D2F8C2FDF91CF911F910F919B
:102BF000EF900895EF920F931F93CF93DF93D62F0B
:102C0000C72F182FBA01C9010E19010F0E947315A1
:102C1000081B019F012D11246D2F7C2F802FDF9128
:102C2000CF911F910F91EF9008950F93CF93DF9362
:102C3000D72FC82FBA01C9010E947315682F600FE2
:102C40007D2F8C2FDF91CF910F910895EF920F93ED
:102C5000CF93DF93D72FC82FBA01C9010E190E9455
:102C60007315602F681B7D2F8C2FDF91CF910F91F3
:102C7000EF90089548E050E067E170E087EC93E062
:102C80000E94412D10922A0308950E9495120895E2
:102C9000A0E0B0E0EEE4F6E10C94D22C882E762E83
:102CA000062F10E02EE0829FC00111249C012050CD
:102CB0003F4FF901E00FF11FC081CF3FB1F1A12CCF
:102CC000B12C612CD0E09E01220F331FA9014A5B79
:102CD0005E4F6A01E901C95BDE4F875A9C4F080FBE
:102CE000191F7501912C88E2582EF701E050FF4F13
:102CF00020812F3F59F086101DC079101BC0F801AC
:102D0000208130E2230F08F42FEF208393947FEF8C
:102D1000E71AF70A8EE09812E8CF6394EEE0AE0E61
:102D2000B11CF6E4AF16B104E1F6CDB7DEB7EFE0C3
:102D30000C94EE2C30E0F6014081F901EE0FFF1FFC
:102D4000EA5BFE4F8081481B550B8881220F331FA1
:102D5000F901E95BFE4F9081682F691B770B9B019E
:102D6000449FB001459F700D700D1124229FC0013A
:102D7000239F900D900D1124860F971F0E94A31280
:102D8000382F893218F6252D231B08F420E0F7018F
:102D9000E75AFC4F213108F020E13081320F08F46E
:102DA0003FEF3083B3CFE7ECF3E089E2808380919B
:102DB000250290912602A091270281839283A3830A
:102DC0008FE784838FEF85830E943A16089580E011
:102DD00008950F931F93CF93DF93C82FD62F8A01A7
:102DE0000E94E7169EE0C99F9001112420503F4F9A
:102DF000F901ED0FF11D90819F3F29F0F801E80FD7
:102E0000F11D90838F5FDF91CF911F910F910895F6
:102E1000E0914902F0914A02099508950895FF92C0
:102E20000F931F93CF93DF93162F042FF22EC09191
:102E30004502D09146020E940E172F2D402F612F80
:102E4000FE010995CDB7DEB7E5E00C94F82C1F9391
:102E5000CF93DF93C82FD0E0FE01E853FE4F80816F
:102E600068236623A9F00E94D312182F0E94D31260
:102E700020E8829FC00111247FE7790F612F8091A4
:102E8000CA030E944516472F282FCE010E940F1714
:102E9000DF91CF911F910895A0E0B0E0E2E5F7E166
:102EA0000C94DA2CEC01FC01E853FE4F808168237E
:102EB000662341F1D090C9030091CA031091C80361
:102EC000E12EF12C0E94D312482FC7018C549F4F42
:102ED00068E671E00E94742C8E199F0997FD039695
:102EE00095958795959587954370612F489F600DBF
:102EF00011247D2D802F0E944516472F282FCE01AB
:102F00000E940F17CDB7DEB7E7E00C94F62CE091E6
:102F10004702F091480209950895A8E0B0E0E3E97E
:102F2000F7E10C94D72CE82EB62EA42E0E94240D87
:102F3000882309F457C0F12CAA2041F0AE014F5F5D
:102F40005F4F6B2D8E2D0E94E916F82E0F2D10E08D
:102F500080912B03800F912F911D09976CF188E0D0
:102F600090E06C01C01AD10AB801645D7C4FA601E3
:102F70008CE293E00E94132DB8016C5C7C4FA6019B
:102F800084E393E00E94132DA601440F551FB8015E
:102F9000660F771F6C5B7C4F84E493E00E94132DD7
:102FA000B801645C7C4FA6018CE393E00E94132D72
:102FB00088E08F1980932B0310912B03DE0111966B
:102FC00040E0242F210FF41211C020932B03AA20DC
:102FD00049F08091C7038C7F883621F46B2D8E2DAC
:102FE0000E9448162896EAE00C94F32C5D91852FF8
:102FF00090E030E0B901655D7C4FFC01EE0FFF1FF2
:10300000EA5BFE4F0081FB010183880F991FFC01E1
:10301000E95BFE4F8081FB018187518BF901EE0F47
:10302000FF1FE55DFC4F128E118E4F5FCACF81E00E
:1030300008950E94171808959DE0899F802D1124FE
:10304000980F923408F091E40895A0E0B0E0EBE22C
:10305000F8E10C94D12C3C012B01FC0180810E94F1
:103060001C18C82F192F6091CB0366958091CF0350
:103070009091D0030E949912F82ED0E0CE01880FD3
:10308000991F9C012A5B3E4F6901C11748F081E0FE
:10309000113408F080E0CDB7DEB7E0E10C94ED2C00
:1030A000FE01E853FE4F8081F3019181892388233B
:1030B00071F1F6018081282F2057330B590181814E
:1030C000E82FE052FF0B4F01AA9C9001AB9C300D02
:1030D000300D1124EE9FC001EF9F900D900D112433
:1030E000820F931F0E94A312082F6091C803709152
:1030F000C9038091CA03EF2C9401A501F20109953F
:103100000E944516472F282FCE010E940F17F2E08C
:10311000CF0ED11C2196B9CF6FED75E10E94251815
:1031200008956AEF75E10E942518089567EA73E132
:103130000E942518089566E276E10E9425180895F8
:103140008F929F92BF92CF92DF92EF92FF920F9356
:103150001F93CF93DF936C014B01FC0180810E9490
:103160001C18C82F192F6091CB0366958091CF034F
:103170009091D0030E949912B82ED0E0CE01880F12
:10318000991F9C012A5B3E4F7901C11780F081E0B5
:10319000113408F080E0DF91CF911F910F91FF90E3
:1031A000EF90DF90CF90BF909F908F900895FE0199
:1031B000E853FE4F8081F601918189238823B9F07D
:1031C000F70121812052330B40814057550B60910C
:1031D000C8037091C9038091CA030B2DF4010995AE
:1031E0000E944516472F282FCE010E940F17F2E0AC
:1031F000EF0EF11C2196C9CF62EA75E10E94A0187A
:10320000089560EC75E10E94A018089568EB73E1E1
:103210000E94A018089565E176E10E94A018089523
:10322000A0E0B0E0E6E1F9E10C94D92C7C016B015F
:10323000FC0180810E941C18C82F192F6091CB03BC
:103240006695669521E0620F08F46FEF8091CF03D9
:103250009091D0030E949912082FD0E0C11748F036
:1032600081E0113408F080E0CDB7DEB7E8E00C94DF
:10327000F52CFE01E853FE4F8081F70191818923EF
:10328000882389F06091C8037091C9038091CA03B3
:10329000202F4C2FF60109950E944516472F282F05
:1032A000CE010E940F172196D9CF67E073E10E94EB
:1032B0001019089560E273E10E94101908956CE4FA
:1032C00073E10E94101908956AE773E10E941019D2
:1032D00008956CE773E10E941019089565E873E1A1
:1032E0000E94101908956EE873E10E941019089564
:1032F00067E774E10E94101908956DE974E10E9476
:1033000010190895A4E0B0E0E8E8F9E10C94D72C96
:103310006C015B01FC0180810E941C188B83F92EDB
:103320006091CB03669566958091CF039091D00311
:103330000E949912182F80E4810F0E94E812805891
:103340008983812F0E94E81280588A839B81892F6C
:1033500090E09C838B839B819F1548F081E0E0E4A3
:10336000EF1508F480E02496EAE00C94F32CEB814E
:10337000FC81E853FE4F8081F601918189238823E7
:10338000A1F06091C8037091C9038091CA03E12E36
:103390000B812A814981F50109950E944516472F25
:1033A000282F8B819C810E940F178B819C81019615
:1033B000D0CF61EE73E10E94821908956FE074E14D
:1033C0000E94821908956EE374E10E9482190895A3
:1033D000A0E0B0E0EEEEF9E10C94D62C8C017B017C
:1033E000FC0180810E941C18C82FB92E2091CB03AC
:1033F00031E0230F08F42FEF30E040E050E06FEFB2
:103400007FEF80E090E00E94AA2C6901D0E0A22E1C
:103410009D2C2C2FCB1550F081E0F0E4FB1508F427
:1034200080E0CDB7DEB7EBE00C94F22CFE01E85360
:10343000FE4F8081F80191818923882311F1409109
:10344000D3034150042E000C550B47FF1CC08A2D9E
:10345000992D6091CB0321E0620F08F46FEF0E9479
:103460009912AC016091C8037091C9038091CA039D
:10347000F70109950E944516472F282FCE010E947B
:103480000F172196C6CFFA01ED52FC4F81898213A6
:103490000AC0FA01EE0FFF1FED52FC4F818D928D95
:1034A0008C159D05B0F241505109CFCF6EEA74E101
:1034B0000E94E819089565EB74E10E94E8190895E7
:1034C000AAE0B0E0E6E6FAE10C94CF2C382E2B010E
:1034D00049835A83FB0180810E941C189D83F091CF
:1034E000D303FE83282F30E03A872987C901880F4C
:1034F000991FFC01EA5BFE4F6F01832D90E09C0158
:103500002F5F3F4F38872F838D819985981748F01B
:1035100081E0ED81E13408F080E02A96E2E10C944C
:10352000EB2CE985FA85E853FE4F8081F201918109
:103530008923882301F1F091C803FB832091C903FB
:103540002C838F8198858D529C4F3C01232C10E059
:10355000FE812F16D0F02091CA03129F112D112445
:103560006B817C81812F0E944516472F282F8985EA
:103570009A850E940F1729853A852F5F3F4F3A871A
:10358000298732E0C30ED11CBFCFF30181913F01E7
:10359000F601A080A81ABB088180F3018781881AF0
:1035A0009908AA9C9001AB9C300D300D1124889C89
:1035B000C001899C900D900D1124820F931F0E94D1
:1035C000A312082F6091CB0321E0620F08F46FEF84
:1035D000F301EE0FFF1FE35DF340858996890E949A
:1035E00099127C019401A5016B817C81812FE98175
:1035F000FA8109956B837C83182F2394A9CFBC0192
:103600002091D30331E0231B08F420E04CEB54E17C
:10361000822F0E94601A0895BC014CEB54E180E0B7
:103620000E94601A0895BC012091D30331E0231B4E
:1036300008F420E045ED54E1822F0E94601A0895BD
:10364000BC0145ED54E180E00E94601A0895BC0180
:103650002091D30331E0231B08F420E04DE055E135
:10366000822F0E94601A0895BC014DE055E180E070
:103670000E94601A0895BC012091D30331E0231BFE
:1036800008F420E04FE355E1822F0E94601A08956C
:10369000BC014FE355E180E00E94601A0895BC012F
:1036A0002091D30331E0231B08F420E047E555E1E6
:1036B000822F0E94601A0895BC0147E555E180E021
:1036C0000E94601A0895A0E0B0E0E9E6FBE10C94E6
:1036D000D92C7C01FC0180810E941C18C82F192F55
:1036E0006091C8037091C9038091CA030E94451676
:1036F000062FD72EC82ED0E0C11748F081E0113434
:1037000008F080E0CDB7DEB7E8E00C94F52CFE01C0
:10371000E853FE4F8081F70191818923882331F09E
:103720002C2D4D2D602FCE010E940F172196E4CF36
:10373000A0E0B0E0EEE9FBE10C94D82C6C01FC01B8
:1037400080810E941C18F92EE090C903B090CA0332
:103750002091CB0300E4029F012D1124C82FD0E05B
:1037600010E0CF1550F081E090E49F1508F480E060
:10377000CDB7DEB7E9E00C94F42CFE01E853FE4F20
:103780008081F601918189238823E1F0FE01EE0F0B
:10379000FF1FEA5BFE4F2081209FC001219F900DFB
:1037A000112425E0959587952A95E1F76091C80346
:1037B000680F7E2D8B2D0E944516472F282FCE0196
:1037C0000E940F172196CDCFCF92DF92FF920F93D9
:1037D0001F93CF93DF938C01FC0180810E941C1802
:1037E000F92EF801928191112DC06091CB0320E157
:1037F000620F08F46FEF8091CF039091D0030E9485
:1038000099126AE070E00E94602C892B71F40E948A
:10381000D312F1E48F9F90011124F8016181832F6D
:10382000932F990F990B0E944C1781E0F0E4FF153C
:1038300008F480E0DF91CF911F910F91FF90DF900E
:10384000CF900895C82FD0E0CF2CD12CCC15DD051A
:1038500064F7F8016181CE010E944C172196F6CFE2
:103860000F931F93CF93DF93EC01888181111FC0C9
:103870006091CB0320E1620F08F46FEF8091CF03DA
:103880009091D0030E94991265E070E00E94602C34
:10389000892B69F40E94D31221E4829FC001112474
:1038A000892F880F880B90930D0280930E028881D8
:1038B0000E941C18282F192F082F8A8181111CC0E3
:1038C00080910D0290910E0230E082179307B0F0C4
:1038D000212F30E08217930788F469810E9427170F
:1038E00082E490E090930E0280930D0207C06981FC
:1038F000802F0E9427170F5F0117C8F381E0113452
:1039000008F080E0DF91CF911F910F910895A0E022
:10391000B0E0EDE8FCE10C94D92C8C01FC01808135
:103920000E941C18C82FF92ED090C903E090CA033A
:10393000D091C8036091CB0366956695669580919A
:10394000CF039091D0030E9499120E94E81220E8C0
:10395000280F27FD2195220F3CE0239F212D1124C4
:103960006D2F620F7D2D8E2D0E949512E62ED72E83
:10397000C82ED0E0CF1550F081E090E49F1508F4F8
:1039800080E0CDB7DEB7E8E00C94F52CFE01E853FB
:10399000FE4F8081F80191818923882331F02C2DFD
:1039A0004D2D6E2DCE010E940F172196E3CFA0E082
:1039B000B0E0EDEDFCE10C94D12CEC0188810E948B
:1039C0001C18582E092F8A81882361F040E060E09E
:1039D00080E00E948717E9E5F3E086E4DF011D92AD
:1039E0008A95E9F78881882399F1C12CD12C612C23
:1039F0009AEA492E76018EE0782EF701E050FF4FCB
:103A00005F01E081E51558F0E01748F4F0E0E85375
:103A1000FE4F808199818923811133C063947A9408
:103A2000BFEFEB1AFB0A7110E8CFE8E3CE16D10422
:103A300031F0FEE0CF0ED11C2CE02615D8F681E047
:103A4000013408F080E0CDB7DEB7E0E10C94ED2C56
:103A50008091A0039091A1030E9472259C0181E0B6
:103A60002931310508F480E080939F032931310525
:103A700008F4BBCF0E9449259093A1038093A00333
:103A8000B4CFC701875A9C4F4C01DC011C91612FB8
:103A900025E5621B08F460E0842D861B682F709179
:103AA000C903242D210F08F42FEF3091CA03822F70
:103AB000880F820F8E5F282F239F212D1124822FA4
:103AC0000E944516472F282FD5018C9190E00E9427
:103AD0000F1780919F03882309F4A0CF21E0121BC8
:103AE00008F410E0D4011C9399CFCF93C82F809194
:103AF00013028C1325C02091C703237030E040913E
:103B0000140250E081E02417350709F480E0817049
:103B1000809312028091CC0390911102981739F092
:103B20008093110240E060E080E00E948717C73276
:103B300008F0EEC0EC2FF0E0E157F24D0C94C92CE8
:103B400081E0E5CF80911202882309F4EAC040E0C9
:103B500060E080E00E948717809110028F5F809361
:103B6000100282E080930F0280911202882309F4F0
:103B7000DDC0CF91089580E192E00E94631B909197
:103B800010029F5F909310028111F3CF82E0809327
:103B90000F02809112028111ECCFCC23E8CF80E19B
:103BA00092E00E94981BEBCF80E192E00E945519B1
:103BB000E6CF80E192E00E945A19E1CF80E192E0E5
:103BC0000E945F19DCCF80E192E00E94FC18D7CF01
:103BD00080E192E00E940119D2CF80E192E00E9440
:103BE0008C18CDCF80E192E00E949118C8CF80E17F
:103BF00092E00E946419C3CF80E192E00E946919AB
:103C0000BECF80E192E00E946E19B9CF80E192E0D0
:103C10000E947319B4CF80E192E00E949618AFCF52
:103C200080E192E00E940619AACF80E192E00E9412
:103C30000B19A5CF80E192E00E949B18A0CF80E1F4
:103C400092E00E94D9199BCF80E192E00E94DE1998
:103C500096CF80E192E00E94E31991CF80E192E05B
:103C60000E94E41B8CCF80E192E00E94301C87CF41
:103C700080E192E00E94871C82CF80E192E00E9466
:103C800078197DCF80E192E00E947D1978CF80E1A4
:103C900092E00E94D71C73CF80E192E00E94561AF6
:103CA0006ECF80E192E00E945B1A69CF80E192E0E2
:103CB0000E94FF1A64CF80E192E00E940C1B5FCF4C
:103CC00080E192E00E94131B5ACF80E192E00E94B3
:103CD000201B55CF80E192E00E94271B50CF80E14E
:103CE00092E00E94341B4BCF80E192E00E943B1B8C
:103CF00046CF80E192E00E94481B41CF80E192E0F4
:103D00000E944F1B3CCF80E192E00E945C1B37CFAA
:103D1000809110028F5F8093100282E080930F02E7
:103D200028CF809110028F5F8093100283E0F6CF3E
:103D300081E008950E94981E0895FC0180818150C1
:103D40000E941C18692F0E949A1E08954F925F923C
:103D50006F927F928F929F92AF92BF92CF92DF929B
:103D6000EF92FF92CF93DF9300D000D0CDB7DEB7B4
:103D70008091540390915503A0915603B09157033D
:103D800089839A83AB83BC83BC01CD010E948125CA
:103D90006B017C010E945525609354037093550379
:103DA0008093560390935703A0912B03EBE2F3E02B
:103DB0002A2F30E088248A94982CA12CB12C8C18BE
:103DC0009D08AE08BF08A3132FC020932B0320919A
:103DD000580321113CC02091C703A22FA370A983CF
:103DE000AA2319F026952695298320910F022230C7
:103DF00009F455C070F5211141C010921002609372
:103E0000CF037093D0038093D1039093D20389E2C0
:103E1000EBE2F3E0A3EDB3E001900D928A95E1F7B8
:103E200081E080930F0217C0418D528D2A01612CD1
:103E3000712C84149504A604B70420F421503F5F2C
:103E40003296C1CF4C0D5D1D528F418FF8CF198234
:103E5000CCCF233081F10F900F900F900F90DF9116
:103E6000CF91FF90EF90DF90CF90BF90AF909F9059
:103E70008F907F906F905F904F90089589810E94FE
:103E8000751DB981BB2339F380910F02823011F483
:103E90000E94191880E192E00E949D1EDCCF3981BA
:103EA000309313028091C7038370809314020E94A1
:103EB000081783E0B6CF80912A0381110E943A1639
:103EC0008091CF039091D003A091D103B091D20300
:103ED000BC01CD010E94812569837A838B839C83F9
:103EE000603171058105910508F4B5CF10920F027C
:103EF000B2CFE0914302F091440209951092D303AE
:103F000040E150E06FEF70E08CEE93E00E941C2DDA
:103F100010922B0340E150E06FEF70E084E493E0F7
:103F20000E941C2D81E080932A0348E050E067E165
:103F300070E087EC93E00E94232D10922A03809179
:103F4000C703843010F40E94D3160895CF93C82F6E
:103F5000882391F08091580381110EC00E94751D35
:103F6000109213028091C7038370809314020E9401
:103F7000081783E080930F02C0935803CF910895F0
:103F8000E7ECF3E0908121E09227908310920F02FA
:103F90000E946D15089581E00E94C01F08958091D0
:103FA000C7038370811102C010920F028091C70372
:103FB0008C7F81608093C70308950E94CF1F81E0AA
:103FC0000E946D1508958091C7038370811110922E
:103FD0000F028091C7038C7F8093C70308950E94CE
:103FE000E31F81E00E946D150895982F862F209180
:103FF000C7032370222389F0992381F0973280F43C
:104000009F73990F990F2091C7032370922B909360
:10401000C70310920F020E946D15089591E0F1CF31
:1040200096E2EFCF682F8091C703869586958F5FC4
:10403000873208F081E00E94F51F089581E00E9418
:1040400012200895682F9091C703969596958FEF4B
:10405000890F913009F486E20E94F51F089581E0EE
:104060000E9422200895982F822F2091C703237049
:10407000222359F09093C8036093C903453B08F08D
:1040800044EB4093CA030E946D150895282FE7EC76
:10409000F3E09181892F90E04381628108960E942C
:1040A0003320089581E00E9446200895282FE7ECF0
:1040B000F3E08181438162818850990B0E94332013
:1040C000089581E00E9456200895282FE7ECF3E040
:1040D000628130E1630F08F46FEF8181438190E0EA
:1040E0000E943320089581E00E9465200895282FC2
:1040F000E7ECF3E0628130E1631B08F460E081816A
:10410000438190E00E943320089581E00E9477204F
:104110000895282FE7ECF3E0438130E1430F08F4E2
:104120004FEF8181628190E00E943320089581E009
:104130000E9489200895282FE7ECF3E0438130E1C5
:10414000431B08F440E08181628190E00E943320AB
:10415000089581E00E949B200895E7ECF3E024811C
:1041600030E1230F08F42FEF24830E946D1508958A
:1041700081E00E94AD200895E7ECF3E0248130E176
:10418000231B08F420E024830E946D15089581E02C
:104190000E94BC200895259A0895FC01EE0FFF1F90
:1041A000E80FF91FE450FC4F618340832283089598
:1041B000FF920F931F93CF93DF93182F062FF42EA8
:1041C000C0E0D0E02F2D402F612FCE010E94CD20E6
:1041D0002196C134D105B1F7CDB7DEB7E5E00C9437
:1041E000F82C35B13F7D25B120624FB7F8948CEFA4
:1041F00093E0FC010196508168E025B9000000C001
:1042000057FF35B9550F000000C000C000C035B9D8
:1042100000C06A9591F754E08F3B950751F74FBF67
:104220008FE594E00197F1F700C0000008950E9427
:104230002D0C089580E00E94F50F817008950E9472
:10424000BE102FEF86E791E0215080409040E1F7CB
:1042500000C000000E94BE100E941A21882321F095
:104260000E9417210E94C52508950E941F210895CC
:10427000CF93DF93EB0186319C4719F50E94040B25
:104280009D819923A1F08A7A91E0811101C090E08B
:104290009093A203882349F085E30E94CB230E94D8
:1042A000BE0B80E0DF91CF91089589E2F6CF809137
:1042B000A203882321F085E30E94E523F0CF89E261
:1042C000FBCF81E0EFCFCF93DF93EC01FB01858142
:1042D000882309F4D2C09E0130572332310508F0FB
:1042E000B2C00E94500C9093B2038093B103FE01C0
:1042F000E150F047E232F10520F4EA54F24D0C941B
:10430000C92C8091B10381608093B10393C08091E7
:10431000B20388608093B2038DC08091B103826044
:10432000F3CF8091B1038460EFCF8091B1038860B7
:10433000EBCF8091B2038160EDCF8091B2038260B8
:10434000E9CF8091B1038061DFCF8091B1038062BA
:10435000DBCF8091B1038064D7CF0E949506809116
:10436000B1038068D1CF8091B1038C60CDCF8091B3
:10437000B2038360CFCF8091B1038E7FC5CF809190
:10438000B203877FC7CF8091B1038D7FBDCF80916E
:10439000B1038B7FB9CF8091B103877FB5CF809177
:1043A000B2038E7FB7CF8091B2038D7FB3CF809160
:1043B000B1038F7EA9CF8091B1038F7DA5CF80916E
:1043C000B1038F7BA1CF0E9495068091B1038F77B7
:1043D0009BCF8091B103837F97CF8091B2038C7F75
:1043E00099CF8091B10382FB992790F921E0922720
:1043F00090FB82F990FB83F987CF8091B203982FCD
:10440000909591708E7F892B90FB81F983CF90914D
:10441000B103892F8F7B96FF806476CF0E9495062B
:104420009091B103892F97FB87F980586DCF81E078
:104430000E94D60C8091B1039091B2030E94550C5A
:104440000E94950680E0DF91CF91089580E0F0CF43
:104450009091B103892F8F7E94FF806155CF909109
:10446000B103892F8E7F90FF81604ECF9091B20370
:10447000892F877F93FF88604DCF81E0E4CF0F9332
:104480001F93CF93DF93C42FD22FFC018581882304
:10449000C9F04093A5030E9449259093A4038093FB
:1044A000A30380E28C0F883040F4C77081E001C024
:1044B000880FCA95EAF70E945904DF91CF911F91A6
:1044C0000F9108951091A50314133CC08091A3038C
:1044D0009091A4030E947225883C910598F5C0E252
:1044E000CD0F1D1741F180E2810F883040F4177025
:1044F00081E001C0880F1A95EAF70E946004C83075
:1045000020F0802F0E945004D8CF91E08D2F87702B
:1045100001C0990F8A95EAF7892F0E945904802FCC
:104520000E945004D77081E001C0880FDA95EAF745
:104530000E946004C2CF802F0E945004C83008F04F
:10454000BCCFF0CF80E28C0F883008F0B6CFC770B8
:1045500081E001C0880FCA95EAF7EACF0F93FC010A
:10456000CB01E851FC47E730F10590F5E852F24DF8
:104570000C94C92C06E221EE41EE6AE17CE70E9430
:104580003F2280E00F91089507E225EE45EE6BE1B2
:104590007CE7F5CF06E221EE40EE68E17CE7EFCF65
:1045A00007E225EE44EE69E17CE7E9CF06E221EE81
:1045B00042EE6CE17CE7E3CF07E225EE46EE6DE1EB
:1045C0007CE7DDCF08E221E045EE6EE17CE7D7CF66
:1045D000FB01858181111092A50381E0D3CF9093D7
:1045E000A7038093A6030895E091A603F091A70383
:1045F000309729F00190F081E02D0995089580E031
:104600000895E091A603F091A703309721F002806E
:10461000F381E02D09950895DC01E091A603F09166
:10462000A703309739F086E08C930480F581E02D64
:10463000CD0109950895CF93DF93C0910B02D091DE
:104640000C0222960E948A248130A1F48091B10349
:1046500087FF10C0C0910902D0910A0222969DE105
:1046600080E02881219621118F5F9150D0F7DF9152
:10467000CF91089595E0F4CFCF93C82F882319F1F7
:104680000E948A24813011F58091B10387FF1EC0FA
:104690008C2F869586958695C03FA8F4E0910902F7
:1046A000F0910A02E80FF11D228130E0C77081E02D
:1046B00090E002C0880F991FCA95E2F7282339239A
:1046C00081E0232B09F480E0CF91089580910B02C3
:1046D00090910C02FC013296089621912C1721F042
:1046E000E817F907D1F7EFCF81E0EECF9C01FC018D
:1046F00032968FEF90E04191461751F08F3F19F4B9
:10470000411101C0892F9F5F9630A9F78F3F09F4AF
:104710000895280F311D87FD3A95F90162830895A8
:104720009C01FC013296285F3F4F8191861303C0A4
:10473000DF0111971C92E217F307B9F70895FC0106
:10474000862F869586958695603F60F4E80FF11D6B
:10475000677021E030E001C0220F6A95EAF782819C
:10476000822B82830895FC01862F869586958695F7
:10477000603F80F4E80FF11D677081E090E09C01DC
:1047800002C0220F331F6A95E2F7B901609582815A
:10479000682362830895CF93C82F0E948A246C2FC8
:1047A000813061F48091B10387FF08C080910902D4
:1047B00090910A020E949F23CF91089580910B024D
:1047C00090910C020E947623F7CFCF93C82F0E94BE
:1047D0008A246C2F813061F48091B10387FF08C077
:1047E0008091090290910A020E94B323CF9108950B
:1047F00080910B0290910C020E949023F7CF0E94AF
:104800008A24813079F48091B10387FF0BC0E09155
:104810000902F0910A0232968EE1DF011D928A951B
:10482000E9F70895E0910B02F0910C02329686E0D0
:10483000F4CF08950E9419240895A4E0B0E0E3E2C3
:10484000F4E20C94DF2C8F5F80931A0280911702A0
:1048500090911802A0911902B0911A02BC01CD01E9
:104860000E941A242496E2E00C94FB2CA4E0B0E011
:10487000ECE3F4E20C94DF2C83E080931A02809145
:10488000170290911802A0911902B0911A02BC016E
:10489000CD010E941A242496E2E00C94FB2C0E9485
:1048A0001D240895A4E0B0E0E8E5F4E20C94DF2CC8
:1048B00081E080931A028091170290911802A091D2
:1048C0001902B0911A02BC01CD010E941A2424964B
:1048D000E2E00C94FB2C0E9452240895A4E0B0E086
:1048E000E4E7F4E20C94DF2C91E0811101C090E048
:1048F000909319028091170290911802A0911902C9
:10490000B0911A02BC01CD010E941A242496E2E063
:104910000C94FB2C809119020895A4E0B0E0E3E927
:10492000F4E20C94DF2C809318028091170290918E
:104930001802A0911902B0911A02BC01CD010E9487
:104940001A242496E2E00C94FB2C8091180208951E
:10495000A4E0B0E0EEEAF4E20C94DF2C80931702BE
:104960008091170290911802A0911902B0911A0239
:10497000BC01CD010E941A242496E2E00C94FB2C89
:10498000809117020895089508950E94C4240895FF
:10499000089508950E94C3240895CF930E94C824C7
:1049A0000E94BE100E94C924C0E08C2F0E94F50F07
:1049B000892B31F4CF5FC530C1F780E0CF910895E6
:1049C00081E0FCCF85B7806885BF85B7806885BFEB
:1049D00008951F921FB61F9211248F939F93AF9338
:1049E000BF938091A803811113C08091BF0490915F
:1049F000C004A091C104B091C2044196A11DB11D93
:104A00008093BF049093C004A093C104B093C204E8
:104A1000BF91AF919F918F911F901FBE1F901895CE
:104A20008091C704843031F10E9476031092A8036C
:104A300088E190E020E40FB6F894A8958093600098
:104A40000FBE2093600083B7817F846083BF83B7EC
:104A5000816083BF7894889583B78E7F83BF0FB6BC
:104A6000F894A8958091600088618093600010920E
:104A700060000FBE08950E9495060E94800308956D
:104A800082E084BD93E095BD9AEF97BD80936E0060
:104A900008952FB7F8948091BF049091C004A0911D
:104AA000C104B091C2042FBF0895A4E0B0E0EBE5CB
:104AB000F5E20C94DF2C8FB7F8942091BF0430916D
:104AC000C0044091C1045091C20429833A834B83AE
:104AD0005C838FBF69817A818B819C812496E2E01F
:104AE0000C94FB2C9C014FB7F8948091BF049091DB
:104AF000C004A091C104B091C2044FBF821B930BAC
:104B00000895A4E0B0E0E7E8F5E20C94DD2C462F30
:104B1000572FBC012FB7F8948091BF049091C00427
:104B2000A091C104B091C2042FBF8C019D01041B50
:104B3000150B260B370BC901B8012496E4E00C9441
:104B4000F92C78941F921FB61F9211248F939F9374
:104B5000AF93BF938091BF049091C004A091C10412
:104B6000B091C2040196A11DB11D8093BF04909322
:104B7000C004A093C104B093C204BF91AF919F91B0
:104B80008F911F901FBE1F90189587E797E790930E
:104B900001088093000888E19AE00FB6F894A89580
:104BA000809360000FBE90936000FFCF88E19AE091
:104BB0000FB6F894A895809360000FBE90936000A4
:104BC000FFCF08950895282FCB01BA013091C70473
:104BD0003430E1F42F702093E9002FEF3091E8009A
:104BE00035FD07C035ED3A95F1F700002150211150
:104BF000F5CF2091E80025FF09C040E050E00E9479
:104C0000DE278091E8008E778093E8000895BC014C
:104C100040E250E082E00E94E3250895CF93DF93C5
:104C2000D82FC92F0E948A2448E050E06D2F7C2F96
:104C300081E00E94E32588E0ED2FFC2FA9EAB3E094
:104C400001900D928A95E1F7DF91CF9108958091BF
:104C5000C604811109C00E9466290E94C32980915F
:104C6000E20084608093E20008951092C6040895E3
:104C70000E94522481E00E946E2408956091C30432
:104C800081E0611101C080E00E9436240895909176
:104C9000C70481E0943009F080E06091C3040E9471
:104CA0004F24089542E061EC81E00E94E22842E254
:104CB00061EC82E00E94E2289091C70481E0943088
:104CC00009F080E06091C3040E941D240895809142
:104CD000C904893089F148F4823009F4A0C08330D6
:104CE00009F45AC0813041F008958A3009F487C030
:104CF0008B3009F46CC008958091C804813A09F0A2
:104D00004AC08091E800877F8093E8008091CC04BE
:104D10009091CD04892B61F060E080E090E070E03C
:104D20000E942D288091E8008B778093E8000895F9
:104D300068E089EA93E0F3CF8091C804813259F5A5
:104D40008091CC049091CD04029728F58091E800E1
:104D5000877F8093E8008091E80082FF18C09091DF
:104D6000F3008091F200029731F48091F1008130DC
:104D700011F0863021F48091F1000E948D24809101
:104D8000E8008B778093E8000E94162904C0809188
:104D9000C7048111E0CF08958091C804813AD9F702
:104DA0008091CC049091CD04892BA9F78091E800E3
:104DB000877F8093E8008091E80080FFFCCF0E940D
:104DC0008A248093F1008091E8008E77DBCF809178
:104DD000C804813201F78091CC049091CD04892BD5
:104DE000D1F68091E800877F8093E8000E94162921
:104DF0008091CA040E946E240E94950608958091B5
:104E0000C804813241F68091E800877F8093E800F2
:104E10000E9416298091CB040E94A82408958091B5
:104E2000C804813A09F0B7CF8091E800877F80936A
:104E3000E8008091E80080FFFCCF0E94C024C1CF31
:104E400084B7877F84BF0FB6F894A89580916000DF
:104E5000886180936000109260000FBE80E890E04F
:104E60000FB6F89480936100909361000FBE0E948A
:104E70006B2408950E9466290E94C329E2EEF0E0A7
:104E800080818460808378940E94462C08958BE111
:104E900092E00E94EF2208958091C704853031F49A
:104EA0008091C704853019F00E943B2508950E9427
:104EB00010250E94CD24882399F38091C50488236E
:104EC00079F30E94C8270E949506EACF08959A01B7
:104ED0004091CE045091CF040E946F270895AC01F9
:104EE000CB01D901252F332723303105E1F058F4C8
:104EF00021303105C9F122303105D9F180E090E04F
:104F000020E030E01EC02132310521F1223231058E
:104F1000A9F7892BC1F16130710581F78BE390E02E
:104F200023ED33E00EC0CA019927413069F0823089
:104F3000910569F0E2E8F3E0892B01F7849190E0B4
:104F40009F012D933C930895E4E7F3E0F7CFE0E56C
:104F5000F3E0F4CF892B91F06130710579F689E0A7
:104F600090E021EB33E0EDCF82E190E021EC33E003
:104F7000E8CF8BE390E026E833E0E3CF89E090E0F0
:104F800028E933E0DECF84E490E02EE034E0D9CFAE
:104F900080E189BD82E189BD09B400FEFDCF809129
:104FA000D8008F7D8093D8008091E000826080934C
:104FB000E0008091E00081FDFCCF0895AF92BF92A8
:104FC000CF92DF92FF920F931F93CF93DF936C01E9
:104FD000EB018A010E943529F82E811123C00115A9
:104FE000110539F0F80180819181C81BD90BC80ED9
:104FF000D91EA12CB12C2097A9F08091E80085FD45
:1050000022C08091E8008E778093E8000115110599
:10501000A1F0F801808191818A0D9B1D918380838D
:1050200085E0F82E8F2DDF91CF911F910F91FF908A
:10503000DF90CF90BF90AF9008950E9435298823CC
:10504000E1F2F82EEFCFF60181916F018093F1002C
:105050002197FFEFAF1ABF0ACECFFC019B018091D1
:10506000CE049091CF048617970718F0672B61F054
:10507000C90140E0009771F441110CC08091E80033
:1050800082FF35C080E008958091E8008E7780939C
:10509000E800EECF2091C7042223A9F12530A9F121
:1050A0002091E80023FD2DC02091E80022FDE6CFED
:1050B0002091E80020FFDECF3091F3002091F20034
:1050C000009719F02830310558F041E028303105BB
:1050D00009F040E02091E8002E772093E800CACF45
:1050E00041914093F10001972F5F3F4FE9CF8091AD
:1050F000C704882341F0853041F08091E80083FFA8
:10510000BDCF81E0089582E0089583E00895FC0119
:105110009B018091CE049091CF048617970718F0D9
:10512000672B61F0C90140E0009771F441110CC098
:105130008091E80082FF36C080E008958091E80009
:105140008E778093E800EECF2091C7042223B1F13F
:105150002530B1F12091E80023FD2EC02091E80018
:1051600022FDE6CF2091E80020FFDECF3091F30052
:105170002091F200009719F02830310558F041E0F5
:105180002830310509F040E02091E8002E77209387
:10519000E800CACF44914093F100319601972F5F08
:1051A0003F4FE8CF8091C704882341F0853041F01C
:1051B0008091E80083FFBCCF81E0089582E00895EC
:1051C00083E00895982F973028F08F708093E9003E
:1051D00081E008959093E900242F762F50E09817EE
:1051E00031F07091EC002091ED005091F00021FD24
:1051F00002C09F5FE8CF3091EB003E7F3093EB0021
:105200003091ED003D7F3093ED003091EB00316047
:105210003093EB007093EC002093ED005093F0007E
:105220002091EE0027FDE5CF80E008958091C8042D
:1052300087FF13C08091E80082FF06C08091E800DC
:105240008B778093E80004C08091C7048111F2CF6E
:1052500008958091C7048823D9F38091E80080FFE6
:10526000F8CF8091E8008E77ECCF2091E400309168
:10527000E50095E6A9018091EC008170882331F06A
:105280008091E80080FF06C080E008952091E8004A
:1052900022FD1BC08091C704882391F0853091F0D6
:1052A0008091EB0085FD10C02091E4003091E50075
:1052B0004217530701F391509111DCCF84E0089518
:1052C00082E0089583E0089581E008950E94D52941
:1052D0000E94DD29E0EEF0E0808181608083E8EDCE
:1052E000F0E080818F77808319BCA7EDB0E08C91CE
:1052F0008E7F8C9380818F7E80831092C604089568
:105300000F931F93CF93DF930E94D5290E94DD292D
:10531000C8EDD0E088818F77888388818068888312
:1053200088818F7D888319BC1092C7041092C304B2
:105330001092C5041092C40400EE10E0F8018081C0
:105340008B7F808388818160888342E060E080E099
:105350000E94E228E1EEF0E080818E7F8083E2EE21
:10536000F0E0808181608083808188608083F801A3
:1053700080818E7F8083888180618883DF91CF9157
:105380001F910F910895E8EDF0E080818F7E80837A
:10539000E7EDF0E080818160808384E082BF81E07E
:1053A0008093C6040E9480290895E8EDF0E0808192
:1053B0008E7F80831092E20008951092DA0010929E
:1053C000E10008951F920F920FB60F9211242F93B0
:1053D0003F934F935F936F937F938F939F93AF937D
:1053E000BF93EF93FF938091E10082FF0BC0809108
:1053F000E20082FF07C08091E1008B7F8093E10093
:105400000E94452C8091DA0080FF19C08091D8005D
:1054100080FF15C08091DA008E7F8093DA00809142
:10542000D90080FF94C080E189BD82E189BD09B4C3
:1054300000FEFDCF81E08093C7040E942726809163
:10544000E10080FF19C08091E20080FF15C08091CB
:10545000E2008E7F8093E2008091E2008061809381
:10546000E2008091D80080628093D80019BC85E06A
:105470008093C7040E943E268091E10084FF29C0EA
:105480008091E20084FF25C080E189BD82E189BD71
:1054900009B400FEFDCF8091D8008F7D8093D800A5
:1054A0008091E1008F7E8093E1008091E2008F7E09
:1054B0008093E2008091E20081608093E20080911D
:1054C000C304882309F449C084E08093C7040E9480
:1054D00047268091E10083FF29C08091E20083FF8D
:1054E00025C08091E100877F8093E10082E0809376
:1054F000C7041092C3048091E1008E7F8093E10085
:105500008091E2008E7F8093E2008091E2008061D2
:105510008093E20042E060E080E00E94E228809117
:10552000F00088608093F0000E943826FF91EF9190
:10553000BF91AF919F918F917F916F915F914F91AB
:105540003F912F910F900FBE0F901F90189519BC8F
:105550001092C7040E94352672CF8091E30087FF26
:1055600002C083E0B2CF81E0B0CF1F920F920FB69E
:105570000F921124FF920F931F932F933F934F93FA
:105580005F936F937F938F939F93AF93BF93CF93CB
:10559000DF93EF93FF9309EE10E0F8018081C09153
:1055A000EC00C795CC27C7958F70FC2EF82A108287
:1055B000C0EFD0E08881877F888378940E94FE2A9C
:1055C000F8011082888188608883CF2DCF70C083D6
:1055D000FF91EF91DF91CF91BF91AF919F918F910B
:1055E0007F916F915F914F913F912F911F910F91FB
:1055F000FF900F900FBE0F901F901895AAE2B0E099
:10560000E4E0FBE20C94DE2C88EC94E0FC010196D3
:105610002091F100208324E0803D9207B9F70E9499
:1056200067268091E80083FF38C08091C80490917C
:10563000C9049A3090F5E92FF0E0E152F24D0C9454
:10564000C92C803889F0823841F58091CC048F7064
:10565000873018F58093E9008091EB0085FB88275F
:1056600080F91092E90006C08091C4049091C504AD
:10567000911182609091E800977F9093E800809369
:10568000F1001092F1008091E8008E7723C0811123
:1056900016C08091CA04813011F18091E80083FF27
:1056A0000AC08091E800877F8093E8008091EB003A
:1056B00080628093EB00AA96E3E00C94FA2C82308F
:1056C00061F78091CA04882389F01092E9008091E3
:1056D000E800877F8093E8000E941629DECF81E0F2
:1056E000933009F080E08093C504EFCF8091CC0423
:1056F0008F702FEF280F263080F68093E9002091DD
:10570000EB0020FFE2CF933031F48091EB00806218
:105710008093EB00DACF9091EB0090619093EB00D7
:1057200021E030E0A90102C0440F551F8A95E2F73D
:105730004093EA001092EA008091EB008860E8CF85
:105740008111ABCF1091CA041F778091E30080785C
:10575000812B8093E3008091E800877F8093E800AD
:105760000E9416298091E80080FFFCCF8091E30021
:1057700080688093E30083E0111101C082E0809390
:10578000C7048BCF8058823008F087CF8091CA043D
:105790009091CB048C3D53E0950799F583E08A8383
:1057A0008AE289834FB7F894DE01139620E03EE049
:1057B00051E2E32FF0E050935700849120FF03C0A3
:1057C00082958F703F5F8F708A30C8F0895C90E05F
:1057D0008D939D932F5F243161F74FBF8091E80037
:1057E000877F8093E8006AE270E0CE0101960E9414
:1057F0002D288091E8008B778093E8004ECF805D64
:10580000E6CF6091CC047091CD04AE014F5F5F4F45
:105810000E946727BC01892B09F43FCF8091E800E3
:10582000877F8093E80089819A810E948728E1CF51
:10583000803809F032CF8091E800877F8093E800BC
:105840008091C3048093F1001ECF811126CF9091E7
:10585000CA04923008F021CF8091E800877F8093BE
:10586000E8009093C3040E9416298091C304882302
:1058700031F084E08093C7040E9452260ECF8091BD
:10588000E30087FDF6CF81E0F5CF0895CF938091B7
:10589000C704882399F08091E900C091EC00C79576
:1058A000CC27C7958F70C82B1092E9008091E80033
:1058B00083FD0E94FE2ACF70C093E900CF91089526
:1058C000AA1BBB1B51E107C0AA1FBB1FA617B70726
:1058D00010F0A61BB70B881F991F5A95A9F7809542
:1058E0009095BC01CD01089597FB072E16F4009406
:1058F00007D077FD09D00E94602C07FC05D03EF44C
:10590000909581959F4F0895709561957F4F08956B
:10591000A1E21A2EAA1BBB1BFD010DC0AA1FBB1FB3
:10592000EE1FFF1FA217B307E407F50720F0A21B25
:10593000B30BE40BF50B661F771F881F991F1A9492
:1059400069F760957095809590959B01AC01BD01BC
:10595000CF010895052E97FB1EF400940E94C12CE0
:1059600057FD07D00E94882C07FC03D04EF40C94FE
:10597000C12C50954095309521953F4F4F4F5F4F2B
:10598000089590958095709561957F4F8F4F9F4FAB
:105990000895EE0FFF1F0590F491E02D09942F92CA
:1059A0003F924F925F926F927F928F929F92AF92AF
:1059B000BF92CF92DF92EF92FF920F931F93CF93FC
:1059C000DF93CDB7DEB7CA1BDB0B0FB6F894DEBF93
:1059D0000FBECDBF09942A88398848885F846E84B9
:1059E0007D848C849B84AA84B984C884DF80EE8003
:1059F000FD800C811B81AA81B981CE0FD11D0FB60C
:105A0000F894DEBF0FBECDBFED010895FB01DC01B0
:105A100004C08D910190801921F441505040C8F785
:105A2000881B990B0895FB01DC0102C001900D92C7
:105A300041505040D8F70895DC0101C06D934150AA
:105A40005040E0F70895DC01CB01FC01F999FECF4D
:105A500006C0F2BDE1BDF89A319600B40D924150F6
:105A60005040B8F70895F999FECF92BD81BDF89ADC
:105A7000992780B50895A8E1B0E042E050E00C9489
:105A8000252DDC01A40FB51F4150504048F0CB013B
:105A9000840F951F2E910E94522D41505040D0F7F7
:105AA0000895262FF999FECF92BD81BDF89A0197EE
:105AB00000B4021639F01FBA20BD0FB6F894FA9A56
:105AC000F99A0FBE08950396272F0E94522D0E9427
:105AD000512D252F0E94522D242F0C94522D0196CA
