:100000000C94DE010C94FB010C94FB010C94FB019D
:100010000C94FB010C94FB010C94FB010C94FB0170
:100020000C94FB010C94FB010C94A6280C947929E8
:100030000C94AF230C94FB010C94FB010C94FB017A
:100040000C94FB010C94FB010C94FB010C94FB0140
:100050000C94FB010C9467240C94FB010C94FB01A1
:100060000C94FB010C94FB010C94FB010C94FB0120
:100070000C94FB010C94FB010C94FB010C94FB0110
:100080000C94FB010C94FB010C94FB010C94FB0100
:100090000C94FB010C94FB010C94FB010C94FB01F0
:1000A0000C94FB010C94FB010C94FB0135001E0029
:1000B0001F0020002100220023002400250026002C
:1000C00027002D002E002A002B0014001A00080023
:1000D000150017001C0018000C00120013002F0060
:1000E00030003100390004001600070009000A0042
:1000F0000B000D000E000F0033003400280000003C
:10010000E1001D001B000600190005001100100091
:10011000360037003800E50000000000E000E30092
:10012000E200000000002C0000000000E600650076
:100130002152E4000000000035001E001F002000D6
:1001400021002200230024002500260027002D0086
:100150002E002A002B0014001A00080015001700BA
:100160001C0018000C00120013002F00300031009A
:10017000390004001600070009000A000B000D00FA
:100180000E000F003300340028000000E1001D00C5
:100190001B00060019000500110010003600370092
:1001A0003800E50000000000E000E300E20000008D
:1001B00000002C0000000000E60065002152E40071
:1001C0000000000000010101010101010101020222
:1001D00002020202020202030303030303030304F5
:1001E00004040404040405050505050606060606C0
:1001F000070707070708080808090909090A0A0A7A
:100200000B0B0B0C0C0C0D0D0D0E0E0E0F0F0F101B
:1002100010111111121213131414151516161717A5
:10022000181819191A1A1B1B1C1D1D1E1E1F202011
:10023000212222232424252626272829292A2B2C5B
:100240002D2D2E2F30313232333435363738393A7E
:100250003B3C3D3E3F404142434445464748494A76
:100260004C4D4E4F50515354555658595A5B5D5E44
:100270005F616264656668696B6C6D6F70727375DF
:1002800077787A7B7D7E8082838587888A8C8E8F43
:1002900091939596989A9C9EA0A2A3A5A7A9ABAD71
:1002A000AFB1B3B5B7BABCBEC0C2C4C6C9CBCDCF5F
:1002B000D1D4D6D8DBDDDFE2E4E7E9EBEEF0F3F50D
:1002C000F8FAFDFF18036D0061006F005F00310058
:1002D00030005F00440053003600300000000C0383
:1002E00043005A004D0041004F0000000403090480
:1002F00009023B00020100A0FA0904000001030109
:1003000001000921110100012244000705810308B1
:10031000000109040100010300000009211101008E
:1003200001223B00070582032000011201000200A8
:10033000000008134A134A000101020001050109E7
:1003400006A1018506050719E029E7150025019595
:1003500008750181020507190029EF15002501958F
:10036000F0750181020508190129059505750191AE
:1003700002950175039101C005010906A101050758
:1003800019E029E7150025019508750181029501FD
:10039000750881010507190029FF150026FF009542
:1003A0000675088100050819012905150025019524
:1003B0000575019102950175039101C011241FBEBD
:1003C000CFEFDAE0DEBFCDBF12E0A0E0B1E0E4E5C0
:1003D000F9E502C005900D92A634B107D9F724E0E3
:1003E000A6E4B2E001C01D92AE3CB207E1F70E9464
:1003F000B5100C94392C0C9400008230B8F46530A0
:10040000A8F44E3098F4E42FF0E09EE0699FE00DF0
:10041000F11D112496E4899FE00DF11D1124EE0FCA
:10042000FF1FE455FF4F85919491089581E090E07E
:1004300008950E94FD01089581E008950E941C0224
:10044000089581E008950E941C0208950E942302ED
:10045000089508950E9429020895A6E0B0E0E3E31C
:10046000F2E00C94A22B49835A839E8330914D0273
:1004700089819A8131111AC03E81332399F0222358
:1004800089F00E947107182F682F89819A810E9434
:100490004D0769817A81812F0E945C0E2696E3E0E8
:1004A0000C94BE2B0E945F07182FF3CF0E94710798
:1004B00069817A81F1CFFC01262F408151816281CF
:1004C0007381848195810E942D020895CF93DF93DB
:1004D000D82FC92F61E00E945B026D2F7C2F0E94F4
:1004E0001E02DF91CF910895CF93DF93D82FC92FAC
:1004F00060E00E945B026D2F7C2F0E942A02DF9138
:10050000CF91089581E008950E9482020895CF93CB
:10051000C82F0E941F068C2F0E9484022FEF84E3B5
:100520009CE0215080409040E1F700C00000CF9156
:10053000089581E00E9487020E948B24089580E044
:100540000E9487020E949C2408950F931F93CF93CB
:10055000DF938C0161E00E945B02EC01B8010E9414
:1005600026028823E1F1B801CE010E9409228823E6
:10057000B1F1B801CE010E94BE20882381F1B801FB
:10058000CE010E949320882351F1B801CE010E9430
:10059000E61F882321F1F8018581882381F0CA357F
:1005A000FCE7DF0739F178F4C130ECE7DE07F9F05A
:1005B000C330FCE7DF07C9F0C115DC4771F0C801A3
:1005C0000E9421020DC0CB35ECE7DE07B1F0CC353F
:1005D000DC47A9F70E94A50BF2CF0E94990280E0A8
:1005E000DF91CF911F910F9108950E94B70B0E9448
:1005F0009F02F5CF0E94AF0BE2CF0E94B30BDFCF7B
:100600000E948B230E94901D0E94280381E00E947B
:10061000901E08950E942C0380E00E94901E0E946C
:100620009023089581E008950895CF93DF93D82F04
:100630000E941203C82F882319F08D2F0E941403E3
:100640008C2FDF91CF91089508950E94150308958E
:1006500080E00E94250308950E944F220E942503F6
:100660000895CF930E944F22C82F809148028C1783
:1006700079F0C09348020E941B2460934902709352
:100680004A0280934B0290934C028C2F0E942503C8
:10069000CF910895ADE0B0E0E0E5F3E00C94A32B3A
:1006A000488759876A877B878C879D8791110E942D
:1006B000B00A1F8286E0FE013896DE011196019095
:1006C0000D928A95E1F78D8181110DC029813A81C2
:1006D0004B815C816D817E818F810E94F6092D9610
:1006E000E2E00C94BF2BCE0101960E9466028111BC
:1006F000EDCFF5CFFC018481813021F4808191819F
:100700000E94A3070895CF93C82F882399F08CEFF8
:100710008C0F813A88F48C2F0E949722882329F02D
:100720008C2F0E943C230E94480B8C2F0E94252373
:100730000E94480BCF91089580E28C0F8830D0F74B
:10074000C77081E001C0880FCA95EAF70E94910A3C
:10075000EFCF882341F09CEF980F913A28F40E9444
:100760003C230E94480B089590E2980F9830D8F7E8
:10077000877091E001C0990F8A95EAF7892F0E944E
:10078000970AEFCF1F93CF93DF93182FEB010E94AF
:100790008303209739F4812F0E94A903DF91CF9121
:1007A0001F9108958FE99FE00197F1F700C00000C5
:1007B0002197EFCF60E070E0893311F460E570E0DD
:1007C0000E94C2030895882321F00E94910A0E948A
:1007D000480B0895882321F00E94970A0E94480B35
:1007E0000895A0E0B0E0E7EFF3E00C949D2B6C01DE
:1007F000D62FC72FFC011581068102950F700E942C
:10080000860AE82E8823F9F0E12E1123E1F08C2FDF
:10081000807F803461F080E28D0F8830D0F18C2FA2
:10082000807E803221F4D230A0F1002391F18091BA
:10083000B00382FF2EC082E00E94780B0E94860ADD
:1008400091E0E82EE9269C2F92959F70983009F44C
:10085000C9C008F5923080F1925F9F70923008F421
:100860005CC0EE2089F00E94820A80FD0DC0F60176
:1008700015820E947C0A0E94AA06C6010E94F20507
:100880000E947C0A0E94BA06CDB7DEB7E8E00C945D
:10089000B92BE12CD8CF993009F41BC19A5F9F7016
:1008A0009230F8F6D23F09F025C18C2F8F711111CB
:1008B0001EC10E94AA06C5C00C2F0F70C03110F0D7
:1008C0000295007F112399F0002359F080E28D0FEB
:1008D000883010F0D11107C0802F0E94910A0E9429
:1008E000480B8D2F3BC0802F0E94A20AF8CF8D2F7E
:1008F0000E94A903002309F4B4CF80E28D0F883051
:1009000010F0D11104C0802F0E94970A03C0802FDD
:100910000E94A80A0E94480BA4CFFC2FFF70FF2E54
:10092000C07FC03219F0F29480EFF822DD2341F04D
:10093000D130D1F1112309F444C00023F1F0D1CF1B
:100940008091B00382FD15C0112359F0FF2029F0DA
:100950008F2D0E94910A0E94480B80E00E94830321
:1009600080CF80E00E94A903FF2009F47ACF8F2D69
:10097000CBCF112369F0011104C08F2D0E94E30336
:1009800070CF013009F06DCF8F2D0E94C80A69CF5A
:10099000011167CF8F2D0E94EA038F2D0E94D40A88
:1009A0008F2D0E94B70A5DCF112321F0063008F089
:1009B00058CFE3CF053008F054CF8F2D0E94EA03C3
:1009C00050CF0023D1F3D93349F42FEF87EE93E0D2
:1009D000215080409040E1F700C000008D2F0E9420
:1009E000A9033FCF8C2F8370811139C0111129C009
:1009F0004D2F429546954770440F440F2D2F2F7071
:100A000030E0042E02C0220F331F0A94E2F780E088
:100A100090E0D4FF09C08FE090E002C0880F991FDA
:100A20004A95E2F780959095C695C695C370822B3E
:100A3000932BC23071F0C33079F0C13039F00E948D
:100A40007A060E944F220E9425030BCF0E94710656
:100A5000F8CF0E948306F5CF0E946E06F2CF1123D5
:100A600061F1C0FFEECF4D2F429546954770440F80
:100A7000440F2D2F2F7030E0042E02C0220F331FA1
:100A80000A94E2F780E090E0D4FF09C08FE090E0A4
:100A900002C0880F991F4A95E2F780959095C695F8
:100AA000C695C370822B932BC23069F0C33071F0AE
:100AB000C13031F00E94E506C4CF823010F2D3CFAE
:100AC0000E94DC06BECF0E94EE06BBCF0E949206BB
:100AD000B8CFCF70112339F08C2F0E94AA068D2F2A
:100AE0000E94E303AECF8D2F0E94EA038C2F0E9459
:100AF000BA06A7CFD33F70F4D03FB9F0D13F79F118
:100B0000112309F446C0002309F440C08D2F0E9430
:100B1000830397CFD33FA9F0D43FE9F01111F3CF6E
:100B2000011144C08C2F8F71E2CF112341F00530A9
:100B300008F087CF8C2F8F710E94CC0682CF0530B2
:100B4000F7CF112329F08C2F8F710E949E0679CF49
:100B50000E94990676CF8091B00382FD05C08C2F4C
:100B60008F71112321F2A5CE112331F063E08C2F78
:100B70008F710E945A0B65CF81E00E94780B023082
:100B800008F45FCF82E00E94780B5BCF8C2F8F71CF
:100B900090CE002339F2D93349F4EFEFF7EE23E09A
:100BA000E150F0402040E1F700C000008D2F0E948E
:100BB000A90347CF0F931F93CF93DF93EC01688175
:100BC00079818D810E94B0078C010E94F7060E94F6
:100BD0006D06B801CE010E94F103DF91CF911F9104
:100BE0000F910895CF93DF93EC018C81882399F0C6
:100BF000CE010E94A502811111C00E94860A88239D
:100C000051F08D81882339F08091B00382FF03C0B9
:100C100082E00E94780BDF91CF910895CE010E946F
:100C2000DA05CE010E947402F6CF0E94B00A0E943B
:100C3000480B08950E9453230E94150608950E94B0
:100C40009F0A0E941A060895282F92959F70963049
:100C500091F060F4925F9F70923030F481E0203F19
:100C600079F030F4283E30F080E008959A5FF3CFB9
:100C7000243FD1F7089581E0283EE0F3213FF9CFEA
:100C80000895FC018481882339F0808191810E943C
:100C9000A3070E942406089580E00895A6E0B0E02E
:100CA000E4E5F6E00C94A32B2696E2E00C94BF2B2F
:100CB000A7E0B0E0EEE5F6E00C94A32B2796E2E087
:100CC0000C94BF2B08950E94620608950E9463064B
:100CD0009093750280937402089508950E946606A9
:100CE00008952091740230917502822B932B0E94FB
:100CF0006606089520917402309175028223932331
:100D00000E94660608952091740230917502822730
:100D100093270E94660608950E94620608950E9425
:100D20008C0608950E948F0690937302809372023E
:100D3000089580E090E00E949206089521E030E05E
:100D4000A90102C0440F551F8A95E2F7CA010E940B
:100D50009206089521E030E002C0220F331F8A95E9
:100D6000E2F78091720290917302822B932B0E9482
:100D70009206089521E030E002C0220F331F8A95C9
:100D8000E2F7209530958091720290917302822350
:100D900093230E949206089521E030E002C0220FC2
:100DA000331F8A95E2F78091720290917302822735
:100DB00093270E9492060895209172023091730247
:100DC000822B932B0E9492060895209172023091FB
:100DD0007302822393230E94920608952091720247
:100DE00030917302822793270E94920608950895F6
:100DF0009B01677091E001C0990F6A95EAF763E083
:100E0000369527956A95E1F7220F331F220F331F7E
:100E1000FA01E20FF31F40E050E0682F70E081918B
:100E2000DF0111979B01042E02C0369527950A9485
:100E3000E2F7217021952827292328272C934F5F3B
:100E40005F4F4430510559F708959C01982F9770D2
:100E500083E0369527958A95E1F7220F331F220FFD
:100E6000331FFB01E20FF31F40E050E080E02191CF
:100E700030E0092E02C0369527950A94E2F72170DA
:100E80003327042E01C0220F0A94EAF7822B4F5F0A
:100E90005F4F4430510559F70895282F862F95301C
:100EA00068F42E3058F4622F70E02EE0929F600DAF
:100EB000711D11244EE452E00E94F8060895292F76
:100EC000953068F48E3058F490E06EE472E03EE0C5
:100ED000239F800D911D11240E942507089580E015
:100EE0000895A0E0B0E0E7E7F7E00C949C2B8C01BC
:100EF000E0907202F09073028091740290917502FA
:100F0000E82AF92ACFE0D0E0CC24C394D12CC60142
:100F10000C2E02C0880F991F0A94E2F78E219F21A0
:100F2000892B49F4219798F7B12C8B2DCDB7DEB7DB
:100F3000E9E00C94B82BBC2EB8018C2F0E94680EEF
:100F4000019781F3F2CFCF93DF93D82FC92F0E945F
:100F500071076D2F7C2F0E94680EDF91CF9108954D
:100F60001F93CF93DF93162FD72F90914D02992384
:100F700041F0862F972F0E94A307DF91CF911F91F9
:100F80000895882381F0862F972F0E947107C82F1C
:100F9000682F812F9D2F0E944D07612F7D2F8C2F51
:100FA0000E94680EEACF862F972F0E945F07C82FF6
:100FB000F4CF0F931F93CF93E0917602C7E0809117
:100FC00077028E1304C0CF911F910F9108950E2FB9
:100FD00010E0CE9FF0011124E858FD4F20813181AF
:100FE000428153816481758186810E945806F8018F
:100FF0003196E770E4CF2091B0023091B102409178
:10100000B2025091B3026091B4027091B502809126
:10101000B6020E94580608958091B602803178F495
:101020008091B502882359F0E091760220917702F1
:101030003091B1024091B00257E02E1301C00895E3
:101040006E2F70E05E9FF0011124DF01A858BD4FA4
:1010500014968C911497882361F111968C911197B5
:10106000831327C08C91841324C015968C911597F7
:1010700081111FC012968D919C91A091B202B091E6
:10108000B3028A1B9B0B883C910598F48091B602B1
:101090008F7080618093B602E258FD4F80818F701F
:1010A0008061808380EB92E00E94F2050E94D90764
:1010B0000895FB013196E770C0CFE09176029091E0
:1010C000770227E0E91302C080E00895AE2FB0E078
:1010D0002E9FF0011124E858FD4F3181361306C0D0
:1010E0003081381303C03581341304C0FD013196BB
:1010F000E770E8CF81E008958F929F92AF92BF9200
:10110000DF92EF92FF920F931F93CF93DF93CDB7B0
:10111000DEB72D970FB6F894DEBF0FBECDBF8C01A2
:1011200086E0F801DE01189601900D928A95E1F7AC
:10113000F801E080F580A280B380848190EB892E55
:1011400092E0992E9091B40291111BC0882309F46A
:10115000FCC0FF2009F43DC1C8010E94410688235C
:1011600009F437C187E0F801D40101900D928A9506
:10117000E1F7C4010E947A030E940C080E94FB0759
:10118000E4C0D090B5022091B2023091B302A50123
:10119000421B530BDD2009F4DBC0483C510508F02D
:1011A000A6C0882309F4D1C09091B10291808091AA
:1011B000B602803108F06BC0991228C09091B0023D
:1011C0009E1124C0F1105DC08F7080618093B602C3
:1011D0000E94FB0780EB92E00E94F2058091B6022C
:1011E000F8018683F12C8F2D2D960FB6F894DEBF73
:1011F0000FBECDBFDF91CF911F910F91FF90EF9068
:10120000DF90BF90AF909F908F900895F11039C0FC
:1012100040E0692D8E2D0E945D0840E0692D8E2DE5
:101220000E945D08F82E8111DDCF888599850E9486
:10123000A307292F22952F70903450F49F702230ED
:1012400080F0992399F0F8019681903178F4CBCF12
:101250002A5F2F70223078F0C8010E94F205FD2C21
:10126000C2CF992319F0882309F4BDCF805E88305E
:1012700008F4B9CFF1CF803F08F4B5CF815F823059
:10128000F7CF8091B60281608093B602ABCF9912FE
:1012900007C09091B0029E1103C0FF2009F479C0ED
:1012A000C8010E944106882309F493C0FF2009F475
:1012B00090C08091B602803288F02091B0023091C7
:1012C000B1023A832983BC82AB829091B4029D83A0
:1012D0001E828F83CE0101960E94F20587E0F801FD
:1012E000A0EBB2E001900D928A95E1F745CF909185
:1012F000B6029031A0F4488559856A857B858C8536
:101300009D850E944E0680EB92E00E94F20587E0E8
:10131000F40111928A95E9F70E94FB0763CF8823B5
:10132000A1F02091B10281812813BACF8091B0023F
:101330008E11B6CFF110B4CF9683C8010E94F2058A
:1013400087E0F40111928A95E9F7FF24F3944BCFDB
:10135000483C510508F041C08823B9F3FF20C9F18A
:101360009091B102818198132AC08091B0028E11B0
:1013700026C08091B60280FD19C08031B8F0868306
:10138000807F803F39F08681982F907F905F8F70AB
:10139000892B8683C8010E94F20587E0F801A0EB43
:1013A000B2E001900D928A95E1F7E8CE87E0F8016E
:1013B000A0EBB2E001900D928A95E1F7C6CFC8018B
:1013C0000E94410681118ACF8091B602816080938C
:1013D000B602C8010E94F205B8CF488559856A85D2
:1013E0007B858C859D850E944E0691CFAEE0B0E056
:1013F000ECEFF9E00C94A22B288739874A875B87AA
:101400006C877D878E87CE0108960E947C08882392
:10141000B1F06C85662341F0288539854A855B8566
:101420007D858E850E94580617E080917602909106
:10143000770289133EC02E96E3E00C94BE2B87E022
:10144000FE013896DE01119601900D928A95E1F722
:1014500020917702409176028C85882329F330E031
:10146000C90101968770992750E08417950799F074
:1014700097E0929FD001939FB00D1124A858BD4FC3
:10148000FE01319601900D929A95E1F780937702D3
:101490000E94D907C9CF0E941F06109277021092AE
:1014A000760287E0E0EBF2E0DF011D928A95E9F732
:1014B000BBCF189FC001112488589D4F0E947C0803
:1014C000882309F4B8CFE09176021E9FF001112421
:1014D000E858FD4F208131814281538164817581BB
:1014E00086810E9458068091760290E0019687706E
:1014F00099278093760299CF8091DF028695869511
:10150000869508958091DF02877008959091DF029B
:10151000977081E0911101C080E0089580910B03E4
:10152000089590910B03982B90930B030895982F97
:10153000909580910B03892380930B03089510925B
:101540000B03089590910A03982B90930A03089532
:10155000982F909580910A03892380930A03089518
:1015600010920A03089508950E94B30A0895909175
:10157000E002292F2823222331F0809589238093AC
:10158000E0020E94B40A089508950E94C40A0895D2
:101590009091E102292F2823281729F0982B909366
:1015A000E1020E94C50A08959091E102292F2823A3
:1015B000222331F0809589238093E1020E94C50A9D
:1015C00008958091E102882329F01092E10280E0E1
:1015D0000E94C50A0895CF93DF93C0910B038091B9
:1015E0000A03C82BD091E102DD2331F00E9476225C
:1015F00081110E94E10ACD2B8C2FDF91CF910895AC
:10160000CF93DF93C0910B02D0910C020E94EB0AA2
:101610008883C0910B02D0910C0248E050E067ED46
:1016200072E0CE010E94CA2B892B59F088E0FE019E
:10163000A7EDB2E001900D928A95E1F7CE010E94EC
:101640005C22DF91CF910895CF93DF93C09109027F
:10165000D0910A020E94EB0A8983C0910902D091BD
:101660000A0240E250E067EB72E0CE010E94CA2B12
:10167000892B59F080E2FE01A7EBB2E001900D92B8
:101680008A95E1F7CE010E946722DF91CF910895FC
:1016900080911F02882339F08091AF0387FF03C038
:1016A0000E94240B08950E94000B089508950E9443
:1016B000560B08959091B00392FF11C098E0899F56
:1016C00090011124622B6093DF020E94AA06809190
:1016D000DF028695869586950E94570B08950E9495
:1016E000AA0608951092DF0280E00E94570B089529
:1016F0009091DF02809589238093DF02282F277045
:1017000021110DC0891759F09091B00392FF07C0C5
:101710008695869586950E94BA060E94720B08955A
:101720009091B00392FB222720F9281769F080FBE3
:1017300092F99093B0038091AF039091B0030E940F
:10174000D80B82E00E94780B08958091B00382FB51
:10175000882780F991E089270E94900B089581E005
:101760000E94900B089580E00E94900B08956FEF07
:101770007FEF80E090E00E94332C089580E090E0BD
:101780000E94FF2B9C0181E0253E3E4F09F080E046
:10179000089582E090E00E94F72B089583E090E0A6
:1017A0000E94F72B089584E090E00E94FF2B08959B
:1017B000BC0184E090E00E94332C0895AB01BC0191
:1017C0008FE090E00E94272C0895AB01BC0183E1DB
:1017D00090E00E94272C089560E070E0CB010E9409
:1017E000E50B089560E070E0CB010E94DE0B0E94E3
:1017F000EC0B0895A8E0B0E0E0E0FCE00C94A32B33
:1018000065EE7EEF80E090E00E94332C60E082E0A5
:1018100090E00E94152C81E090E0909375028093F7
:10182000740261E083E090E00E94152C60E074E1B6
:1018300084E090E00E94332C60E086E090E00E941B
:10184000152C60E087E090E00E94152C40E050E00D
:10185000BA0188E090E00E94272C60E083E290E0EB
:101860000E94152C60E08CE090E00E94152C60E056
:101870008DE090E00E94152C19821A821B821C8236
:101880001D821E821F82188648E050E067E170E0EA
:10189000CE0101960E94052C40E050E0BA018FE194
:1018A00090E00E94272C0E94F20B2896E2E00C9414
:1018B000BF2B0E94FA0B0895682F8EE090E00E94E3
:1018C000152C0895A6E0B0E0E8E6FCE00C94A12B0E
:1018D0000E940F248C0180910C0390910D038017BE
:1018E000910779F019821A820E940F24BC01498164
:1018F0005A8180E090E00E944A0310930D03009308
:101900000C032696E4E00C94BD2B0E941B246093EC
:101910001C0370931D0380931E0390931F03609319
:1019200018037093190380931A0390931B0308956F
:10193000089508950E94980C089508950E949D0CA2
:10194000089580E69FE00E94CA100E94990C0E94B0
:101950009A0C089581E008950E94AA0C08950E94AF
:10196000AA0C0895089508950E94B20C0E94B30C29
:1019700008950E94BE0B811102C00E94590C0E9462
:10198000C90B809320030E94D30B9093B0038093E4
:10199000AF030E9490200E94CE0B90E00E946E0642
:1019A00080917202909173020E948F0608950E94A6
:1019B00006240E941D100E94B90C0E9424030E945C
:1019C000631E0E949E0C0895A6E0B0E0EAEEFCE0E3
:1019D0000C94972B0E94AC0C81110AC00E94620CDF
:1019E0000E94901D0E9431032696EEE00C94B32BCA
:1019F0000E9433102EE0822E23E0922E640110E02C
:101A0000F601E190F1906F01812F0E946A0F1F5F34
:101A1000153009F44BC0E816F90691F380912003C4
:101A200081FD0E94730F0E94AF0C782E10E0812F71
:101A30000E946A0F7C01F401A190B1904F018A15B8
:101A40009B0571F1A826B92600E0CC24C394D12CC3
:101A5000C5018C219D21892BD1F066246394C70197
:101A60008C219D21892B09F4612C772059F0098361
:101A70001A830E940F24BC0149815A8181E0962D6E
:101A80000E944A03462D602F812F0E9431160F5F5E
:101A9000CC0CDD1C0E30E1F6F4013297F182E082CD
:101AA0001F5F153021F60E94850C9ACFE816F906C3
:101AB00009F0B4CF93CF1F93CF93DF930E946D0EA5
:101AC000EC01811522E5920708F04DC0811540E533
:101AD000940708F0C5C0883E910588F0811550E450
:101AE000950728F199270E946D0ECC27DF70C82B2F
:101AF000D92BD06ACE01DF91CF911F910895803EFE
:101B00009105C0F7853A910550F4049798F781E064
:101B1000219709F080E0C82F80E0D82FEBCF8D5CB3
:101B20009109D065439730F3C0E0D0E0E3CFC11511
:101B300090E2D90708F0ADC0CE019A9581159F417A
:101B400098F78D2F0E94110F182FCE0199270E9410
:101B50006D0E212F30E0322F2227E901CC27DF71D3
:101B6000C82BD92BC7CF803842E59407C0F5803603
:101B700052E5950708F055C0C03482E5D807B0F0AB
:101B80008C2F86958695877020E2829FC001112454
:101B9000C37021E030E0A90102C0440F551FCA956F
:101BA000E2F7EA01C82BD92BDC68A4CFC03252E59A
:101BB000D50780F58C2F8695869520E2829FC001FF
:101BC0001124C37021E030E0A90102C0440F551F69
:101BD000CA95E2F7EA01C82BD92BDD688BCF803C90
:101BE00052E5950758F48F71C03AD24578F590E0E8
:101BF000982F8827EC01C46FD06A7CCF805C924517
:101C0000809708F091CFDC2FCC27CC27DF71C06FF5
:101C1000D06A70CFCF71D0E0DC2FCC27C16FD06AF3
:101C200069CF86958695877020E2829FC001112436
:101C3000C37021E030E0A90102C0440F551FCA95CE
:101C4000E2F7EA01C82BD92BDA6854CF0E94110FB2
:101C5000C82FD0E0DC2FCC27CC27DF71D0624ACF51
:101C60008F710E94110F65E0D695C7956A95E1F7CF
:101C7000CF70D0E0DC2FCC27282F30E084FF05C0C8
:101C800054E0220F331F5A95E1F7C22BD32BD069B2
:101C900031CF8D2F8F710E94110F182FCE019927F0
:101CA0000E946D0E212F30E0322F222722273F7114
:101CB000282B392BE901D2CF462F672F753028F416
:101CC0004E3018F40E941902089580E090E00895C3
:101CD0000E945C0E0E945B0D0895803E9105D1F13B
:101CE000C8F48133910509F47FC048F48932910525
:101CF00009F46FC08A32910509F47DC008958933D3
:101D00009105E1F082389105C9F08533910509F418
:101D10005BC00895843E9105D1F148F4823E91055F
:101D200031F1833E910541F181EE90E00895863EC8
:101D30009105C1F1873E9105E1F108952091AF032E
:101D40002370211165C02091B00323FF14C089E2E4
:101D500090E008952091AF0320FD43C03091B0037F
:101D600030FF09C024FF4EC080E090E0089520912C
:101D7000AF0322FDF7CF08952091AF0322FD45C0A8
:101D80003091B00330FD44C024FFF5CFEDCF20915A
:101D9000B00321FFF0CF8091AF0384FDE5CF87EE44
:101DA00090E008952091AF0323FFE5CF24FDDCCF21
:101DB000F6CF2091AF0323FD2EC03091B00331FF49
:101DC000E3CF84EE90E008952091AF0325FFD3CFB9
:101DD000BECF2091AF0325FD21C02091B00323FF8A
:101DE000CACF89E390E008952091AF0326FFC3CFC7
:101DF0008AE290E008952091AF0326FFBCCF81E3F3
:101E000090E0089583EE90E0089582EE90E00895CA
:101E100080EE90E0089586EE90E0089585E390E0EE
:101E2000AACF9091AF0392FF10C041E0282F2471F8
:101E3000243009F040E031E0282F2871283009F0E3
:101E400030E0431711F02CE0822793FF10C041E0EF
:101E5000282F2471243109F040E031E0282F287127
:101E6000283109F030E0431711F02CE0822730913F
:101E7000B00330FF10C051E0282F2171213009F04C
:101E800050E041E0282F2871283009F040E0541735
:101E900011F029E0822731FF10C041E0282F217185
:101EA000213109F040E031E0282F2871283109F074
:101EB00030E0431711F029E0822794FD877E0895D2
:101EC00080E0089508950E94620F089508950E9489
:101ED000660F0895E82FF0E0EE0FFF1FE554FC4F6A
:101EE000808191810895089580EA8A95F1F7089597
:101EF00000C008950E94740F0895F894E82FE295A9
:101F0000EF70F0E041A18F7021E030E0B90102C034
:101F1000660F771F8A95E2F7CB01962F9095942351
:101F200091A392A1892B82A3789408950F931F9374
:101F3000CF93DF93C1E3D2E089918F3F11F00E94EC
:101F40007D0F82E0C633D807B9F7C3E2D2E001E3E0
:101F500012E089918F3F11F00E947D0F0C171D0731
:101F6000C1F7DF91CF911F910F910895A0E0B0E0EC
:101F7000ECEBFFE00C949C2BEC01B62E062F10E04E
:101F8000C8018F5C9D4F7C01FC0180818F3F09F46B
:101F90004FC0F894E82FE295EF70F0E091A18F70B8
:101FA00021E030E001C0220F8A95EAF7892F822BC9
:101FB00081A382A12095282322A378940E94780FE0
:101FC000E3E2F2E041E050E0C12CD12C21912F3F1F
:101FD00089F0A22FA295AF70A05EB0E08C9190E046
:101FE0002F7002C0959587952A95E2F781709A0126
:101FF000882311F020E030E0C22AD32A440F551F75
:1020000082E0E133F80711F7F70180818F3F11F08B
:102010000E947D0F61E0C114D10409F460E08B2DB2
:102020000E947A0F000F111FC00FD11FD982C882E2
:10203000CDB7DEB7E9E00C94B82B0E94960F8AE08A
:10204000EBEBF3E0DF01982F1D929A95E9F7E1EBB6
:10205000F3E0DF011D928A95E9F785E00E94701098
:102060000E94630F0895AAE0B0E0E9E3F0E10C9468
:10207000A02BFE0131968AE0DF011D928A95E9F7D7
:1020800010E0FE2E0F2F612F8F2D902F0E94B60F84
:102090001F5F1530C1F74AE050E06F2D702F81EBC4
:1020A00093E00E94CA2B21E0892B81F420E045E0D7
:1020B0006BEB73E081EB93E00E947110182F0E948C
:1020C000670F812F2A96E5E00C94BC2B8AE0EF2D58
:1020D000F02FA1EBB3E001900D928A95E1F7E7CFE5
:1020E0000895A0E0B0E0E7E7F0E10C949D2BD82E36
:1020F000E92EF62ED72F042FC22F222379F081E06C
:10210000809323030E940F24909322038093210342
:1021100080E0CDB7DEB7E8E00C94B92BC090230384
:10212000CC20B1F380912103909122030E943824A6
:10213000059770F310E0000F111FA8016D2D7E2D83
:102140008F2D9D2F0E94CA2B892B41F0A8016D2D48
:102150007E2D8F2D9D2F0E94D72BCC2D10922303E7
:102160008C2FD7CF0E94E40C08950E94A8230E94D0
:10217000E4250E94A10C0E94FE250E94D70C0E941B
:102180000B260E9410260E94B2100E942A260E944E
:10219000B40CF7CF90934702809346020895A0E0D5
:1021A000B0E0E5EDF0E10C949B2BE82F71110DC030
:1021B000442321F0F0E0EC53FE4F8491682F782FF8
:1021C000CDB7DEB7EAE00C94B72B262F30E0C72F4F
:1021D000D0E0F0E0442321F0EC53FE4FE491F0E036
:1021E00086E0829F7001839FF00C11240FEF10E0B6
:1021F000C701B8010E94242BAB01220F331F65E5F4
:10220000649FC001659F900D1124281B390BC22EBD
:10221000CC0CC20EC8018C1B9D0B8E9F90018F9F12
:10222000300D9E9F300D1124832FCC9EB001CD9E8A
:10223000700D1124672F77275801A61AB70AAE9E92
:10224000D001AF9EB00DBE9EB00D11247B2F580162
:10225000AC18B1086501CC9E5001CD9EB00CDC9E3F
:10226000B00C1124AB2CBB240A191B090E9FE001F2
:102270000F9FD00D1E9FD00D11246E2F433051059E
:10228000C9F09CEFE91693E0F90650F4413051058E
:1022900009F496CF4230510589F07E2F6D2F90CFF3
:1022A0004430510571F046305105B9F3632F8B2F3F
:1022B0007E2F86CF6B2F732F8E2F82CF732F8D2F74
:1022C0007FCF7D2F632FF8CF41E00E94CF1008957C
:1022D0009C0180E090E0269F812D369F800D911D0E
:1022E000112408959C018230910508F408959FEF10
:1022F000213E8EE1380740F4C90145E09695879567
:102300004A95E1F798E0980F61E0E62FE90FFF2783
:10231000FF1FAF0155954795842F449FF001459FBE
:10232000F00DF00D11242E173F0738F49FEF940F96
:10233000961758F78FEF860F08954F3FE9F361E046
:10234000640FF6CF409113025091140225E038E05B
:10235000429FC001439F900D529F900D1124875EB4
:10236000994C9093140280931302890F0895982F2B
:10237000E82F96FDE0958E2F8F7096FD8F5FE69586
:10238000E695E695E670F0E0EA5CFD4F2181289F36
:10239000202D812D112422952F708295807F282B4E
:1023A0008081820F97FD8195805808951F93172F84
:1023B000922FE42FF0E0EE0FFF1FEA5BFE4F40810B
:1023C00024EE429F412D1124E72FF0E050E09A01C6
:1023D000245E3F4F291B310937FF03C031952195FA
:1023E000310993E0220F331F9A95E1F7E21BF30BBB
:1023F000F7FF02C0E0E0F0E07E2F719F712D112405
:102400001F9108951F93182F822FE42FF0E0EE0FF5
:10241000FF1FEA5BFE4F408124EE429F412D1124B5
:10242000E12FF0E050E09A01245E3F4F281B310974
:1024300037FF03C031952195310983E0220F331F07
:102440008A95E1F7CF01821B930B9C0197FF02C095
:1024500020E030E0219F212D1124822F1F9108952B
:10246000622F0895E42FF0E0EE0FFF1FEA5BFE4FAE
:102470006081621B0895E42FF0E0EE0FFF1FE95B1F
:10248000FE4F6081621B0895322F50E0FA01EE0F7B
:10249000FF1FE95BFE4F9081905297FD9195440F8D
:1024A000551FFA01EA5BFE4F2081231B330B290FD6
:1024B000311D97FD3A95620F0895EF920F931F9388
:1024C00010E09801220F331F200F311F35952795FB
:1024D0006E2D620F1F910F91EF9008950F93CF9380
:1024E000DF93D72FC82FB90147FD419528E330E08E
:1024F000241B310947FD3395229FA001239F500DD6
:10250000500D1124669FC001679F900D900D1124FE
:10251000840F951F0E947211982F990F692F680FD1
:10252000600F7D2F8C2FDF91CF910F9108950F9326
:102530001F93522F10E0F801EE0FFF1FE95BFE4FD3
:10254000A081A052BB0B9D015203F001539FF00DDF
:102550001124000F111FD801AA5BBE4F2C912057E8
:10256000330B4203D001439FB00D11249F012A0F6A
:102570003B1F37FF02C021583F4F220F232F221F3E
:10258000330B620F1F910F9108950F931F93522FDA
:1025900010E0F801EE0FFF1FE95BFE4FA081A05293
:1025A000BB0B9D015203F001539FF00D1124000F4E
:1025B000111FD801AA5BBE4F2C912057330B420349
:1025C000D001439FB00D11249F012A0F3B1F37FFFD
:1025D00002C0215C3F4F96E0359527959A95E1F72B
:1025E000620F1F910F9108950F931F93A42F10E076
:1025F000F801EE0FFF1FEA5BFE4F9081905797FDA9
:102600009195000F111FF801E95BFE4F0081005208
:10261000110B2003A001219F500D112428E330E06D
:10262000291B310997FD33951A2F1203F001139FCF
:10263000F00D11244E0F5F1F9A01220F331F240F3C
:10264000351F37FF02C021583F4F220F232F221F73
:10265000330B620F1F910F9108950F931F93CF9328
:10266000DF93D62F072F182FC42F822F0E94B71168
:10267000982FEC2FF0E0EE0FFF1FEA5BFE4F8081FA
:102680008058980F97FD9195990F292F3CE0239F33
:10269000212D1124622F6D0F702F812FDF91CF918B
:1026A0001F910F910895E42FF0E0EE0FFF1FEA5BFA
:1026B000FE4F9081921B97FD9195292F38E1239F22
:1026C000212D1124620F08954095282F429F412DFE
:1026D0001124842F0895409520E4429F412D112418
:1026E000640F0895EF92FF920F93970195E0099F71
:1026F000200D311D11242F3F310519F010F02FEF5F
:1027000030E02095382F320F08F43FEF832F0F91E0
:10271000FF90EF900895EF92FF920F93E00EF11C5F
:10272000F90137FF03C0F195E195F10924E0EE0FBF
:10273000FF1F2A95E1F7EF3FF10519F014F0EFEFD5
:10274000F0E09A0157FF03C031952195310994E0DB
:10275000220F331F9A95E1F72E173F070CF4F9016A
:10276000EE0DFF1DEF3FF10519F010F0EFEFF0E077
:102770002E2F2095382F320F08F43FEF832F0F9123
:10278000FF90EF900895EF92FF920F93972FFA0129
:10279000B9019701093430F4201B31092F3F31056D
:1027A00019F010F02FEF30E03896719740F0AB0140
:1027B000485F5F4F4131510510F02FEF30E0209519
:1027C000382F320F08F43FEF832F77FF02C06D5F81
:1027D0007F4F75956795759567952091C603620F34
:1027E000792F0F91FF90EF900895EF92FF920F9342
:1027F0009701201B31092F3F310519F010F02FEF01
:1028000030E0322F3095482F430F08F44FEF842FDC
:10281000620F0F91FF90EF900895EF92FF920F9348
:102820009701201B31092F3F310519F010F02FEFD0
:1028300030E02095382F320F08F43FEF832F0F91AF
:10284000FF90EF90089590912403982B9093240388
:102850000895FC019B01009719F4832F8078089557
:10286000AC0197FF04C044275527481B590BB901F9
:10287000640F751F37FD0FC0C901841B950BA5E0C0
:10288000880F991FAA95E1F70E94382B80E2861BDA
:10289000F7FD81950895CB0165E0880F991F6A9532
:1028A000E1F7BA01621B730B0E94382B80E6EFCF71
:1028B0000F931F93CF93DF93D62F172FC82FBA01F3
:1028C000C901212F201B022F0E942914982F990F34
:1028D000990F782F791B700F719F712D11246D2F17
:1028E0008C2FDF91CF911F910F910895FF920F933D
:1028F0001F93CF93DF93D62FC72F182FBA01C9018B
:10290000F12EF01A0E942914982F990F990F082F71
:10291000091B0F0D019F012D11246D2F7C2F802F7E
:10292000CDB7DEB7E5E00C94BC2BEF920F931F936D
:10293000CF93DF93D62F172FC82FBA01C9010E19D5
:10294000010F0E942914702F781B719F712D112483
:102950006D2F8C2FDF91CF911F910F91EF900895E4
:10296000EF920F931F93CF93DF93D62FC72F182F7C
:10297000BA01C9010E19010F0E942914081B019FF9
:10298000012D11246D2F7C2F802FDF91CF911F916E
:102990000F91EF9008950F93CF93DF93D72FC82F08
:1029A000BA01C9010E942914682F600F7D2F8C2F56
:1029B000DF91CF910F910895EF920F93CF93DF9313
:1029C000D72FC82FBA01C9010E190E942914602FF0
:1029D000681B7D2F8C2FDF91CF910F91EF90089581
:1029E00048E050E067E170E085EC93E00E94052C40
:1029F0001092240308950E9464110895A0E0B0E0AD
:102A0000E4E0F5E10C94962B882E762E062F10E04C
:102A10002EE0829FC00111249C0120503F4FF901FC
:102A2000E00FF11FC081CF3FB1F1A12CB12C612C7F
:102A3000D0E09E01220F331FA9014A5B5E4F6A015D
:102A4000E901C95BDE4F8D5A9C4F080F191F7501B4
:102A5000912C88E2582EF701E050FF4F20812F3F44
:102A600059F086101DC079101BC0F801208130E29A
:102A7000230F08F42FEF208393947FEFE71AF70AD0
:102A80008EE09812E8CF6394EEE0AE0EB11CF6E44F
:102A9000AF16B104E1F6CDB7DEB7EFE00C94B22B80
:102AA00030E0F6014081F901EE0FFF1FEA5BFE4FB7
:102AB0008081481B550B8881220F331FF901E95B88
:102AC000FE4F9081682F691B770B9B01449FB001DB
:102AD000459F700D700D1124229FC001239F900D02
:102AE000900D1124860F971F0E947211382F893282
:102AF00018F6252D231B08F420E0F701ED5AFC4FB2
:102B0000213108F020E13081320F08F43FEF3083AB
:102B1000B3CFE5ECF3E08DE08083809120029091CB
:102B20002102A091220281839283A3838FE7848371
:102B30008FEF85830E94F014089580E008950F932D
:102B40001F93CF93DF93C82FD62F8A010E949D1524
:102B50009EE0C99F9001112420503F4FF901ED0FD5
:102B6000F11D90819F3F29F0F801E80FF11D90833E
:102B70008F5FDF91CF911F910F910895E0914402F3
:102B8000F091450209950895E0914002F0914102CB
:102B9000099508951F93CF93DF93EC01FC01E8534F
:102BA000FE4F808168236623B1F00E94A211182F86
:102BB0000E94A21120E8829FC00111247FE7790FB3
:102BC000612F8091C8030E94FB14462F672F282F86
:102BD000CE010E94C415DF91CF911F910895A0E00E
:102BE000B0E0E5EFF5E10C949E2BEC01FC01E8531D
:102BF000FE4F80816823662349F1D090C70300917E
:102C0000C8031091C603E12EF12C0E94A211482F97
:102C1000C7018C549F4F68E671E00E94382B8E19D3
:102C20009F0997FD03969595879595958795437090
:102C3000612F489F600D11247D2D802F0E94FB1471
:102C4000462F672F282FCE010E94C415CDB7DEB7BF
:102C5000E7E00C94BA2BE0914202F091430209950F
:102C60000895A8E0B0E0E7E3F6E10C949B2BE82E92
:102C7000B62EA42E0E94AA0C882309F457C0F12C6A
:102C8000AA2041F0AE014F5F5F4F6B2D8E2D0E9449
:102C90009F15F82E0F2D10E080912503800F912FA6
:102CA000911D09976CF188E090E06C01C01AD10A7F
:102CB000B8016A5D7C4FA60186E293E00E94D72BA3
:102CC000B801625D7C4FA6018EE293E00E94D72B93
:102CD000A601440F551FB801660F771F625C7C4F39
:102CE0008EE393E00E94D72BB8016A5C7C4FA6016B
:102CF00086E393E00E94D72B88E08F198093250309
:102D000010912503DE01119640E0242F210FF412CB
:102D100011C020932503AA2049F08091C5038C7F20
:102D2000883621F46B2D8E2D0E94FE142896EAE041
:102D30000C94B72B5D91852F90E030E0B9016B5D6D
:102D40007C4FFC01EE0FFF1FEA5BFE4F0081FB0191
:102D50000183880F991FFC01E95BFE4F8081FB0115
:102D60008187518BF901EE0FFF1FEB5DFC4F128E37
:102D7000118E4F5FCACF81E008950E94BB1608955F
:102D80009DE0899F802D1124980F923408F091E4E2
:102D90000895A0E0B0E0EFECF6E10C94952B3C0137
:102DA0002B01FC0180810E94C016C82F192F609151
:102DB000C90366958091CD039091CE030E9468115E
:102DC000F82ED0E0CE01880F991F9C012A5B3E4F60
:102DD0006901C11748F081E0113408F080E0CDB7F7
:102DE000DEB7E0E10C94B12BFE01E853FE4F808189
:102DF000F30191818923882379F1F6018081282FBD
:102E00002057330B59018181E82FE052FF0B4F010E
:102E1000AA9C9001AB9C300D300D1124EE9FC00197
:102E2000EF9F900D900D1124820F931F0E9472113D
:102E3000082F6091C6037091C7038091C803EF2CDF
:102E40009401A501F20109950E94FB14462F672FFA
:102E5000282FCE010E94C415F2E0CF0ED11C21967E
:102E6000B8CF65E974E10E94C916089560EB74E17A
:102E70000E94C91608956DE572E10E94C916089571
:102E80006CED74E10E94C91608958F929F92BF92D3
:102E9000CF92DF92EF92FF920F931F93CF93DF9326
:102EA0006C014B01FC0180810E94C016C82F192FB4
:102EB0006091C90366958091CD039091CE030E94E5
:102EC0006811B82ED0E0CE01880F991F9C012A5BB3
:102ED0003E4F7901C11780F081E0113408F080E0A5
:102EE000DF91CF911F910F91FF90EF90DF90CF90E6
:102EF000BF909F908F900895FE01E853FE4F808110
:102F0000F601918189238823C1F0F70121812052A4
:102F1000330B40814057550B6091C6037091C70336
:102F20008091C8030B2DF40109950E94FB14462FD4
:102F3000672F282FCE010E94C415F2E0EF0EF11C7E
:102F40002196C8CF68E574E10E944517089566E7A9
:102F500074E10E94451708956EE672E10E944517DC
:102F600008956BEC74E10E9445170895A0E0B0E06D
:102F7000ECEBF7E10C949D2B7C016B01FC01808153
:102F80000E94C016C82F192F6091C90366956695D7
:102F900021E0620F08F46FEF8091CD039091CE0392
:102FA0000E946811082FD0E0C11748F081E0113469
:102FB00008F080E0CDB7DEB7E8E00C94B92BFE0155
:102FC000E853FE4F8081F70191818923882391F096
:102FD0006091C6037091C7038091C803202F4C2FC6
:102FE000F60109950E94FB14462F672F282FCE016A
:102FF0000E94C4152196D8CF66ED71E10E94B617E4
:10300000089562E072E10E94B617089560E372E1EC
:103010000E94B617089562E372E10E94B617089500
:103020006BE372E10E94B617089564E472E10E94B6
:10303000B61708956DE273E10E94B617089563E52F
:1030400073E10E94B6170895A4E0B0E0EAE2F8E167
:103050000C949B2B6C015B01FC0180810E94C016CB
:103060008B83F92E6091C903669566958091CD0397
:103070009091CE030E946811182F80E4810F0E9466
:10308000B71180588983812F0E94B71180588A8395
:103090009B81892F90E09C838B839B819F1548F0B7
:1030A00081E0E0E4EF1508F480E02496EAE00C9477
:1030B000B72BEB81FC81E853FE4F8081F6019181B3
:1030C00089238823A9F06091C6037091C70380917A
:1030D000C803E12E0B812A814981F50109950E94DF
:1030E000FB14462F672F282F8B819C810E94C415CB
:1030F0008B819C810196CFCF67E972E10E942418F1
:10310000089565EC72E10E942418089564EF72E15D
:103110000E9424180895A0E0B0E0E1E9F8E10C94E1
:103120009A2B8C017B01FC0180810E94C016C82F64
:10313000B92E2091C90331E0230F08F42FEF30E0BE
:1031400040E050E06FEF7FEF80E090E00E946E2B58
:103150006901D0E0A22E9D2C2C2FCB1550F081E0E0
:10316000F0E4FB1508F480E0CDB7DEB7EBE00C949B
:10317000B62BFE01E853FE4F8081F801918189232F
:10318000882319F14091D1034150042E000C550BB6
:1031900047FF1DC08A2D992D6091C90321E0620F60
:1031A00008F46FEF0E946811AC016091C603709142
:1031B000C7038091C803F70109950E94FB14462FAD
:1031C000672F282FCE010E94C4152196C5CFFA0182
:1031D000EF52FC4F818982130AC0FA01EE0FFF1FE4
:1031E000EF52FC4F818D928D8C159D05A8F24150B8
:1031F0005109CECF64E673E10E948B1808956BE607
:1032000073E10E948B180895AAE0B0E0EAE0F9E1CA
:103210000C94932B382E2B0149835A83FB01808118
:103220000E94C0169D83F091D103FE83282F30E0C9
:103230003A872987C901880F991FFC01EA5BFE4F75
:103240006F01832D90E09C012F5F3F4F38872F83C4
:103250008D819985981748F081E0ED81E13408F07F
:1032600080E02A96E2E10C94AF2BE985FA85E853D9
:10327000FE4F8081F20191818923882309F1F09129
:10328000C603FB832091C7032C838F8198858F52BF
:103290009C4F3C01232C10E0FE812F16D8F020918A
:1032A000C803129F112D11246B817C81812F0E94F4
:1032B000FB14462F672F282F89859A850E94C415F5
:1032C00029853A852F5F3F4F3A87298732E0C30E21
:1032D000D11CBECFF30181913F01F601A080A81A55
:1032E000BB088180F3018781881A9908AA9C900104
:1032F000AB9C300D300D1124889CC001899C900D31
:10330000900D1124820F931F0E947211082F60915B
:10331000C90321E0620F08F46FEFF301EE0FFF1F06
:10332000E15DF340858996890E9468117C019401D2
:10333000A5016B817C81812FE981FA8109956B83DD
:103340007C83182F2394A8CFBC012091D10331E0B6
:10335000231B08F420E042E753E1822F0E94041966
:103360000895BC0142E753E180E00E9404190895EA
:10337000BC012091D10331E0231B08F420E04BE88D
:1033800053E1822F0E9404190895BC014BE853E1D8
:1033900080E00E9404190895BC012091D10331E01E
:1033A000231B08F420E043EC53E1822F0E94041910
:1033B0000895BC0143EC53E180E00E940419089594
:1033C000BC012091D10331E0231B08F420E045EF3C
:1033D00053E1822F0E9404190895BC0145EF53E187
:1033E00080E00E9404190895BC012091D10331E0CE
:1033F000231B08F420E04DE054E1822F0E940419C1
:103400000895BC014DE054E180E00E940419089544
:10341000A0E0B0E0EEE0FAE10C949D2B7C01FC0111
:1034200080810E94C016C82F192F6091C603709129
:10343000C7038091C8030E94FB14062FD72EC82E05
:10344000D0E0C11748F081E0113408F080E0CDB73A
:10345000DEB7E8E00C94B92BFE01E853FE4F808103
:10346000F70191818923882331F02C2D402F6D2D78
:10347000CE010E94C4152196E4CFA0E0B0E0E3E4C1
:10348000FAE10C949C2B6C01FC0180810E94C01617
:10349000F92EE090C703B090C8032091C90300E45F
:1034A000029F012D1124C82FD0E010E0CF1550F05D
:1034B00081E090E49F1508F480E0CDB7DEB7E9E045
:1034C0000C94B82BFE01E853FE4F8081F6019181E8
:1034D00089238823E9F0FE01EE0FFF1FEA5BFE4F10
:1034E0002081209FC001219F900D112425E09595FA
:1034F00087952A95E1F76091C603680F7E2D8B2D85
:103500000E94FB14462F672F282FCE010E94C4155E
:103510002196CCCFA0E0B0E0E0E9FAE10C949D2B3D
:103520007C01FC0180810E94C016C82F192F0091D8
:10353000C603D091C703D090C8036091C9036695B4
:10354000669566958091CD039091CE030E94681197
:103550000E94B711805887FD8195880F282F3D2D37
:10356000239F212D1124822F602F7D2F0E94FB1479
:10357000062FD72EC82ED0E0C11748F081E01134B5
:1035800008F080E0CDB7DEB7E8E00C94B92BFE017F
:10359000E853FE4F8081F70191818923882331F020
:1035A0002C2D402F6D2DCE010E94C4152196E4CF05
:1035B000CF92DF92FF920F931F93CF93DF938C01F3
:1035C000FC0180810E94C016F92EF80192819111B0
:1035D0002DC06091C90320E1620F08F46FEF809164
:1035E000CD039091CE030E9468116AE070E00E94C2
:1035F000242B892B71F40E94A211F1E48F9F90017A
:103600001124F8016181832F932F990F990B0E9448
:10361000EF1581E0F0E4FF1508F480E0DF91CF9131
:103620001F910F91FF90DF90CF900895C82FD0E0A9
:10363000CF2CD12CCC15DD0564F7F8016181CE01CA
:103640000E94EF152196F6CFCF92DF92FF920F9353
:103650001F93CF93DF938C01FC0180810E94C016E1
:10366000F92EF801928191112DC06091C90320E1DA
:10367000620F08F46FEF8091CD039091CE030E940A
:10368000681165E070E00E94242B892B71F40E9480
:10369000A211F1E48F9F90011124F8016181832F21
:1036A000932F990F990B0E94CA1581E0F0E4FF1542
:1036B00008F480E0DF91CF911F910F91FF90DF9090
:1036C000CF900895C82FD0E0CF2CD12CCC15DD059C
:1036D00064F7F8016181CE010E94CA152196F6CFE8
:1036E000A0E0B0E0E6E7FBE10C949D2B8C01FC012F
:1036F00080810E94C016C82FF92ED090C703E09099
:10370000C803D091C6036091C90366956695669516
:103710008091CD039091CE030E9468110E94B71151
:1037200020E8280F27FD2195220F3CE0239F212D23
:1037300011246D2F620F7D2D8E2D0E946411E62EB7
:10374000D72EC82ED0E0CF1550F081E090E49F1521
:1037500008F480E0CDB7DEB7E8E00C94B92BFE01A9
:10376000E853FE4F8081F80191818923882331F04D
:103770002C2D4E2D6D2DCE010E94C4152196E3CF28
:10378000A0E0B0E0E6ECFBE10C94952BEC01888125
:103790000E94C016582E092F8A81882361F040E0CC
:1037A00060E080E00E942B16E3E5F3E086E4DF01B1
:1037B0001D928A95E9F78881882399F1C12CD12C33
:1037C000612C9AEA492E76018EE0782EF701E050BE
:1037D000FF4F5F01E081E51558F0E01748F4F0E095
:1037E000E853FE4F808199818923811133C063940E
:1037F0007A94BFEFEB1AFB0A7110E8CFE8E3CE161C
:10380000D10431F0FEE0CF0ED11C2CE02615D8F605
:1038100081E0013408F080E0CDB7DEB7E0E10C9440
:10382000B12B80919A0390919B030E9438249C01B4
:1038300081E02931310508F480E080939903293132
:10384000310508F4BBCF0E940F2490939B03809313
:103850009A03B4CFC7018D5A9C4F4C01DC011C91D7
:10386000612F25E5621B08F460E0842D861B682F1C
:103870007091C703242D210F08F42FEF3091C80356
:10388000822F880F820F8E5F282F239F212D1124D6
:10389000822F0E94FB14462F672F282FD5018C9171
:1038A00090E00E94C41580919903882309F49FCF6A
:1038B00021E0121B08F410E0D4011C9398CFCF93A1
:1038C000C82F809111028C1325C02091C50323704D
:1038D00030E04091120250E081E02417350709F4EE
:1038E00080E08170809310028091CA0390910F0252
:1038F000981739F080930F0240E060E080E00E946A
:103900002B16C73208F0EEC0EC2FF0E0E55CF34D6B
:103910000C948D2B81E0E5CF80911002882309F46F
:10392000EAC040E060E080E00E942B1680910E0229
:103930008F5F80930E0282E080930D0280911002CF
:10394000882309F4DDC0CF9108958EE092E00E94B3
:10395000081A90910E029F5F90930E028111F3CF8F
:1039600082E080930D02809110028111ECCFCC2374
:10397000E8CF8EE092E00E943D1AEBCF8EE092E01D
:103980000E948A1AE6CF8EE092E00E94FC17E1CFF7
:103990008EE092E00E940118DCCF8EE092E00E945F
:1039A000A217D7CF8EE092E00E94A717D2CF8EE069
:1039B00092E00E943117CDCF8EE092E00E94361740
:1039C000C8CF8EE092E00E940618C3CF8EE092E04E
:1039D0000E940B18BECF8EE092E00E941018B9CF63
:1039E0008EE092E00E941518B4CF8EE092E00E9423
:1039F0003B17AFCF8EE092E00E94AC17AACF8EE0CB
:103A000092E00E94B117A5CF8EE092E00E9440178D
:103A1000A0CF8EE092E00E947C189BCF8EE092E0D7
:103A20000E94811896CF8EE092E00E94861891CF76
:103A30008EE092E00E94D81A8CCF8EE092E00E9435
:103A4000241B87CF8EE092E00E94701B82CF8EE015
:103A500092E00E941A187DCF8EE092E00E941F181B
:103A600078CF8EE092E00E94C01B73CF8EE092E090
:103A70000E94FA186ECF8EE092E00E94FF1869CF84
:103A80008EE092E00E94A41964CF8EE092E00E9442
:103A9000B1195FCF8EE092E00E94B8195ACF8EE044
:103AA00092E00E94C51955CF8EE092E00E94CC1999
:103AB00050CF8EE092E00E94D9194BCF8EE092E079
:103AC0000E94E01946CF8EE092E00E94ED1941CFAE
:103AD0008EE092E00E94F4193CCF8EE092E00E94CA
:103AE000011A37CF80910E028F5F80930E0282E021
:103AF00080930D0228CF80910E028F5F80930E027B
:103B000083E0F6CF81E008950E94821D0895FC01B4
:103B1000808181500E94C016692F0E94841D0895E3
:103B20004F925F926F927F928F929F92AF92BF92CD
:103B3000CF92DF92EF92FF92CF93DF9300D000D02D
:103B4000CDB7DEB780914E0390914F03A091500303
:103B5000B091510389839A83AB83BC83BC01CD01AF
:103B60000E9447246B017C010E941B2460934E033A
:103B700070934F038093500390935103A0912503BA
:103B8000E5E2F3E02A2F30E088248A94982CA12CD7
:103B9000B12C8C189D08AE08BF08A3132FC020932A
:103BA00025032091520321113CC02091C503A22F6F
:103BB000A370A983AA2319F026952695298320911D
:103BC0000D02223009F455C070F5211141C0109248
:103BD0000E026093CD037093CE038093CF03909336
:103BE000D00389E2E5E2F3E0A1EDB3E001900D92AC
:103BF0008A95E1F781E080930D0217C0418D528DC7
:103C00002A01612C712C84149504A604B70420F4B5
:103C100021503F5F3296C1CF4C0D5D1D528F418FB9
:103C2000F8CF1982CCCF233081F10F900F900F90F5
:103C30000F90DF91CF91FF90EF90DF90CF90BF90EA
:103C4000AF909F908F907F906F905F904F9008956E
:103C500089810E945F1CB981BB2339F380910D02D9
:103C6000823011F40E94BD168EE092E00E94871D02
:103C7000DCCF3981309311028091C503837080932A
:103C800012020E94BE1583E0B6CF809124038111F9
:103C90000E94F0148091CD039091CE03A091CF03A8
:103CA000B091D003BC01CD010E94472469837A837F
:103CB0008B839C83603171058105910508F4B5CF34
:103CC00010920D02B2CFE0913E02F0913F020995B1
:103CD0001092D10340E150E06FEF70E08AEE93E084
:103CE0000E94E02B1092250340E150E06FEF70E05E
:103CF0008EE393E00E94E02B81E08093240348E070
:103D000050E067E170E085EC93E00E94E72B1092B1
:103D100024038091C503843010F40E94891508950E
:103D2000CF93C82F882391F08091520381110EC048
:103D30000E945F1C109211028091C50383708093D2
:103D400012020E94BE1583E080930D02C0935203BD
:103D5000CF910895E5ECF3E0908121E092279083E4
:103D600010920D020E942314089581E00E94AA1E61
:103D70000895982F862F2091C5032370222389F060
:103D8000992381F0973280F49F73990F990F2091B6
:103D9000C5032370922B9093C50310920D020E94CD
:103DA0002314089591E0F1CF96E2EFCF61E00E94F5
:103DB000B91E0895682F8091C503869586958F5FFB
:103DC000873208F081E00E94B91E089581E00E94C8
:103DD000DA1E0895682F9091C503969596958FEFFA
:103DE000890F913009F486E20E94B91E089581E09E
:103DF0000E94EA1E0895982F822F2091C5032370F8
:103E0000222359F09093C6036093C703453B08F003
:103E100044EB4093C8030E9423140895282FE5EC37
:103E2000F3E09181892F90E04381628108960E949E
:103E3000FB1E089581E00E940E1F0895282FE5ECD7
:103E4000F3E08181438162818850990B0E94FB1EBF
:103E5000089581E00E941E1F0895282FE5ECF3E0ED
:103E6000628130E1630F08F46FEF8181438190E05C
:103E70000E94FB1E089581E00E942D1F0895282FA7
:103E8000E5ECF3E0628130E1631B08F460E08181DE
:103E9000438190E00E94FB1E089581E00E943F1F35
:103EA0000895282FE5ECF3E0438130E1430F08F457
:103EB0004FEF8181628190E00E94FB1E089581E0B6
:103EC0000E94511F0895282FE5ECF3E0438130E173
:103ED000431B08F440E08181628190E00E94FB1E58
:103EE000089581E00E94631F0895E5ECF3E02481CA
:103EF00030E1230F08F42FEF24830E942314089548
:103F000081E00E94751F0895E5ECF3E0248130E123
:103F1000231B08F420E024830E942314089581E0E9
:103F20000E94841F0895CF93DF93DC01FC01EE0F04
:103F3000FF1FEF01CA0FDB1FC650DC4F89818613BC
:103F400006C08881841303C08A81821751F081E002
:103F500080939C03EA0FFB1FE650FC4F6183408374
:103F60002283DF91CF910895FF920F931F93CF93F8
:103F7000DF93182F062FF42EC0E0D0E02F2D402F16
:103F8000612FCE010E94931F2196C134D105B1F754
:103F9000CDB7DEB7E5E00C94BC2B80919C03882361
:103FA00041F061E470E08AEF93E00E9445201092B6
:103FB0009C0308950E94432010929C030895FA01E7
:103FC000882311F009950895FB01FCCF1F93CF932F
:103FD000DF93EC01FB011581111153C00E948E0A81
:103FE0008272FE01E052F847E531F10508F049C060
:103FF000EE59F34D0C948D2B0E94B51E812FDF914D
:10400000CF911F91089547EF5EE166EE7EE10E9439
:10401000DF1FF4CF46EE5EE167EF7EE1F8CF49E2C5
:104020005FE16AE17FE1F3CF4AE15FE169E27FE1CD
:10403000EECF4DE45FE16BE37FE1E9CF4BE35FE17E
:104040006DE47FE1E4CF41E75FE16FE57FE1DFCF42
:104050004FE55FE161E77FE1DACF4FE85FE160E8DC
:104060007FE1D5CF40E85FE16FE87FE1D0CF81E02D
:104070000E94D61EC3CF83E0FBCF8BE0F9CF80E157
:10408000F7CF11E0BBCF259A08959C01AB0165B134
:104090006F7D75B17062EFB7F894CA01880F991FF0
:1040A000840F951F820F931F8217930741F4EFBF70
:1040B0008FE594E00197F1F700C000000895D90161
:1040C0004D919D0158E075B9000000C047FF65B9EA
:1040D000440F000000C000C000C065B900C05A9580
:1040E00091F7E2CF0E94B70B089580E00E946A0F1B
:1040F000817008950E9433102FEF86E791E02150E0
:1041000080409040E1F700C000000E9433100E9400
:104110007520882321F00E9472200E948B2408952C
:104120000E947A200895CF93DF93EB0186319C475C
:1041300019F50E948E0A9D819923A1F08A7A91E057
:10414000811101C090E090939D03882349F085E39D
:104150000E9425230E94480B80E0DF91CF910895B3
:1041600089E2F6CF80919D03882321F085E30E94A8
:104170003C23F0CF89E2FBCF81E0EFCFCF93DF93F9
:10418000EC01FB018581882309F4D2C09E013057E0
:104190002332310508F0B2C00E94D30B9093B003D4
:1041A0008093AF03FE01E150F047E232F10520F4C5
:1041B000E958F34D0C948D2B8091AF03816080936F
:1041C000AF0393C08091B00388608093B0038DC02B
:1041D0008091AF038260F3CF8091AF038460EFCF13
:1041E0008091AF038860EBCF8091B0038160EDCF09
:1041F0008091B0038260E9CF8091AF038061DFCF0F
:104200008091AF038062DBCF8091AF038064D7CF12
:104210000E941F068091AF038068D1CF8091AF03C9
:104220008C60CDCF8091B0038360CFCF8091AF03FE
:104230008E7FC5CF8091B003877FC7CF8091AF03BA
:104240008D7FBDCF8091AF038B7FB9CF8091AF03BE
:10425000877FB5CF8091B0038E7FB7CF8091B003B9
:104260008D7FB3CF8091AF038F7EA9CF8091AF03B5
:104270008F7DA5CF8091AF038F7BA1CF0E941F06BA
:104280008091AF038F779BCF8091AF03837F97CFD0
:104290008091B0038C7F99CF8091AF0382FB9927E7
:1042A00090F921E0922790FB82F990FB83F987CF68
:1042B0008091B003982F909591708E7F892B90FB01
:1042C00081F983CF9091AF03892F8F7B96FF806414
:1042D00076CF0E941F069091AF03892F97FB87F935
:1042E00080586DCF81E00E945C0C8091AF0390916B
:1042F000B0030E94D80B0E941F0680E0DF91CF918F
:10430000089580E0F0CF9091AF03892F8F7E94FFC6
:10431000806155CF9091AF03892F8E7F90FF816090
:104320004ECF9091B003892F877F93FF88604DCF48
:1043300081E0E4CF0F931F93CF93DF93C42FD22F4D
:10434000FC0185818823C9F04093A0030E940F24BB
:1043500090939F0380939E0380E28C0F883040F4FB
:10436000C77081E001C0880FCA95EAF70E94E30395
:10437000DF91CF911F910F9108951091A003141315
:104380003CC080919E0390919F030E943824883CFA
:10439000910598F5C0E2CD0F1D1741F180E2810F24
:1043A000883040F4177081E001C0880F1A95EAF751
:1043B0000E94EA03C83020F0802F0E94DA03D8CF91
:1043C00091E08D2F877001C0990F8A95EAF7892FA8
:1043D0000E94E303802F0E94DA03D77081E001C0BE
:1043E000880FDA95EAF70E94EA03C2CF802F0E9475
:1043F000DA03C83008F0BCCFF0CF80E28C0F8830F1
:1044000008F0B6CFC77081E001C0880FCA95EAF7FF
:10441000EACF0F93FC01CB01E851FC47E730F105EF
:1044200090F5E756F34D0C948D2B06E221EE41EE0C
:104430006AE17CE70E949A2180E00F91089507E2EB
:1044400025EE45EE6BE17CE7F5CF06E221EE40EE8E
:1044500068E17CE7EFCF07E225EE44EE69E17CE717
:10446000E9CF06E221EE42EE6CE17CE7E3CF07E222
:1044700025EE46EE6DE17CE7DDCF08E221E045EE7A
:104480006EE17CE7D7CFFB01858181111092A003FB
:1044900081E0D3CF9093A2038093A1030895E0918C
:1044A000A103F091A203309729F00190F081E02D53
:1044B0000995089580E00895E091A103F091A20389
:1044C000309721F00280F381E02D09950895DC01F9
:1044D000E091A103F091A203309739F086E08C932C
:1044E0000480F581E02DCD010995089520910B02FE
:1044F00030910C022E5F3F4F80911F028823A9F05C
:104500008091AF0387FF11C02091090230910A0208
:104510002E5F3F4F9DE180E0F90140812F5F3F4FCB
:1045200041118F5F9150C0F7089595E0F4CF882333
:1045300021F190911F02992311F19091AF0397FF00
:104540001EC0982F969596959695803FB0F4E09171
:104550000902F0910A02E90FF11D228130E0877013
:1045600041E050E0BA0102C0660F771F8A95E2F77A
:104570002623372381E0232B91F480E008952091B6
:104580000B0230910C02F9013296285F3F4F919156
:10459000981721F0E217F307D1F7EFCF81E00895E4
:1045A0009C01FC0132968FEF90E04191461751F04B
:1045B0008F3F19F4411101C0892F9F5F9630A9F7F1
:1045C0008F3F09F40895280F311D87FD3A95F901B1
:1045D000628308959C01FC013296285F3F4F8191D0
:1045E000861303C0DF0111971C92E217F307B9F796
:1045F0000895FC01862F869586958695603F60F428
:10460000E80FF11D677021E030E001C0220F6A95CC
:10461000EAF78281822B82830895FC01862F86959A
:1046200086958695603F80F4E80FF11D677081E004
:1046300090E09C0102C0220F331F6A95E2F7B90196
:1046400060958281682362830895682F80911F029C
:10465000882359F08091AF0387FF07C0809109023A
:1046600090910A020E94F922089580910B02909184
:104670000C020E94D0220895682F80911F02882387
:1046800059F08091AF0387FF07C080910902909194
:104690000A020E940D23089580910B0290910C0252
:1046A0000E94EA22089580911F02882379F0809168
:1046B000AF0387FF0BC0E0910902F0910A02329626
:1046C0008EE1DF011D928A95E9F70895E0910B02D2
:1046D000F0910C02329686E0F4CF08950E946D238B
:1046E00008958F5F8093A3030E946E23089583E053
:1046F0008093A3030E946E2308950E94712308955E
:1047000081E08093A3030E946E2308950E9480237A
:104710000895089508950E948A230895089508959C
:104720000E9489230895CF930E948E230E94331004
:104730000E948F23C0E08C2F0E946A0F892B31F4D6
:10474000CF5FC530C1F780E0CF91089581E0FCCF05
:1047500085B7806885BF85B7806885BF08951F923B
:104760001FB61F9211248F939F93AF93BF93809195
:10477000A403811113C08091BD049091BE04A09147
:10478000BF04B091C0044196A11DB11D8093BD042A
:104790009093BE04A093BF04B093C004BF91AF91A7
:1047A0009F918F911F901FBE1F9018958091C504F7
:1047B000843031F10E9400031092A40388E190E05C
:1047C00020E40FB6F894A895809360000FBE209364
:1047D000600083B7817F846083BF83B7816083BFBC
:1047E0007894889583B78E7F83BF0FB6F894A89589
:1047F00080916000886180936000109260000FBE1D
:1048000008950E941F060E940A03089582E084BD55
:1048100093E095BD9AEF97BD80936E0008952FB7F2
:10482000F8948091BD049091BE04A091BF04B09112
:10483000C0042FBF0895A4E0B0E0E1E2F4E20C94DC
:10484000A32B8FB7F8942091BD043091BE04409102
:10485000BF045091C00429833A834B835C838FBF8C
:1048600069817A818B819C812496E2E00C94BF2B34
:104870009C014FB7F8948091BD049091BE04A09123
:10488000BF04B091C0044FBF821B930B0895A4E0F6
:10489000B0E0EDE4F4E20C94A12B462F572FBC01BD
:1048A0002FB7F8948091BD049091BE04A091BF04ED
:1048B000B091C0042FBF8C019D01041B150B260B6A
:1048C000370BC901B8012496E4E00C94BD2B789411
:1048D0001F921FB61F9211248F939F93AF93BF9384
:1048E0008091BD049091BE04A091BF04B091C0041A
:1048F0000196A11DB11D8093BD049093BE04A093A9
:10490000BF04B093C004BF91AF919F918F911F904E
:104910001FBE1F90189587E797E790930108809333
:10492000000888E19AE00FB6F894A895809360009B
:104930000FBE90936000FFCF88E19AE00FB6F89425
:10494000A895809360000FBE90936000FFCF809188
:10495000AD03089508950895282FCB01BA01309131
:10496000C5043430E1F42F702093E9002FEF30912B
:10497000E80035FD07C035ED3A95F1F7000021500C
:104980002111F5CF2091E80025FF09C040E050E05B
:104990000E94A2268091E8008E778093E800089517
:1049A000BC0140E250E082E00E94AC240895CF9325
:1049B000DF93D82FC92F48E050E0682F792F81E08E
:1049C0000E94AC2488E0ED2FFC2FA5EAB3E0019013
:1049D0000D928A95E1F7DF91CF9108958091C404FB
:1049E000811109C00E942A280E9487288091E20034
:1049F00084608093E20008951092C40408950E9498
:104A0000802308956091C10481E0611101C080E0BC
:104A10000E94772308959091C50481E0943009F0B5
:104A200080E06091C1040E947D23089542E061EC22
:104A300081E00E94A62742E261EC82E00E94A62764
:104A40009091C50481E0943009F080E06091C10448
:104A50000E94712308958091C704893089F148F438
:104A6000823009F4A0C0833009F45AC0813041F08B
:104A700008958A3009F487C08B3009F46CC008951A
:104A80008091C604813A09F04AC08091E800877F8E
:104A90008093E8008091CA049091CB04892B61F047
:104AA00060E080E090E070E00E94F1268091E800F4
:104AB0008B778093E800089568E085EA93E0F3CF70
:104AC0008091C604813259F58091CA049091CB043B
:104AD000029728F58091E800877F8093E800809115
:104AE000E80082FF18C09091F3008091F2000297D5
:104AF00031F48091F100813011F0863021F4809101
:104B0000F1008093AD038091E8008B778093E800FB
:104B10000E94DA2704C08091C5048111E0CF089576
:104B20008091C604813AD9F78091CA049091CB0450
:104B3000892BA9F78091E800877F8093E800809116
:104B4000E80080FFFCCF80911F028093F1008091EC
:104B5000E8008E77DBCF8091C604813201F7809127
:104B6000CA049091CB04892BD1F68091E800877F0D
:104B70008093E8000E94DA278091C80480931F0286
:104B80000E941F0608958091C604813241F68091EB
:104B9000E800877F8093E8000E94DA278091C904AB
:104BA0008093AE0308958091C604813A09F0B7CF8F
:104BB0008091E800877F8093E8008091E80080FF83
:104BC000FCCF8091AE03C1CF84B7877F84BF0FB67F
:104BD000F894A8958091600088618093600010929D
:104BE00060000FBE80E890E00FB6F89480936100FB
:104BF000909361000FBE0E94862308950E942A2888
:104C00000E948728E2EEF0E08081846080837894BF
:104C10000E940A2B089585E192E00E944A2208959D
:104C20008091C504853031F48091C504853019F038
:104C30000E94012408950E94D6230E949323882372
:104C400099F38091C304882379F30E948C260E94F3
:104C50001F06EACF08959A014091CC045091CD04EB
:104C60000E9433260895AC01CB01D901252F3327AB
:104C700023303105E1F058F421303105C9F12230FB
:104C80003105D9F180E090E020E030E01EC0213213
:104C9000310521F122323105A9F7892BC1F16130AB
:104CA000710581F78BE390E02DE333E00EC0CA017C
:104CB0009927413069F08230910569F0ECEEF2E01D
:104CC000892B01F7849190E09F012D933C930895E7
:104CD000EEEDF2E0F7CFE4ECF2E0F4CF892B91F0C7
:104CE0006130710579F689E090E02BE133E0EDCF9A
:104CF00082E190E02BE233E0E8CF8BE390E020EF1D
:104D000032E0E3CF89E090E022E033E0DECF84E4DC
:104D100090E028E733E0D9CF80E189BD82E189BD09
:104D200009B400FEFDCF8091D8008F7D8093D8001C
:104D30008091E00082608093E0008091E00081FD3E
:104D4000FCCF0895AF92BF92CF92DF92FF920F9364
:104D50001F93CF93DF936C01EB018A010E94F92727
:104D6000F82E811123C00115110539F0F801808159
:104D70009181C81BD90BC80ED91EA12CB12C20972C
:104D8000A9F08091E80085FD22C08091E8008E772F
:104D90008093E80001151105A1F0F801808191814F
:104DA0008A0D9B1D9183808385E0F82E8F2DDF91E6
:104DB000CF911F910F91FF90DF90CF90BF90AF9058
:104DC00008950E94F9278823E1F2F82EEFCFF6012B
:104DD00081916F018093F1002197FFEFAF1ABF0A15
:104DE000CECFFC019B018091CC049091CD0486171D
:104DF000970718F0672B61F0C90140E0009771F444
:104E000041110CC08091E80082FF35C080E0089518
:104E10008091E8008E778093E800EECF2091C50462
:104E20002223A9F12530A9F12091E80023FD2DC00E
:104E30002091E80022FDE6CF2091E80020FFDECFA0
:104E40003091F3002091F200009719F028303105DD
:104E500058F041E02830310509F040E02091E800A9
:104E60002E772093E800CACF41914093F10001973B
:104E70002F5F3F4FE9CF8091C504882341F08530F3
:104E800041F08091E80083FFBDCF81E0089582E08A
:104E9000089583E00895FC019B018091CC049091DA
:104EA000CD048617970718F0672B61F0C90140E021
:104EB000009771F441110CC08091E80082FF36C068
:104EC00080E008958091E8008E778093E800EECF2F
:104ED0002091C5042223B1F12530B1F12091E800E1
:104EE00023FD2EC02091E80022FDE6CF2091E800AE
:104EF00020FFDECF3091F3002091F200009719F0EF
:104F00002830310558F041E02830310509F040E003
:104F10002091E8002E772093E800CACF4491409377
:104F2000F100319601972F5F3F4FE8CF8091C50484
:104F3000882341F0853041F08091E80083FFBCCFA9
:104F400081E0089582E0089583E00895982F9730D6
:104F500028F08F708093E90081E008959093E90034
:104F6000242F762F50E0981731F07091EC002091AB
:104F7000ED005091F00021FD02C09F5FE8CF30911D
:104F8000EB003E7F3093EB003091ED003D7F30939E
:104F9000ED003091EB0031603093EB007093EC004A
:104FA0002093ED005093F0002091EE0027FDE5CF17
:104FB00080E008958091C60487FF13C08091E800C7
:104FC00082FF06C08091E8008B778093E80004C0E0
:104FD0008091C5048111F2CF08958091C504882382
:104FE000D9F38091E80080FFF8CF8091E8008E77B8
:104FF000ECCF2091E4003091E50095E6A901809185
:10500000EC008170882331F08091E80080FF06C0B9
:1050100080E008952091E80022FD1BC08091C50426
:10502000882391F0853091F08091EB0085FD10C0D0
:105030002091E4003091E5004217530701F39150AD
:105040009111DCCF84E0089582E0089583E0089513
:1050500081E008950E9499280E94A128E0EEF0E0E6
:10506000808181608083E8EDF0E080818F778083AC
:1050700019BCA7EDB0E08C918E7F8C9380818F7EE0
:1050800080831092C40408950F931F93CF93DF93EE
:105090000E9499280E94A128C8EDD0E088818F77CE
:1050A000888388818068888388818F7D888319BC04
:1050B0001092C5041092C1041092C3041092C2044D
:1050C00000EE10E0F80180818B7F80838881816011
:1050D000888342E060E080E00E94A627E1EEF0E0F5
:1050E00080818E7F8083E2EEF0E08081816080832A
:1050F000808188608083F80180818E7F80838881B1
:1051000080618883DF91CF911F910F910895E8ED21
:10511000F0E080818F7E8083E7EDF0E08081816028
:10512000808384E082BF81E08093C4040E9444288D
:105130000895E8EDF0E080818E7F80831092E20098
:1051400008951092DA001092E10008951F920F92D4
:105150000FB60F9211242F933F934F935F936F934A
:105160007F938F939F93AF93BF93EF93FF93809120
:10517000E10082FF0BC08091E20082FF07C08091B6
:10518000E1008B7F8093E1000E94092B8091DA007F
:1051900080FF19C08091D80080FF15C08091DA008F
:1051A0008E7F8093DA008091D90080FF94C080E1E7
:1051B00089BD82E189BD09B400FEFDCF81E0809305
:1051C000C5040E94EE248091E10080FF19C0809107
:1051D000E20080FF15C08091E2008E7F8093E200A4
:1051E0008091E20080618093E2008091D80080622B
:1051F0008093D80019BC85E08093C5040E940225E5
:105200008091E10084FF29C08091E20084FF25C0E5
:1052100080E189BD82E189BD09B400FEFDCF8091A6
:10522000D8008F7D8093D8008091E1008F7E80939D
:10523000E1008091E2008F7E8093E2008091E200A5
:1052400081608093E2008091C104882309F449C001
:1052500084E08093C5040E940B258091E10083FFC8
:1052600029C08091E20083FF25C08091E100877F03
:105270008093E10082E08093C5041092C104809184
:10528000E1008E7F8093E1008091E2008E7F809329
:10529000E2008091E20080618093E20042E060E001
:1052A00080E00E94A6278091F00088608093F00043
:1052B0000E94FF24FF91EF91BF91AF919F918F9139
:1052C0007F916F915F914F913F912F910F900FBE02
:1052D0000F901F90189519BC1092C5040E94FC24D1
:1052E00072CF8091E30087FF02C083E0B2CF81E0FC
:1052F000B0CF1F920F920FB60F921124FF920F930F
:105300001F932F933F934F935F936F937F938F934D
:105310009F93AF93BF93CF93DF93EF93FF9309EEE8
:1053200010E0F8018081C091EC00C795CC27C795AB
:105330008F70FC2EF82A1082C0EFD0E08881877F22
:10534000888378940E94C229F8011082888188603D
:105350008883CF2DCF70C083FF91EF91DF91CF91E4
:10536000BF91AF919F918F917F916F915F914F917D
:105370003F912F911F910F91FF900F900FBE0F90B3
:105380001F901895AAE2B0E0E8ECF9E20C94A22B89
:1053900086EC94E0FC0101962091F100208324E04A
:1053A0008E3C9207B9F70E942B258091E80083FF7D
:1053B00038C08091C6049091C7049A3090F5E92FC7
:1053C000F0E0E056F34D0C948D2B803889F0823854
:1053D00041F58091CA048F70873018F58093E900F9
:1053E0008091EB0085FB882780F91092E90006C0C8
:1053F0008091C2049091C304911182609091E80061
:10540000977F9093E8008093F1001092F1008091D3
:10541000E8008E7723C0811116C08091C8048130C6
:1054200011F18091E80083FF0AC08091E800877F36
:105430008093E8008091EB0080628093EB00AA9655
:10544000E3E00C94BE2B823061F78091C80488237E
:1054500089F01092E9008091E800877F8093E8004E
:105460000E94DA27DECF81E0933009F080E080935C
:10547000C304EFCF8091CA048F702FEF280F26301E
:1054800080F68093E9002091EB0020FFE2CF93307B
:1054900031F48091EB0080628093EB00DACF909141
:1054A000EB0090619093EB0021E030E0A90102C095
:1054B000440F551F8A95E2F74093EA001092EA00E4
:1054C0008091EB008860E8CF8111ABCF1091C804C8
:1054D0001F778091E3008078812B8093E300809197
:1054E000E800877F8093E8000E94DA278091E80037
:1054F00080FFFCCF8091E30080688093E30083E02D
:10550000111101C082E08093C5048BCF8058823096
:1055100008F087CF8091C8049091C9048C3D53E076
:10552000950799F583E08A838AE289834FB7F894D7
:10553000DE01139620E03EE051E2E32FF0E05093CD
:105540005700849120FF03C082958F703F5F8F705A
:105550008A30C8F0895C90E08D939D932F5F243151
:1055600061F74FBF8091E800877F8093E8006AE28F
:1055700070E0CE0101960E94F1268091E8008B77C1
:105580008093E8004ECF805DE6CF6091CA047091B1
:10559000CB04AE014F5F5F4F0E942B26BC01892BCD
:1055A00009F43FCF8091E800877F8093E8008981EC
:1055B0009A810E944B27E1CF803809F032CF809149
:1055C000E800877F8093E8008091C1048093F10018
:1055D0001ECF811126CF9091C804923008F021CFC0
:1055E0008091E800877F8093E8009093C1040E9437
:1055F000DA278091C104882331F084E08093C504C8
:105600000E9416250ECF8091E30087FDF6CF81E042
:10561000F5CF0895CF938091C504882399F08091A8
:10562000E900C091EC00C795CC27C7958F70C82BB7
:105630001092E9008091E80083FD0E94C229CF709A
:10564000C093E900CF910895AA1BBB1B51E107C08D
:10565000AA1FBB1FA617B70710F0A61BB70B881F02
:10566000991F5A95A9F780959095BC01CD01089591
:1056700097FB072E16F4009407D077FD09D00E94FF
:10568000242B07FC05D03EF4909581959F4F0895FB
:10569000709561957F4F0895A1E21A2EAA1BBB1B3E
:1056A000FD010DC0AA1FBB1FEE1FFF1FA217B307EE
:1056B000E407F50720F0A21BB30BE40BF50B661F04
:1056C000771F881F991F1A9469F7609570958095C8
:1056D00090959B01AC01BD01CF010895052E97FB6C
:1056E0001EF400940E94852B57FD07D00E944C2B7E
:1056F00007FC03D04EF40C94852B509540953095C3
:1057000021953F4F4F4F5F4F08959095809570952D
:1057100061957F4F8F4F9F4F0895EE0FFF1F0590AC
:10572000F491E02D09942F923F924F925F926F92E5
:105730007F928F929F92AF92BF92CF92DF92EF9221
:10574000FF920F931F93CF93DF93CDB7DEB7CA1BA2
:10575000DB0B0FB6F894DEBF0FBECDBF09942A88CD
:10576000398848885F846E847D848C849B84AA8475
:10577000B984C884DF80EE80FD800C811B81AA8102
:10578000B981CE0FD11D0FB6F894DEBF0FBECDBFCD
:10579000ED010895FB01DC0104C08D910190801999
:1057A00021F441505040C8F7881B990B0895FB0124
:1057B000DC0102C001900D9241505040D8F708958D
:1057C000DC0101C06D9341505040E0F70895DC01C9
:1057D000CB01FC01F999FECF06C0F2BDE1BDF89AFC
:1057E000319600B40D9241505040B8F70895F999A0
:1057F000FECF92BD81BDF89A992780B50895A8E1A2
:10580000B0E042E050E00C94E92BDC01A40FB51F9E
:105810004150504048F0CB01840F951F2E910E94BB
:10582000162C41505040D0F70895262FF999FECFFD
:1058300092BD81BDF89A019700B4021639F01FBAE3
:1058400020BD0FB6F894FA9AF99A0FBE0895039600
:10585000272F0E94162C0E94152C252F0E94162CF3
:10586000242F0C94162C0196272F0E94162C0C9492
:10587000152CF894FFCF8C1CA51CB91CBE1CC31C96
:10588000C81CCD1CD21CD71CDC1CE11CE61CEB1C6C
:10589000F01CF51CFA1CFF1C041D091D0E1D131D18
:1058A000181D1D1D221D271D2C1D311D361D3B1DC4
:1058B000401D451D4A1D4F1D541D591D5E1D631D74
:1058C000681D6D1DFC1F03200A200F2014201920C5
:1058D0001E20232028202D20322037203B203D2051
:1058E0003F20FE1FFE1FFE1FFE1FFE1FFE1F162174
:1058F0008A211E21E820EC202221F02026213221BD
:10590000FC2083210021362104213A216221082133
:105910003E2169210E2144214C21F4202A21F82026
:105920002E2112214821582172218121E2201A21A1
:10593000912125222B2215221F22312237223D229E
:10594000E5290B2A112A0B2A112A642A862A112AF0
:04595000DC2AE92A3A
:10595400000102030405060708090A0B0C0D0E0FCB
:10596400101112131415161718191A1B1C1D1E1FBB
:10597400202122232425262728FF292A2B2C2D2EDB
:105984002F3031323334FFFF353637FFFF3CFFFF12
:105994003D3E3F40FFFF060000002C00390045005B
:1059A4005800650072007E0091009E00AA00B700B6
:1059B400C700000D0F0D1E0D2D0D3C0D4B0D5A0D86
:1059C400690D6E0D7D0D8C0D9B0DA00DAF0D091A8B
:1059D400191A261A321A3F1A4C1A581A651A721AC8
:1059E4007E1A8B1A971AA41A0B261C2629263626E9
:1059F40042264F265B266826752681268E269B2600
:105A040023332F333C3349334933493349334933FF
:105A1400553362336E337B3301010101010101010E
:105A24000101010101010101010101010101010162
:105A34000101010101010101010101010101010152
:105A44000101010101010101010101010101010142
:105A5400010101010101010101E20202030300FF4E
:105A640000FFFF3905A724D724D024AB24AA24019E
:105A740000FFB4F03233663634979694959392913E
:105A84009030313767F7003131295A1B750ADA1F14
:065A9400931FB41FCD1F9B
:00000001FF
