:100000000C94A2020C94BF020C94BF020C94BF0289
:100010000C94BF020C94BF020C94BF020C94BF025C
:100020000C94BF020C94BF020C944B280C943329FF
:100030000C9400280C94BF020C94BF020C94BF02D5
:100040000C94BF020C94BF020C94BF020C94BF022C
:100050000C94BF020C9427280C94BF020C94BF028E
:100060000C94BF020C94BF020C94BF020C94BF020C
:100070000C94BF020C94BF020C94BF020C94BF02FC
:100080000C94BF020C94BF020C94BF020C94BF02EC
:100090000C94BF020C94BF020C94BF020C94BF02DC
:1000A0000C94BF020C94BF020C94BF020501090618
:1000B000A1018506050719E029E715002501950826
:1000C000750181020507190029EF1500250195F03A
:1000D000750181020508190129059505750191022F
:1000E000950175039101C00660FF0961A1010962D4
:1000F000150026FF0095207508810209631500266A
:10010000FF00952075089102C005010906A10105AF
:100110000719E029E7150025019508750181029569
:1001200001750881010507190029FF150026FF0048
:100130009506750881000508190129051500250196
:10014000950575019102950175039101C009025B46
:1001500000030100A0FA09040000010301010009E5
:100160002111010001224400070581030800010953
:1001700004010002030000000921110100012222F4
:100180000007058203200001070503032000010981
:100190000402000103000000092111010001223BBB
:1001A000000705840320000112010002000000087E
:1001B000604A604A00010102000122036D006100F3
:1001C0006F005F00310034005F00440053003600D0
:1001D00030005F0061006E007300690000000C03D6
:1001E00043005A004D0041004F0000000403090481
:1001F00029001E001F0020002100220023002400EF
:100200002500260027002D002E002A002B001400B8
:100210001A000800150017001C0018000C0012003E
:1002200013002F00300031003900040016000700D1
:1002300009000A000B000D000E000F00330034000F
:1002400028000000E1001D001B0006001900050049
:1002500011001000360037003800E50000000000F3
:10026000E000E300E200000000002C0000000000BD
:10027000E60065002152E4000000000035003A006D
:100280003B003C003D003E003F004000410042007A
:100290004300440045004C000100010052000100F1
:1002A0000100010001000100010046004700480074
:1002B000010001000100500051004F000100010049
:1002C00001000100010049004A004B00010000004C
:1002D00001000100010001000100010001004C00CB
:1002E0004D004E000100010000000000010001006F
:1002F000597C0000000001000000000001002252B3
:1003000001000100000000000100010001000100E7
:1003100001000100010001000100010001000100D5
:100320000100010001000100520001000100010074
:1003300001000100010001000100010001000100B5
:100340000100010001002178237825782778297899
:1003500001000100010001000100000001002078FF
:1003600021782478267828782A7801000100010075
:100370000100010000000000010001000100000078
:100380000000010000000000010001000100010068
:100390000000000000010101010101010101020250
:1003A0000202020202020203030303030303030423
:1003B00004040404040405050505050606060606EE
:1003C000070707070708080808090909090A0A0AA8
:1003D0000B0B0B0C0C0C0D0D0D0E0E0E0F0F0F104A
:1003E00010111111121213131414151516161717D4
:1003F000181819191A1A1B1B1C1D1D1E1E1F202040
:10040000212222232424252626272829292A2B2C89
:100410002D2D2E2F30313232333435363738393AAC
:100420003B3C3D3E3F404142434445464748494AA4
:100430004C4D4E4F50515354555658595A5B5D5E72
:100440005F616264656668696B6C6D6F707273750D
:1004500077787A7B7D7E8082838587888A8C8E8F71
:1004600091939596989A9C9EA0A2A3A5A7A9ABAD9F
:10047000AFB1B3B5B7BABCBEC0C2C4C6C9CBCDCF8D
:10048000D1D4D6D8DBDDDFE2E4E7E9EBEEF0F3F53B
:10049000F8FAFDFF0000000000000000000000006E
:1004A000000000000000000000000000000000004C
:1004B00000000000000000007E0F00D4FFFFFFC717
:1004C0000000007800000000000000002A2B280037
:1004D00000000000000000000000000000000029F3
:1004E000000000002C1E3420212224342627252E33
:1004F000362D3738271E1F2021222324252633336B
:10050000362E37381F0405060708090A0B0C0D0E96
:100510000F101112131415161718191A1B1C1D2F62
:100520003130232D350405060708090A0B0C0D0E82
:100530000F101112131415161718191A1B1C1D2F42
:100540003130354C11241FBECFEFDAE0DEBFCDBF16
:1005500012E0A0E0B1E0ECE4F6E502C005900D92F7
:10056000AE34B107D9F724E0AEE4B2E001C01D9289
:10057000AA3BB207E1F70E94E6220C94982A0C9459
:100580000000982F82958F70882311F0982F84E0B7
:10059000292F26952695222311F08E5F922F96956E
:1005A00091118F5F0895809373040895809374046C
:1005B000089521E030E001C0220F8A95EAF780918A
:1005C0007404822B0E94D602089521E030E0A90134
:1005D00002C0440F551F8A95E2F7CA018095909199
:1005E000740489230E94D6020895292F953098F526
:1005F0008E3088F590E03EE0239F800D911D112400
:10060000282F277041E001C0440F2A95EAF723E024
:10061000969587952A95E1F7FC01EE0FFF1FE80FED
:10062000F91FED5AFB4F20E030E070E05191DF01FF
:100630001197CB01022E02C0969587950A94E2F796
:10064000817081958527842385278C932F5F3F4F69
:100650002330310559F70895292F953078F58E30DC
:1006600068F590E03EE0239F800D911D1124682FD6
:10067000677023E0969587952A95E1F7FC01EE0FC8
:10068000FF1FE80FF91FED5AFB4F40E050E080E0FC
:10069000219130E0062E02C0369527950A94E2F7A4
:1006A00021703327042E01C0220F0A94EAF7822B0F
:1006B0004F5F5F4F4330510559F7089580E008952B
:1006C0009091740421E030E0F90101C0EE0F8A95A9
:1006D000EAF7D90102C0AA0FBB1F6A95E2F7EA2B1D
:1006E00001C0220F4A95EAF7892F8E23E81305C02F
:1006F000892F822B0E94D60208952095822F89236C
:10070000F9CF80917A0490917904981301C00895EB
:100710008F5F8770FACF90917504809589238093BD
:100720007504282F277021110DC0891759F0909159
:10073000770492FF07C08695869586950E94E5020C
:100740001092750408958091700490917804892B1B
:10075000509171045523C1F0909116019130A9F484
:100760009091760497FF11C09DE12AE532E040E0C8
:10077000F90160812F5F3F4F61114F5F9150C0F7CA
:10078000411110927104852B089595E022E532E025
:10079000EECF982F909580917004892380937004F8
:1007A0000895803E9105D1F1C8F48133910509F493
:1007B0007FC048F48932910509F46FC08A329105EF
:1007C00009F47DC0089589339105E1F082389105DF
:1007D000C9F08533910509F45BC00895843E910505
:1007E000D1F148F4823E910531F1833E910541F10A
:1007F00081EE90E00895863E9105C1F1873E910516
:10080000E1F10895209176042370211165C02091B3
:10081000770423FF14C089E290E0089520917604C4
:1008200020FD43C03091770430FF09C024FF4EC043
:1008300080E090E008952091760422FDF7CF08959E
:100840002091760422FD45C03091770430FD44C0EC
:1008500024FFF5CFEDCF2091770421FFF0CF8091D9
:10086000760484FDE5CF87EE90E00895209176042C
:1008700023FFE5CF24FDDCCFF6CF2091760423FDC6
:100880002EC03091770431FFE3CF84EE90E00895DD
:100890002091760425FFD3CFBECF2091760425FD8D
:1008A00021C02091770423FFCACF89E390E0089507
:1008B0002091760426FFC3CF8AE290E0089520912C
:1008C000760426FFBCCF81E390E0089583EE90E0AC
:1008D000089582EE90E0089580EE90E0089586EE0F
:1008E00090E0089585E390E0AACF9091760492FF7E
:1008F00010C041E0282F2471243009F040E031E09D
:10090000282F2871283009F030E0431711F02CE02F
:10091000822793FF10C041E0282F2471243109F071
:1009200040E031E0282F2871283109F030E04317EA
:1009300011F02CE082273091770430FF10C051E095
:10094000282F2171213009F050E041E0282F287133
:10095000283009F040E0541711F029E0822731FFD8
:1009600010C041E0282F2171213109F040E031E031
:10097000282F2871283109F030E0431711F029E0C1
:10098000822794FD877E08951F93CF93DF930E9463
:10099000D103EC01811522E5920708F04DC08115C5
:1009A00040E5940708F0C5C0883E910588F08115A0
:1009B00050E4950728F199270E94D103CC27DF70D6
:1009C000C82BD92BD06ACE01DF91CF911F9108950A
:1009D000803E9105C0F7853A910550F4049798F749
:1009E00081E0219709F080E0C82F80E0D82FEBCF7D
:1009F0008D5C9109D065439730F3C0E0D0E0E3CF40
:100A0000C11590E2D90708F0ADC0CE019A958115C5
:100A10009F4198F78D2F0E947504182FCE019927BA
:100A20000E94D103212F30E0322F2227E901CC2769
:100A3000DF71C82BD92BC7CF803842E59407C0F5AA
:100A4000803652E5950708F055C0C03482E5D807D6
:100A5000B0F08C2F86958695877020E2829FC0012A
:100A60001124C37021E030E0A90102C0440F551FDA
:100A7000CA95E2F7EA01C82BD92BDC68A4CFC032B3
:100A800052E5D50780F58C2F8695869520E2829FCA
:100A9000C0011124C37021E030E0A90102C0440F5D
:100AA000551FCA95E2F7EA01C82BD92BDD688BCF19
:100AB000803C52E5950758F48F71C03AD24578F5DD
:100AC00090E0982F8827EC01C46FD06A7CCF805CBF
:100AD0009245809708F091CFDC2FCC27CC27DF718F
:100AE000C06FD06A70CFCF71D0E0DC2FCC27C16F40
:100AF000D06A69CF86958695877020E2829FC00173
:100B00001124C37021E030E0A90102C0440F551F39
:100B1000CA95E2F7EA01C82BD92BDA6854CF0E94B4
:100B20007504C82FD0E0DC2FCC27CC27DF71D06232
:100B30004ACF8F710E94750465E0D695C7956A9576
:100B4000E1F7CF70D0E0DC2FCC27282F30E084FFF6
:100B500005C054E0220F331F5A95E1F7C22BD32B67
:100B6000D06931CF8D2F8F710E947504182FCE015F
:100B700099270E94D103212F30E0322F22272227EC
:100B80003F71282B392BE901D2CF80E00895F894EA
:100B9000E82FE295EF70F0E041A18F7021E030E0A6
:100BA000B90102C0660F771F8A95E2F7CB01962F35
:100BB0009095942391A392A1892B82A37894089570
:100BC000A0E0B0E0E6EEF5E00C94DA29E82FF0E0E2
:100BD000EC56FC4F711109C0E4918E2F7E2F6E2FC1
:100BE000CDB7DEB7E8E00C94F629262F30E0C72F0A
:100BF000D0E0F491EF2F86E0829F8001839F100D5B
:100C00001124EE24EA94F12CC801B7010E947C293A
:100C1000AB01220F331F65E5649FC001659F900DF6
:100C20001124281B390B822F880F280FC7018C1B1A
:100C30009D0BF89FD001F99FB00D11248B2F2C9F95
:100C4000B0012D9F700D1124672F77276701C61AF9
:100C5000D70AB601F69F6001F79FD00C1124B701A7
:100C6000621B71099B012C9FB0012D9F700D3C9F51
:100C7000700D1124672F77279701261B370BF29FE2
:100C8000E001F39FD00D11247D2F43305105C9F0B1
:100C90000C3F93E0190758F441305105B1F0423050
:100CA000510509F09CCFEB2F8D2F7F2F98CF44302B
:100CB000510571F04630510509F491CF7B2F8D2DF0
:100CC0008ECF7D2DEB2F8F2F8ACF7F2FED2D87CFCE
:100CD000ED2F7B2FF8CF9C0180E090E0269F812DA7
:100CE000369F800D911D112408959C01823091053D
:100CF00008F408959FEF213E8EE1380740F4C901C2
:100D000045E0969587954A95E1F798E0980F61E060
:100D1000E62FE90FFF27FF1FAF0155954795842F59
:100D2000449FF001459FF00DF00D11242E173F0751
:100D300038F49FEF940F961758F78FEF860F0895AA
:100D40004F3FE9F361E0640FF6CF40910501509108
:100D5000060125E038E0429FC001439F900D529F5D
:100D6000900D1124875E994C9093060180930501A4
:100D7000890F0895982FE82F96FDE0958E2F8F709C
:100D800096FD8F5FE695E695E695E670F0E0E65D08
:100D9000FE4F2181289F202D812D112422952F7017
:100DA0008295807F282B8081820F97FD81958058C6
:100DB0000895FC019B01009719F4832F8078089512
:100DC000AC0197FF04C044275527481B590BB901B4
:100DD000640F751F37FD0FC0C901841B950BA5E07B
:100DE000880F991FAA95E1F70E94902980E2861B3F
:100DF000F7FD81950895CB0165E0880F991F6A95ED
:100E0000E1F7BA01621B730B0E94902980E6EFCFD5
:100E10001F93CF93DF93D62FC72F182F822F86953E
:100E20000E94BA06805887FD8195880F282F219F40
:100E3000212D1124822F6D2F7C2FDF91CF911F91B7
:100E400008951F93172F922FE42FF0E0EE0FFF1F4E
:100E5000E557FE4F408124EE429F412D1124E72F9C
:100E6000F0E050E09A01245E3F4F291B310937FF23
:100E700003C031952195310993E0220F331F9A95D4
:100E8000E1F7E21BF30BF7FF02C0E0E0F0E07E2F9A
:100E9000719F712D11241F9108951F93182F822F78
:100EA000E42FF0E0EE0FFF1FE557FE4F408124EEE8
:100EB000429F412D1124E12FF0E050E09A01245E81
:100EC0003F4F281B310937FF03C031952195310968
:100ED00083E0220F331F8A95E1F7CF01821B930B2A
:100EE0009C0197FF02C020E030E0219F212D1124BA
:100EF000822F1F9108950F931F93CF93DF93D62FC7
:100F0000172FC82FBA01C901212F201B022F0E94C1
:100F1000D906982F990F990F782F791B700F719F11
:100F2000712D11246D2F8C2FDF91CF911F910F9177
:100F30000895FF920F931F93CF93DF93D62FC72F60
:100F4000182FBA01C901F12EF01A0E94D906982F64
:100F5000990F990F082F091B0F0D019F012D1124C7
:100F60006D2F7C2F802FCDB7DEB7E5E00C94F929EB
:100F7000EF920F931F93CF93DF93D62F172FC82F86
:100F8000BA01C9010E19010F0E94D906702F781BF2
:100F9000719F712D11246D2F8C2FDF91CF911F9197
:100FA0000F91EF900895EF920F931F93CF93DF93DC
:100FB000D62FC72F182FBA01C9010E19010F0E9491
:100FC000D906081B019F012D11246D2F7C2F802F26
:100FD000DF91CF911F910F91EF900895622F0895A7
:100FE000E42FF0E0EE0FFF1FE557FE4F6081621B1C
:100FF0000895E42FF0E0EE0FFF1FE457FE4F6081ED
:10100000621B0895322F50E0FA01EE0FFF1FE457E4
:10101000FE4F9081905297FD9195440F551FFA0114
:10102000E557FE4F2081231B330B290F311D97FD00
:101030003A95620F0895EF920F931F9310E0980175
:10104000220F331F200F311F359527956E2D620F0C
:101050001F910F91EF9008950F93CF93DF93D72FA8
:10106000C82FB90147FD419528E330E0241B310921
:1010700047FD3395229FA001239F500D500D112451
:10108000669FC001679F900D900D1124840F951FDE
:101090000E947506982F990F692F680F600F7D2F9A
:1010A0008C2FDF91CF910F9108950F93CF93DF9302
:1010B000D72FC82FBA01C9010E94D906682F600F27
:1010C0007D2F8C2FDF91CF910F910895EF920F9389
:1010D000CF93DF93D72FC82FBA01C9010E190E94F1
:1010E000D906602F681B7D2F8C2FDF91CF910F9138
:1010F000EF9008950F931F93522F10E0F801EE0F19
:10110000FF1FE457FE4FA081A052BB0B9D0152036D
:10111000F001539FF00D1124000F111FD801A557A6
:10112000BE4F2C912057330B4203D001439FB00D8B
:1011300011249F012A0F3B1F37FF02C021583F4F48
:10114000220F232F221F330B620F1F910F9108953F
:101150000F931F93522F10E0F801EE0FFF1FE4577B
:10116000FE4FA081A052BB0B9D015203F001539F83
:10117000F00D1124000F111FD801A557BE4F2C915F
:101180002057330B4203D001439FB00D11249F0120
:101190002A0F3B1F37FF02C0215C3F4F96E0359579
:1011A00027959A95E1F7620F1F910F9108950F937C
:1011B0001F93A42F10E0F801EE0FFF1FE557FE4F1D
:1011C0009081905797FD9195000F111FF801E457FA
:1011D000FE4F00810052110B2003A001219F500DF2
:1011E000112428E330E0291B310997FD33951A2F8C
:1011F0001203F001139FF00D11244E0F5F1F9A018F
:10120000220F331F240F351F37FF02C021583F4FD5
:10121000220F232F221F330B620F1F910F9108956E
:101220000F931F93CF93DF93D62F072F182FC42F21
:10123000822F0E94BA06982FEC2FF0E0EE0FFF1FCE
:10124000E557FE4F80818058980F97FD9195990F33
:10125000292F3CE0239F212D1124622F6D0F702F29
:10126000812FDF91CF911F910F910895E42FF0E02E
:10127000EE0FFF1FE557FE4F9081921B97FD919552
:10128000292F38E1239F212D1124620F08954095C5
:10129000282F429F412D1124842F0895409520E44A
:1012A000429F412D1124640F0895EF92FF920F93F6
:1012B000970195E0099F200D311D11242F3F310525
:1012C00019F010F02FEF30E02095382F320F08F48E
:1012D0003FEF832F0F91FF90EF900895EF92FF92D1
:1012E0000F93E00EF11CF90137FF03C0F195E19572
:1012F000F10924E0EE0FFF1F2A95E1F7EF3FF1051A
:1013000019F014F0EFEFF0E09A0157FF03C03195A8
:101310002195310994E0220F331F9A95E1F72E179A
:101320003F070CF4F901EE0DFF1DEF3FF10519F039
:1013300010F0EFEFF0E02E2F2095382F320F08F449
:101340003FEF832F0F91FF90EF900895EF92FF9260
:101350000F93972FFA01B9019701093430F4201B3C
:1013600031092F3F310519F010F02FEF30E038969A
:10137000719740F0AB01485F5F4F4131510510F06C
:101380002FEF30E02095382F320F08F43FEF832FF6
:1013900077FF02C06D5F7F4F75956795759567956F
:1013A00020911504620F792F0F91FF90EF9008950F
:1013B000EF92FF920F939701201B31092F3F3105C8
:1013C00019F010F02FEF30E0322F3095482F430FF7
:1013D00008F44FEF842F620F0F91FF90EF90089564
:1013E000EF92FF920F939701201B31092F3F310598
:1013F00019F010F02FEF30E02095382F320F08F45D
:101400003FEF832F0F91FF90EF90089590916C0321
:10141000982B90936C0308950E94F10A08950E94FE
:10142000FC0A08959DE0899F802D1124980F923425
:1014300008F091E40895E4E1F4E0908121E092273E
:101440009083109211010E94060A0895809114045D
:101450008370811102C010921101809114048C7F5D
:101460008160809314040895809114048370811125
:1014700010921101809114048C7F809314040895BC
:10148000982F862F209114042370222389F099230A
:1014900081F0973280F49F73990F990F2091140473
:1014A0002370922B90931404109211010E94060A4B
:1014B000089591E0F1CF96E2EFCF809114048695E4
:1014C00086958F5F873208F081E061E00E94400AD4
:1014D000089590911404969596958FEF890F913009
:1014E00009F486E261E00E94400A0895982F822F55
:1014F000209114042370222359F0909315046093D3
:101500001604453B08F044EB409317040E94060A7A
:101510000895E4E1F4E0818190E021E0438162817B
:1015200008960E94760A0895E4E1F4E0818121E0C2
:10153000438162818850990B0E94760A0895E4E104
:10154000F4E0628120E1620F08F46FEF818121E015
:10155000438190E00E94760A0895E4E1F4E062811C
:1015600020E1621B08F460E0818121E0438190E08A
:101570000E94760A0895E4E1F4E0438120E1420FFD
:1015800008F44FEF818121E0628190E00E94760AA9
:101590000895E4E1F4E0438120E1421B08F440E0D7
:1015A000818121E0628190E00E94760A0895E4E161
:1015B000F4E0248130E1230F08F42FEF248381E04D
:1015C0000E94060A0895E4E1F4E0248130E1231B3F
:1015D00008F420E0248381E00E94060A0895259AF9
:1015E0000895FC01EE0FFF1FE80FF91FE057FD4FB4
:1015F0006183408322830895FF920F931F93CF93BB
:10160000DF93182F062FF42EC0E0D0E02F2D402FAF
:10161000612FCE010E94F10A2196C134D105B1F7A4
:10162000CDB7DEB7E5E00C94F929E0914904F091DB
:101630004A04309729F00190F081E02D0995089532
:1016400080E00895909116019130C1F49091760454
:1016500097FF14C0E82FE695E695E695803FF8F4ED
:10166000F0E0E85AFD4F877021E030E001C0220F22
:101670008A95EAF78281822B82830895A2E5B2E0FF
:10168000EFEF90E02D91821751F0EF3F19F4211107
:1016900001C0E92F9F5F9630A9F7EF3F09F4089545
:1016A0000E2E000CFF0BE05BFD4FE6CF9091160174
:1016B0009130E1F49091760497FF18C0E82FE695F9
:1016C000E695E695803FF0F4F0E0E85AFD4F87702C
:1016D00021E030E0A90102C0440F551F8A95E2F7CE
:1016E000CA0180959281892382830895E2E5F2E020
:1016F0009191891303C0DF0111971C9252E0E835E4
:10170000F507B1F708958091150108952FB7F89462
:101710008091570390915803A0915903B0915A03B7
:101720002FBF0895A4E0B0E0E8E9FBE00C94E029C5
:101730008FB7F89420915703309158034091590383
:1017400050915A0329833A834B835C838FBF69810D
:101750007A818B819C812496E2E00C94FC299C0187
:101760004FB7F8948091570390915803A091590373
:10177000B0915A034FBF821B930B089587E797E7F9
:10178000909301088093000888E19AE00FB6F894DE
:10179000A895809360000FBE90936000FFCF0895DE
:1017A0000895FC019B018091860290918702861723
:1017B000970740F0672B29F48091E8008E7780939B
:1017C000E800C90140E0009741F4411106C0809152
:1017D000E80082FF2FC080E0089520912604222394
:1017E000A9F12530A9F12091E80023FD2DC0209119
:1017F000E80022FDECCF2091E80020FFE4CF3091FB
:10180000F3002091F200009719F02830310558F0CC
:1018100041E02830310509F040E02091E8002E77C2
:101820002093E800D0CF41914093F10001972F5FC2
:101830003F4FE9CF80912604882341F0853041F065
:101840008091E80083FFC3CF81E0089582E008958E
:1018500083E008958091800287FF13C08091E800A3
:1018600082FF06C08091E8008B778093E80004C077
:10187000809126048111F2CF089580912604882357
:10188000D9F38091E80080FFF8CF8091E8008E774F
:10189000ECCF2091E4003091E50095E6A90180911C
:1018A000EC008170882331F08091E80080FF06C051
:1018B00080E008952091E80022FD1BC0809126045D
:1018C000882391F0853091F08091EB0085FD10C068
:1018D0002091E4003091E5004217530701F3915045
:1018E0009111DCCF84E0089582E0089583E00895AB
:1018F00081E00895E8EDF0E080818E7F8083109292
:10190000E2001092DA001092E100A0EEB0E08C91BB
:1019100081608C9380818F77808319BCA7EDB0E0C4
:101920008C918E7F8C9380818F7E808310927F023A
:101930000895AF92BF92DF92EF92FF920F931F93A1
:10194000CF93DF935C01809102010E94120AC82F9D
:10195000192F60911804669580915E0390915F0342
:101960000E946B06D82ED0E0CE01880F991F9C01F3
:1019700025573E4F7901C11770F081E0113408F00E
:1019800080E0DF91CF911F910F91FF90EF90DF905A
:10199000BF90AF900895FE01E35FFD4F808190916D
:1019A000030189238823B9F0F70121812052330BE9
:1019B00040814057550B6091150470911604809139
:1019C00017040D2DF50109950E94E005472F282FDA
:1019D000CE010E940C0AF2E0EF0EF11C2196CBCF53
:1019E000A0E0B0E0E6EFFCE00C94D4293C0180914B
:1019F00002010E94120AC82F192F609118046695DF
:101A000080915E0390915F030E946B06F82ED0E0F8
:101A1000CE01880F991F9C0125573E4F6901C117C0
:101A200048F081E0113408F080E0CDB7DEB7EEE099
:101A30000C94F029FE01E35FFD4F8081909103013A
:101A40008923882371F1F6018081282F2057330BD9
:101A500059018181E82FE052FF0B4F01AA9C9001B0
:101A6000AB9C300D300D1124EE9FC001EF9F900D07
:101A7000900D1124820F931F0E947506082F60910C
:101A800015047091160480911704EF2C9401A501A0
:101A9000F30109950E94E005472F282FCE010E94EF
:101AA0000C0AF2E0CF0ED11C2196B9CFA4E0B0E031
:101AB000ECE5FDE00C94DA296C01809102010E94B2
:101AC000120A8B83F92E60911804669566958091B1
:101AD0005E0390915F030E946B06182F80E4810FD4
:101AE0000E94BA0680588983812F0E94BA068058C6
:101AF0008A839B81892F90E09C838B839B819F1598
:101B000048F081E0E0E4EF1508F480E02496E8E096
:101B10000C94F629EB81FC81E35FFD4F808190916D
:101B2000030189238823A1F06091150470911604A4
:101B300080911704E12E0B812A814981F6010995D4
:101B40000E94E005472F282F8B819C810E940C0A60
:101B50008B819C810196D0CFA0E0B0E0E2EBFDE06C
:101B60000C94DB29EC01FC01E35FFD4F8081909137
:101B700003018923882341F1D090160400911704B2
:101B800010911504E12EF12C0E94A506482FC701E3
:101B90008C549F4F68E671E00E9490298E199F092E
:101BA00097FD039695958795959587954370612F39
:101BB000489F600D11247D2D802F0E94E005472F46
:101BC000282FCE010E940C0ACDB7DEB7E7E00C94B7
:101BD000F7291F93CF93DF93C82FD0E0FE01E35F77
:101BE000FD4F80819091030189238823A9F00E94F1
:101BF000A506182F0E94A50620E8829FC001112487
:101C00007FE7790F612F809117040E94E005472F2D
:101C1000282FCE010E940C0ADF91CF911F910895C9
:101C2000EF92FF920F931F93CF93DF937C018091EC
:101C300002010E94120AC82F192F6091180466959C
:101C4000669521E0620F08F46FEF80915E0390913A
:101C50005F030E946B06082FD0E0C11748F081E0B7
:101C6000113408F080E0CDB7DEB7E6E00C94F82937
:101C7000FE01E35FFD4F808190910301892388235A
:101C800089F0609115047091160480911704202F3B
:101C90004C2FF70109950E94E005472F282FCE0110
:101CA0000E940C0A2196D9CFA0E0B0E0EAE5FEE060
:101CB0000C94D9298C01809102010E94120AC82F2C
:101CC000D92E2091180431E0230F08F42FEF30E0D3
:101CD00040E050E06FEF7FEF80E090E00E94A429A9
:101CE0007901D0E0C22EBF2C2C2FCD1550F081E011
:101CF000F0E4FD1508F480E0CDB7DEB7E9E00C9420
:101D0000F529FE01E35FFD4F808190910301892356
:101D1000882311F140916D034150042E000C550BA6
:101D200047FF1CC08C2D9B2D6091180421E0620F91
:101D300008F46FEF0E946B06AC016091150470917E
:101D4000160480911704F80109950E94E005472FB9
:101D5000282FCE010E940C0A2196C6CFFA01E35922
:101D6000FC4F818982130AC0FA01EE0FFF1FE3596D
:101D7000FC4F818D928D8E159F05B0F24150510917
:101D8000CFCFA8E0B0E0E7ECFEE00C94D029282EFD
:101D900069837A83809102010E94120A9B832091B9
:101DA0006D032C83E82FF0E0F887EF83CF01880FD5
:101DB000991F9C0125573E4F6901822D90E0FC013F
:101DC0003196FE83ED838B819F81981748F081E0E7
:101DD000EB81E13408F080E02896E2E10C94EC29F4
:101DE000EF81F885E35FFD4F8081909103018923A6
:101DF0008823E9F040901504509016042D813E810F
:101E000023593C4F3901322C10E0FC813F16C8F0B9
:101E100020911704129F112D1124B201812F0E94CD
:101E2000E005472F282F8F8198850E940C0A2F816B
:101E300038852F5F3F4F38872F8332E0C30ED11C88
:101E4000C2CFF30181913F01F601A080A81ABB081F
:101E50008180F3018781881A9908AA9C9001AB9C24
:101E6000300D300D1124889CC001899C900D900D7F
:101E70001124820F931F0E947506082F6091180489
:101E800021E0620F08F46FEFF301EE0FFF1FED5634
:101E9000F340858996890E946B067C019401A50117
:101EA000B201812FE981FA8109952B01182F339412
:101EB000ACCF982FE42FE2709093E900891308C00B
:101EC000762F242F50E0E11111C091E0980FF4CF4C
:101ED0007091EC002091ED005091F00021FD06C0C2
:101EE0009F5F973049F78093E90008953091EB00A8
:101EF0003E7F3093EB003091ED003D7F3093ED005D
:101F00003091EB0031603093EB007093EC00209344
:101F1000ED005093F0002091EE0027FDE1CF0895F1
:101F2000A0E0B0E0E6E9FFE00C94DA29C8EDD0E0EB
:101F300088818F7E8883E7EDF0E0808181608083F7
:101F400084E082BF81E080937F0288818E7F8883D6
:101F500002EE10E0F80110821092DA0081EEC82E35
:101F6000D12CF601108288818F77888388818068E0
:101F7000888388818F7D888319BC109226041092F3
:101F80007E021092980310927D0290EEE92EF12CC1
:101F9000F70180818B7F808388818160888342E024
:101FA00060E080E00E94590FF60180818E7F80837F
:101FB000F801808181608083808188608083F7015F
:101FC00080818E7F8083888180618883CDB7DEB7F2
:101FD000E8E00C94F629E0917A049091790427E0E6
:101FE000E91302C080E00895AE2FB0E02E9FF0010B
:101FF0001124E558FB4F3181361306C03081381368
:1020000003C03581341304C0FD013196E770E8CF79
:1020100081E0089535B13F7D25B120624FB7F89436
:1020200080E992E0FC010196508168E025B900004A
:1020300000C057FF35B9550F000000C000C000C0F8
:1020400035B900C06A9591F753E08335950751F78C
:102050004FBF8FE594E00197F1F700C000000895AD
:102060000F931F93CF93DF93EB018A019091260486
:10207000943079F58093E9008FEF9091E80095FD19
:1020800007C095ED9A95F1F7000081508111F5CFC9
:102090008091E80085FF1DC00E94490C811114C089
:1020A0008091E80085FD06C08091E8008E778093DE
:1020B000E800F2CF88818093F100015011090115E9
:1020C000110511F02196ECCF8091E8008E77809376
:1020D000E800DF91CF911F910F910895CF93DF9387
:1020E000D82FC92F48E050E0682F792F81E00E9457
:1020F000301088E0ED2FFC2FA8E8B2E001900D929F
:102100008A95E1F7DF91CF910895BC0140E250E05C
:1021100084E00E94301008959091770492FB22276A
:1021200020F9281779F080FB92F990937704609159
:1021300076047091770484E090E00E94752A82E032
:102140000E948B0308951F93CF93DF93962F122F36
:10215000632F8630D8F49530C8F44E30B8F4C42FCD
:10216000D0E0CC0FDD1F2CE1929FC00DD11D1124BA
:102170009CE8899FC00DD11D1124CE0188960E9434
:10218000572A612FCE0189960E94572ADF91CF915D
:102190001F910895AF92BF92CF92DF92FF920F935B
:1021A0001F93CF93DF93A12CB12CC0E06501D0E049
:1021B00019C021E030E0C33020F4F80185919491FA
:1021C0009C014F2D6D2F8C2F0E94A310F3940E5F56
:1021D0001F4F8EE0F812EDCFDF5F8EE0C80ED11CEE
:1021E000D53039F08601000F111F00511E4FF12C20
:1021F000E0CFCF5F86E4A80EB11CC630B9F6DF9100
:10220000CF911F910F91FF90DF90CF90BF90AF9033
:102210000895CF93DF93C0E7D3E060E0CE010E9442
:10222000572A2196C11584E0D807B9F7DF91CF91DD
:102230000895882381F065E284E290E00E94572AA5
:1022400061E085E290E00E94572A68E086E290E033
:102250000E94572A08956FEF84E290E00E94572A67
:102260006FEF85E290E00E94572A6FEFEFCF80E09A
:102270000E94191160E087E290E00E94572A0E94B4
:10228000CA100E94091181E00E94191108950F934C
:102290001F93CF93DF93863030F5653020F54E30B5
:1022A00010F5C42FD0E0CC0FDD1F2CE1629FC00DD4
:1022B000D11D11243CE8839FC00DD11D1124CE01F6
:1022C00088960E94392A082F10E0102F0027CE018F
:1022D00089960E94392A9801282BC901DF91CF9154
:1022E0001F910F91089580E090E0F8CF462F672F5F
:1022F000753038F44E3028F4863018F40E944711B7
:10230000089580E090E00895A0E0B0E0EAE8F1E10F
:102310000C94DB297C010091740480917304082BD8
:10232000C5E0D0E010E0C8010C2E02C0959587955D
:102330000A94E2F780FD09C02197A8F7D12C8D2DD2
:10234000CDB7DEB7E7E00C94F729DC2EB7018C2F70
:102350000E9476110E94C404019771F3F0CF0F938D
:102360001F93CF93FC01858100811181882391F017
:10237000662381F0C8010E948411C82F682FC8010C
:102380000E94F502B8018C2F0E947611CF911F9107
:102390000F910895C8010E942C03C82FF3CFCF934B
:1023A000DF93D82FC92F0E9484116D2F7C2F0E949C
:1023B00076110E94C404DF91CF910895FC018481BD
:1023C0008823A1F0808191810E94CF11282F9295BE
:1023D0009F70963091F060F4925F9F70923030F46D
:1023E00081E0203F79F030F4283E30F080E004C0F6
:1023F0009A5FF3CF243FD1F7089581E0283E18F08B
:10240000213FF9CF0895089584E290E00E94392A8F
:10241000853289F485E290E00E94392A813059F4AE
:1024200086E290E00E94392A91E0883009F090E03D
:10243000892F8170089580E0FCCFA0E0B0E0E3E256
:10244000F2E10C94D329C82F809113018C1325C07D
:1024500020911404237030E04091120150E081E09B
:102460002417350709F480E081708093040180917E
:10247000190490910301981739F08093030140E00B
:1024800060E080E00E940F0AC73208F087C2EC2F9C
:10249000F0E0E656F54D0C94C32981E0E5CF80913C
:1024A0000401882309F483C240E060E080E00E94D8
:1024B0000F0A809102018F5F8093020182E0809376
:1024C000110180910401882309F476C2CDB7DEB7EB
:1024D000EFE00C94EF29809102010E94120A082F6C
:1024E000D92F6091150470911604809117040E94F1
:1024F000E005F62EE72ED82E10E00D1730F081E023
:10250000D13408F455C080E053C0F801E35FFD4FBB
:102510008081909103018923882331F02D2D4E2D48
:102520006F2DC8010E940C0A0F5F1F4FE6CF8091EC
:1025300002010E94120AD92FD0901604C0901704ED
:102540003091180420E4239F212D1124082F10E03E
:10255000E22EF12C0D1798F6F801E35FFD4F808114
:102560009091030189238823E1F0F801EE0FFF1F0A
:10257000E557FE4F20812E9DC0012F9D900D112407
:1025800025E0959587952A95E1F760911504680FE8
:102590007D2D8C2D0E94E005472F282FC8010E9419
:1025A0000C0A0F5F1F4FD6CF88E097E00E94100EF5
:1025B000909102019F5F90930201811187CF82E089
:1025C0008093110180910401811180CFCC237CCFB5
:1025D00081E297E0EBCF8DE497E0E8CF8BE797E0DF
:1025E0000E94990CE5CF89E997E0FACF88EB97E054
:1025F0000E94F00CDDCF83ED97E0FACF8EEE97E0EE
:10260000D5CF80EF97E0D2CF89EF97E0CFCF82E0B0
:1026100098E0CCCF8BE198E0EBCF8CE298E0E0CF74
:1026200085E598E0DDCF86E698E0E2CF8AE798E09E
:102630000E94560DBDCF88EA98E0FACF87ED98E06A
:10264000F7CF809102010E94120AD92F90910401C4
:10265000911120C06091180420E1620F08F46FEF1F
:1026600080915E0390915F030E946B066AE070E0C8
:102670000E947C29892B09F042CF0E94A50691E493
:10268000899F90011124832F932F990F990B0E94FA
:10269000AC0D35CF082F10E0ED2EF12C0E151F05D7
:1026A0000CF02DCFC8010E94AC0D0F5F1F4FF6CF6D
:1026B000D0910201D1111FC06091180420E1620F76
:1026C00008F46FEF80915E0390915F030E946B06A8
:1026D00065E070E00E947C29892B69F40E94A506C0
:1026E000A1E48A9FC0011124892F880F880B909341
:1026F0000001809301018D2F0E94120A282FD92FEB
:10270000182F8091040181111CC0809100019091CB
:10271000010130E08217930708F4F1CE2D2F30E04D
:102720008217930708F0EBCE0E94E90D82E490E057
:102730009093010180930001E2CE812F0E94E90D68
:102740001F5F1D17D0F3DBCE809102010E94120A99
:10275000082FD92FE0901604F0901704109115045B
:102760006091180466956695669580915E039091D8
:102770005F030E946B060E94BA0620E8280F27FD1F
:102780002195220F3CE0239F212D1124612F620F00
:102790007E2D8F2D0E94E005F62EE72ED82E10E01C
:1027A0000D1708F0ACCEF801E35FFD4F80819091EA
:1027B00003018923882331F02D2D4E2D6F2DC80163
:1027C0000E940C0A0F5F1F4FEBCF80E199E0EECE25
:1027D00086E399E0EBCE809102010E94120A682EF6
:1027E000092F80910401882361F040E060E080E0DF
:1027F0000E940F0AE9E9F3E086E4DF011D928A9561
:10280000E9F780910201811117C080915C039091DA
:102810005D030E94AF0B9C0181E02931310508F472
:1028200080E080935B032931310530F00E94860BF4
:1028300090935D0380935C03A12CB12C712C8AEAE8
:10284000582E6501D0E0F601EB5BFE4FE080E61408
:1028500008F43DC0E01608F03AC0F12CF701E35F40
:10286000FD4F8081909103018923882309F42EC0B4
:10287000F601E756FC4F4F011081612F25E5621BE1
:1028800008F460E070911604352D310F08F43FEF25
:1028900040911704232F220F230F2E5F249F212DF9
:1028A0001124352D361B632F822F0E94E005472F00
:1028B000282FC7010E940C0A80915B03882331F006
:1028C00021E0121B08F410E0D4011C937394DF5F25
:1028D000BFEFCB1ADB0ADE3009F0B5CFE8E3AE1666
:1028E000B10419F481E000340CCEFEE0AF0EB11C4F
:1028F0002CE0271508F0A5CFF5CF87E499E00E94DA
:10290000540E56CE8EE499E0FACF80916D0321E00B
:10291000382F321B08F430E0832F65E579E00E9400
:10292000C10E46CE65E579E080E0F9CF80916D0378
:1029300021E0382F321B08F430E0832F6EE679E077
:10294000EECF6EE679E0F0CF80916D0321E0382F75
:10295000321B08F430E0832F66EA79E0E0CF66EAC4
:1029600079E0E2CF80916D0321E0382F321B08F42B
:1029700030E0832F68ED79E0D2CF68ED79E0D4CFF5
:1029800080916D0321E0382F321B08F430E0832F53
:1029900060EF79E0C4CF60EF79E0C6CF80910201AB
:1029A0008F5F8093020182E0809311018FCD80912F
:1029B00002018F5F8093020183E0F6CF80911601C0
:1029C000813059F58091760487FF27C00E94A303C8
:1029D0008093590240E250E069E274E088E592E0B9
:1029E0000E947B2A892BC1F080E2E8E5F2E0A9E2AF
:1029F000B4E001900D928A95E1F7E0914904F091DD
:102A00004A04309749F086E0809358020480F581AB
:102A1000E02D88E592E0099508950E94A303809334
:102A2000500248E050E06BE474E080E592E00E94E0
:102A30007B2A892B89F388E0E0E5F2E0ABE4B4E09F
:102A400001900D928A95E1F7E0914904F0914A04D2
:102A5000309711F30280F381E02D80E592E0DBCF27
:102A6000CF93C82F8823B9F18CEF8C0F813AA8F54A
:102A700080911601813001F58091760487FF1CC09A
:102A8000EC2FE695E695E695F0E0E85AFD4F828159
:102A900090E04C2F477021E030E002C0220F331F3E
:102AA0004A95E2F782239323892B81F08C2F0E9491
:102AB000560B0E94DE140AC0E2E5F2E088E592E0DF
:102AC0002191C21799F38E179F07D1F78C2F0E947F
:102AD000220B0E94DE14CF91089580E28C0F883083
:102AE000D0F7C77021E030E001C0220FCA95EAF7A5
:102AF00080917004822B80937004EBCF882341F087
:102B00009CEF980F913A28F40E94560B0E94DE1415
:102B1000089590E2980F9830D8F7877091E001C03F
:102B2000990F8A95EAF7892F0E94C903EFCF1F9367
:102B3000CF93DF93182FEB010E943015209739F4C3
:102B4000812F0E947E15DF91CF911F9108958FE90B
:102B50009FE00197F1F700C000002197EFCF882395
:102B600039F090917004892B809370040E94DE14D8
:102B70000895882321F00E94C9030E94DE1408955D
:102B80000F931F93CF93DF93C62FD42F122F882339
:102B9000A9F060936E040E94860B90937C02809350
:102BA0007B02C77081E001C0880FCA95EAF70E94D6
:102BB000AF15DF91CF911F910F91089580916E0411
:102BC000681336C080917B0290917C020E94AF0B0B
:102BD000883C910568F5CD130EC060E070E0812F50
:102BE0000E949715D77081E001C0880FDA95EAF747
:102BF0000E94B915DECFC77001E0802F01C0880F99
:102C0000CA95EAF70E94B91580E28D0F883050F41A
:102C10008D2F877001C0000F8A95EAF7802F0E94E0
:102C2000AF15DBCF60E070E0812F0E949715C1CF18
:102C3000C77081E001C0880FCA95EAF7D9CF10921A
:102C4000700480911601813081F48091760487FFB1
:102C50000CC0EAE5F2E08EE1DF011D928A95E9F70A
:102C6000109278040E94DE140895E2E5F2E086E016
:102C7000F3CF0E941F162FEF84E39CE02150804089
:102C80009040E1F700C0000088E19AE00FB6F894A8
:102C9000A895809360000FBE90936000FFCFA8E0DE
:102CA000B0E0E5E5F6E10C94D3296C01DC01149663
:102CB0008C91882309F4B4C061E0C6010E94AF1171
:102CC0008C01F6018581882309F461C59801375785
:102CD0002038310508F066C5003108F090C08FEF4C
:102CE00093E00E94392A81118AC040E7E42E43E034
:102CF000F42E011153C01A821982FE01339686E028
:102D0000DF011D928A95E9F75701BFEFAB1ABB0AA5
:102D1000C7010E94392A89831A82882309F46FC067
:102D2000813009F081C087010E5F1F4FC5010E94ED
:102D3000392A8A83882309F462C09FEF980F933061
:102D4000E0F5E3E0EE0EF11CC8010E94392A8B8306
:102D5000882309F454C01C828E010F5F1F4FD801D5
:102D60008C91882389F2813009F0A1C011968C9151
:102D70001197813009F05AC05801B2E0AB0EB11C76
:102D8000F801828160E070E0893311F460E570E061
:102D90000E94971585010F5F1F4FE1CFE114F4E00A
:102DA000FF0669F1C7010E94392A97012F5F3F4F43
:102DB00079018111F3CF01509CCF8430B9F432E016
:102DC000E32EF12CC8010F5F1F4F0E94392AE1E06A
:102DD000F0E0EC0FFD1FEE0DFF1D8083882379F0DE
:102DE0008C3731F4FE01EE0DFF1D12827801B4CF55
:102DF000FFEFEF1AFF0A27E0E216F10419F78091BE
:102E000075048770882361F0D60115968C9188230C
:102E100039F08091770482FF03C082E00E948B0327
:102E20002896EFE00C94EF29750196CF823049F493
:102E30005801F2E0AF0EB11C12968C910E94301531
:102E4000A9CF833049F45801B2E0AB0EB11CF801B0
:102E500082810E947E159ECF843019F00F5F1F4F34
:102E60009ACF12962C910E5F1F4F80E090E06AE09F
:102E7000A8014F5F5F4F2053330B2A30310558F0C4
:102E8000009709F488CFAFE9BFE01197F1F700C0D0
:102E900000000197F5CF689FF001699FF00D1124A4
:102EA000C9018E0F9F1FF80121818A01E1CFE82F10
:102EB000F0E0EC53FB4F6490282F2695269526953D
:102EC00030E0F901EC54FB4FA4908770782EB12CC0
:102ED000082E02C0B594A7940A94E2F7B1E0AB22A1
:102EE000BB24F901EC55FB4F8490912C02C09594C2
:102EF00087948A95E2F7E1E08E229924F901EC5655
:102F0000FB4F5490A114B104C1F48114910421F534
:102F100060E070E0862D0E949715E52DF0E0072C0B
:102F200002C0F595E7950A94E2F7E0FF34CF60E040
:102F300070E08CE20E9497152ECF81EE0E94301532
:102F40008114910449F460E070E0862D0E94971589
:102F500081EE0E947E15E1CF86EE0E94301560E082
:102F600070E0862D0E94971586EE0E947E15AB2894
:102F7000A1F2EECF26E241EE61EE0E94C0153FCFF6
:102F800027E245EE65EEF9CF26E241EE60EEF5CFA1
:102F900027E245EE64EEF1CF26E241EE62EEEDCFA0
:102FA00027E245EE66EEE9CF28E241E0EBCF0631BD
:102FB000FCE71F0709F007C180916F048111D8C099
:102FC00089E20E94560BCFC0809176048160809385
:102FD0007604609176047091770484E090E00E941A
:102FE000752A0E941F160BCF80917704886080930A
:102FF0007704EFCF809176048260E9CF80917604E8
:103000008460E5CF809176048860E1CF8091770479
:103010008160EDCF809177048260E9CF8091760462
:103020008061D5CF809176048062D1CF8091760483
:103030008064CDCF0E941F16809176048068C7CF30
:10304000809176048C60C3CF809177048360CFCF6A
:10305000809176048E7FBBCF80917704877FC7CF26
:10306000809176048D7FB3CF809176048B7FAFCF34
:1030700080917604877FABCF809177048E7FB7CF26
:10308000809177048D7FB3CF809176048F7E9FCF20
:10309000809176048F7D9BCF809176048F7B97CF34
:1030A0000E941F16809176048F7791CF80917604CD
:1030B000837F8DCF809177048C7F99CF8091760428
:1030C00082FB992790F921E0922790FB82F990FBEF
:1030D00083F97DCF80917704982F909591708E7FA2
:1030E000892B90FB81F983CF90917604892F8F7B78
:1030F00096FF80646CCF0E941F1690917604892FF2
:1031000097FB87F9805863CF61E08EE090E00E94E2
:10311000572A5FCF60E0F9CF90917604892F8F7E98
:1031200094FF806154CF90917604892F8E7F90FF19
:1031300081604DCF90917704892F877F93FF8860BE
:1031400056CF8091700406312CE7120799F48A7AE1
:1031500091E0811101C090E090936F04882331F0D9
:1031600085E30E94220B0E94DE1449CE89E2F9CF4A
:1031700085E327CF8272F801E052F847EB30F10582
:1031800008F051C0EF53F54D0C94C32981E00E9423
:103190001B0A35CE882381F10E94690A30CE88232C
:1031A00081F10E94940A2BCE882381F10E94AD0AFE
:1031B00026CE882381F10E94C90A21CE882381F17D
:1031C0000E94E30A1CCE809170048272F801E054E0
:1031D000F847ED30F10508F0BCC0E453F54D0C9410
:1031E000C3290E94260A81E00E94060A08CE0E9496
:1031F000340AF9CF882381F20E945D0A00CE882329
:1032000081F20E94890AFBCD882381F20E949F0AE5
:10321000F6CD882381F20E94BB0AF1CD882381F28A
:103220000E94D70AECCD07373CE7130709F4B3C077
:1032300008378CE7180709F4BBC0C801805E9245C7
:103240008097A8F00A35FCE71F0709F4DAC008F0F8
:10325000B1C001303CE7130709F4D1C003308CE75B
:10326000180709F4C6C001151C4709F4B5C0F601DA
:103270008581E080F180882309F4C7C0C7010E94DE
:103280008411182F682FC7010E94F502B701812F02
:103290000E9476110E94C4048C01D6011596BC9040
:1032A00015971696AC90A2942FE0A22280917504F7
:1032B0008770882301F1EB2CBB20F1F0812F807FF8
:1032C000803461F080E2800F8830A8F0812F807E0A
:1032D000803221F4023078F0AA2069F080917704DE
:1032E00082FF09C082E00E948B0380917504877081
:1032F000EE24E3948111E12C812F82958F70883028
:1033000009F454C108F086C0823008F495C0825F89
:103310008F70823008F4CAC0EE20B1F0809175043D
:1033200080FD12C0D60115961C92869586958695CD
:103330000E94D902C6010E944F168091750486959D
:10334000869586950E94E50260E0C6010E94AF1155
:1033500067CD07379CE7190739F182E00837ACE7FA
:103360001A0719F1C801805E9245809708F07FCF57
:103370000F7181E090E0FC0102C0EE0FFF1F0A9583
:10338000E2F78F016E2F83E090E00E94572A802F92
:103390000E94D30234CD81E00E94D90243E062E072
:1033A00081E00E9460032BCD81E00E94E502F6CF10
:1033B00082E0F2CF0B35ACE71A0729F10C351C4738
:1033C00009F055CF8091770482FB882780F991E03E
:1033D00089270E948C104BCF0E941F16EFEFF4E359
:1033E0002CE0E150F0402040E1F700C000000E94D6
:1033F000BE0B6FEF7FEF80E090E00E94752A0E9485
:10340000391681E0E6CF80E0E4CFC7010E942C03AB
:10341000182F3CCF893009F438C18A5F8F70823011
:1034200008F07ACF023F09F041C1812F8F71B110AE
:103430003AC10E94D902E7C0B12FBF70FB2E1031F4
:1034400018F0F29490EFF922BB20B9F0FF2069F058
:1034500080E2800F883010F0011109C08091700463
:103460008F29809370040E94DE14802F43C08091C6
:1034700078048F2980937804F6CF802F0E947E15E0
:10348000FF2009F449CF80E2800F883010F001114D
:1034900004C08F2D0E94C90306C0F0948091780467
:1034A0008F21809378040E94DE1436CFE12FEF70D5
:1034B000FE2E107F103219F0F29480EFF8220023D4
:1034C00049F0013009F452C0BB2009F45EC0AA20C3
:1034D000F9F0CBCF8091770482FD16C0BB2069F054
:1034E000FF2039F0809170048F29809370040E942E
:1034F000DE1480E00E9430150FCF80E00E947E1520
:10350000FF2009F409CFC5CFBB20A1F0A11004C052
:103510008F2D0E94AF1500CFF1E0AF12FDCE80914C
:1035200071049F2D9823F91609F4F6CE8F29809304
:103530007104F2CEA110F0CE8F2D0E94B91590919A
:1035400071048F2D8923882329F08F2D809589235D
:1035500080937104809172049F2D9823992309F41C
:10356000DBCEF094F822F0927204D6CEBB2029F084
:1035700025E02A1508F4D0CECBCF34E03A1508F474
:10358000CBCE8F2D0E94B915C7CEAA20D1F3093317
:1035900049F48FEF97EEA3E081509040A040E1F70F
:1035A00000C00000802F0E947E15B6CE812F837050
:1035B000811134C0B11027C0402F42954695477005
:1035C000440F440F802F8F70042E01C0880F0A947F
:1035D000EAF70071002341F02FE030E001C0220F34
:1035E0004A95EAF7022F009516951695137012303A
:1035F00081F0133061F020917304113039F0802B89
:1036000082230E94D3020E94150B86CE822B802B30
:10361000F8CF802B909173048927F3CFBB2051F111
:1036200010FFF1CF402F429546954770440F440F4D
:10363000802F8F70042E01C0880F0A94EAF7007162
:10364000002341F02FE030E001C0220F4A95EAF755
:10365000022F0095169516951370123089F01330CD
:1036600069F020917404113041F0802B82230E9474
:10367000D602C9CF823038F2D5CF822B802BF7CF3C
:10368000802B909174048927F2CF1F70BB2039F0F2
:10369000812F0E94D902802F0E94AF15B4CF802FB6
:1036A0000E94B915812F0E94E502ADCF033F70F44F
:1036B000003FB9F0013FB9F1BB2009F456C0AA2080
:1036C00009F450C0802F0E9430159DCF033FD9F0E0
:1036D000043F29F1B110F3CFA11055C0812F8F7194
:1036E000E2CFBB2069F0B4E0BA1508F48CCF1F71AB
:1036F00081E090E0012E01C0880F0A94EAF7C1CF63
:10370000E5E0AE16F2CF80E0BB2009F4B0CF1F7128
:1037100081E0012E01C0880F0A94EAF7A8CF9091AA
:10372000770492FD06C0812F8F71BB2009F4BBCFB7
:1037300080CEBB2061F0812F8F7192FF7ACEF8E0AE
:103740008F9F9001112423602093750472CE81E035
:103750000E948B0321E02A1508F055CF82E00E94D9
:103760008B0351CF812F8F7164CEAA2009F4B6CF7D
:10377000093349F43FEF87EE93E0315080409040A9
:10378000E1F700C00000802F0E947E153CCFF801B9
:10379000E851FC47E730F10508F009CCE752F54D58
:1037A0000C94C329F801E851FC47E730F105B0F368
:1037B00010926E04C8019057839708F0C2CC84E041
:1037C00090E00E94412A9093770480937604F80158
:1037D000E150F047E232F10508F0F6CBE052F54D4A
:1037E0000C94C3298091B904803178F48091B80495
:1037F000882359F0E0917A04209179043091B4043F
:103800004091B30457E02E1301C008956E2F70E06D
:103810005E9FF0011124DF01A558BB4F14968C91D7
:103820001497882361F111968C911197831327C007
:103830008C91841324C015968C91159781111FC00B
:1038400012968D919C91A091B504B091B6048A1BFB
:103850009B0B883C910598F48091B9048F7080612E
:103860008093B904EF57FB4F80818F708061808314
:1038700083EB94E00E944F160E9481030895FB01A0
:103880003196E770C0CFADE0B0E0E9E4FCE10C9424
:10389000D4298C0186E0F801DE01189601900D9282
:1038A0008A95E1F7F8017080F580A280B380848169
:1038B00093EB892E94E0992E6090B704611018C0A4
:1038C000882399F0FF2009F413C1C8010E94DE117A
:1038D000882309F40DC187E0F801A3EBB4E001905F
:1038E0000D928A95E1F70E94F21BFF24F39453C0D6
:1038F000D090B8042091B5043091B604A501421BC4
:10390000530BDD2009F4C4C0483C510508F07AC0CF
:10391000882359F38091B404C180E090B904FFE09A
:10392000FE1508F459C0C81215C08091B304871160
:1039300011C0F1104BC08E2D8F7080618093B9043F
:1039400083EB94E00E944F168091B904F8018683BE
:10395000F12C21C0F1103AC040E06C2D872D0E945F
:10396000EB0F40E06C2D872D0E94EB0FF82E81119C
:10397000EFCF888599850E94CF11292F22952F702E
:10398000903470F49F702230A0F09923B1F0F801C8
:103990009681903190F48F2D2D96EEE00C94F029C5
:1039A0002A5F2F70223068F0C8010E944F16FD2C4C
:1039B000F2CF992311F0882371F3805E883058F399
:1039C000F3CF803F40F3815F8230F9CF8091B9041B
:1039D00081608093B904BCCFC8123CC08091B3040D
:1039E000871138C0F11036C0F801E682C8010E9484
:1039F0004F1687E0F801A3EBB4E001900D928A9591
:103A0000E1F773CFE090B904FFE0FE1550F083EBCF
:103A100094E00E944F1687E0F40111928A95E9F72D
:103A200097CF882309F461CF9091B404F801818184
:103A3000981310C08091B30487110CC0F1100AC014
:103A4000E682C8010E944F1687E0F40111928A9520
:103A5000E9F74BCFC8010E94DE11882309F448C062
:103A6000FF2009F445C08091B904803208F433CFB7
:103A70008091B3049091B4049A838983BC82AB8211
:103A80006D821E82EF82CE0101960E944F1623CFD7
:103A9000483C510508F0BFCF882309F426CFFF200A
:103AA00039F19091B4048181981318C08091B304C6
:103AB000871114C08091B90480FD9BCF803108F438
:103AC00098CF8683807F803F09F490CF8681982F9E
:103AD000907F905F8F70892B868388CFC8010E946A
:103AE000DE118111F8CE8091B90481608093B90410
:103AF000C8010E944F16F9CEABE1B0E0E2E8FDE16B
:103B00000C94DF294E8B5F8B688F798F8A8F9B8F08
:103B10009111109278041D8A86E0FE017696DE01EE
:103B20001F9601900D928A95E1F78B89882329F0E1
:103B300061E0CE010F960E94AF1187E0FE013F9633
:103B4000DE01189601900D928A95E1F7CE01089654
:103B50000E94431C81112BC087E0FE013896DE01D4
:103B6000119601900D928A95E1F720917904409188
:103B70007A048C858823D9F030E0C90101968770DA
:103B8000992750E084179507E9F097E0929FD001BC
:103B9000939FB00D1124A558BB4FFE0131960190A3
:103BA0000D929A95E1F7809379040E94810317E0C2
:103BB00080917A0490917904891312C06B96E3E0A6
:103BC0000C94FB290E941F161092790410927A041B
:103BD00087E0E3EBF4E0DF011D928A95E9F7E7CF98
:103BE000189FC001112485589B4F0E94431C8823B5
:103BF00029F380917A0490E0019687709927809349
:103C00007A04D6CFA6E0B0E0E8E0FEE10C94DE292D
:103C10000E94860B8C0180912704909128048017C4
:103C2000910779F019821A820E94860BBC014981A2
:103C30005A8180E090E00E947C1D1093280400933C
:103C400027042696E4E00C94FA29AAE2B0E0EBE21D
:103C5000FEE10C94DF2980E892E0FC0101962091BE
:103C6000F100208322E088389207B9F78091810221
:103C7000893009F45AC0C8F4823009F4B7C08330DF
:103C800009F486C0813091F18091E80083FFEBC098
:103C900080918002909181029A3008F0E4C0E92F6F
:103CA000F0E0EE5FF44D0C94C3298A3009F48DC026
:103CB0008B3051F780918002813231F780918402FC
:103CC00090918502892B01F78091E800877F80938E
:103CD000E8000E942A0C81E090918202911101C0BB
:103CE00080E0809316010E941F16CECF8091800243
:103CF000813A51F68091E800877F8093E8008091B7
:103D0000840290918502892B61F060E080E090E070
:103D100070E00E94D10B8091E8008B778093E800DF
:103D2000B3CF68E088E892E0F3CF809180028132DF
:103D300009F0AACF80918402909185028D7F892B12
:103D400009F0A2CF8091E800877F8093E8008091FE
:103D5000E80082FF18C09091F3008091F200029772
:103D600031F48091F100813011F0863021F480919E
:103D7000F100809315018091E8008B778093E80033
:103D80000E942A0C81CF809126048111E0CF7CCF44
:103D900080918002813A09F077CF809184029091DE
:103DA0008502892B09F070CF8091E800877F80938E
:103DB000E8008091E80080FFFCCF8091160180939D
:103DC000F1008091E8008E77D9CF80918002813216
:103DD00009F05ACF8091E800877F8093E8000E9425
:103DE0002A0C80918302809314014ECF809180022F
:103DF000813A09F049CF8091E800877F8093E800FD
:103E00008091E80080FFFCCF80911401D8CF8038EA
:103E100089F0823841F5809184028F70873018F5DF
:103E20008093E9008091EB0085FB882780F9109250
:103E3000E90006C080917D02909198039111826003
:103E40009091E800977F9093E8008093F1001092A2
:103E5000F1008091E8008E7723C0811116C0809117
:103E60008202813011F18091E80083FF0AC08091C5
:103E7000E800877F8093E8008091EB008062809368
:103E8000EB00AA96E3E00C94FB29823061F7809165
:103E90008202882389F01092E9008091E800877FF0
:103EA0008093E8000E942A0CDECF81E0933009F075
:103EB00080E080939803EFCF809184028F702FEF82
:103EC000280F263080F68093E9002091EB0020FF38
:103ED000E2CF933031F48091EB0080628093EB006D
:103EE000DACF9091EB0090619093EB0021E030E00D
:103EF000A90102C0440F551F8A95E2F74093EA00DA
:103F00001092EA008091EB008860E8CF8111ABCF7E
:103F1000109182021F778091E3008078812B80933B
:103F2000E3008091E800877F8093E8000E942A0CDC
:103F30008091E80080FFFCCF8091E300806880934F
:103F4000E30083E0111101C082E0809326048BCF4F
:103F50008058823008F087CF4091820250918302CE
:103F60004C3D83E0580799F583E08A838AE2898390
:103F70004FB7F894DE01139620E03EE051E2E32FC4
:103F8000F0E050935700849120FF03C082958F701A
:103F90003F5F8F708A30C8F0895C90E08D939D936D
:103FA0002F5F243161F74FBF8091E800877F8093B6
:103FB000E8006AE270E0CE0101960E94D10B809188
:103FC000E8008B778093E8004ECF805DE6CF80914C
:103FD000840290918502252F33272330310509F47F
:103FE0004AC078F52130310509F479C08BE590E0BD
:103FF000EDE4F1E02230310509F035CF2091E80001
:10400000277F2093E8002091860230918702821753
:10401000930708F49C0140E02115310509F064C0C4
:10402000411162C08091E80082FDC9CF80912604D1
:10403000882329F2853019F28091E80083FFF2CFBE
:10404000BECF2132310509F43BC02232310509F0DF
:104050000ACF8330910508F006CFFC01EE0FFF1F59
:10406000E25EFE4F0190F081E02D855E9E4FDC0107
:104070008C9190E011C0CA019927413089F08230BB
:104080009105B1F0892B09F0EECEECEEF1E0E49170
:104090008E2F90E0ECEEF1E0009709F4E4CEAECF85
:1040A000EEEDF1E0E4918E2F90E0EEEDF1E0F4CF53
:1040B000EAEBF1E0E4918E2F90E0EAEBF1E0ECCF57
:1040C0008330910508F0CFCEFC01EE0FFF1FEC5DB1
:1040D000FE4F0190F081E02D89E090E08FCF82E1EA
:1040E00090E0E8EAF1E08ACF80912604882309F481
:1040F00066CF853009F463CF8091E80083FD5FCF00
:104100008091E80082FD8ECF8091E80080FF84CF0F
:104110009091F3008091F2002115310519F088305B
:10412000910550F041E0089709F040E08091E800E7
:104130008E778093E80070CF44914093F1003196E0
:10414000215031090196E8CF803809F08CCE80915A
:10415000E800877F8093E80080917E028093F100E1
:1041600078CE811180CE10918202123008F07BCE81
:104170008091E800877F8093E80010937E020E9480
:104180002A0C1123F9F084E08093260442E061ECCC
:1041900081E00E94590F42E261EC84E00E94590FD5
:1041A00042E261EC82E00E94590F42E260EC83E05F
:1041B0000E94590F80912604843051F482E080934C
:1041C000170151CE8091E30087FDDDCF81E0DCCF88
:1041D00081E0F5CFAAE0B0E0E0EFF0E20C94D42962
:1041E000FE0131968AE0DF011D928A95E9F792E39C
:1041F000A92E91E0B92E8F0127E3E22E21E0F22EC5
:104200003F01CC24C394D12CF50181915F018F3FF4
:1042100009F447C0F894E82FE295EF70F0E021A18F
:104220008F70A60102C0440F551F8A95E2F7CA019C
:10423000922F982B91A392A18095892382A37894A1
:1042400000C0E7E3F1E021E030E0812C912C4191C6
:104250004F3F09F44AC0A42FA295AF70A05EB0E012
:104260008C9190E04F7002C0959587954A95E2F742
:10427000817081113AC0C901882A992A220F331FFF
:1042800051E0E534F50719F7F501319780818F3F4B
:1042900011F00E94C70580EA8A95F1F7D8018D9246
:1042A0009C920E5F1F4FEA14FB0409F0ADCF4AE069
:1042B00050E0B30182E693E00E947B2A892BC1F093
:1042C0008AE0F301A2E6B3E001900D928A95E1F74E
:1042D00081E080937A020E94860B9093790280930A
:1042E00078022A96EEE00C94F02980E090E0C4CFAA
:1042F00080917A028823A9F38091780290917902C3
:104300000E94AF0B059768F34AE050E062E673E065
:104310008CE194E00E947B2A892B49F08AE0E2E656
:10432000F3E0ACE1B4E001900D928A95E1F71092D0
:104330007A02D7CF48E050E067E170E084E194E092
:104340000E94472A10926C0308954F925F926F92D9
:104350007F928F929F92AF92BF92CF92DF92EF9215
:10436000FF92CF93DF93C0905303D0905403E0901B
:104370005503F09056038FB7F89440905703509030
:1043800058036090590370905A038FBF5301420144
:104390008C189D08AE08BF080E94920B60935303CF
:1043A000709354038093550390935603A091DF03B9
:1043B000EFEDF3E04A2F50E02FEFC20ED21EE11CCA
:1043C000F11CC418D508E608F708A5132FC04093C0
:1043D000DF0320919703C0E0211109C0209114044C
:1043E000C22FC370CC2319F0C22FC695C695209159
:1043F0001101223009F4BBC060F521113CC01092BC
:10440000020160935E0370935F0380936003909357
:10441000610389E2EFEDF3E0ADE6B3E001900D92C8
:104420008A95E1F781E08093110116C0218D328DCC
:104430002901612C712CC414D504E604F70420F47E
:1044400041505F5F3296C1CF280D391D328F218FC9
:10445000F8CF233009F496C0DF91CF91FF90EF9011
:10446000DF90CF90BF90AF909F908F907F906F9094
:104470005F904F9008958C2F0E941D12CC2361F302
:104480008091020181500E94120AD82FC92F0E94E8
:10449000150B81FF0BC0DD3148F4CD3138F02FEF23
:1044A0004FEF6FEF8CE190E00E940C0A8091740452
:1044B0000E94C1028150873078F6E82FF0E0E45F77
:1044C000F44D0C94C329D03438F6C03428F22FEFC1
:1044D0004FEF6FEF8FE390E00E940C0ABDCFD33017
:1044E00008F0BACFC33008F4B7CF2FEF4FEF6FEF1C
:1044F00082E090E0F1CFD43008F0AECFC43008F4C1
:10450000ABCF2FEF4FEF6FEF83E090E0E5CFD530EB
:1045100008F0A2CFC53008F49FCF2FEF4FEF6FEF19
:1045200084E090E0D9CFD63008F096CFC63008F4BA
:1045300093CF2FEF4FEF6FEF85E090E0CDCFD730E7
:1045400008F08ACFC73008F487CF2FEF4FEF6FEF17
:1045500086E090E0C1CFD83008F07ECFC83008F4B4
:104560007BCF2FEF4FEF6FEF87E090E0B5CFC09399
:104570001301809114048370809312010E940A1029
:1045800083E051CF80916C0381110E949A21409168
:104590005E0350915F0360916003709161032FB7D8
:1045A000F8948091570390915803A0915903B091CA
:1045B0005A032FBF841B950BA60BB70B4097A10581
:1045C000B10508F449CF1092110146CFCDB7DEB73F
:1045D000AF970FB6F894DEBF0FBECDBF85B780682A
:1045E00085BF85B7806885BF84B7877F84BF0FB6D6
:1045F000F894A89580916000886180936000109283
:1046000060000FBE80E890E00FB6F89480936100E0
:10461000909361000FBE81E08093170185EC95E0D7
:1046200090934F0280934E020E947A0C0E94900F4A
:104630008091E20084608093E20078948091260467
:10464000882399F08091E9001091EC0017951127CB
:1046500017958F70182B1092E9008091E80083FD68
:104660000E94251E1F701093E90082E084BD93E034
:1046700095BD9AEF97BD80936E000E940412811140
:1046800002C00E94371102E311E0D8018D918D0123
:104690008F3F11F00E94C705B1E007331B07A9F750
:1046A00007E311E0E5E4EE2EE1E0FE2EF801819152
:1046B0008F018F3F11F00E94C705E016F106B1F798
:1046C0008AE0ECE1F4E0DF01282F1D922A95E9F75A
:1046D000E2E6F3E0DF011D928A95E9F780E090E0E1
:1046E0000E94412A853E9E4F21F40E9404128111AE
:1046F00063C065EE7EEF80E090E00E94752A60E086
:1047000082E090E00E94572A81E08093730461E088
:1047100083E090E00E94572A60E074E184E090E03A
:104720000E94752A60E086E090E00E94572A60E0CF
:1047300087E090E00E94572A40E050E0BA0188E00C
:1047400090E00E94692A60E083E290E00E94572A8C
:1047500060E08CE090E00E94572A60E08DE090E0FD
:104760000E94572A19821A821B821C821D821E8275
:104770001F82188648E050E067E170E0CE010196A4
:104780000E94472A40E050E0BA018FE190E00E9489
:10479000692A80E00E9419110E94371140E050E020
:1047A000BA018FE090E00E94692A40E050E0BA012F
:1047B00083E190E00E94692A82E090E00E94392A19
:1047C0008093080484E090E00E94412A909377044B
:1047D000809376040E94EA20EFEFF6E721E0E150B3
:1047E000F0402040E1F700C000000E94EA208091E4
:1047F0001C0480FF08C06FEF7FEF80E090E00E9414
:10480000752A0E94BE0B83E090E00E94392A0E9424
:10481000D3020E94EF0A10926D0340E150E06FEF67
:1048200070E086E893E00E94912A1092DF0340E155
:1048300050E06FEF70E088EF93E00E94912A81E0F2
:1048400080936C0348E050E067E170E084E194E01D
:104850000E94292A10926C03809114048430B8F4C9
:1048600089E2809314048091180190911901A0911C
:104870001A018093150490931604A09317048FE7F0
:10488000809318048FEF809319040E949A2187E087
:1048900091E090934A0480934904809126048530E6
:1048A00099F411E000E453E0F52E60E1E62E72E1A8
:1048B000D72E80912604853009F468C00E941F1607
:1048C0000E94150B109297030E94EA20A9E0B4E021
:1048D000BFA3AEA3ECE1F4E0F9A7E8A7DF01E9E0AC
:1048E000F4E0219131918D919D9144E0E331F40701
:1048F00009F498C028173907A1F3612C712CF12C09
:10490000A8A5B9A52D903D90B9A7A8A7EEA1FFA194
:1049100081919191FFA3EEA38215930509F442C101
:104920009C01222533253BA72AA76301E12C4424BF
:104930004394512C8AA59BA584219521892B09F4A8
:1049400023C1410184209520E982FA820E94860BCE
:104950009C838B8331E03D8391E08114910409F4C1
:1049600090E09E8349815A816B817C818D810E9478
:104970007C1D9091DF038114910409F07BC0993074
:1049800008F402C100E010E019A2CBC08091260417
:10499000843009F438C00E94A521809197038111C9
:1049A0000DC00E941D121092130180911404837097
:1049B000809312010E940A10F09211011093970344
:1049C0001092960348E150E00FB6F894A8954093F2
:1049D00060000FBE0093600083B7817F846083BF57
:1049E00083B7816083BF7894889583B78E7F83BFB8
:1049F0000FB6F894A895809160008861809360005C
:104A0000109260000FBE0E94EA20ECE1F4E0819178
:104A10009191892B09F0D9C286E294E08E179F0705
:104A2000B1F747CF2817390709F067CF0E94021E58
:104A30000E94A5210E94150B90911304891721F063
:104A4000809313040E94920B80912604843009F015
:104A500024CF83E08093E9008091E80082FF1DCF9E
:104A60008091E80085FD08C18091E8008B778093F4
:104A7000E80013CFF601EB5BFE4F80818F3F09F01A
:104A800048C0993008F07ECF809114048C7F88361E
:104A900009F07AC0F601EB5BFE4F80818F3F09F48D
:104AA00073C0A12CB12C812C90E09C01220F331FEC
:104AB000F901E557FE4FFDA7ECA724573E4F3FA74E
:104AC0002EA7A60147565C4F5AA349A38501912CF6
:104AD000F801EB5BFE4F80818F3F61F0F81091C0D1
:104AE000E9108FC0A9A1BAA12C9130E2230F08F4DC
:104AF0002FEF2C9393940F5F1F4FFEE09F12E8CF90
:104B000083942EE0A20EB11C36E4A316B104F1F694
:104B10003BC08DA3983008F44FC001E010E041E0A5
:104B200049A398E0A92EB12CA01AB10AB80160528D
:104B30007C4FA50180EE93E00E94882AB80168515D
:104B40007C4FA50188EE93E00E94882AA501440FBE
:104B5000551FB801660F771F68507C4F88EF93E0B0
:104B60000E94882AB80160517C4FA50180EF93E034
:104B70000E94882A88E059A1851B8093DF03511188
:104B80001BC0892809F080CFE394440C551C4FEFDB
:104B9000C41AD40A5EE0E512CDCEEEA1FFA1329791
:104BA00031822082F3948EE0680E711C95E0F91238
:104BB000A7CE0E94920B3CCF4091DF03ADA18A2F7C
:104BC00090E0242F30E0F901E152FC4FDC01AA0F04
:104BD000BB1FA557BE4F5C915183880F991FDC0105
:104BE000A457BE4F8C918187BDA1B18BF901EE0F07
:104BF000FF1FE152FC4F128E118E4F5F4093DF0377
:104C0000C0CF90E0ACA5BDA54C91FC01EE0FFF1FFD
:104C1000E557FE4F2081421B550BEEA5FFA52081D5
:104C2000880F991FFC01E457FE4F8081281B330B2E
:104C3000449FB001459F700D700D1124229FC0014B
:104C4000239F900D900D1124860F971F0E947506CB
:104C5000382F893208F04ECF28E2231B08F420E0D9
:104C6000F801E756FC4F213108F020E13081320F86
:104C700008F43FEF30833ECF0E94490C30E2E32E30
:104C8000F12C8E010F5F1F4F8823D9F08091E8002F
:104C90008B778093E8008981EFEFE80FE33158F5D7
:104CA000F0E0ED5EF44D0C94C3298091F100D80141
:104CB0008C93B1E0EB1AF108E114F10439F30F5FC2
:104CC0001F4F8091E80085FDF0CF8091E8008B7741
:104CD0008093E8000E94490C882399F3D7CF1A8269
:104CE0008CE08B831AC08A81833049F138F481309B
:104CF00061F08230D9F08FEF89830FC08430D9F70B
:104D00001B821C821D821E8208C00E94920B0E9480
:104D1000C9296B837C838D839E8340E250E0BE0172
:104D20006F5F7F4F82E00E943010B7CD87E290E046
:104D30000E94392A1B821C821D828E83EECF8B81BA
:104D400090E0DE01119612968530910534F7FC0152
:104D5000FF27EE0FFF1FE45EFB4F2081318111968C
:104D60003C93119712962C9312970196ECCF8A815F
:104D7000823039F0853009F0BECF80E00E941B0AF6
:104D8000CCCF2B813C814D815E8129A33AA34BA3DB
:104D90005CA3CA01B9010E94C92987E290E00E9480
:104DA000572ABBCF4C816B818A810E94471198277B
:104DB000892798279E838D83B0CF2D813E8132270E
:104DC000232732274C816B818A810E94A310A5CFB3
:104DD0000E94CA10A2CF9A81933009F08CCF8830FC
:104DE000B9F1893009F461C08B81833051F158F4F5
:104DF000813091F0823009F090CF8C8181111AC0FE
:104E00000E94340A8ACF843009F087CF8C8120E059
:104E1000409117046D810AC04C8124EB429F412DC3
:104E200011248091150420E06091160490E00E9406
:104E3000760A73CF0E94260A60E08C810E94400AA5
:104E40006CCF8C818093180480E00E94060A65CFA5
:104E50008B81833039F180F48130C1F0823009F0E8
:104E60005CCF80911404982F93708695869591114C
:104E700001C080E08C8351CF843009F04ECF809107
:104E800015048C83809116048D8347CF809117047D
:104E90003FEF839FC001112464EB70E00E947C29E6
:104EA0006C833BCF80911804E5CF0E949A2135CFC7
:104EB00080E18A8332CF1A8280E913CF0A811B8175
:104EC0001027012710278C816801C80ED11C7E0194
:104ED00045E0E40EF11C0C151D0509F41ECF80E021
:104EE0000039110528F4C80180599C4F0E94392AC5
:104EF000D7018D937D010F5F1F4FEDCF0A811B817D
:104F0000102701271027FE0131967F01CC80CE0E9D
:104F1000DF2ED11CEC14FD0409F4FFCE003911057D
:104F200040F4D70114966C91C80180599C4F0E949F
:104F3000572A0F5F1F4FBFEFEB1AFB0AEBCF0E9400
:104F40000911EBCE86E0B5CF0A811B81102701271E
:104F500010278C816801C80ED11C7E01E5E0EE0EA1
:104F6000F11C0C151D0509F4D8CE80E00834F3E0DF
:104F70001F0720F4C80188960E94392AD7018D9313
:104F80007D010F5F1F4FEDCF0A811B811027012785
:104F90001027FE0131967F01CC80CE0EDF2ED11C72
:104FA000EC14FD0409F4B9CE0834F3E01F0738F41B
:104FB000D70114966C91C80188960E94572A0F5FFA
:104FC0001F4FBFEFEB1AFB0AEBCF809198038823AA
:104FD00009F46FCCE9BCD9BC09B400FEFDCF8091C7
:104FE000D8008F7D8093D8008091E000826080930C
:104FF000E0008091E00081FDFCCF0E941F1659CC9B
:105000001F921FB61F9211248F939F93AF93BF934C
:1050100080919603811113C080915703909158039A
:10502000A0915903B0915A034196A11DB11D8093DF
:10503000570390935803A0935903B0935A03BF9119
:10504000AF919F918F911F901FBE1F9018957894DC
:105050001F921FB61F9211248F939F93AF93BF93FC
:105060008091570390915803A0915903B0915A032E
:105070000196A11DB11D8093570390935803A093EF
:105080005903B0935A03BF91AF919F918F911F9095
:105090001FBE1F9018951F920F920FB60F921124EA
:1050A0002F933F934F935F936F937F938F939F9330
:1050B000AF93BF93EF93FF938091E10082FF09C00C
:1050C0008091E20082FF05C08091E1008B7F809398
:1050D000E1008091DA0080FF24C08091D80080FF39
:1050E00020C08091DA008E7F8093DA008091D90011
:1050F00080FFA9C080E189BD82E189BD09B400FEBD
:10510000FDCF81E08093260480917F02811109C048
:105110000E947A0C0E94900F8091E200846080933C
:10512000E2008091E10080FF1AC08091E20080FFE0
:1051300016C08091E2008E7F8093E2008091E200B1
:1051400080618093E2008091D80080628093D800D3
:1051500019BC85E08093260483E080931701809139
:10516000E10084FF2FC08091E20084FF2BC080E12A
:1051700089BD82E189BD09B400FEFDCF8091D800D0
:105180008F7D8093D8008091E1008F7E8093E10035
:105190008091E2008F7E8093E2008091E200816046
:1051A0008093E20080917E02882309F452C084E05B
:1051B0008093260480912604843009F052C082E056
:1051C000809317018091E10083FF2CC08091E20061
:1051D00083FF28C08091E100877F8093E10082E017
:1051E0008093260410927E028091E1008E7F80934E
:1051F000E1008091E2008E7F8093E2008091E200E6
:1052000080618093E20042E060E080E00E94590FFC
:105210008091F00088608093F00081E08093170116
:1052200080931601FF91EF91BF91AF919F918F9164
:105230007F916F915F914F913F912F910F900FBE92
:105240000F901F90189519BC1092260410927F029F
:1052500068CF8091E30087FF02C083E0A9CF81E09F
:10526000A7CF81E0ADCF1F920F920FB60F921124FE
:10527000FF920F931F932F933F934F935F936F93DF
:105280007F938F939F93AF93BF93CF93DF93EF93CE
:10529000FF9309EE10E0F8018081C091EC00C79502
:1052A000CC27C7958F70FC2EF82A1082C0EFD0E073
:1052B0008881877F888378940E94251EF801108258
:1052C000888188608883CF2DCF70C083FF91EF9154
:1052D000DF91CF91BF91AF919F918F917F916F910E
:1052E0005F914F913F912F911F910F91FF900F90E0
:1052F0000FBE0F901F901895AA1BBB1B51E107C052
:10530000AA1FBB1FA617B70710F0A61BB70B881F55
:10531000991F5A95A9F780959095BC01CD010895E4
:1053200097FB072E16F4009407D077FD09D00E9452
:105330007C2907FC05D03EF4909581959F4F0895F8
:10534000709561957F4F0895052E97FB1EF400948C
:105350000E94BB2957FD07D00E94072A07FC03D0F3
:105360004EF40C94BB2950954095309521953F4FB4
:105370004F4F5F4F089590958095709561957F4F41
:105380008F4F9F4F0895EE0FFF1F0590F491E02D72
:10539000099469279627692778278727782708950A
:1053A0002F923F924F925F926F927F928F929F9235
:1053B000AF92BF92CF92DF92EF92FF920F931F9323
:1053C000CF93DF93CDB7DEB7CA1BDB0B0FB6F894D4
:1053D000DEBF0FBECDBF09942A88398848885F8414
:1053E0006E847D848C849B84AA84B984C884DF8085
:1053F000EE80FD800C811B81AA81B981CE0FD11D69
:105400000FB6F894DEBF0FBECDBFED010895A1E247
:105410001A2EAA1BBB1BFD010DC0AA1FBB1FEE1F2E
:10542000FF1FA217B307E407F50720F0A21BB30B79
:10543000E40BF50B661F771F881F991F1A9469F7F5
:1054400060957095809590959B01AC01BD01CF0151
:105450000895DC01CB01FC01F999FECF06C0F2BD35
:10546000E1BDF89A319600B40D9241505040B8F722
:105470000895F999FECF92BD81BDF89A992780B51C
:105480000895A8E1B0E042E050E00C942B2ADC0142
:10549000A40FB51F4150504048F0CB01840F951F19
:1054A0002E910E94582A41505040D0F70895262F3F
:1054B000F999FECF92BD81BDF89A019700B402160A
:1054C00039F01FBA20BD0FB6F894FA9AF99A0FBEB8
:1054D00008950396272F0E94582A0E94572A252FA5
:1054E0000E94582A242F0C94582A0196272F0E9494
:1054F000582A0C94572AFB01DC0104C08D910190BD
:10550000801921F441505040C8F7881B990B089529
:10551000FB01DC0102C001900D9241505040D8F7D0
:105520000895DC0101C06D9341505040E0F70895AB
:10553000F894FFCF4F126B129712D412E812EB12AD
:10554000EE12F312F612FB12FE12011304130713EC
:105550000A130D131013131316131B131E13211309
:105560005813A413E513E813EB137D148214851468
:1055700092149614A114A414AF14B214BD14C01440
:10558000CB14C618CA18FA18CF18FF18D418041963
:10559000D9180919DE180E19F118F718C618CA1803
:1055A000FA18CF18FF18D4180419D9180919DE18D9
:1055B0000E19C417C817BA17C017CC17D017D417AD
:1055C000281893183018FA17FE17341802183818CC
:1055D00044180E188C181218481816184C187418FD
:1055E0001A1850187B18201856185E1806183C1800
:1055F0000A18401824185A186A1884188A18F417B8
:105600002C189A18071F2D1F331F2D1F331F861F9D
:10561000A81F331FA420B12063226F227B22872280
:1056200093229F22AB226F267326B726D226DD2631
:10563000E826EB26EB26EB267B267B2658275B27E6
:0C5640005E277E279F27A227A427C427EF
:10564C00420000FF003905830B6E108510CF0BD084
:10565C000B03FFFF0000010000FFB444223B0901D3
:10566C00E700AC005F0178019801003131295A1B29
:10567C00750A30313767F7F03233663634979694C3
:10568C009593929190000102030405060708090AFC
:10569C000B0C0D0E0F101112131415161718191AD6
:1056AC001B1C1D1E1F202122232425262728FF29F1
:1056BC002A2B2C2D2E2F3031323334FFFF35363739
:1056CC00FFFF3CFFFF3D3E3F40FFFF00001100226B
:1056DC00003300440055006600770088009900AA4A
:1056EC0000BB00CC00E000000D110D220D330D4469
:1056FC000D550D660D770D880D990DAA0DBB0DCAB4
:10570C000DE00D001A131A261A391A4C1A5F1A7268
:10571C001A851A981AAB1ABE1AD11AE01A00261456
:10572C002628263C265026642678268C26A026B4CD
:10573C0026C826E0260033143328333C3350336418
:10574C003378338C33A033B433C833DC33010101E9
:10575C00010101010101010101010101010101012D
:10576C00010101010101010101010101010101011D
:10577C00010101010101010101010101010101010D
:0E578C00010101010101010101010101010101
:00000001FF
