:100000000C948B020C94A8020C94A8020C94A802E5
:100010000C94A8020C94A8020C94A8020C94A802B8
:100020000C94A8020C94A8020C94A2270C947A2891
:100030000C9457270C94A8020C94A8020C94A802C4
:100040000C94A8020C94A8020C94A8020C94A80288
:100050000C94A8020C947E270C94A8020C94A8027D
:100060000C94A8020C94A8020C94A8020C94A80268
:100070000C94A8020C94A8020C94A8020C94A80258
:100080000C94A8020C94A8020C94A8020C94A80248
:100090000C94A8020C94A8020C94A8020C94A80238
:1000A0000C94A8020C94A8020C94A802050109065D
:1000B000A1018506050719E029E715002501950826
:1000C000750181020507190029EF1500250195F03A
:1000D000750181020508190129059505750191022F
:1000E000950175039101C00660FF0961A1010962D4
:1000F000150026FF0095207508810209631500266A
:10010000FF00952075089102C005010906A10105AF
:100110000719E029E7150025019508750181029569
:1001200001750881010507190029FF150026FF0048
:100130009506750881000508190129051500250196
:10014000950575019102950175039101C009025B46
:1001500000030100A0FA09040000010301010009E5
:100160002111010001224400070581030800010953
:1001700004010002030000000921110100012222F4
:100180000007058203200001070503032000010981
:100190000402000103000000092111010001223BBB
:1001A000000705840320000112010002000000087E
:1001B000134A134A00010102000118036D00610097
:1001C0006F005F00310030005F00440053003800D2
:1001D000370000000C0343005A004D0041004F005F
:1001E00000000403090429003A003B003C003D00E4
:1001F0003E003F00400041004200430044004500F3
:1002000000004600470035001E001F0020002100AE
:100210002200230024002500260027002D002E00A8
:100220002A0049004A002B0014001A00080015009B
:1002300017001C0018000C00120013002F003000E3
:1002400031004C004D003900040016000700090081
:100250000A000B000D000E000F00330034000000F8
:1002600028004B004E00E1001D001B000600190095
:10027000050011001000360037003800E5000000CE
:10028000000052004800E000E300E200000000002F
:100290002C00000000000000E60065002152E40090
:1002A000500051004F0029003A003B003C003D0047
:1002B0003E003F0040004100420043004400450032
:1002C00000004600470035001E001F0020002100EE
:1002D0002200230024002500260027002D002E00E8
:1002E0002A0049004A002B0014001A0008001500DB
:1002F00017001C0018000C00120013002F00300023
:1003000031004C004D0039000400160007000900C0
:100310000A000B000D000E000F0033003400000037
:1003200028004B004E00E1001D001B0006001900D4
:10033000050011001000360037003800E50000000D
:10034000000052004800E000E300E200000000006E
:100350002C00000000000000E60021782152E4009B
:10036000500051004F000001010101010101010194
:100370000202020202020202020303030303030356
:100380000304040404040404050505050506060623
:100390000606070707070708080808090909090AE0
:1003A0000A0A0B0B0B0C0C0C0D0D0D0E0E0E0F0F85
:1003B0000F10101111111212131314141515161613
:1003C0001717181819191A1A1B1B1C1D1D1E1E1F82
:1003D0002020212222232424252626272829292AD1
:1003E0002B2C2D2D2E2F30313232333435363738F9
:1003F000393A3B3C3D3E3F404142434445464748F5
:10040000494A4C4D4E4F50515354555658595A5BCA
:100410005D5E5F616264656668696B6C6D6F70726A
:10042000737577787A7B7D7E8082838587888A8CD6
:100430008E8F91939596989A9C9EA0A2A3A5A7A90A
:10044000ABADAFB1B3B5B7BABCBEC0C2C4C6C9CB01
:10045000CDCFD1D4D6D8DBDDDFE2E4E7E9EBEEF0B7
:10046000F3F5F8FAFDFF00000000000000000000B6
:10047000000000000000000000000000000000007C
:10048000000000000000000000007E0F00D4FFFF0D
:10049000FFC70000007800000000000000002A2BC9
:1004A0002800000000000000000000000000000024
:1004B0000029000000002C1E34202122243426278D
:1004C000252E362D3738271E1F20212223242526AE
:1004D0003333362E37381F0405060708090A0B0C7C
:1004E0000D0E0F101112131415161718191A1B1CC4
:1004F0001D2F3130232D350405060708090A0B0C82
:100500000D0E0F101112131415161718191A1B1CA3
:100510001D2F3130354C11241FBECFEFDAE0DEBF86
:10052000CDBF12E0A0E0B1E0E6ECF4E502C005903A
:100530000D92A43BB107D9F725E0A4EBB2E001C0CE
:100540001D92AA39B207E1F70E942C220C94DF29F0
:100550000C940000809353050895809354050895EA
:1005600021E030E001C0220F8A95EAF7809154051E
:10057000822B0E94AD02089521E030E0A90102C063
:10058000440F551F8A95E2F7CA0180959091540552
:1005900089230E94AD020895963088F5803178F560
:1005A00040E1949F90011124280F311D877041E094
:1005B00001C0440F8A95EAF783E0369527958A951E
:1005C000E1F7F901EE0FFF1FE20FF31FEE5DFA4FA7
:1005D00080E090E070E05191DF0111979B01082EBF
:1005E00002C0369527950A94E2F7217021952527B8
:1005F000242325272C9301968330910561F70895D4
:10060000963078F5803168F540E1949F900111248F
:10061000280F311D982F977083E0369527958A957E
:10062000E1F7F901EE0FFF1FE20FF31FEE5DFA4F46
:1006300040E050E080E0219130E0092E02C0369584
:1006400027950A94E2F721703327042E01C0220F68
:100650000A94EAF7822B4F5F5F4F4330510559F7F9
:10066000089580E008959091540521E030E0F9016B
:1006700001C0EE0F8A95EAF7D90102C0AA0FBB1F8D
:100680006A95E2F7EA2B01C0220F4A95EAF7892F13
:100690008E23E81305C0892F822B0E94AD02089596
:1006A0002095822F8923F9CF80915A059091590581
:1006B000981301C008958F5F8770FACF9091550508
:1006C0008095892380935505282F277021110DC00F
:1006D000891759F09091570592FF07C08695869526
:1006E00086950E94BC021092550508958091500590
:1006F00090915805892B509151055523C1F0909147
:1007000011019923A9F09091560597FF11C09DE121
:1007100020EC32E040E0F90160812F5F3F4F611132
:100720004F5F9150C0F7411110925105852B0895EC
:1007300095E028EB32E0EECF982F90958091500510
:100740008923809350050895803E9105D1F1C8F426
:100750008133910509F47FC048F48932910509F489
:100760006FC08A32910509F47DC0089589339105DF
:10077000E1F082389105C9F08533910509F45BC039
:100780000895843E9105D1F148F4823E910531F1FE
:10079000833E910541F181EE90E00895863E9105FA
:1007A000C1F1873E9105E1F108952091560523702E
:1007B000211165C02091570523FF14C089E290E004
:1007C00008952091560520FD43C03091570530FF14
:1007D00009C024FF4EC080E090E0089520915605A6
:1007E00022FDF7CF08952091560522FD45C0309196
:1007F000570530FD44C024FFF5CFEDCF20915705BC
:1008000021FFF0CF8091560584FDE5CF87EE90E083
:1008100008952091560523FFE5CF24FDDCCFF6CFC8
:100820002091560523FD2EC03091570531FFE3CFAF
:1008300084EE90E008952091560525FFD3CFBECFDA
:100840002091560525FD21C02091570523FFCACFD1
:1008500089E390E008952091560526FFC3CF8AE2F0
:1008600090E008952091560526FFBCCF81E390E0EB
:10087000089583EE90E0089582EE90E0089580EE72
:1008800090E0089586EE90E0089585E390E0AACF89
:100890009091560592FF10C041E0282F247124301A
:1008A00009F040E031E0282F2871283009F030E0CD
:1008B000431711F02CE0822793FF10C041E0282F4E
:1008C0002471243109F040E031E0282F28712831CB
:1008D00009F030E0431711F02CE0822730915705E2
:1008E00030FF10C051E0282F2171213009F050E075
:1008F00041E0282F2871283009F040E0541711F00A
:1009000029E0822731FF10C041E0282F21712131D9
:1009100009F040E031E0282F2871283109F030E05B
:10092000431711F029E0822794FD877E08951F93D5
:10093000CF93DF930E94A403EC01811522E5920777
:1009400008F04DC0811540E5940708F0C5C0883E09
:10095000910588F0811550E4950728F199270E94A8
:10096000A403CC27DF70C82BD92BD06ACE01DF912E
:10097000CF911F910895803E9105C0F7853A91056A
:1009800050F4049798F781E0219709F080E0C82F90
:1009900080E0D82FEBCF8D5C9109D065439730F381
:1009A000C0E0D0E0E3CFC11590E2D90708F0ADC0B8
:1009B000CE019A9581159F4198F78D2F0E9448048A
:1009C000182FCE0199270E94A403212F30E0322F47
:1009D0002227E901CC27DF71C82BD92BC7CF80385C
:1009E00042E59407C0F5803652E5950708F055C0FA
:1009F000C03482E5D807B0F08C2F86958695877035
:100A000020E2829FC0011124C37021E030E0A901DF
:100A100002C0440F551FCA95E2F7EA01C82BD92B33
:100A2000DC68A4CFC03252E5D50780F58C2F8695BF
:100A3000869520E2829FC0011124C37021E030E03E
:100A4000A90102C0440F551FCA95E2F7EA01C82B5D
:100A5000D92BDD688BCF803C52E5950758F48F7118
:100A6000C03AD24578F590E0982F8827EC01C46F02
:100A7000D06A7CCF805C9245809708F091CFDC2FC4
:100A8000CC27CC27DF71C06FD06A70CFCF71D0E098
:100A9000DC2FCC27C16FD06A69CF86958695877089
:100AA00020E2829FC0011124C37021E030E0A9013F
:100AB00002C0440F551FCA95E2F7EA01C82BD92B93
:100AC000DA6854CF0E944804C82FD0E0DC2FCC272E
:100AD000CC27DF71D0624ACF8F710E94480465E055
:100AE000D695C7956A95E1F7CF70D0E0DC2FCC277B
:100AF000282F30E084FF05C054E0220F331F5A95A1
:100B0000E1F7C22BD32BD06931CF8D2F8F710E948B
:100B10004804182FCE0199270E94A403212F30E00A
:100B2000322F222722273F71282B392BE901D2CFE0
:100B300080E00895F894E82FE295EF70F0E041A18D
:100B40008F7021E030E0B90102C0660F771F8A95EF
:100B5000E2F7CB01962F9095942391A392A1892B34
:100B600082A378940895A0E0B0E0E9EBF5E00C945E
:100B70001F29E82FF0E0EA59FC4F711109C0E491F8
:100B80008E2F7E2F6E2FCDB7DEB7EAE00C943B2977
:100B9000262F30E0C72FD0E0F491EF2F86E0829F20
:100BA0008001839F100D1124EE24EA94F12CC801DA
:100BB000B7010E94C328AB01220F331F65E5649F74
:100BC000C001659F900D1124281B390B822F880FBF
:100BD000280FC7018C1B9D0BF89FD001F99FB00D0A
:100BE00011248B2F2C9FB0012D9F700D1124672F86
:100BF00077275701A61AB70AFA9D6001FB9DD00C12
:100C000011247D2D5701A21AB10895012C9F500186
:100C10002D9FB00C3C9FB00C1124AB2CBB24EA18C8
:100C2000FB08FE9DE001FF9DD00D112443305105CE
:100C3000C1F00C3F93E0190750F44130510509F41D
:100C4000A1CF4230510589F07E2FED2F9BCF44304C
:100C5000510571F046305105B9F3EB2F8D2D7F2FE3
:100C600091CFED2D7B2F8F2F8DCF7B2F8D2F8ACF87
:100C70007D2FEB2FF8CF9C0180E090E0269F812D07
:100C8000369F800D911D112408959C01823091059D
:100C900008F408959FEF213E8EE1380740F4C90122
:100CA00045E0969587954A95E1F798E0980F61E0C1
:100CB000E62FE90FFF27FF1FAF0155954795842FBA
:100CC000449FF001459FF00DF00D11242E173F07B2
:100CD00038F49FEF940F961758F78FEF860F08950B
:100CE0004F3FE9F361E0640FF6CF4091030150916B
:100CF000040125E038E0429FC001439F900D529FC0
:100D0000900D1124875E994C909304018093030108
:100D1000890F0895982FE82F96FDE0958E2F8F70FC
:100D200096FD8F5FE695E695E695E670F0E0EB5D63
:100D3000FE4F2181289F202D812D112422952F7077
:100D40008295807F282B8081820F97FD8195805826
:100D50000895FC019B01009719F4832F8078089572
:100D6000AC0197FF04C044275527481B590BB90114
:100D7000640F751F37FD0FC0C901841B950BA5E0DB
:100D8000880F991FAA95E1F70E94D72880E2861B59
:100D9000F7FD81950895CB0165E0880F991F6A954D
:100DA000E1F7BA01621B730B0E94D72880E6EFCFF0
:100DB0001F93172F922FE42FF0E0EE0FFF1FED553A
:100DC000FE4F408124EE429F412D1124E72FF0E099
:100DD00050E09A01245E3F4F291B310937FF03C0C1
:100DE00031952195310993E0220F331F9A95E1F750
:100DF000E21BF30BF7FF02C0E0E0F0E07E2F719FF3
:100E0000712D11241F9108951F93182F822FE42F05
:100E1000F0E0EE0FFF1FED55FE4F408124EE429FA4
:100E2000412D1124E12FF0E050E09A01245E3F4F64
:100E3000281B310937FF03C031952195310983E023
:100E4000220F331F8A95E1F7CF01821B930B9C0180
:100E500097FF02C020E030E0219F212D1124822F36
:100E60001F9108950F931F93CF93DF93D62F172FC2
:100E7000C82FBA01C901212F201B022F0E94A906E9
:100E8000982F990F990F782F791B700F719F712DE3
:100E900011246D2F8C2FDF91CF911F910F91089509
:100EA000FF920F931F93CF93DF93D62FC72F182F47
:100EB000BA01C901F12EF01A0E94A906982F990FC4
:100EC000990F082F091B0F0D019F012D11246D2F64
:100ED0007C2F802FCDB7DEB7E5E00C944029EF9250
:100EE0000F931F93CF93DF93D62F172FC82FBA01DD
:100EF000C9010E19010F0E94A906702F781B719F5E
:100F0000712D11246D2F8C2FDF91CF911F910F9197
:100F1000EF900895EF920F931F93CF93DF93D62F07
:100F2000C72F182FBA01C9010E19010F0E94A90677
:100F3000081B019F012D11246D2F7C2F802FDF9125
:100F4000CF911F910F91EF900895622F0895E42F94
:100F5000F0E0EE0FFF1FED55FE4F6081621B08951C
:100F6000E42FF0E0EE0FFF1FEC55FE4F6081621B97
:100F70000895322F50E0FA01EE0FFF1FEC55FE4F9F
:100F80009081905297FD9195440F551FFA01ED55B0
:100F9000FE4F2081231B330B290F311D97FD3A95FE
:100FA000620F0895EF920F931F9310E09801220FA4
:100FB000331F200F311F359527956E2D620F1F911E
:100FC0000F91EF9008950F93CF93DF93D72FC82FF2
:100FD000B90147FD419528E330E0241B310947FD65
:100FE0003395229FA001239F500D500D1124669F21
:100FF000C001679F900D900D1124840F951F0E94D2
:101000004506982F990F692F680F600F7D2F8C2F41
:10101000DF91CF910F9108950F93CF93DF93D72F47
:10102000C82FBA01C9010E94A906682F600F7D2F41
:101030008C2FDF91CF910F910895EF920F93CF9363
:10104000DF93D72FC82FBA01C9010E190E94A90634
:10105000602F681B7D2F8C2FDF91CF910F91EF9028
:1010600008950F931F93522F10E0F801EE0FFF1F0A
:10107000EC55FE4FA081A052BB0B9D015203F00125
:10108000539FF00D1124000F111FD801AD55BE4F15
:101090002C912057330B4203D001439FB00D1124F4
:1010A0009F012A0F3B1F37FF02C021583F4F220FDD
:1010B000232F221F330B620F1F910F9108950F935F
:1010C0001F93522F10E0F801EE0FFF1FEC55FE4F5B
:1010D000A081A052BB0B9D015203F001539FF00D64
:1010E0001124000F111FD801AD55BE4F2C91205770
:1010F000330B4203D001439FB00D11249F012A0FEF
:101100003B1F37FF02C0215C3F4F96E03595279586
:101110009A95E1F7620F1F910F9108950F931F9316
:10112000A42F10E0F801EE0FFF1FED55FE4F908148
:10113000905797FD9195000F111FF801EC55FE4F48
:1011400000810052110B2003A001219F500D11249A
:1011500028E330E0291B310997FD33951A2F12033C
:10116000F001139FF00D11244E0F5F1F9A01220F03
:10117000331F240F351F37FF02C021583F4F220F66
:10118000232F221F330B620F1F910F9108950F938E
:101190001F93CF93DF93D62F072F182FC42F822FA3
:1011A0000E948A06982FEC2FF0E0EE0FFF1FED55FE
:1011B000FE4F80818058980F97FD9195990F292FA8
:1011C0003CE0239F212D1124622F6D0F702F812F62
:1011D000DF91CF911F910F910895E42FF0E0EE0F72
:1011E000FF1FED55FE4F9081921B97FD9195292F82
:1011F00038E1239F212D1124620F08954095282F57
:10120000429F412D1124842F0895409520E4429F50
:10121000412D1124640F0895EF92FF920F939701CF
:1012200095E0099F200D311D11242F3F310519F044
:1012300010F02FEF30E02095382F320F08F43FEFF9
:10124000832F0F91FF90EF900895EF92FF920F93ED
:10125000E00EF11CF90137FF03C0F195E195F109AA
:1012600024E0EE0FFF1F2A95E1F7EF3FF10519F09B
:1012700014F0EFEFF0E09A0157FF03C0319521958C
:10128000310994E0220F331F9A95E1F72E173F079B
:101290000CF4F901EE0DFF1DEF3FF10519F010F010
:1012A000EFEFF0E02E2F2095382F320F08F43FEFAC
:1012B000832F0F91FF90EF900895EF92FF920F937D
:1012C000972FFA01B9019701093430F4201B310935
:1012D0002F3F310519F010F02FEF30E0389671975D
:1012E00040F0AB01485F5F4F4131510510F02FEFE7
:1012F00030E02095382F320F08F43FEF832F77FF2F
:1013000002C06D5F7F4F75956795759567952091C4
:101310004905620F792F0F91FF90EF900895EF929A
:10132000FF920F939701201B31092F3F310519F0D0
:1013300010F02FEF30E0322F3095482F430F08F494
:101340004FEF842F620F0F91FF90EF900895EF926F
:10135000FF920F939701201B31092F3F310519F0A0
:1013600010F02FEF30E02095382F320F08F43FEFC8
:10137000832F0F91FF90EF90089590912504982B63
:101380009093250408950E94850A08950E94A60A54
:10139000089593E1899F802D1124980F9C3508F0C2
:1013A0009BE50895982F862F2091480523702223CE
:1013B00089F0992381F0973280F49F73990F990FE8
:1013C000209148052370922B9093480510921201AA
:1013D0000E94BD09089591E0F1CF96E2EFCF809190
:1013E0004805869586958F5F873208F081E061E039
:1013F0000E94D209089590914805969596958FEF91
:10140000890F913009F486E261E00E94D2090895C3
:10141000982F822F209148052370222359F0909312
:10142000490560934A05453B08F044EB40934B0562
:101430000E94BD090895E8E4F5E0818190E021E093
:101440004381628108960E94080A0895E8E4F5E065
:10145000818121E0438162818850990B0E94080AB2
:101460000895E8E4F5E0628120E1620F08F46FEF8F
:10147000818121E0438190E00E94080A0895E8E418
:10148000F5E0628120E1621B08F460E0818121E0E7
:10149000438190E00E94080A0895E8E4F5E0438162
:1014A00020E1420F08F44FEF818121E0628190E05A
:1014B0000E94080A0895E8E4F5E0438120E1421B18
:1014C00008F440E0818121E0628190E00E94080AF6
:1014D0000895E8E4F5E0248130E1230F08F42FEFCC
:1014E000248381E00E94BD090895E8E4F5E02481A9
:1014F00030E1231B08F420E0248381E00E94BD0931
:1015000008956E9A109209040895CF93DF93DC0139
:10151000FC01EE0FFF1FEF01CA0FDB1FC850DD4FAC
:101520008981861306C08881841303C08A8182174B
:1015300051F081E080930904EA0FFB1FE850FD4F52
:10154000618340832283DF91CF910895FF920F93AF
:101550001F93CF93DF93182F062FF42EC0E0D0E017
:101560002F2D402F612FCE010E94850A2196CB3569
:10157000D105B1F7CDB7DEB7E5E00C944029FA010B
:10158000882311F009950895FB01FCCFE09118051F
:10159000F0911905309729F00190F081E02D09951F
:1015A000089580E00895909111019923C1F09091E0
:1015B000560597FF14C0E82FE695E695E695803F1F
:1015C000F8F4F0E0E254FD4F877021E030E001C014
:1015D000220F8A95EAF78281822B82830895A8EBF5
:1015E000B2E0EFEF90E02D91821751F0EF3F19F448
:1015F000211101C0E92F9F5F9630A9F7EF3F09F451
:1016000008950E2E000CFF0BEA54FD4FE6CF90918B
:1016100011019923E1F09091560597FF18C0E82F2A
:10162000E695E695E695803FF0F4F0E0E254FD4F54
:10163000877021E030E0A90102C0440F551F8A9550
:10164000E2F7CA0180959281892382830895E8EBAD
:10165000F2E09191891303C0DF0111971C9252E0CF
:10166000EE3BF507B1F708952FB7F89480910E047B
:1016700090910F04A0911004B09111042FBF089510
:10168000A4E0B0E0E6E4FBE00C9427298FB7F894DF
:1016900020910E0430910F044091100450911104D8
:1016A00029833A834B835C838FBF69817A818B81E5
:1016B0009C812496E2E00C9443299C014FB7F89456
:1016C00080910E0490910F04A0911004B091110428
:1016D0004FBF821B930B089587E797E7909301080C
:1016E0008093000888E19AE00FB6F894A89580935B
:1016F00060000FBE90936000FFCF8091F7020895C5
:1017000008950895FC019B018091ED029091EE02F5
:101710008617970740F0672B29F48091E8008E77B1
:101720008093E800C90140E0009741F4411106C0F0
:101730008091E80082FF2FC080E008952091F50499
:101740002223A9F12530A9F12091E80023FD2DC025
:101750002091E80022FDECCF2091E80020FFE4CFAB
:101760003091F3002091F200009719F028303105F4
:1017700058F041E02830310509F040E02091E800C0
:101780002E772093E800D0CF41914093F10001974C
:101790002F5F3F4FE9CF8091F504882341F08530DA
:1017A00041F08091E80083FFC3CF81E0089582E09B
:1017B000089583E008958091E70287FF13C0809128
:1017C000E80082FF06C08091E8008B778093E800F4
:1017D00004C08091F5048111F2CF08958091F50441
:1017E0008823D9F38091E80080FFF8CF8091E8004A
:1017F0008E77ECCF2091E4003091E50095E6A901C9
:101800008091EC008170882331F08091E80080FFA6
:1018100006C080E008952091E80022FD1BC0809161
:10182000F504882391F0853091F08091EB0085FDDF
:1018300010C02091E4003091E5004217530701F3F6
:1018400091509111DCCF84E0089582E0089583E007
:10185000089581E00895E8EDF0E080818E7F808337
:101860001092E2001092DA001092E100A0EEB0E0D7
:101870008C9181608C9380818F77808319BCA7EDD8
:10188000B0E08C918E7F8C9380818F7E80831092CC
:10189000E6020895AF92BF92DF92EF92FF920F930C
:1018A0001F93CF93DF935C01809100010E94C909CF
:1018B000C82F192F60914C05669580911504909161
:1018C00016040E943B06D82ED0E0CE01880F991F47
:1018D0009C012D553E4F7901C11770F081E01B35F9
:1018E00008F080E0DF91CF911F910F91FF90EF9072
:1018F000DF90BF90AF900895FE01E75AFD4F8081C1
:101900009091010189238823C1F0F70121812052A0
:10191000330B40814057550B6091490570914A0542
:1019200080914B050D2DF50109950E94B305462FB9
:10193000672F282FCE010E94C309F2E0EF0EF11CA1
:101940002196CACFA0E0B0E0E8EAFCE00C941B29A5
:101950003C01809100010E94C909C82F192F609194
:101960004C05669580911504909116040E943B06E3
:10197000F82ED0E0CE01880F991F9C012D553E4FC7
:101980006901C11748F081E01B3508F080E0CDB750
:10199000DEB7EEE00C943729FE01E75AFD4F808157
:1019A000909101018923882379F1F6018081282F04
:1019B0002057330B59018181E82FE052FF0B4F0173
:1019C000AA9C9001AB9C300D300D1124EE9FC001FC
:1019D000EF9F900D900D1124820F931F0E944506DA
:1019E000082F6091490570914A0580914B05EF2CB5
:1019F0009401A501F30109950E94B305462F672FB5
:101A0000282FCE010E94C309F2E0CF0ED11C2196EF
:101A1000B8CFA4E0B0E0EFE0FDE00C9421296C0128
:101A2000809100010E94C9098B83F92E60914C05B9
:101A30006695669580911504909116040E943B0668
:101A4000182F80E4810F0E948A0680588983812F95
:101A50000E948A0680588A839B81892F90E09C830C
:101A60008B839B819F1548F081E0EAE5EF1508F430
:101A700080E02496E8E00C943D29EB81FC81E75A54
:101A8000FD4F80819091010189238823A9F0609105
:101A9000490570914A0580914B05E12E0B812A8101
:101AA0004981F60109950E94B305462F672F282F1B
:101AB0008B819C810E94C3098B819C810196CFCF31
:101AC000A0E0B0E0E6E6FDE00C942229EC01FC0188
:101AD000E75AFD4F8081909101018923882349F1C4
:101AE000D0904A0500914B0510914905E12EF12C4B
:101AF0000E947506482FC7018C549F4F68E671E01D
:101B00000E94D7288E199F0997FD03969595879572
:101B1000959587954370612F489F600D11247D2D09
:101B2000802F0E94B305462F672F282FCE010E94D9
:101B3000C309CDB7DEB7E7E00C943E291F93CF93DE
:101B4000DF93EC01FC01E75AFD4F80819091010188
:101B500089238823B1F00E947506182F0E9475060C
:101B600020E8829FC00111247FE7790F612F8091C7
:101B70004B050E94B305462F672F282FCE010E94E8
:101B8000C309DF91CF911F910895EF92FF920F93B8
:101B90001F93CF93DF937C01809100010E94C909BC
:101BA000C82F192F60914C056695669521E0620F4C
:101BB00008F46FEF80911504909116040E943B0683
:101BC000082FD0E0C11748F081E01B3508F080E015
:101BD000CDB7DEB7E6E00C943F29FE01E75AFD4F92
:101BE0008081909101018923882391F060914905BA
:101BF00070914A0580914B05202F4C2FF7010995D4
:101C00000E94B305462F672F282FCE010E94C309DB
:101C10002196D8CFA0E0B0E0E0E1FEE00C942029CE
:101C20008C01809100010E94C909C82FD92E2091F2
:101C30004C0531E0230F08F42FEF30E040E050E096
:101C40006FEF7FEF80E090E00E94EB287901D0E019
:101C5000C22EBF2C2C2FCD1550F081E0FAE5FD15DA
:101C600008F480E0CDB7DEB7E9E00C943C29FE0132
:101C7000E75AFD4F8081909101018923882319F152
:101C8000409126044150042E000C550B47FF1DC007
:101C90008C2D9B2D60914C0521E0620F08F46FEFB5
:101CA0000E943B06AC016091490570914A05809104
:101CB0004B05F80109950E94B305462F672F282F81
:101CC000CE010E94C3092196C5CFFA01EA5DFB4F00
:101CD000818982130AC0FA01EE0FFF1FEA5DFB4FF4
:101CE000818D928D8E159F05A8F241505109CECF5E
:101CF000A8E0B0E0EEE7FEE00C941729282E6983F7
:101D00007A83809100010E94C9099B832091260457
:101D10002C83E82FF0E0F887EF83CF01880F991F1D
:101D20009C012D553E4F6901822D90E0FC013196BA
:101D3000FE83ED838B819F81981748F081E0EB81D2
:101D4000EB3508F080E02896E2E10C943329EF812E
:101D5000F885E75AFD4F80819091010189238823FE
:101D6000F1F04090490550904A052D813E812A5D51
:101D70003B4F3901322C10E0FC813F16D0F020910E
:101D80004B05129F112D1124B201812F0E94B30522
:101D9000462F672F282F8F8198850E94C3092F8196
:101DA00038852F5F3F4F38872F8332E0C30ED11C19
:101DB000C1CFF30181913F01F601A080A81ABB08B1
:101DC0008180F3018781881A9908AA9C9001AB9CB5
:101DD000300D300D1124889CC001899C900D900D10
:101DE0001124820F931F0E944506082F60914C0515
:101DF00021E0620F08F46FEFF301EE0FFF1FE652D0
:101E0000F440858996890E943B067C019401A501D6
:101E1000B201812FE981FA8109952B01182F3394A2
:101E2000ABCF982FE42FE2709093E900891308C09C
:101E3000762F242F50E0E11111C091E0980FF4CFDC
:101E40007091EC002091ED005091F00021FD06C052
:101E50009F5F973049F78093E90008953091EB0038
:101E60003E7F3093EB003091ED003D7F3093ED00ED
:101E70003091EB0031603093EB007093EC002093D5
:101E8000ED005093F0002091EE0027FDE1CF089582
:101E9000A0E0B0E0EEE4FFE00C942129C8EDD0E032
:101EA00088818F7E8883E7EDF0E080818160808388
:101EB00084E082BF81E08093E60288818E7F888300
:101EC00002EE10E0F80110821092DA0081EEC82EC6
:101ED000D12CF601108288818F7788838881806871
:101EE000888388818F7D888319BC1092F5041092B5
:101EF000E502109251041092E40290EEE92EF12CCA
:101F0000F70180818B7F808388818160888342E0B4
:101F100060E080E00E94110FF60180818E7F808357
:101F2000F801808181608083808188608083F701EF
:101F300080818E7F8083888180618883CDB7DEB782
:101F4000E8E00C943D29E0915A059091590527E06D
:101F5000E91302C080E00895AE2FB0E02E9FF0019B
:101F60001124E55AFA4F3181361306C030813813F7
:101F700003C03581341304C0FD013196E770E8CF0A
:101F800081E0089580910904882339F13EB13F7BB7
:101F90002EB120644FB7F89488EF92E0FC010196CF
:101FA000508168E02EB9000000C057FF3EB9550FC0
:101FB000000000C000C000C03EB900C06A9591F7A3
:101FC00054E08930950751F74FBF8FE594E00197B2
:101FD000F1F700C000001092090408950F931F93B9
:101FE000CF93DF93EB018A019091F504943079F55A
:101FF0008093E9008FEF9091E80095FD07C095ED83
:102000009A95F1F7000081508111F5CF8091E80099
:1020100085FF1DC00E94FA0B811114C08091E80059
:1020200085FD06C08091E8008E778093E800F2CFAE
:1020300088818093F100015011090115110511F0FB
:102040002196ECCF8091E8008E778093E800DF91B5
:10205000CF911F910F910895CF93DF93D82FC92F60
:1020600048E050E0682F792F81E00E94EE0F88E071
:10207000ED2FFC2FAFEEB2E001900D928A95E1F7C3
:10208000DF91CF910895BC0140E250E084E00E94CE
:10209000EE0F08959091570592FB222720F92817FB
:1020A00079F080FB92F990935705609156057091F5
:1020B000570584E090E00E94BC2982E00E945E0304
:1020C00008951F93CF93DF93C62F122F632F843071
:1020D000D8F4C630C8F44031B8F490E2C99FE001AA
:1020E000112450E0440F551FC40FD51F90EC899F59
:1020F000C00DD11D1124CE0188960E949E29612F0A
:10210000CE0189960E949E29DF91CF911F9108955B
:10211000AF92BF92CF92DF92FF920F931F93CF9314
:10212000DF93A12CB12CC0E06501D0E019C021E003
:1021300030E0C23020F4F801859194919C014F2D3C
:102140006D2F8C2F0E946110F3940E5F1F4F80E162
:10215000F812EDCFDF5F80E1C80ED11CD63039F028
:102160008601000F111F0A511E4FF12CE0CFCF5FE7
:1021700080E6A80EB11CC430B9F6DF91CF911F9153
:102180000F91FF90DF90CF90BF90AF900895CF93C5
:10219000DF93C8E2D3E060E0CE010E949E29219641
:1021A000C11584E0D807B9F7DF91CF91089588234E
:1021B00081F064E284E290E00E949E2960E185E281
:1021C00090E00E949E2960E286E290E00E949E29B3
:1021D00008956FEF84E290E00E949E296FEF85E200
:1021E00090E00E949E296FEFEFCF80E00E94D71011
:1021F00060E087E290E00E949E290E9488100E9481
:10220000C71081E00E94D71008950F931F93CF93BA
:10221000DF93843030F5663020F5403110F520E250
:10222000629FE001112450E0440F551FC40FD51FD9
:1022300030EC839FC00DD11D1124CE0188960E94E1
:102240008029082F10E0102F0027CE0189960E94C8
:1022500080299801282BC901DF91CF911F910F91FF
:10226000089580E090E0F8CF462F672F763038F45D
:10227000403128F4843018F40E940511089580E05C
:1022800090E00895A0E0B0E0E8E4F1E10C942229A8
:102290007C010091540580915305082BC3E0D0E0E8
:1022A00010E0C8010C2E02C0959587950A94E2F7BC
:1022B00080FD09C02197A8F7D12C8D2DCDB7DEB7B1
:1022C000E7E00C943E29DC2EB7018C2F0E943411DC
:1022D0000E949704019771F3F0CF0F931F93CF9350
:1022E000FC01858100811181882391F0662381F0B2
:1022F000C8010E944211C82F682FC8010E94CC0259
:10230000B8018C2F0E943411CF911F910F91089525
:10231000C8010E940003C82FF3CFCF93DF93D82FBB
:10232000C92F0E9442116D2F7C2F0E9434110E94F0
:102330009704DF91CF910895FC0184818823A1F057
:10234000808191810E948D11282F92959F709630E7
:1023500091F060F4925F9F70923030F481E0203F02
:1023600079F030F4283E30F080E004C09A5FF3CF7B
:10237000243FD1F7089581E0283E18F0213FF9CF9E
:102380000895089584E290E00E948029843289F4BF
:1023900085E290E00E948029803159F486E290E045
:1023A0000E94802991E0803209F090E0892F8170AD
:1023B000089580E0FCCFA0E0B0E0E1EEF1E10C9404
:1023C0001A29C82F809110018C1325C0209148052F
:1023D000237030E040910F0150E081E02417350771
:1023E00009F480E081708093020180914D05909105
:1023F0000101981739F08093010140E060E080E02E
:102400000E94C609C73208F0B1C2EC2FF0E0EF51CC
:10241000F64D0C940A2981E0E5CF809102018823D2
:1024200009F4ADC240E060E080E00E94C6098091FE
:1024300000018F5F8093000182E080931201809100
:102440000201882309F4A0C2CDB7DEB7EFE00C94F7
:102450003629809100010E94C909082FD92F609167
:10246000490570914A0580914B050E94B305F62EEF
:10247000E72ED82E10E00D1730F081E0DB3508F4A0
:1024800096C080E094C0F801E75AFD4F808190919A
:1024900001018923882331F02D2D4F2D6E2DC80188
:1024A0000E94C3090F5F1F4FE6CF809100010E9479
:1024B000C909D92FD0904A05C0904B0530914C05E1
:1024C00020E4239F212D1124082F10E0E22EF12C6F
:1024D0000D1798F6F801E75AFD4F808190910101A0
:1024E00089238823E9F0F801EE0FFF1FED55FE4F19
:1024F00020812E9DC0012F9D900D112425E09595E2
:1025000087952A95E1F760914905680F7D2D8C2DFF
:102510000E94B305462F672F282FC8010E94C309C8
:102520000F5F1F4FD5CF809100010E94C909082F6E
:10253000D92FF090490510914A05E0904B05609124
:102540004C056695669566958091150490911604E4
:102550000E943B060E948A06805887FD8195880F5D
:10256000282F3E2D239F212D1124822F6F2D712F77
:102570000E94B305F62EE72ED82E10E00D1708F0B6
:102580007CCFF801E75AFD4F8081909101018923AA
:10259000882331F02D2D4F2D6E2DC8010E94C309C7
:1025A0000F5F1F4FEBCF88ED96E00E94C50D909115
:1025B00000019F5F90930001811146CF82E08093DC
:1025C00012018091020181113FCFCC233BCF84E0E7
:1025D00097E0EBCF82E397E00E944A0CE8CF80E5DA
:1025E00097E0FACF8FE697E00E94A20CE0CF8AE84E
:1025F00097E0FACF85EA97E0D8CF87EA97E0D5CF82
:1026000080EB97E0D2CF89EB97E0CFCF82ED97E0D8
:10261000EBCF83EE97E0E0CF8CE098E0DDCF8DE16B
:1026200098E0E2CF81E398E00E94090DC0CF8FE5EA
:1026300098E0FACF8EE898E0F7CF809100010E94F1
:10264000C909D92F90910201911120C060914C05C8
:1026500020E1620F08F46FEF809115049091160449
:102660000E943B066AE070E00E94C328892B09F0B3
:1026700004CF0E9475069BE5899F90011124832F4A
:10268000932F990F990B0E94600DF7CE082F10E041
:10269000ED2EF12C0E151F050CF0EFCEC8010E9497
:1026A000600D0F5F1F4FF6CF809100010E94C90996
:1026B000D92F90910201911120C060914C0520E129
:1026C000620F08F46FEF80911504909116040E9438
:1026D0003B0665E070E00E94C328892B09F0CDCE4F
:1026E0000E947506ABE58A9F90011124832F932FDA
:1026F000990F990B0E949E0DC0CE082F10E0ED2E71
:10270000F12C0E151F050CF0B8CEC8010E949E0DCD
:102710000F5F1F4FF6CF809100010E94C909082F5B
:10272000D92FE0904A05F0904B0510914905609132
:102730004C056695669566958091150490911604F2
:102740000E943B060E948A0620E8280F27FD21955B
:10275000220F3CE0239F212D1124612F620F7E2D3B
:102760008F2D0E94B305F62EE72ED82E10E00D1700
:1027700008F083CEF801E75AFD4F80819091010166
:102780008923882331F02D2D4F2D6E2DC8010E94F5
:10279000C3090F5F1F4FEBCF87EC98E006CF8DEE9C
:1027A00098E003CF809100010E94C909682E092F8B
:1027B00080910201882361F040E060E080E00E94A7
:1027C000C609E2E5F4E080E6DF011D928A95E9F7AB
:1027D00080910001811117C080911304909114041D
:1027E0000E945D0B9C0181E02931310508F480E0F5
:1027F000809312042931310530F00E94340B9093FC
:10280000140480931304A12CB12C712C8AEA582E45
:102810006501D0E0F601ED5BFE4FE080E61408F4C0
:102820003EC0E01608F03BC0F12CF701E75AFD4F1F
:102830008081909101018923882309F42FC0F6013A
:10284000EE5AFB4F4F011081612F25E5621B08F402
:1028500060E070914A05352D310F08F43FEF40914B
:102860004B05232F220F230F2E5F249F212D112490
:10287000352D361B632F822F0E94B305462F672FFD
:10288000282FC7010E94C30980911204882331F0C8
:1028900021E0121B08F410E0D4011C937394DF5F55
:1028A000BFEFCB1ADB0AD03109F0B4CFE0E5AE16AA
:1028B000B10419F481E00A35E2CDF0E1AF0EB11CAC
:1028C00022E1271508F0A4CFF5CF8EEF98E00E9403
:1028D0000A0E6DCE85E099E0FACF8091260421E0C2
:1028E000382F321B08F430E0832F6CE079E00E942F
:1028F000780E5DCE6CE079E080E0F9CF809126041F
:1029000021E0382F321B08F430E0832F65E279E0B4
:10291000EECF65E279E0F0CF8091260421E0382FF8
:10292000321B08F430E0832F6DE579E0E0CF6DE5F0
:1029300079E0E2CF8091260421E0382F321B08F4A1
:1029400030E0832F6FE879E0D2CF6FE879E0D4CF21
:102950008091260421E0382F321B08F430E0832FC9
:1029600067EA79E0C4CF67EA79E0C6CF80910001D9
:102970008F5F8093000182E08093120165CD80918A
:1029800000018F5F8093000183E0F6CF80911101F9
:10299000882359F18091560587FF27C00E9476034E
:1029A0008093BF0240E250E068EF74E08EEB92E06B
:1029B0000E94C229892BC1F080E2EEEBF2E0A8EF81
:1029C000B4E001900D928A95E1F7E0911805F0913D
:1029D0001905309749F086E08093BE020480F581A6
:1029E000E02D8EEB92E0099508950E947603809386
:1029F000B60248E050E06AE175E086EB92E00E94A2
:102A0000C229892B89F388E0E6EBF2E0AAE1B5E080
:102A100001900D928A95E1F7E0911805F091190562
:102A2000309711F30280F381E02D86EB92E0DBCF4B
:102A3000CF93C82F8823B1F18CEF8C0F813AA0F58A
:102A400080911101882301F18091560587FF1CC0F8
:102A5000EC2FE695E695E695F0E0E254FD4F828195
:102A600090E04C2F477021E030E002C0220F331F6E
:102A70004A95E2F782239323892B79F08C2F0E94C9
:102A8000070B0E94C61409C0E8EBF2E08191C81759
:102A9000A9F382E0EE3BF807C9F78C2F0E94D30A16
:102AA0000E94C614CF91089580E28C0F8830D0F731
:102AB000C77021E030E001C0220FCA95EAF780918B
:102AC0005005822B80935005EBCF882341F09CEF7B
:102AD000980F913A28F40E94070B0E94C61408959B
:102AE00090E2980F9830D8F7877091E001C0990F65
:102AF0008A95EAF7892F0E949C03EFCF1F93CF930B
:102B0000DF93182FEB010E941815209739F4812FBD
:102B10000E946515DF91CF911F9108958FE99FE085
:102B20000197F1F700C000002197EFCF882339F01B
:102B300090915005892B809350050E94C6140895EA
:102B4000882321F00E949C030E94C61408950F93CD
:102B50001F93CF93DF93C62FD42F122F8823A9F072
:102B6000609346050E94340B9093E2028093E10249
:102B7000C77081E001C0880FCA95EAF70E949615D8
:102B8000DF91CF911F910F910895809146056813B1
:102B900036C08091E1029091E2020E945D0B883C78
:102BA000910568F5CD130EC060E070E0812F0E94A2
:102BB0007E15D77081E001C0880FDA95EAF70E9490
:102BC000A015DECFC77001E0802F01C0880FCA9525
:102BD000EAF70E94A01580E28D0F883050F48D2F07
:102BE000877001C0000F8A95EAF7802F0E94961522
:102BF000DBCF60E070E0812F0E947E15C1CFC770EF
:102C000081E001C0880FCA95EAF7D9CF109250052C
:102C100080911101882381F08091560587FF0CC0B7
:102C2000E0ECF2E08EE1DF011D928A95E9F7109267
:102C300058050E94C6140895E8EBF2E086E0F3CF51
:102C40000E9406162FEF84E39CE0215080409040C4
:102C5000E1F700C0000088E19AE00FB6F894A8956B
:102C6000809360000FBE90936000FFCFA8E0B0E0BB
:102C7000ECE3F6E10C941A296C01DC0114968C91BA
:102C8000882309F4B4C061E0C6010E946D118C0173
:102C9000F6018581882309F448C598013757203803
:102CA000310508F04DC5003108F090C08FEF93E07A
:102CB0000E94802981118AC048E2E42E43E0F42E6C
:102CC000011153C01A821982FE01339686E0DF019A
:102CD0001D928A95E9F75701BFEFAB1ABB0AC701EE
:102CE0000E94802989831A82882309F46FC0813069
:102CF00009F081C087010E5F1F4FC5010E94802926
:102D00008A83882309F462C09FEF980F9330E0F51F
:102D1000E3E0EE0EF11CC8010E9480298B8388231A
:102D200009F454C01C828E010F5F1F4FD8018C9193
:102D3000882389F2813009F0A1C011968C911197F6
:102D4000813009F05AC05801B2E0AB0EB11CF80155
:102D5000828160E070E0893311F460E570E00E94E8
:102D60007E1585010F5F1F4FE1CFE114F4E0FF06F0
:102D700069F1C7010E94802997012F5F3F4F7901B8
:102D80008111F3CF01509CCF8430B9F432E0E32EAF
:102D9000F12CC8010F5F1F4F0E948029E1E0F0E095
:102DA000EC0FFD1FEE0DFF1D8083882379F08C371B
:102DB00031F4FE01EE0DFF1D12827801B4CFFFEF5A
:102DC000EF1AFF0A27E0E216F10419F78091550582
:102DD0008770882361F0D60115968C91882339F08D
:102DE0008091570582FF03C082E00E945E0328960F
:102DF000EFE00C943629750196CF823049F45801E2
:102E0000F2E0AF0EB11C12968C910E941815A9CF5A
:102E1000833049F45801B2E0AB0EB11CF801828155
:102E20000E9465159ECF843019F00F5F1F4F9ACF17
:102E300012962C910E5F1F4F80E090E06AE0A8018F
:102E40004F5F5F4F2053330B2A30310558F0009706
:102E500009F488CFAFE9BFE01197F1F700C0000097
:102E60000197F5CF689FF001699FF00D1124C9010A
:102E70008E0F9F1FF80121818A01E1CFE82FF0E03A
:102E8000EA56FB4F6490282F26952695269530E02C
:102E9000F901EA57FB4FA4908770782EB12C082EC9
:102EA00002C0B594A7940A94E2F7B1E0AB22BB2428
:102EB000F901EA58FB4F8490912C02C095948794B5
:102EC0008A95E2F7E1E08E229924F901EA59FB4F55
:102ED0005490A114B104C1F48114910421F560E06F
:102EE00070E0862D0E947E15E52DF0E0072C02C0D3
:102EF000F595E7950A94E2F7E0FF34CF60E070E0E3
:102F00008CE20E947E152ECF81EE0E94181581144E
:102F1000910449F460E070E0862D0E947E1581EEF8
:102F20000E946515E1CF86EE0E94181560E070E002
:102F3000862D0E947E1586EE0E946515AB28A1F2B3
:102F4000EECF26E241EE61EE0E94A7153FCF27E2C9
:102F500045EE65EEF9CF26E241EE60EEF5CF27E2D1
:102F600045EE64EEF1CF26E241EE62EEEDCF27E2D0
:102F700045EE66EEE9CF28E241E0EBCF0631FCE713
:102F80001F0709F0DFC0809147058111D9C089E290
:102F90000E94070BD0C08091560581608093560532
:102FA000609156057091570584E090E00E94BC291D
:102FB0000E9406160BCF80915705886080935705B5
:102FC000EFCF809156058260E9CF809156058460ED
:102FD000E5CF809156058860E1CF809157058160EB
:102FE000EDCF809157058260E9CF809156058061D1
:102FF000D5CF809156058062D1CF809156058064EF
:10300000CDCF0E940616809156058068C7CF80916B
:1030100056058C60C3CF809157058360CFCF8091D8
:1030200056058E7FBBCF80915705877FC7CF809194
:1030300056058D7FB3CF809156058B7FAFCF8091A2
:103040005605877FABCF809157058E7FB7CF809194
:1030500057058D7FB3CF809156058F7E9FCF80918E
:1030600056058F7D9BCF809156058F7B97CF0E9411
:103070000616809156058F7791CF80915605837FF4
:103080008DCF809157058C7F99CF8091560582FB1B
:10309000992790F921E0922790FB82F990FB83F920
:1030A0007DCF80915705982F909591708E7F892BB9
:1030B00090FB81F983CF90915605892F8F7B96FFE6
:1030C00080646CCF0E94061690915605892F97FB5D
:1030D00087F9805863CF61E08EE090E00E949E29DE
:1030E0005FCF60E0F9CF90915605892F8F7E94FFD6
:1030F000806154CF90915605892F8E7F90FF81601B
:103100004DCF90915705892F877F93FF886056CFC9
:1031100006312CE7120709F071C0809150058A7AB8
:1031200091E0811101C090E090934705882331F030
:1031300085E30E94D30A0E94C61448CE89E2F9CFE3
:1031400085E326CF809150058272F801E052F8475E
:10315000E531F10508F07DC0E85FF54D0C940A29D2
:103160008091480591E089278093480510921201CB
:1031700081E00E94BD092ACE4BEF59E06FEE79E065
:103180000E94BF0A23CE4FEE59E06BEF79E0F8CFF3
:1031900046E25AE06BE17AE0F3CF4BE15AE066E2B7
:1031A0007AE0EECF4FE35AE061E37AE0E9CF41E322
:1031B0005AE06FE37AE0E4CF4BE55AE06DE47AE061
:1031C000DFCF4DE45AE06BE57AE0DACF45E75AE02D
:1031D00069E67AE0D5CF49E65AE065E77AE0D0CFF4
:1031E00061E081E00E94D209F1CD61E083E0FACF95
:1031F00061E08BE0F7CF61E080E1F4CF07373CE797
:10320000130709F4A3C008378CE7180709F4ABC00B
:103210000A35BCE71B0709F4C2C008F0A6C001309C
:10322000FCE71F0709F4B9C003302CE7120709F4C3
:10323000AEC001151C47C1F40E940616AFEFB4E3FF
:10324000ECE0A150B040E040E1F700C000000E9477
:103250006C0B07379CE7190709F481C082E0083737
:10326000ACE71A0709F47CC0F6018581E080F180A3
:10327000882309F498C0C7010E944211182F682FB3
:10328000C7010E94CC02B701812F0E9434110E9415
:1032900097048C01D6011596BC9015971696AC90A4
:1032A000A2942FE0A222809155058770882301F116
:1032B000EB2CBB20F1F0812F807F803461F080E225
:1032C000800F8830A8F0812F807E803221F4023078
:1032D00078F0AA2069F08091570582FF09C082E04A
:1032E0000E945E03809155058770EE24E39481115E
:1032F000E12C812F82958F70883009F425C108F068
:1033000057C0823008F466C0825F8F70823008F444
:103310009BC0EE20B1F08091550580FD12C0D60112
:1033200015961C928695869586950E94B002C601D8
:103330000E943616809155058695869586950E9441
:10334000BC0260E0C6010E946D1151CD81E00E9477
:10335000B00243E062E081E00E94330337CD81E0B8
:103360000E94BC02F6CF82E0F2CF0B358CE7180743
:10337000C1F00C351C4709F077CF8091570582FBCF
:10338000882780F991E089270E944A106DCF6FEF5E
:103390007FEF80E090E00E94BC290E94201681E02F
:1033A000F3CF80E0F1CFC7010E940003182F6BCF4D
:1033B000893009F438C18A5F8F70823008F0A9CF54
:1033C000023F09F041C1812F8F71B1103AC10E94B3
:1033D000B002E7C0B12FBF70FB2E103118F0F2948D
:1033E00090EFF922BB20B9F0FF2069F080E2800F56
:1033F000883010F0011109C0809150058F29809309
:1034000050050E94C614802F43C0809158058F2913
:1034100080935805F6CF802F0E946515FF2009F490
:1034200078CF80E2800F883010F0011104C08F2D1A
:103430000E949C0306C0F094809158058F218093D0
:1034400058050E94C61465CFE12FEF70FE2E107F45
:10345000103219F0F29480EFF822002349F0013085
:1034600009F452C0BB2009F45EC0AA20F9F0CBCF0A
:103470008091570582FD16C0BB2069F0FF2039F00E
:10348000809150058F29809350050E94C61480E0DA
:103490000E9418153ECF80E00E946515FF2009F4B8
:1034A00038CFC5CFBB20A1F0A11004C08F2D0E9442
:1034B00096152FCFF1E0AF122CCF809151059F2DA3
:1034C0009823F91609F425CF8F298093510521CF30
:1034D000A1101FCF8F2D0E94A015909151058F2D07
:1034E0008923882329F08F2D809589238093510586
:1034F000809152059F2D9823992309F40ACFF094C7
:10350000F822F092520505CFBB2029F025E02A15BC
:1035100008F4FFCECBCF34E03A1508F4FACE8F2D65
:103520000E94A015F6CEAA20D1F3093349F48FEFFB
:1035300097EEA3E081509040A040E1F700C000006A
:10354000802F0E946515E5CE812F8370811134C0D4
:10355000B11027C0402F429546954770440F440F45
:10356000802F8F70042E01C0880F0A94EAF7007133
:10357000002341F02FE030E001C0220F4A95EAF726
:10358000022F0095169516951370123081F01330A6
:1035900061F020915305113039F0802B82230E9475
:1035A000AA020E94C60AB5CE822B802BF8CF802BB0
:1035B000909153058927F3CFBB2051F110FFF1CF34
:1035C000402F429546954770440F440F802F8F70CF
:1035D000042E01C0880F0A94EAF70071002341F01D
:1035E0002FE030E001C0220F4A95EAF7022F009544
:1035F000169516951370123089F0133069F02091EA
:103600005405113041F0802B82230E94AD02C9CFB6
:10361000823038F2D5CF822B802BF7CF802B909140
:1036200054058927F2CF1F70BB2039F0812F0E94EB
:10363000B002802F0E949615B4CF802F0E94A01553
:10364000812F0E94BC02ADCF033F70F4003FB9F060
:10365000013FB9F1BB2009F456C0AA2009F450C0BB
:10366000802F0E9418159DCF033FD9F0043F29F108
:10367000B110F3CFA11055C0812F8F71E2CFBB20C5
:1036800069F0B4E0BA1508F48CCF1F7181E090E0C6
:10369000012E01C0880F0A94EAF7C1CFE5E0AE160B
:1036A000F2CF80E0BB2009F4B0CF1F7181E0012E82
:1036B00001C0880F0A94EAF7A8CF9091570592FDB0
:1036C00006C0812F8F71BB2009F4BBCF80CEBB20F9
:1036D00061F0812F8F7192FF7ACEF8E08F9F900179
:1036E000112423602093550572CE81E00E945E0371
:1036F00021E02A1508F055CF82E00E945E0351CFE9
:10370000812F8F7164CEAA2009F4B6CF093349F412
:103710003FEF87EE93E0315080409040E1F700C0EA
:103720000000802F0E9465153CCFF801E851FC474E
:10373000E730F10508F022CCE35EF54D0C940A2940
:10374000F801E851FC47E730F105B0F31092460567
:10375000C8019057839708F0DBCC84E090E00E948A
:1037600088299093570580935605F801E150F0475A
:10377000E232F10508F00FCCEC5DF54D0C940A290E
:1037800080919905803178F480919805882359F0CB
:10379000E0915A0520915905309194054091930587
:1037A00057E02E1301C008956E2F70E05E9FF00168
:1037B0001124DF01A55ABA4F14968C9114978823CF
:1037C00061F111968C911197831327C08C9184130A
:1037D00024C015968C91159781111FC012968D915A
:1037E0009C91A0919505B09196058A1B9B0B883CF6
:1037F000910598F4809199058F7080618093990567
:10380000EF59FA4F80818F708061808383E995E062
:103810000E9436160E9454030895FB013196E7700A
:10382000C0CFADE0B0E0E7E1FCE10C941B298C01D6
:1038300086E0F801DE01189601900D928A95E1F775
:10384000F8017080F580A280B380848193E9892E8D
:1038500095E0992E60909705611018C0882399F023
:10386000FF2009F413C1C8010E949C11882309F4A8
:103870000DC187E0F801A3E9B5E001900D928A95AA
:10388000E1F70E94C01BFF24F39453C0D090980529
:103890002091950530919605A501421B530BDD2023
:1038A00009F4C4C0483C510508F07AC0882359F394
:1038B00080919405C180E0909905FFE0FE1508F421
:1038C00059C0C81215C080919305871111C0F1101D
:1038D0004BC08E2D8F7080618093990583E995E0B0
:1038E0000E94361680919905F8018683F12C21C03B
:1038F000F1103AC040E06C2D872D0E94A30F40E0EC
:103900006C2D872D0E94A30FF82E8111EFCF888593
:1039100099850E948D11292F22952F70903470F473
:103920009F702230A0F09923B1F0F8019681903178
:1039300090F48F2D2D96EEE00C9437292A5F2F708E
:10394000223068F0C8010E943616FD2CF2CF992370
:1039500011F0882371F3805E883058F3F3CF803FF5
:1039600040F3815F8230F9CF809199058160809327
:103970009905BCCFC8123CC080919305871138C00F
:10398000F11036C0F801E682C8010E94361687E0C1
:10399000F801A3E9B5E001900D928A95E1F773CFA4
:1039A000E0909905FFE0FE1550F083E995E00E9454
:1039B000361687E0F40111928A95E9F797CF8823AC
:1039C00009F461CF90919405F8018181981310C09A
:1039D0008091930587110CC0F1100AC0E682C801DE
:1039E0000E94361687E0F40111928A95E9F74BCFD1
:1039F000C8010E949C11882309F448C0FF2009F4E3
:103A000045C080919905803208F433CF80919305A9
:103A1000909194059A838983BC82AB826D821E82C9
:103A2000EF82CE0101960E94361623CF483C510505
:103A300008F0BFCF882309F426CFFF2039F19091F9
:103A400094058181981318C080919305871114C043
:103A50008091990580FD9BCF803108F498CF8683B3
:103A6000807F803F09F490CF8681982F907F905F70
:103A70008F70892B868388CFC8010E949C11811189
:103A8000F8CE80919905816080939905C8010E94C4
:103A90003616F9CEABE1B0E0E0E5FDE10C94262965
:103AA0004E8B5F8B688F798F8A8F9B8F91111092CD
:103AB00058051D8A86E0FE017696DE011F9601906C
:103AC0000D928A95E1F78B89882329F061E0CE0178
:103AD0000F960E946D1187E0FE013F96DE01189659
:103AE00001900D928A95E1F7CE0108960E94111C73
:103AF00081112BC087E0FE013896DE0111960190FE
:103B00000D928A95E1F72091590540915A058C85CF
:103B10008823D9F030E0C90101968770992750E0D9
:103B200084179507E9F097E0929FD001939FB00D1D
:103B30001124A55ABA4FFE01319601900D929A9523
:103B4000E1F7809359050E94540317E080915A05CC
:103B500090915905891312C06B96E3E00C944229A9
:103B60000E9406161092590510925A0587E0E3E963
:103B7000F5E0DF011D928A95E9F7E7CF189FC001B4
:103B80001124855A9A4F0E94111C882329F3809191
:103B90005A0590E001968770992780935A05D6CFF1
:103BA000A6E0B0E0E6EDFDE10C9425290E94340B7F
:103BB0008C018091F6049091F7048017910779F0B9
:103BC00019821A820E94340BBC0149815A8180E01B
:103BD00090E00E944A1D1093F7040093F604269685
:103BE000E4E00C944129AAE2B0E0E9EFFDE10C9495
:103BF000262987EE92E0FC0101962091F1002083B6
:103C000022E08F3E9207B9F78091E802893009F4EB
:103C100056C0C8F4823009F4B3C0833009F482C0BE
:103C2000813071F18091E80083FFE7C08091E70265
:103C30009091E8029A3008F0E0C0E92FF0E0EA5BEA
:103C4000F54D0C940A298A3009F489C08B3051F75C
:103C50008091E702813231F78091EB029091EC0282
:103C6000892B01F78091E800877F8093E8000E940C
:103C7000DB0B8091E902809311010E940616D2CFDE
:103C80008091E702813A71F68091E800877F809306
:103C9000E8008091EB029091EC02892B61F060E0EA
:103CA00080E090E070E00E94820B8091E8008B77CA
:103CB0008093E800B7CF68E08FEE92E0F3CF809179
:103CC000E702813209F0AECF8091EB029091EC02D5
:103CD0008D7F892B09F0A6CF8091E800877F8093A4
:103CE000E8008091E80082FF18C09091F300809175
:103CF000F200029731F48091F100813011F08630AA
:103D000021F48091F1008093F7028091E8008B7795
:103D10008093E8000E94DB0B85CF8091F504811130
:103D2000E0CF80CF8091E702813A09F07BCF80918C
:103D3000EB029091EC02892B09F074CF8091E8009E
:103D4000877F8093E8008091E80080FFFCCF80911E
:103D500011018093F1008091E8008E77D9CF809196
:103D6000E702813209F05ECF8091E800877F80937F
:103D7000E8000E94DB0B8091EA028093E30252CFBD
:103D80008091E702813A09F04DCF8091E800877F6A
:103D90008093E8008091E80080FFFCCF8091E302EF
:103DA000D8CF803889F0823841F58091EB028F704E
:103DB000873018F58093E9008091EB0085FB882718
:103DC00080F91092E90006C08091E40290915104BC
:103DD000911182609091E800977F9093E800809322
:103DE000F1001092F1008091E8008E7723C08111DC
:103DF00016C08091E902813011F18091E80083FFC3
:103E00000AC08091E800877F8093E8008091EB00F2
:103E100080628093EB00AA96E3E00C944229823002
:103E200061F78091E902882389F01092E90080917E
:103E3000E800877F8093E8000E94DB0BDECF81E003
:103E4000933009F080E080935104EFCF8091EB0232
:103E50008F702FEF280F263080F68093E900209195
:103E6000EB0020FFE2CF933031F48091EB008062D1
:103E70008093EB00DACF9091EB0090619093EB0090
:103E800021E030E0A90102C0440F551F8A95E2F7F6
:103E90004093EA001092EA008091EB008860E8CF3E
:103EA0008111ABCF1091E9021F778091E3008078F8
:103EB000812B8093E3008091E800877F8093E80066
:103EC0000E94DB0B8091E80080FFFCCF8091E30033
:103ED00080688093E30083E0111101C082E0809349
:103EE000F5048BCF8058823008F087CF4091E902EB
:103EF0005091EA024C3D83E0580799F583E08A83AC
:103F00008AE289834FB7F894DE01139620E03EE001
:103F100051E2E32FF0E050935700849120FF03C05B
:103F200082958F703F5F8F708A30C8F0895C90E017
:103F30008D939D932F5F243161F74FBF8091E800EF
:103F4000877F8093E8006AE270E0CE0101960E94CC
:103F5000820B8091E8008B778093E8004ECF805DE4
:103F6000E6CF8091EB029091EC02252F332723308E
:103F7000310509F44AC078F52130310509F479C0DA
:103F80008BE590E0EDE4F1E02230310509F035CF2A
:103F90002091E800277F2093E8002091ED023091E6
:103FA000EE028217930708F49C0140E021153105C9
:103FB00009F064C0411162C08091E80082FDC9CF60
:103FC0008091F504882329F2853019F28091E80068
:103FD00083FFF2CFBECF2132310509F43BC022323C
:103FE000310509F00ACF8330910508F006CFFC01B6
:103FF000EE0FFF1FE75EFE4F0190F081E02D8A5E1D
:104000009E4FDC018C9190E011C0CA01992741308C
:1040100089F082309105B1F0892B09F0EECEE2EE05
:10402000F1E0E4918E2F90E0E2EEF1E0009709F4E8
:10403000E4CEAECFE4EDF1E0E4918E2F90E0E4ED3C
:10404000F1E0F4CFEAEBF1E0E4918E2F90E0EAEBBF
:10405000F1E0ECCF8330910508F0CFCEFC01EE0FFC
:10406000FF1FE15EFE4F0190F081E02D89E090E0BE
:104070008FCF82E190E0E8EAF1E08ACF8091F50409
:10408000882309F466CF853009F463CF8091E80076
:1040900083FD5FCF8091E80082FD8ECF8091E800A4
:1040A00080FF84CF9091F3008091F20021153105BB
:1040B00019F08830910550F041E0089709F040E090
:1040C0008091E8008E778093E80070CF4491409310
:1040D000F1003196215031090196E8CF803809F07E
:1040E0008CCE8091E800877F8093E8008091E50284
:1040F0008093F10078CE811180CE1091E9021230C8
:1041000008F07BCE8091E800877F8093E8001093D1
:10411000E5020E94DB0B1123D1F084E08093F504CB
:1041200042E061EC81E00E94110F42E261EC84E028
:104130000E94110F42E261EC82E00E94110F42E204
:1041400060EC83E00E94110F8091F50456CE8091BF
:10415000E30087FDE2CF81E0E1CFACE0B0E0E3EB4C
:10416000F0E20C941B29FE0131968CE0DF011D92D8
:104170008A95E9F79DE2A92E91E0B92E8F0123E3FC
:10418000E22E21E0F22E3F01CC24C394D12CF50184
:1041900081915F018F3F09F447C0F894E82FE295C1
:1041A000EF70F0E021A18F70A60102C0440F551FEF
:1041B0008A95E2F7CA01922F982B91A392A180953C
:1041C000892382A3789400C0E3E3F1E021E030E0AA
:1041D000812C912C41914F3F09F44AC0A42FA29504
:1041E000AF70A05EB0E08C9190E04F7002C09595EA
:1041F00087954A95E2F7817081113AC0C901882AF2
:10420000992A220F331F51E0E334F50719F7F5011E
:10421000319780818F3F11F00E949A0580EA8A953C
:10422000F1F7D8018D929C920E5F1F4FEA14FB04A8
:1042300009F0ADCF4CE050E0B30189E194E00E9479
:10424000C229892BC1F08CE0F301A9E1B4E001900F
:104250000D928A95E1F781E08093E0020E94340B91
:104260009093DF028093DE022C96EEE00C943729C7
:1042700080E090E0C4CF8091E0028823A9F3809190
:10428000DE029091DF020E945D0B059768F34CE01F
:1042900050E069E174E089EE94E00E94C229892B24
:1042A00049F08CE0E9E1F4E0A9EEB4E001900D9270
:1042B0008A95E1F71092E002D7CF48E050E067E13D
:1042C00070E088E495E00E948E29109225040895FC
:1042D0004F925F926F927F928F929F92AF92BF9216
:1042E000CF92DF92EF92FF92C0900A04D0900B041D
:1042F000E0900C04F0900D048FB7F89440900E04F9
:1043000050900F0460901004709011048FBF5301FF
:1043100042018C189D08AE08BF080E94400B282F50
:1043200060930A0470930B0480930C0490930D0423
:10433000A091B204E2EBF4E08A2F30E04FEFC40E1C
:10434000D41EE11CF11CC418D508E608F708A31315
:104350002EC08093B2048091500481113BC03091F3
:104360004805832F8370882319F0832F86958695BF
:1043700030911201323009F441C070F531113BC067
:104380001092000160931504709316042093170493
:104390009093180489E2E2EBF4E0A6E2B4E0019025
:1043A0000D928A95E1F781E08093120117C0418D4B
:1043B000528D2A01612C712CC414D504E604F70433
:1043C00020F481503F5F3296C2CF480D591D528F65
:1043D000418FF8CF80E0CCCF3330D9F0FF90EF9011
:1043E000DF90CF90BF90AF909F908F907F906F9015
:1043F0005F904F9008950E94DB11F0CF80931001E1
:1044000080914805837080930F010E94C20F83E062
:10441000CBCF8091250481110E945D21409115042C
:104420005091160460911704709118042FB7F894F6
:1044300080910E0490910F04A0911004B09111048A
:104440002FBF841B950BA60BB70B4097A105B10599
:1044500028F210921201C2CFCDB7DEB7AF970FB6D8
:10446000F894DEBF0FBECDBF85B7806885BF85B726
:10447000806885BF84B7877F84BF0FB6F894A895FE
:1044800080916000886180936000109260000FBE90
:1044900080E890E00FB6F8948093610090936100FB
:1044A0000FBE88E995E09093B5028093B4020E9414
:1044B0002B0C0E94480F8091E20084608093E20000
:1044C00078948091F504882399F08091E900109107
:1044D000EC001795112717958F70182B1092E90093
:1044E0008091E80083FD0E94F31D1F701093E90086
:1044F00082E084BD93E095BD9AEF97BD80936E00F6
:104500000E94C211811102C00E94F5100DE211E05B
:10451000E3E3EE2EE1E0FE2ED8018D918D018F3F79
:1045200011F00E949A05E016F106B1F703E311E0DD
:10453000F80181918F018F3F11F00E949A05F1E0FF
:1045400003341F07A9F78CE0E9EEF4E0DF01282F20
:104550001D922A95E9F7E9E1F4E0DF011D928A95C1
:10456000E9F780E090E00E948829853E9E4F21F483
:104570000E94C211811163C065EE7EEF80E090E081
:104580000E94BC2960E082E090E00E949E2981E0C8
:104590008093530561E083E090E00E949E2960E0F3
:1045A00074E184E090E00E94BC2960E086E090E045
:1045B0000E949E2960E087E090E00E949E2940E0F2
:1045C00050E0BA0188E090E00E94B02960E083E208
:1045D00090E00E949E2960E08CE090E00E949E297D
:1045E00060E08DE090E00E949E2919821A821B8271
:1045F0001C821D821E821F82188648E050E067E1FF
:1046000070E0CE0101960E948E2940E050E0BA0190
:104610008FE190E00E94B02980E00E94D7100E94B4
:10462000F51040E050E0BA018FE090E00E94B02920
:1046300040E050E0BA0183E190E00E94B02982E0BE
:1046400090E00E9480298093DB0484E090E00E9447
:10465000882990935705809356050E94AD20EFEF6F
:10466000F6E721E0E150F0402040E1F700C0000013
:104670000E94AD208091E90480FF08C06FEF7FEFBA
:1046800080E090E00E94BC290E946C0B83E090E0E7
:104690000E9480290E94AA020E94810A1092260488
:1046A00040E150E06FEF70E08FE394E00E94D82982
:1046B0001092B20440E150E06FEF70E08BEC94E0B8
:1046C0000E94D82981E08093250448E050E067E10A
:1046D00070E088E495E00E94702910922504809192
:1046E00048058430B8F489E6809348058091130129
:1046F00090911401A09115018093490590934A056A
:10470000A0934B058FE780934C058FEF80934D0569
:104710000E945D2185E091E0909319058093180532
:104720008091F504853099F411E000E453E0F52E12
:1047300060E1E62E72E1D72E8091F504853009F410
:1047400069C00E9406160E94C60A109250040E9478
:10475000AD20ACEDB4E0BFA3AEA3E9EEF4E0F9A761
:10476000E8A748EE54E0DF01ECEDF4E0219131914F
:104770008D919D914E175F0709F498C0281739074E
:10478000A9F3612C712CF12CA8A5B9A52D903D9011
:10479000B9A7A8A7EEA1FFA181919191FFA3EEA3D4
:1047A0008215930509F442C19C01222533253BA7BC
:1047B0002AA76301E12C44244394512C8AA59BA58C
:1047C00084219521892B09F423C142018220932061
:1047D000E982FA820E94340B9C838B8331E03D8313
:1047E00091E08114910409F490E09E8349815A81FB
:1047F0006B817C818D810E944A1D9091B20481144D
:10480000910409F07BC0993008F402C100E010E087
:1048100019A2CBC08091F504843009F438C00E94FD
:1048200068218091500481110DC00E94DB1110920B
:10483000100180914805837080930F010E94C20F80
:10484000F09212011093500410924F0448E150E08E
:104850000FB6F894A895409360000FBE00936000D7
:1048600083B7817F846083BF83B7816083BF78947F
:10487000889583B78E7F83BF0FB6F894A8958091F3
:104880006000886180936000109260000FBE0E94FB
:10489000AD20E9EEF4E081919191892B09F0ECC211
:1048A00085EF94E08E179F07B1F746CF2817390799
:1048B00009F067CF0E94D01D0E9468210E94C60A9D
:1048C0009091E804891721F08093E8040E94400B3E
:1048D0008091F504843009F023CF83E08093E900D0
:1048E0008091E80082FF1CCF8091E80085FD08C11F
:1048F0008091E8008B778093E80012CFF601ED5BA2
:10490000FE4F80818F3F09F048C0993008F07ECF7C
:10491000809148058C7F883609F07AC0F601ED5BFE
:10492000FE4F80818F3F09F473C0A12CB12C812CE4
:1049300090E09C01220F331FF901ED55FE4FFDA7BA
:10494000ECA72C553E4F3FA72EA7A6014E5A5B4F12
:104950005AA349A38501912CF801ED5BFE4F80819C
:104960008F3F61F0F81091C09E108FC0A9A1BAA12D
:104970002C9130E2230F08F42FEF2C9393940F5FC8
:104980001F4FF0E19F12E8CF839420E1A20EB11CEB
:1049900030E6A316B104F1F63BC08DA3983008F4BD
:1049A0004FC001E010E041E049A398E0A92EB12CEE
:1049B000A01AB10AB8016D547B4FA50183EB94E0B6
:1049C0000E94CF29B80165547B4FA5018BEB94E081
:1049D0000E94CF29A501440F551FB801660F771F0C
:1049E00065537B4F8BEC94E00E94CF29B8016D5347
:1049F0007B4FA50183EC94E00E94CF2988E059A168
:104A0000851B8093B20451111BC0892809F080CF07
:104A1000E394440C551C4FEFC41AD40A50E1E5123C
:104A2000CDCEEEA1FFA1329731822082F39480E1B6
:104A3000680E711C96E0F912A7CE0E94400B3CCF85
:104A40004091B204ADA18A2F90E0242F30E0F9010B
:104A5000EE54FB4FDC01AA0FBB1FAD55BE4F5C915E
:104A60005183880F991FDC01AC55BE4F8C91818713
:104A7000BDA1B18BF901EE0FFF1FEE54FB4F128E5B
:104A8000118E4F5F4093B204C0CF90E0ACA5BDA59E
:104A90004C91FC01EE0FFF1FED55FE4F2081421B94
:104AA000550BEEA5FFA52081880F991FFC01EC5541
:104AB000FE4F8081281B330B449FB001459F700D32
:104AC000700D1124229FC001239F900D900D112481
:104AD000860F971F0E944506382F893208F04ECF67
:104AE00028E2231B08F420E0F801EE5AFB4F2131A5
:104AF00008F020E13081320F08F43FEF30833ECFE1
:104B00000E94FA0B30E2E32EF12C8E010F5F1F4F53
:104B10008823D9F08091E8008B778093E800898121
:104B2000EFEFE80FE33158F5F0E0E05BF54D0C9462
:104B30000A298091F100D8018C93B1E0EB1AF108B9
:104B4000E114F10439F30F5F1F4F8091E80085FDF8
:104B5000F0CF8091E8008B778093E8000E94FA0BF9
:104B6000882399F3D7CF1A828CE08B831AC08A816D
:104B7000833049F138F4813061F08230D9F08FEF21
:104B800089830FC08430D9F71B821C821D821E824C
:104B900008C00E94400B0E9410296B837C838D8388
:104BA0009E8340E250E0BE016F5F7F4F82E00E9433
:104BB000EE0FB6CD87E290E00E9480291B821C8216
:104BC0001D828E83EECF8B8190E0DE0111961296CE
:104BD0008630910534F7FC01FF27EE0FFF1FE751E8
:104BE000FB4F2081318111963C93119712962C93A3
:104BF00012970196ECCF8A81823079F0853009F0E6
:104C0000BECF8091480591E0892780934805109296
:104C1000120180E00E94BD09C4CF2B813C814D81EF
:104C20005E8129A33AA34BA35CA3CA01B9010E94E8
:104C3000102987E290E00E949E29B3CF4C816B81BE
:104C40008A810E9405119827892798279E838D8342
:104C5000A8CF2D813E813227232732274C816B81BB
:104C60008A810E9461109DCF0E9488109ACF9A81FC
:104C7000933009F084CF883009F441C0893009F4B9
:104C80006BC08B818330B9F198F48130D1F08230E0
:104C900009F087CF8C8190914805292F23708111CD
:104CA0001EC02111109212019C7F9093480579CF6C
:104CB000843009F076CF8C8120E040914B056D81E6
:104CC0000AC04C8124EB429F412D1124809149055B
:104CD00020E060914A0590E00E94080A62CF21110D
:104CE00002C0109212019C7F91609093480560E091
:104CF0000E94D20956CF8C8180934C058ACF8B813C
:104D0000833039F180F48130C1F0823009F049CF2D
:104D100080914805982F937086958695911101C0D2
:104D200080E08C833ECF843009F03BCF80914905F1
:104D30008C8380914A058D8334CF80914B053FEF62
:104D4000839FC001112464EB70E00E94C3286C8330
:104D500028CF80914C05E5CF0E945D2122CF80E1D4
:104D60008A831FCF1A8288ED00CF0A811B8110270A
:104D7000012710278C816801C80ED11C7E0145E0F7
:104D8000E40EF11C0C151D0509F40BCF80E0083D65
:104D9000110528F4C801885D9C4F0E948029D70125
:104DA0008D937D010F5F1F4FEDCF0A811B8110276F
:104DB00001271027FE0131967F01CC80CE0EDF2E19
:104DC000D11CEC14FD0409F4ECCE083D110540F4AF
:104DD000D70114966C91C801885D9C4F0E949E2952
:104DE0000F5F1F4FBFEFEB1AFB0AEBCF0E94C710FC
:104DF000D8CE84E0B5CF0A811B8110270127102768
:104E00008C816801C80ED11C7E01E5E0EE0EF11C1C
:104E10000C151D0509F4C5CE80E00115F3E01F0750
:104E200020F4C80188960E948029D7018D937D01C6
:104E30000F5F1F4FEDCF0A811B811027012710271D
:104E4000FE0131967F01CC80CE0EDF2ED11CEC14FA
:104E5000FD0409F4A6CE0115F3E01F0738F4D701CD
:104E600014966C91C80188960E949E290F5F1F4F6F
:104E7000BFEFEB1AFB0AEBCF80915104882309F4B2
:104E80005BCCE9BCD9BC09B400FEFDCF8091D80051
:104E90008F7D8093D8008091E00082608093E00055
:104EA0008091E00081FDFCCF0E94061645CC1F9248
:104EB0001FB61F9211248F939F93AF93BF9380913E
:104EC0004F04811113C080910E0490910F04A091A2
:104ED0001004B09111044196A11DB11D80930E04E0
:104EE00090930F04A0931004B0931104BF91AF915D
:104EF0009F918F911F901FBE1F90189578941F92BD
:104F00001FB61F9211248F939F93AF93BF938091ED
:104F10000E0490910F04A0911004B0911104019619
:104F2000A11DB11D80930E0490930F04A093100453
:104F3000B0931104BF91AF919F918F911F901FBEAD
:104F40001F9018951F920F920FB60F9211242F9356
:104F50003F934F935F936F937F938F939F93AF9301
:104F6000BF93EF93FF938091E10082FF09C080918E
:104F7000E20082FF05C08091E1008B7F8093E10019
:104F80008091DA0080FF24C08091D80080FF20C08B
:104F90008091DA008E7F8093DA008091D90080FFC3
:104FA0009BC080E189BD82E189BD09B400FEFDCFCF
:104FB00081E08093F5048091E602811109C00E948E
:104FC0002B0C0E94480F8091E20084608093E200E5
:104FD0008091E10080FF17C08091E20080FF13C044
:104FE0008091E2008E7F8093E2008091E2008061F8
:104FF0008093E2008091D80080628093D80019BC31
:1050000085E08093F5048091E10084FF29C08091C0
:10501000E20084FF25C080E189BD82E189BD09B439
:1050200000FEFDCF8091D8008F7D8093D8008091C5
:10503000E1008F7E8093E1008091E2008F7E80937B
:10504000E2008091E20081608093E2008091E502BD
:10505000882309F447C084E08093F5048091F50427
:105060008091E10083FF27C08091E20083FF23C08D
:105070008091E100877F8093E10082E08093F504D6
:105080001092E5028091E1008E7F8093E100809193
:10509000E2008E7F8093E2008091E2008061809345
:1050A000E20042E060E080E00E94110F8091F00099
:1050B00088608093F000FF91EF91BF91AF919F9135
:1050C0008F917F916F915F914F913F912F910F90B1
:1050D0000FBE0F901F90189519BC1092F5041092F6
:1050E000E60276CF8091E30087FF02C083E0B4CF71
:1050F00081E0B2CF1F920F920FB60F921124FF9250
:105100000F931F932F933F934F935F936F937F93CF
:105110008F939F93AF93BF93CF93DF93EF93FF93BF
:1051200009EE10E0F8018081C091EC00C795CC2712
:10513000C7958F70FC2EF82A1082C0EFD0E08881CE
:10514000877F888378940E94F31DF80110828881FC
:1051500088608883CF2DCF70C083FF91EF91DF915E
:10516000CF91BF91AF919F918F917F916F915F91FF
:105170004F913F912F911F910F91FF900F900FBE74
:105180000F901F901895AA1BBB1B51E107C0AA1FC7
:10519000BB1FA617B70710F0A61BB70B881F991FD8
:1051A0005A95A9F780959095BC01CD01089597FB7C
:1051B000072E16F4009407D077FD09D00E94C3286B
:1051C00007FC05D03EF4909581959F4F089570950A
:1051D00061957F4F0895052E97FB1EF400940E9461
:1051E000022957FD07D00E944E2907FC03D04EF438
:1051F0000C94022950954095309521953F4F4F4F83
:105200005F4F089590958095709561957F4F8F4F72
:105210009F4F0895EE0FFF1F0590F491E02D099424
:1052200069279627692778278727782708952F9257
:105230003F924F925F926F927F928F929F92AF9226
:10524000BF92CF92DF92EF92FF920F931F93CF9373
:10525000DF93CDB7DEB7CA1BDB0B0FB6F894DEBF0A
:105260000FBECDBF09942A88398848885F846E8430
:105270007D848C849B84AA84B984C884DF80EE807A
:10528000FD800C811B81AA81B981CE0FD11D0FB683
:10529000F894DEBF0FBECDBFED010895A1E21A2E36
:1052A000AA1BBB1BFD010DC0AA1FBB1FEE1FFF1FCA
:1052B000A217B307E407F50720F0A21BB30BE40B1A
:1052C000F50B661F771F881F991F1A9469F7609561
:1052D0007095809590959B01AC01BD01CF0108951B
:1052E000DC01CB01FC01F999FECF06C0F2BDE1BDA6
:1052F000F89A319600B40D9241505040B8F7089595
:10530000F999FECF92BD81BDF89A992780B508958D
:10531000A8E1B0E042E050E00C947229DC01A40F57
:10532000B51F4150504048F0CB01840F951F2E917E
:105330000E949F2941505040D0F70895262FF99997
:10534000FECF92BD81BDF89A019700B4021639F0E4
:105350001FBA20BD0FB6F894FA9AF99A0FBE0895B5
:105360000396272F0E949F290E949E29252F0E9485
:105370009F29242F0C949F290196272F0E949F2953
:105380000C949E29FB01DC0104C08D9101908019D1
:1053900021F441505040C8F7881B990B0895FB0138
:1053A000DC0102C001900D9241505040D8F70895A1
:1053B000DC0101C06D9341505040E0F70895F8942E
:1053C000FFCF0D12291255129312D312E712EA12CF
:1053D000EF12F212F712FA12FD1200130313061362
:1053E00009130C130F13121317131A131D1354134D
:1053F0008B13CC13CF13D21365146A146D147A1463
:105400007E1489148C1497149A14A514A814B31438
:10541000B018BC18C318C818CD18D218D718DC1883
:10542000E118E618EB18F018F518F818FB18E6164E
:10543000E616E616E616E616E616AB17AF17A11740
:10544000A717B317B717BB170F187A181718E11754
:10545000E5171B18E9171F182B18F5177318F917FC
:105460002F18FD1733185B18011837186218071822
:105470003D184518ED172318F11727180B18411878
:1054800051186B187118DB1713188118D11EF71EED
:10549000FD1EF71EFD1E501F721FFD1E6E207B207D
:1054A000B325B725FB251E26292634263726372681
:1054B0003726BF25BF25AF26B226B526D526F62628
:0654C000F926FB261B2764
:1054C60000FF0039057D0B2C104310800B810BFF6C
:1054D600FF010300FFB444223B0901E700AC005F73
:1054E6000178019801003131295A1B750A3031378C
:1054F60067F7F4F032336636349796949593929123
:1055060090F6F5000102030405060708090A0B0CCC
:10551600FF0D0E101112131415161718191A1B1C4D
:105526001D1E1F2122232425262728292A2B2C2D20
:105536002E2F3032333435363738393A3B3C3D3E00
:10554600FF20313F404142434445464748494AFFD0
:10555600FF4B0F4C4D4EFF505153FFFF54555657BE
:1055660058595A060000002C0039004500580065BD
:105576000072007E0091009E00AA00B700C700D30B
:1055860000E000000D0F0D1E0D2D0D3C0D4B0D5AAC
:105596000D690D6E0D7D0D8C0D9B0DA00DAF0DBE15
:1055A6000DCD0DE00D091A191A261A321A3F1A4C9A
:1055B6001A581A651A721A7E1A8B1A971AA41AB4EE
:1055C6001AC71AD31AE01A0B261C26292636264293
:1055D600264F265B266826752681268E269B26AFB5
:1055E600260E3323332F333C334933553362336E20
:1055F600337B3388339433AC33D33308401640249B
:10560600403640464054406440724083409340A236
:1056160040B240C740D340E0400101010101010111
:105626000101010101010101010101010101010164
:105636000101010101010101010101010101010154
:105646000101010101010101010101010101010144
:105656000101010101010101010101010101010134
:105666000101010101010101010101010101010124
:04567600010101012C
:00000001FF
