:100000000C942D010C9465010C9465010C94650110
:100010000C9465010C9465010C9465010C946501C8
:100020000C9465010C9465010C941C1E0C94EF1E3D
:100030000C9426190C9465010C9465010C946501CF
:100040000C9465010C9465010C9465010C94650198
:100050000C9465010C94BE190C9465010C94650117
:100060000C9465010C9465010C9465010C94650178
:100070000C9465010C9465010C9465010C94650168
:100080000C9465010C9465010C9465010C94650158
:100090000C9465010C9465010C9465010C94650148
:1000A0000C9465010C9465010C9465015F0060007F
:1000B00061002A005C005D005E00A90059005A0042
:1000C0005B00AA002152620037002800007C01007A
:1000D00001004C00010001000100010001000100CD
:1000E00001000100010001000100AE0008037800DA
:1000F0003100360000001603790069006E007800B8
:10010000690061006E00770065006900000004036B
:10011000090409023B00020100A0FA0904000001E1
:10012000030101000921110100012244000705819A
:100130000308000109040100010300000009211166
:1001400001000122B6000705820320000112010010
:100150000200000008504B6A010100010200010585
:10016000010902A10185020901A10005091901295E
:10017000081500250195087501810205010930095E
:10018000311581257F95027508810609381581256D
:100190007F950175088106050C0A38021581257FB7
:1001A000950175088106C0C005010980A10185037C
:1001B00019012AB700150126B700950175108100B5
:1001C000C0050C0901A101850419012AA00215012D
:1001D00026A002950175108100C005010906A10144
:1001E0008506050719E029E7150025019508750121
:1001F00081020507190029EF1500250195F0750109
:1002000081020508190129059505750191029501DD
:1002100075039101C005010906A101050719E0292F
:10022000E715002501950875018102950175088182
:10023000010507190029FF150026FF00950675081E
:10024000810005081901290515002501950575018D
:100250009102950175039101C00011241FBECFEFDB
:10026000DAE0DEBFCDBF04B603FE18C0809187027E
:1002700090918802A0918902B0918A028730904BB8
:10028000A740B04B59F41092870210928802109246
:10029000890210928A02E0E0F8E3099511E0A0E0FB
:1002A000B1E0EEE0F4E402C005900D92AC38B10785
:1002B000D9F722E0ACE8B1E001C01D92A738B2073F
:1002C000E1F70E94E8100C94B3210C9400008230F6
:1002D000B8F4962F942B943098F494E0899FF00111
:1002E0001124E60FF11DEE0FFF1FEE0FFF1FE40FAD
:1002F000F11DEE0FFF1FE455FF4F85919491089576
:1003000081E090E008950E946701089581E00895DA
:100310000E948601089581E008950E948601089553
:100320000E948D01089508950E9493010895A6E00A
:10033000B0E0EDE9F1E00C94232149835A839E83D8
:100340003091930189819A8131111AC03E81332302
:1003500099F0222389F00E94AA07182F682F89811B
:100360009A810E94870769817A81812F0E94A60E57
:100370002696E3E00C943F210E949807182FF3CFB4
:100380000E94AA0769817A81F1CFFC01262F408162
:10039000518162817381848195810E9497010895C2
:1003A000CF93DF93D82FC92F61E00E94C5016D2F35
:1003B0007C2F0E948801DF91CF910895CF93DF9326
:1003C000D82FC92F60E00E94C5016D2F7C2F0E949D
:1003D0009401DF91CF91089581E008950E94EC018E
:1003E0000895CF93C82F0E9459068C2F0E94EE01CA
:1003F0002FEF84E39CE0215080409040E1F700C063
:100400000000CF91089581E00E94F1010E94E2195D
:10041000089580E00E94F1010E94061A08950F934A
:100420001F93CF93DF938C0161E00E94C501EC0123
:10043000B8010E9490018823E1F1B801CE010E9429
:10044000E0118823B1F1B801CE010E94F61688238D
:1004500081F1B801CE010E942A13882351F1B8011D
:10046000CE010E94FF12882321F1F80185818823A3
:1004700081F0CA35FCE7DF0739F178F4C130ECE7E9
:10048000DE07F9F0C330FCE7DF07C9F0C115DC4730
:1004900071F0C8010E948B010DC0CB35ECE7DE077F
:1004A000B1F0CC35DC47A9F70E94DE0BF2CF0E94F9
:1004B000030280E0DF91CF911F910F9108950E9478
:1004C000F00B0E940902F5CF0E94E80BE2CF0E94D8
:1004D000EC0BDFCF0E94031980E00E94BF110E9445
:1004E0008F0208950E9413110E9493020E9408191E
:1004F000089581E008950895CF93DF93D82F0E9447
:100500007902C82F882319F08D2F0E947B028C2F2F
:10051000DF91CF91089508950E947C02089580E0B4
:100520000E948C0208950E943C170E948C0208953C
:10053000CF930E943C17C82F80918E018C1779F0C1
:10054000C0938E010E94921960938F017093900165
:1005500080939101909392018C2F0E948C02CF91F5
:100560000895ADE0B0E0E7EBF2E00C942421488779
:1005700059876A877B878C879D8791110E94E90A3A
:100580001F8286E0FE013896DE01119601900D92E1
:100590008A95E1F78D8181110DC029813A814B81C6
:1005A0005C816D817E818F810E942F0A2D96E2E011
:1005B0000C944021CE0101960E94D0018111EDCF13
:1005C000F5CFFC018481813021F4808191810E94EA
:1005D000DC070895662329F00E9498140E9459159B
:1005E00008950E94E114FACFCF93C82F8823C9F051
:1005F0008238C9F40E94491781FD13C089E30E9423
:1006000070180E94810B2FEF37EE83E021503040AD
:100610008040E1F700C0000089E30E9487180E9433
:10062000810BCF9108958338A1F40E94491780FD72
:10063000F8CF83E50E9470180E94810B9FEF21EE96
:1006400034E0915020403040E1F700C0000083E5E5
:10065000E4CF8438A1F40E94491782FDE2CF87E4F9
:100660000E9470180E94810B8FEF91EE24E0815060
:1006700090402040E1F700C0000087E4CECF8CEF2F
:100680008C0F813A70F48C2F0E94E217882329F096
:100690008C2F0E9487180E94810B8C2F0E9470184B
:1006A000BECF80E28C0F883048F4C77081E001C073
:1006B000880FCA95EAF70E94CA0AB1CF8BE58C0F62
:1006C000833038F42C2F2452330BC9010E94751744
:1006D000A8CFE8E5EC0FEB3150F4F0E0EE0FFF1F90
:1006E000E95EFE4F808191810E949B179ACF83E340
:1006F0008C0F833108F095CF61E08C2F0E94EA02C5
:1007000090CF882309F456C0823879F40E944917A3
:1007100081FF50C089E30E9470180E94810B89E319
:100720000E9487180E94810B0895833859F40E9413
:10073000491780FF3FC083E50E9470180E94810B1B
:1007400083E5EECF843859F40E94491782FF32C006
:1007500087E40E9470180E94810B87E4E1CF9CEF30
:10076000980F913AE8F290E2980F983050F4877021
:1007700091E001C0990F8A95EAF7892F0E94D00A6B
:10078000D1CF9BE5980F933028F480E090E00E9451
:100790007517089598E5980F9B3128F480E090E054
:1007A0000E949B17089593E3980F933118F460E02B
:1007B0000E94EA0208951F93CF93DF93182FEB0155
:1007C0000E94F402209739F4812F0E948103DF9167
:1007D000CF911F9108958FE99FE00197F1F700C035
:1007E00000002197EFCF60E070E0893311F460E5FD
:1007F00070E00E94DB030895882321F00E94CA0A5A
:100800000E94810B0895882321F00E94D00A0E9443
:10081000810B0895A0E0B0E0E0E1F4E00C941E212B
:100820006C01D62FC72FFC011581068102950F7030
:100830000E94BF0AE82E8823F9F0E12E1123E1F08F
:100840008C2F807F803461F080E28D0F8830F0F053
:100850008C2F807E803221F4D230C0F00023B1F0A2
:1008600080916C0282FF12C082E00E94B10B0E9454
:10087000BF0A91E0E82EE926EC2FE295EF70C03C2C
:10088000B0F5F0E0EB54FE4D0C94F420E12CF4CFE5
:100890000C2F0F70C03110F00295007F112399F0DA
:1008A000002359F080E28D0F883010F0D11107C07D
:1008B000802F0E94CA0A0E94810B8D2F51C0802F69
:1008C0000E94DB0AF8CF8D2F0E948103002379F06C
:1008D00080E28D0F883010F0D11104C0802F0E946B
:1008E000D00A03C0802F0E94E10A0E94810BEE20F3
:1008F00089F00E94BB0A80FD0DC0F60115820E949E
:10090000B50A0E94E406C6010E9420060E94B50AAC
:100910000E94F406CDB7DEB7E8E00C943A21FC2F34
:10092000FF70FF2EC07FC03219F0F29480EFF822E2
:10093000DD2341F0D130D1F1112309F444C000236B
:10094000F1F0BBCF80916C0282FD15C0112359F0EC
:10095000FF2029F08F2D0E94CA0A0E94810B80E09F
:100960000E94F402C4CF80E00E948103FF2009F4BA
:10097000BECF8F2DB4CF112369F0011104C08F2D8C
:100980000E94FC03B4CF013009F0B1CF8F2D0E943B
:10099000010BADCF0111ABCF8F2D0E9403048F2D22
:1009A0000E940D0B8F2D0E94F00AA1CF112321F080
:1009B000063008F09CCFE3CF053008F098CF8F2D9C
:1009C0000E94030494CF0023D1F3D93349F42FEFCD
:1009D00087EE93E0215080409040E1F700C0000096
:1009E0008D2F0E94810383CF8C2F869586958370EF
:1009F000882369F0813009F07ACF8D2F9C2F937076
:100A0000111102C080E090E00E949B1770CF8D2FE3
:100A10009C2F9370111102C080E090E00E94751726
:100A200066CF612F8D2F0E94EA0261CF8C2F8370D9
:100A3000811139C0111129C04D2F4295469547703B
:100A4000440F440F2D2F2F7030E0042E02C0220FD0
:100A5000331F0A94E2F780E090E0D4FF09C08FE0F2
:100A600090E002C0880F991F4A95E2F78095909513
:100A7000C695C695C370822B932BC23071F0C330DC
:100A800079F0C13039F00E94B4060E943C170E94F0
:100A90008C022DCF0E94AB06F8CF0E94BD06F5CF89
:100AA0000E94A806F2CF112361F1C0FFEECF4D2FB7
:100AB000429546954770440F440F2D2F2F7030E01C
:100AC000042E02C0220F331F0A94E2F780E090E068
:100AD000D4FF09C08FE090E002C0880F991F4A95AB
:100AE000E2F780959095C695C695C370822B932B9F
:100AF000C23069F0C33071F0C13031F00E941F077D
:100B0000C4CF823010F2D3CF0E941607BECF0E940E
:100B10002807BBCF0E94CC06B8CFCF70112339F085
:100B20008C2F0E94E4068D2F0E94FC03AECF8D2FE8
:100B30000E9403048C2F0E94F406A7CFD23F31F10C
:100B400070F4D03FB9F0D13FB1F1112309F44EC098
:100B5000002309F448C08D2F0E94F40296CFD33FA2
:100B6000E1F0D43F21F11111F3CF01114DC08C2FD1
:100B70008F71E1CF112341F0053008F086CF8C2F23
:100B80008F710E94060781CF0530F7CF8C2F8F71B0
:100B90001111D1CF0E94E40678CF112329F08C2FB8
:100BA0008F710E94D80671CF0E94D3066ECF8091BC
:100BB0006C0282FD06C08C2F8F71112309F4BBCF0C
:100BC000E9CF112331F063E08C2F8F710E94930BDA
:100BD0005CCF81E00E94B10B023008F456CF82E076
:100BE0000E94B10B52CF8C2F8F71D4CF002309F408
:100BF000BECFD93349F4EFEFF7EE23E0E150F040F8
:100C00002040E1F700C000008D2F0E9481033DCFFE
:100C10000F931F93CF93DF93EC01688179818D81CE
:100C20000E94E9078C010E9431070E94A706B801C3
:100C3000CE010E940A04DF91CF911F910F91089578
:100C4000CF93DF93EC018C81882399F0CE010E9431
:100C50000F02811111C00E94BF0A882351F08D81BB
:100C6000882339F080916C0282FF03C082E00E94E9
:100C7000B10BDF91CF910895CE010E940806CE01FD
:100C80000E94DE01F6CF80E090E00E94751780E0C0
:100C900090E00E949B170E94E90A0E94810B0E942B
:100CA00076150E94591508950E949E180E944306C9
:100CB00008950E94D80A0E9454060895282F9295FC
:100CC0009F70963091F060F4925F9F70923030F494
:100CD00081E0203F79F030F4283E30F080E0089544
:100CE0009A5FF3CF243FD1F7089581E0283EE0F3E7
:100CF000213FF9CF0895FC018481882339F0808158
:100D000091810E94DC070E945E06089580E00895AC
:100D1000A6E0B0E0EEE8F6E00C9424212696E2E0AE
:100D20000C944021A7E0B0E0E8E9F6E00C9424211F
:100D30002796E2E00C94402108950E949C060895B5
:100D40000E949D0690939F0180939E0108950895AF
:100D50000E94A006089520919E0130919F01822B50
:100D6000932B0E94A006089520919E0130919F012F
:100D7000822393230E94A006089520919E01309122
:100D80009F01822793270E94A00608950E949C0637
:100D900008950E94C60608950E94C90690939D0179
:100DA00080939C01089580E090E00E94CC06089515
:100DB00021E030E0A90102C0440F551F8A95E2F7F7
:100DC000CA010E94CC06089521E030E002C0220F43
:100DD000331F8A95E2F780919C0190919D01822BAF
:100DE000932B0E94CC06089521E030E002C0220F30
:100DF000331F8A95E2F72095309580919C01909160
:100E00009D01822393230E94CC06089521E030E0C7
:100E100002C0220F331F8A95E2F780919C019091C6
:100E20009D01822793270E94CC06089520919C0162
:100E300030919D01822B932B0E94CC060895209126
:100E40009C0130919D01822393230E94CC0608953A
:100E500020919C0130919D01822793270E94CC060E
:100E6000089508959B01677091E001C0990F6A95FC
:100E7000EAF763E0369527956A95E1F7220F331F6D
:100E8000220F331FFA01E20FF31F40E050E0682FFA
:100E900070E08191DF0111979B01042E02C036950D
:100EA00027950A94E2F721702195282729232827DE
:100EB0002C934F5F5F4F4430510559F708959C01C3
:100EC000982F977083E0369527958A95E1F7220F42
:100ED000331F220F331FFB01E20FF31F40E050E0EE
:100EE00080E0219130E0092E02C0369527950A94C2
:100EF000E2F721703327042E01C0220F0A94EAF78B
:100F0000822B4F5F5F4F4430510559F70895282FCA
:100F1000862F322F392B343050F434E0939FB001B8
:100F20001124620F711D44E951E00E9432070895B7
:100F3000282F892F822B843058F434E0939FC001EE
:100F4000112464E971E0820F911D0E945F070895EA
:100F500080E00895A0E0B0E0E0EBF7E00C941D2104
:100F60008C01E0909C01F0909D0180919E019091F8
:100F70009F01E82AF92ACFE0D0E0CC24C394D12CF9
:100F8000C6010C2E02C0880F991F0A94E2F78E2129
:100F90009F21892B49F4219798F7B12C8B2DCDB740
:100FA000DEB7E9E00C943921BC2EB8018C2F0E94E9
:100FB000B20E019781F3F2CFCF93DF93D82FC92FD1
:100FC0000E94AA076D2F7C2F0E94B20EDF91CF9155
:100FD00008951F93CF93DF93162FD72F90919301EE
:100FE000992341F0862F972F0E94DC07DF91CF9144
:100FF0001F910895882381F0862F972F0E94AA07BA
:10100000C82F682F812F9D2F0E948707612F7D2F6A
:101010008C2F0E94B20EEACF862F972F0E9498073E
:10102000C82FF4CF0F931F93CF93E091A001C7E097
:101030008091A1018E1304C0CF911F910F9108954B
:101040000E2F10E0CE9FF0011124EE55FE4F2081AF
:101050003181428153816481758186810E9492062B
:10106000F8013196E770E4CF2091DA013091DB018D
:101070004091DC015091DD016091DE017091DF0152
:101080008091E0010E94920608958091E0018031F4
:1010900078F48091DF01882359F0E091A00120913C
:1010A000A1013091DB014091DA0157E02E1301C01C
:1010B00008956E2F70E05E9FF0011124DF01AE55A0
:1010C000BE4F14968C911497882361F111968C91E0
:1010D0001197831327C08C91841324C015968C918B
:1010E000159781111FC012968D919C91A091DC01E2
:1010F000B091DD018A1B9B0B883C910598F480918F
:10110000E0018F7080618093E001E855FE4F80819F
:101110008F70806180838AED91E00E9420060E949A
:1011200012080895FB013196E770C0CFE091A0014D
:101130009091A10127E0E91302C080E00895AE2F4D
:10114000B0E02E9FF0011124EE55FE4F3181361391
:1011500006C03081381303C03581341304C0FD014B
:101160003196E770E8CF81E008958F929F92AF9219
:10117000BF92DF92EF92FF920F931F93CF93DF9373
:10118000CDB7DEB72D970FB6F894DEBF0FBECDBF3B
:101190008C0186E0F801DE01189601900D928A9587
:1011A000E1F7F801E080F580A280B38084819AEDB8
:1011B000892E91E0992E9091DE0191111BC0882318
:1011C00009F4FCC0FF2009F43DC1C8010E947B0660
:1011D000882309F437C187E0F801D40101900D920A
:1011E0008A95E1F7C4010E94E1020E9445080E942D
:1011F0003408E4C0D090DF012091DC013091DD01A2
:10120000A501421B530BDD2009F4DBC0483C51050E
:1012100008F0A6C0882309F4D1C09091DB01918029
:101220008091E001803108F06BC0991228C0909144
:10123000DA019E1124C0F1105DC08F70806180932F
:10124000E0010E9434088AED91E00E94200680911E
:10125000E001F8018683F12C8F2D2D960FB6F894BE
:10126000DEBF0FBECDBFDF91CF911F910F91FF90D9
:10127000EF90DF90BF90AF909F908F900895F11006
:1012800039C040E0692D8E2D0E94960840E0692DFE
:101290008E2D0E949608F82E8111DDCF88859985C4
:1012A0000E94DC07292F22952F70903450F49F70F4
:1012B000223080F0992399F0F8019681903178F4EA
:1012C000CBCF2A5F2F70223078F0C8010E94200611
:1012D000FD2CC2CF992319F0882309F4BDCF805E7D
:1012E000883008F4B9CFF1CF803F08F4B5CF815FE3
:1012F0008230F7CF8091E00181608093E001ABCF35
:10130000991207C09091DA019E1103C0FF2009F4E1
:1013100079C0C8010E947B06882309F493C0FF208E
:1013200009F490C08091E001803288F02091DA01C8
:101330003091DB013A832983BC82AB829091DE013C
:101340009D831E828F83CE0101960E94200687E036
:10135000F801AAEDB1E001900D928A95E1F745CF31
:101360009091E0019031A0F4488559856A857B858C
:101370008C859D850E9488068AED91E00E9420065A
:1013800087E0F40111928A95E9F70E94340863CF4F
:101390008823A1F02091DB0181812813BACF8091AD
:1013A000DA018E11B6CFF110B4CF9683C8010E9436
:1013B000200687E0F40111928A95E9F7FF24F3945F
:1013C0004BCF483C510508F041C08823B9F3FF20BA
:1013D000C9F19091DB01818198132AC08091DA01D3
:1013E0008E1126C08091E00180FD19C08031B8F0D7
:1013F0008683807F803F39F08681982F907F905F31
:101400008F70892B8683C8010E94200687E0F8012F
:10141000AAEDB1E001900D928A95E1F7E8CE87E060
:10142000F801AAEDB1E001900D928A95E1F7C6CFDF
:10143000C8010E947B0681118ACF8091E001816002
:101440008093E001C8010E942006B8CF48855985E5
:101450006A857B858C859D850E94880691CFAEE04C
:10146000B0E0E5E3FAE00C942321288739874A8726
:101470005B876C877D878E87CE0108960E94B508B2
:101480008823B1F06C85662341F0288539854A852B
:101490005B857D858E850E94920617E08091A00174
:1014A0009091A10189133EC02E96E3E00C943F2158
:1014B00087E0FE013896DE01119601900D928A9523
:1014C000E1F72091A1014091A0018C85882329F3A7
:1014D00030E0C90101968770992750E0841795077D
:1014E00099F097E0929FD001939FB00D1124AE55D3
:1014F000BE4FFE01319601900D929A95E1F78093CF
:10150000A1010E941208C9CF0E9459061092A101A0
:101510001092A00187E0EAEDF1E0DF011D928A95CB
:10152000E9F7BBCF189FC00111248E559E4F0E9432
:10153000B508882309F4B8CFE091A0011E9FF001FF
:101540001124EE55FE4F2081318142815381648107
:10155000758186810E9492068091A00190E001969B
:10156000877099278093A00199CF80910902869571
:1015700086958695089580910902877008959091C7
:101580000902977081E0911101C080E00895809177
:101590003502089590913502982B90933502089565
:1015A000982F909580913502892380933502089574
:1015B00010923502089590913402982B9093340242
:1015C0000895982F90958091340289238093340256
:1015D000089510923402089508950E94EC0A089527
:1015E00090910A02292F2823222331F08095892304
:1015F00080930A020E94ED0A089508950E94FD0A50
:10160000089590910B02292F2823281729F0982B51
:1016100090930B020E94FE0A089590910B02292FCD
:101620002823222331F08095892380930B020E9486
:10163000FE0A089580910B02882329F010920B0274
:1016400080E00E94FE0A0895CF93DF93C091350297
:1016500080913402C82BD0910B02DD2331F00E941F
:10166000C11781110E941A0BCD2B8C2FDF91CF91C6
:101670000895CF93DF93C0910201D09103010E949E
:10168000240B8883C0910201D091030148E050E00F
:1016900061E072E0CE010E944B21892B59F088E075
:1016A000FE01A1E0B2E001900D928A95E1F7CE0132
:1016B0000E944C17DF91CF910895CF93DF93C09193
:1016C0000001D09101010E94240B8983C091000187
:1016D000D091010140E250E061EE71E0CE010E9444
:1016E0004B21892B59F080E2FE01A1EEB1E001907F
:1016F0000D928A95E1F7CE010E945717DF91CF91A5
:10170000089580911601882339F080916B0287FF3C
:1017100003C00E945D0B08950E94390B089508953F
:101720000E948F0B089590916C0292FF11C098E077
:10173000899F90011124622B609309020E94E406A4
:10174000809109028695869586950E94900B089552
:101750000E94E40608951092090280E00E94900B16
:101760000895909109028095892380930902282F7A
:10177000277021110DC0891759F090916C0292FFCA
:1017800007C08695869586950E94F4060E94AB0B4D
:10179000089590916C0292FB222720F9281769F096
:1017A00080FB92F990936C0280916B0290916C0295
:1017B0000E94110C82E00E94B10B089580916C028E
:1017C00082FB882780F991E089270E94C90B089540
:1017D00081E00E94C90B089580E00E94C90B089522
:1017E0006FEF7FEF80E090E00E949D21089580E000
:1017F00090E00E9469219C0181E0253E3E4F09F066
:1018000080E0089582E090E00E946121089583E0E5
:1018100090E00E946121089584E090E00E94692197
:101820000895BC0184E090E00E949D210895AB01E1
:10183000BC018FE090E00E9491210895AB01BC01B2
:1018400083E190E00E949121089560E070E0CB0177
:101850000E941E0C089560E070E0CB010E94170CFE
:101860000E94250C0895A8E0B0E0E9E3FCE00C94A8
:10187000242165EE7EEF80E090E00E949D2160E0F3
:1018800082E090E00E947F2181E090E090939F01B0
:1018900080939E0161E083E090E00E947F2160E000
:1018A00074E184E090E00E949D2160E086E090E099
:1018B0000E947F2160E087E090E00E947F2140E06D
:1018C00050E0BA0188E090E00E94912160E083E25C
:1018D00090E00E947F2160E08CE090E00E947F21F8
:1018E00060E08DE090E00E947F2119821A821B82C5
:1018F0001C821D821E821F82188648E050E067E12C
:1019000070E0CE0101960E946F2140E050E0BA01E4
:101910008FE190E00E9491210E942B0C2896E2E03A
:101920000C9440210E94330C0895682F8EE090E0C3
:101930000E947F210895A6E0B0E0E1EAFCE00C946B
:1019400022210E9486198C018091360290913702E3
:101950008017910779F019821A820E948619BC01BA
:1019600049815A8180E090E00E94B10210933702D1
:10197000009336022696E4E00C943E210E949219D0
:10198000609340027093410280934202909343021D
:1019900060933C0270933D0280933E0290933F021D
:1019A0000895089508950E94D10C089508950E9405
:1019B000D60C08958AEA9FE00E94FD100E94D20C86
:1019C0000E94D30C089581E008950E94E30C0895CD
:1019D0000E94E30C0895089508950E94EB0C0E9464
:1019E000EC0C08950E94F70B811102C00E94920C2A
:1019F0000E94020C809344020E940C0C90936C0293
:101A000080936B020E94FC120E94070C90E00E94DF
:101A1000A80680919C0190919D010E94C90608959D
:101A20000E947D190E9453100E94F20C0E948B02AA
:101A30000E94CD120E9413110E94D70C0895A6E0B7
:101A4000B0E0E5E2FDE00C941B210E94E50C811161
:101A50000CC00E949B0C0E94CC120E9497150E9401
:101A600098022696EBE00C9437210E94691088E3D7
:101A7000A82E82E0B82E750110E0F70101917F01D8
:101A8000812F0E94B40F1F5F143009F443C0081760
:101A9000A1F38091440281FD0E94BA0F0E94E80CDC
:101AA000C82E00E099249394802F0E94B40F182F21
:101AB000F50191915F01891739F1D82ED926F12CC2
:101AC000EE24E3948D2D8E218823B1F0CC20A1F05B
:101AD000F9820A830E9486199C838B839D8291E000
:101AE000812F8E21811101C090E049815A816B8143
:101AF0007C818D810E94B102F394EE0CF4E0FF1220
:101B0000E1CFF501319710830F5F043069F60E9431
:101B1000BE0CA1CF0813BDCF9CCF1F93CF93DF93F3
:101B20000E94B70EEC01811522E5920708F053C020
:101B3000811540E5940708F0DDC0803E9105F8F47A
:101B40008D3C910508F0AEC0883A910580F4853A45
:101B5000910508F099C08130910521F00497813AF0
:101B6000910550F4CE01DF91CF911F910895885ACD
:101B700091094B9708F48BC0C0E0D0E0F3CF8115FA
:101B800050E49507F8F4C11580E2D80708F0CBC0FF
:101B9000C83ED10538F3CE019A9581159F4160F773
:101BA0008D2F0E945B0F182FCE0199270E94B70E30
:101BB000212F30E0322F2227E901CC27DF71C82BFB
:101BC000D92BD0CF99270E94B70ECC27DF70C82B16
:101BD000D92BD06AC7CF803842E59407C8F5803644
:101BE00052E5950708F067C0C03482E5D807B0F029
:101BF0008C2F86958695877020E2829FC0011124E4
:101C0000C37021E030E0A90102C0440F551FCA95FE
:101C1000E2F7EA01C82BD92BDC68A4CFC03252E529
:101C2000D50708F041C08C2F8695869520E2829FCB
:101C3000C0011124C37021E030E0A90102C0440FAB
:101C4000551FCA95E2F7EA01C82BD92BDD688ACF68
:101C5000803C52E5950760F48F71C03AD24508F098
:101C60003FC090E0982F8827EC01C46FD06A7ACFEC
:101C7000805C9245809708F07FCFDC2FCC27CC2763
:101C8000DF71C06FD06A6ECFA497D0646BCFC85A93
:101C9000D0E0CC0FDD1FC35BDE4F0990D881C02D93
:101CA000D46460CFD0655ECFCF71D0E0DC2FCC277D
:101CB000C16FD06A57CF86958695877020E2829F44
:101CC000C0011124C37021E030E0A90102C0440F1B
:101CD000551FCA95E2F7EA01C82BD92BDA6842CF23
:101CE0000E945B0FC82FD0E0DC2FCC27CC27DF7100
:101CF000D06238CF8F710E945B0F65E0D695C79593
:101D00006A95E1F7CF70D0E0DC2FCC27282F30E0A8
:101D100084FF05C054E0220F331F5A95E1F7C22B10
:101D2000D32BD0691FCF8D2F8F710E945B0F182F7F
:101D3000CE0199270E94B70E212F30E0322F2227A3
:101D400022273F71282B392BE901D2CF462F672F4D
:101D5000942F972B943018F40E948301089580E00B
:101D600090E008950E94A60E0E948D0D0895803E79
:101D70009105D1F1C8F48133910509F47FC048F48D
:101D80008932910509F46FC08A32910509F47DC04A
:101D9000089589339105E1F082389105C9F08533C2
:101DA000910509F45BC00895843E9105D1F148F492
:101DB000823E910531F1833E910541F181EE90E043
:101DC0000895863E9105C1F1873E9105E1F10895A0
:101DD00020916B022370211165C020916C0223FFBA
:101DE00014C089E290E0089520916B0220FD43C069
:101DF00030916C0230FF09C024FF4EC080E090E0BB
:101E0000089520916B0222FDF7CF089520916B0277
:101E100022FD45C030916C0230FD44C024FFF5CF57
:101E2000EDCF20916C0221FFF0CF80916B0284FDF9
:101E3000E5CF87EE90E0089520916B0223FFE5CF78
:101E400024FDDCCFF6CF20916B0223FD2EC0309114
:101E50006C0231FFE3CF84EE90E0089520916B0295
:101E600025FFD3CFBECF20916B0225FD21C020914D
:101E70006C0223FFCACF89E390E0089520916B02A2
:101E800026FFC3CF8AE290E0089520916B0226FFDF
:101E9000BCCF81E390E0089583EE90E0089582EE58
:101EA00090E0089580EE90E0089586EE90E0089529
:101EB00085E390E0AACF90916B0292FF10C041E0C1
:101EC000282F2471243009F040E031E0282F2871B8
:101ED000283009F030E0431711F02CE0822793FFFF
:101EE00010C041E0282F2471243109F040E031E096
:101EF000282F2871283109F030E0431711F02CE029
:101F0000822730916C0230FF10C051E0282F2171E0
:101F1000213009F050E041E0282F2871283009F0E5
:101F200040E0541711F029E0822731FF10C041E052
:101F3000282F2171213109F040E031E0282F28714C
:101F4000283109F030E0431711F029E0822794FD91
:101F5000877E089580E0089508950E94AC0F08954B
:101F600008950E94B00F0895E82FF0E0EF58FD4F5C
:101F700080810895089580EA8A95F1F7089500C058
:101F800008950E94BB0F0895F894E82FE295EF7032
:101F9000F0E041A18F7021E030E0B90102C0660F8E
:101FA000771F8A95E2F7CB01962F9095942391A302
:101FB00092A1892B82A37894089586EC0E94C40F85
:101FC00087EF0E94C40F86E90E94C40F86E30E9437
:101FD000C40F87E60E94C40F86E60E94C40F84E304
:101FE0000E94C40F87E90E94C40F0895A0E0B0E0EA
:101FF000ECEFFFE00C941E21EC01D62E062F10E032
:10200000C80189579E4F7C01FC0180818F3F09F4F4
:1020100045C0F894E82FE295EF70F0E091A18F7041
:1020200021E030E001C0220F8A95EAF7892F822B48
:1020300081A382A12095282322A378940E94BF0F18
:10204000E3E8F1E091E0C12C81918F3F81F0A82F6E
:10205000A295AF70A05EB0E02C9130E08F7002C00E
:10206000359527958A95E2F72170892F211180E017
:10207000C82A990F81E0E738F80731F7F701808126
:102080008F3F11F00E94C40F61E0C11001C060E0F9
:102090008D2D0E94C10FC00FD11FC882CDB7DEB7F2
:1020A000E8E00C943A210E94DD0F84E0E1E7F2E0E1
:1020B000DF01982F1D929A95E9F7EDE6F2E0DF0136
:1020C0001D928A95E9F784E00E94A5100E94AD0F49
:1020D0000895A4E0B0E0EFE6F0E10C9423211A8229
:1020E00019821C821B8210E0612FCE0101960E9492
:1020F000F60F1F5F1430C1F744E050E0BE016F5F80
:102100007F4F8DE692E00E944B2121E0892B81F4E4
:1021100020E044E061E772E08DE692E00E94A610C4
:10212000182F0E94B10F812F2496E3E00C943F21D9
:1021300089819A81AB81BC8180936D0290936E02FC
:10214000A0936F02B0937002E4CF0895A0E0B0E0D6
:10215000ECEAF0E10C941E21D82EE92EF62ED72FB2
:10216000042FC22F222379F081E0809347020E943E
:102170008619909346028093450280E0CDB7DEB782
:10218000E8E00C943A21C0904702CC20B1F3809152
:102190004502909146020E94AF19059770F310E036
:1021A000A8016D2D7E2D8F2D9D2F0E944B21892BF7
:1021B00041F0A8016D2D7E2D8F2D9D2F0E9458215D
:1021C000CC2D109247028C2FD9CF0E941F0D08955D
:1021D0000E941F190E945A1B0E94DA0C0E94741B55
:1021E0000E94100D0E94811B0E94861B0E94E51018
:1021F0000E94A01B0E94ED0CF7CF90938D0180935D
:102200008C01089586E090E00E9461210895682F76
:1022100086E090E00E947F2108958DE28093750210
:102220000E94071108950E9402118093750282FF97
:102230000E940D1180917502803320F087708862B2
:102240008093750290917502892F8170882321F007
:10225000892F8695869586950E94131208959091F0
:102260007502892F869586958695983240F48F5F02
:10227000880F880F880F9770892B80937502809143
:1022800075028160809375020E940711809175022A
:102290008695869586950E94131208958091750201
:1022A000883078F088508093750291E0883008F487
:1022B00090E08091750290FB80F9809375020E94F6
:1022C0000711809175028695869586950E94131256
:1022D00008958091750280FD13C08160809375021E
:1022E000813019F489E080937502809175020E9413
:1022F0000711809175028695869586950E94131226
:1023000008958091750280FF08C08E7F80937502CA
:102310000E94071180E00E941312089580917502B7
:1023200080FF03C00E94811108950E9469110895E1
:10233000809175028695869586958F5F8F71863020
:1023400008F080E0880F880F880F909175029770D1
:10235000892B8093750291E0883008F490E0809199
:10236000750290FB80F9809375020E94071180919D
:1023700075028695869586950E941312089586307B
:1023800008F085E0209175022770982F990F990F1A
:10239000990F922B9093750221E0983008F420E079
:1023A0009091750220FB90F9909375020E94131290
:1023B00008950E94BF11809175020E94071108952F
:1023C0009C01FB018581882361F12330F8E73F07F9
:1023D000E1F060F42130E8E73E07A9F02230F8E7A9
:1023E0003F07C9F02115384749F008952430E8E740
:1023F0003E0771F02530384789F0089585E00E9446
:10240000D91180E0089580E0FACF0E944E11F9CFF3
:102410000E942F11F6CF0E948E11F3CF0E949811C7
:10242000F0CF81E00895A8E0B0E0E9E1F2E10C949A
:102430001E218630F0F481111DC0809180008F77BD
:102440008093800080918600909187008091860023
:1024500090918700E0E0F0E0CF0169E070E00E9439
:10246000AA2070938900609388002896E8E00C9475
:102470003A2185E090918000906890938000A0912F
:102480008600B0918700282F30E00E94FA206983EF
:102490007A838B839C8325E030E040E050E00E940B
:1024A000D22069017A01F90180918600909187001C
:1024B0006CE070E00E94AA206C157D0568F68091A2
:1024C00086009091870000918600109187002091EE
:1024D00086003091870066E070E00E94AA20C60E58
:1024E000D71EE11CF11CD701C60145E0880F991FDA
:1024F000AA1FBB1F4A95D1F789839A83AB83BC83FC
:10250000C80166E070E00E94AA2040E050E0260F7B
:10251000371F411D511D69817A818B819C810E94E9
:10252000D22029833A834B835C83E0918600F0912B
:102530008700CA01B9010E949A20DF019B01AC010A
:102540000E9409216D837E838F8398879B01AC0154
:1025500069817A818B819C810E949A2069837A8328
:102560008B839C83DC01CB015FE0B695A7959795A3
:1025700087955A95D1F7409186005091870060E089
:1025800070E0481759076A077B0720F4809186009E
:1025900090918700BC0165CF0895259A2D9882E817
:1025A0008093800089E1809381008FEF9FEF90936B
:1025B0008700809386000E94131108950E94F00BFB
:1025C000089580E00E94B40F817008950E94691000
:1025D0002FEF86E791E0215080409040E1F700C066
:1025E00000000E9469100E94E112882321F00E94DD
:1025F000DE120E94E21908950E94E6120895CF9318
:10260000DF93EB0186319C4719F50E94C70A9D8133
:102610009923A1F08A7A91E0811101C090E0909312
:102620004802882349F085E30E9470180E94810BBC
:1026300080E0DF91CF91089589E2F6CF8091480242
:10264000882321F085E30E948718F0CF89E2FBCF31
:1026500081E0EFCFCF93DF93EC01FB0185818823ED
:1026600009F4D2C09E0130572332310508F0B2C0C0
:102670000E940C0C90936C0280936B02FE01E1505F
:10268000F047E232F10520F4EF53FE4D0C94F420B4
:1026900080916B02816080936B0293C080916C0289
:1026A000886080936C028DC080916B028260F3CF52
:1026B00080916B028460EFCF80916B028860EBCFDA
:1026C00080916C028160EDCF80916C028260E9CFD5
:1026D00080916B028061DFCF80916B028062DBCFE3
:1026E00080916B028064D7CF0E94590680916B0263
:1026F0008068D1CF80916B028C60CDCF80916C02CD
:102700008360CFCF80916B028E7FC5CF80916C02AA
:10271000877FC7CF80916B028D7FBDCF80916B0289
:102720008B7FB9CF80916B02877FB5CF80916C0290
:102730008E7FB7CF80916C028D7FB3CF80916B027B
:102740008F7EA9CF80916B028F7DA5CF80916B0288
:102750008F7BA1CF0E94590680916B028F779BCF10
:1027600080916B02837F97CF80916C028C7F99CF91
:1027700080916B0282FB992790F921E0922790FBD0
:1027800082F990FB83F987CF80916C02982F909506
:1027900091708E7F892B90FB81F983CF90916B0292
:1027A000892F8F7B96FF806476CF0E945906909187
:1027B0006B02892F97FB87F980586DCF81E00E94CB
:1027C000950C80916B0290916C020E94110C0E94FA
:1027D000590680E0DF91CF91089580E0F0CF90918D
:1027E0006B02892F8F7E94FF806155CF90916B0291
:1027F000892F8E7F90FF81604ECF90916C02892F40
:10280000877F93FF88604DCF81E0E4CF282F35EBA1
:102810002303C001112497FF04C080589109892F18
:10282000089580589F4FFBCF80914F0280FF0DC0CD
:102830006091090170E0660F771F60387105C0F57F
:1028400061157105B9F1862F089581FF07C0609168
:10285000090184E0689FB0011124EFCF82FF04C01A
:102860006091090188E0F6CF80914E028823E9F05B
:10287000909108016091090170E0891730F093E0B0
:10288000660F771F9A95E1F7D8CF869F9001879FB3
:10289000300D112483E0220F331F8A95E1F7692F51
:1028A00070E0C9010E94BE20C8CF68E070E0CBCFC5
:1028B0008FE7089581E0089580914F0280FF0CC05A
:1028C0006091050170E0759567957595679561153F
:1028D000710561F1862F089581FF06C060910501A1
:1028E00070E075956795F3CF6091050170E082FD0A
:1028F00015C020914D022223B1F090910401609106
:10290000050170E0291750F4269FA001279F500D64
:102910001124692F70E0CA010E94BE206038710541
:10292000B0F28FE7089561E070E0D4CF81E00895C0
:10293000E3E3E80FE331E0F5F0E0ED51FE4D0C94F8
:10294000F4200E94141481958093530208950E94EC
:102950001414FACF0E9414148195809352020895A2
:102960000E941414FACF0E945C14809354020895BC
:102970000E945C148195F9CF0E945C14819580932C
:10298000550208950E945C14FACF815D990B21E0F5
:1029900030E001C0220F8A95EAF780915102822B24
:1029A00080935102089580914F02816080934F027D
:1029B000089580914F028260F9CF80914F02846028
:1029C000F5CF409152028D3C59F48091530287FF1C
:1029D0000DC010925302442359F410924E0208C0C5
:1029E0008E3C81F48091530218169CF3442381F0AD
:1029F0008091540290915502892B811159C01092F7
:102A00004D0208958F3C41F447FFF0CF10925202DF
:102A1000809153028823E0CF803D19F41416B4F35B
:102A2000E5CF90915402893D29F41916FCF61092D5
:102A30005402DCCF8A3D19F497FFD8CFF8CF90919C
:102A400055028B3D29F497FFD1CF10925502CECF7E
:102A50008C3D19F41916CCF3C9CF9FE2980F98302A
:102A600090F4815D990B21E030E0B90102C0660F5E
:102A7000771F8A95E2F7CB018095909151028923C7
:102A800080935102B3CF8D3D31F480914F028E7F00
:102A900080934F02ABCF8E3D21F480914F028D7F0A
:102AA000F7CF8F3D09F0A2CF80914F028B7FF0CFFF
:102AB00008950E9486192091520230915302232BCF
:102AC000222321F080934B0290934C0220915402D8
:102AD00030915502232B222321F0809349029093B9
:102AE0004A0280E592E00E946617089586E0E0E5DC
:102AF000F2E0DF011D928A95E9F710924E021092E2
:102B00004D0210924F020895FC01828181110DC087
:102B1000838181110AC08481811107C081E0958180
:102B2000911101C080E08170089581E0FCCFA6E0A2
:102B3000B0E0EDE9F5E10C94212186E0E0E5F2E07A
:102B40009E012F5F3F4FD90101900D928A95E1F7C9
:102B50001092520210925302109254021092550297
:102B60008B819C81892B8901882391F080914B0274
:102B700090914C020E94AF199C0180914E028823D3
:102B8000C9F140910A0150E04217530708F43FC0D1
:102B90008D819E81892B882399F0809149029091A3
:102BA0004A020E94AF199C0180914D02882309F4CA
:102BB00067C04091060150E04217530708F46EC009
:102BC000B80180E592E00E94B818811105C080E547
:102BD00092E00E94841581110E94591586E0F80147
:102BE000A0E5B2E001900D928A95E1F72696E5E026
:102BF0000C943D2140910B019AE0499FA0011124C2
:102C00004217530728F68F5F80934E0202C08F3F12
:102C1000D1F7FB80FF2059F00E94141491E01F149B
:102C20000CF09FEF899F802D112480935202FC802D
:102C3000FF2059F00E94141491E01F140CF09FEF34
:102C4000899F802D11248093530280915202882302
:102C500009F49ECFF0905302FF2009F499CF0E940F
:102C60000614811101C081E0809352028F2D0E94D1
:102C70000614882319F0809353028ACF81E0FBCF9A
:102C8000409107019AE0499FA00111244217530780
:102C900008F096CF8F5F80934D0202C08F3FD1F72F
:102CA000FD80FF2059F00E945C1491E01F140CF08D
:102CB0009FEF899F802D112480935402FE80FF2076
:102CC00059F00E945C1491E01F140CF09FEF899F53
:102CD000802D11248093550280915402882309F499
:102CE0006FCFF0905502FF2009F46ACF0E940614BE
:102CF000811101C081E0809354028F2D0E9406143F
:102D0000882319F0809355025BCF81E0FBCF0F93AE
:102D10001F93CF93DF93C42FD22FFC01858188238B
:102D2000C9F0409358020E948619909357028093ED
:102D3000560280E28C0F883040F4C77081E001C0F9
:102D4000880FCA95EAF70E94FC03DF91CF911F918B
:102D50000F9108951091580214133CC080915602AF
:102D6000909157020E94AF19883C910598F5C0E2F6
:102D7000CD0F1D1741F180E2810F883040F41770AC
:102D800081E001C0880F1A95EAF70E940304C83059
:102D900020F0802F0E94F303D8CF91E08D2F877011
:102DA00001C0990F8A95EAF7892F0E94FC03802FB2
:102DB0000E94F303D77081E001C0880FDA95EAF72B
:102DC0000E940304C2CF802F0E94F303C83008F092
:102DD000BCCFF0CF80E28C0F883008F0B6CFC77040
:102DE00081E001C0880FCA95EAF7EACF0F93FC0192
:102DF000CB01E851FC47E730F10590F5EA50FE4D74
:102E00000C94F42006E221EE41EE6AE17CE70E9498
:102E1000871680E00F91089507E225EE45EE6BE1FD
:102E20007CE7F5CF06E221EE40EE68E17CE7EFCFEC
:102E300007E225EE44EE69E17CE7E9CF06E221EE08
:102E400042EE6CE17CE7E3CF07E225EE46EE6DE172
:102E50007CE7DDCF08E221E045EE6EE17CE7D7CFED
:102E6000FB01858181111092580281E0D3CF9093AC
:102E70005E0280935D020895E0915D02F0915E0232
:102E8000309729F00190F081E02D0995089580E0B8
:102E900008950E943C170895E0915D02F0915E0252
:102EA000309721F00280F381E02D09950895DC012F
:102EB000E0915D02F0915E02309739F086E08C93EC
:102EC0000480F581E02DCD0109950895DC01E091A4
:102ED0005D02F0915E02309739F082E08C930680BB
:102EE000F781E02DCD0109950895A3E0B0E0EBE76F
:102EF000F7E10C9424219C0180915B0290915C028B
:102F000082179307A1F030935C0220935B02E0915B
:102F10005D02F0915E02309751F083E089833B833C
:102F20002A830084F185E02DCE0101960995239630
:102F3000E2E00C944021A3E0B0E0E1EAF7E10C9478
:102F400024219C018091590290915A028217930783
:102F5000A1F030935A0220935902E0915D02F09162
:102F60005E02309751F084E089833B832A8300849A
:102F7000F185E02DCE01019609952396E2E00C94AF
:102F8000402120910201309103012E5F3F4F80913B
:102F900016018823A9F080916B0287FF11C0209150
:102FA0000001309101012E5F3F4F9DE180E0F9016A
:102FB00040812F5F3F4F41118F5F9150C0F70895BF
:102FC00095E0F4CF882321F190911601992311F116
:102FD00090916B0297FF1EC0982F969596959695A7
:102FE000803FB0F4E0910001F0910101E90FF11D83
:102FF000228130E0877041E050E0BA0102C0660FE4
:10300000771F8A95E2F72623372381E0232B91F45B
:1030100080E008952091020130910301F901329678
:10302000285F3F4F9191981721F0E217F307D1F7EE
:10303000EFCF81E008959C01FC0132968FEF90E084
:103040004191461751F08F3F19F4411101C0892F6A
:103050009F5F9630A9F78F3F09F40895280F311D1F
:1030600087FD3A95F901628308959C01FC0132962F
:10307000285F3F4F8191861303C0DF0111971C9297
:10308000E217F307B9F70895FC01862F8695869518
:103090008695603F60F4E80FF11D677021E030E035
:1030A00001C0220F6A95EAF78281822B82830895FC
:1030B000FC01862F869586958695603F80F4E80F03
:1030C000F11D677081E090E09C0102C0220F331F68
:1030D0006A95E2F7B9016095828168236283089559
:1030E000682F80911601882359F080916B0287FF29
:1030F00007C080910001909101010E944418089539
:1031000080910201909103010E941B180895682F7D
:1031100080911601882359F080916B0287FF07C0C8
:1031200080910001909101010E94581808958091AA
:103130000201909103010E943518089580911601B3
:10314000882379F080916B0287FF0BC0E09100012A
:10315000F091010132968EE1DF011D928A95E9F727
:103160000895E0910201F0910301329686E0F4CFD8
:10317000DC01FB0111969C9111978181981322C06B
:1031800012968C911297882319F0928189131AC094
:1031900013968C911397882319F09381891312C089
:1031A00015968C911597882319F0958189130AC07B
:1031B00014969C91992321F081E02481291303C066
:1031C00080E001C081E08170089508950E94E518B3
:1031D00008958F5F80935F020E94E618089583E050
:1031E00080935F020E94E61808950E94E9180895EE
:1031F00081E080935F020E94E61808950E94F8180B
:103200000895089508950E94021908950895089553
:103210000E9401190895CF930E9406190E94691017
:103220000E940719C0E08C2F0E94B40F811105C0C5
:10323000CF5FC430C1F7CF91089581E0FCCF85B74F
:10324000806885BF85B7806885BF08951F921FB6C7
:103250001F9211248F939F93AF93BF93809160022D
:10326000811113C08091760290917702A09178022B
:10327000B09179024196A11DB11D80937602909381
:103280007702A0937802B0937902BF91AF919F919A
:103290008F911F901FBE1F90189580917E028430E1
:1032A00031F10E946A021092600288E190E020E40D
:1032B0000FB6F894A895809360000FBE209360002D
:1032C00083B7817F846083BF83B7816083BF789435
:1032D000889583B78E7F83BF0FB6F894A8958091A9
:1032E0006000886180936000109260000FBE0895B6
:1032F0000E9459060E947202089582E084BD93E004
:1033000095BD9AEF97BD80936E0008952FB7F894FE
:103310008091760290917702A0917802B091790223
:103320002FBF0895A4E0B0E0E8E9F9E10C9424216E
:103330008FB7F8942091760230917702409178020D
:103340005091790229833A834B835C838FBF6981D3
:103350007A818B819C812496E2E00C9440219C012F
:103360004FB7F8948091760290917702A0917802FD
:10337000B09179024FBF821B930B089578941F92EE
:103380001FB61F9211248F939F93AF93BF93809189
:10339000760290917702A0917802B091790201961D
:1033A000A11DB11D8093760290937702A0937802BD
:1033B000B0937902BF91AF919F918F911F901FBEE3
:1033C0001F90189581E08093E00080E28093D80000
:1033D0001092C9008FE19EE40197F1F700C0000050
:1033E00087E090EBDC018093870290938802A093A2
:1033F0008902B0938A0288E19CE00FB6F894A89500
:10340000809360000FBE90936000FFCF88E19CE046
:103410000FB6F894A895809360000FBE909360005B
:10342000FFCF809169020895282FCB01BA01309116
:103430007E023430E1F42F702093E9002FEF3091B9
:10344000E80035FD07C035ED3A95F1F70000215051
:103450002111F5CF2091E80025FF09C040E050E0A0
:103460000E94181C8091E8008E778093E8000895F0
:10347000BC0143E050E082E00E94141A0895BC01B0
:1034800046E050E082E00E94141A0895BC0140E238
:1034900050E082E00E94141A0895CF93DF93D82F52
:1034A000C92F48E050E0682F792F81E00E94141A5C
:1034B00088E0ED2FFC2FA1E6B2E001900D928A95F5
:1034C000E1F7DF91CF91089580917D02811109C0CC
:1034D0000E94A01D0E94FD1D8091E20084608093E7
:1034E000E200089510927D0208950E94F818089550
:1034F00060917A0281E0611101C080E00E94EF18C2
:10350000089590917E0281E0943009F080E060910E
:103510007A020E94F518089542E061EC81E00E9471
:103520001C1D42E261EC82E00E941C1D90917E0213
:1035300081E0943009F080E060917A020E94E918FD
:10354000089580918002893089F148F4823009F42D
:10355000A0C0833009F45AC0813041F008958A3008
:1035600009F487C08B3009F46CC0089580917F0204
:10357000813A09F04AC08091E800877F8093E80093
:103580008091830290918402892B61F060E080E059
:1035900090E070E00E94671C8091E8008B77809338
:1035A000E800089568E081E692E0F3CF80917F0221
:1035B000813259F58091830290918402029728F517
:1035C0008091E800877F8093E8008091E80082FF87
:1035D00018C09091F3008091F200029731F480912D
:1035E000F100813011F0863021F48091F100809358
:1035F00069028091E8008B778093E8000E94501D5B
:1036000004C080917E028111E0CF089580917F02F5
:10361000813AD9F78091830290918402892BA9F78E
:103620008091E800877F8093E8008091E80080FF28
:10363000FCCF809116018093F1008091E8008E7795
:10364000DBCF80917F02813201F7809183029091DC
:103650008402892BD1F68091E800877F8093E8006F
:103660000E94501D80918102809316010E9459068C
:10367000089580917F02813241F68091E800877F32
:103680008093E8000E94501D8091820280936A021C
:10369000089580917F02813A09F0B7CF8091E800C8
:1036A000877F8093E8008091E80080FFFCCF8091C5
:1036B0006A02C1CF84B7877F84BF0FB6F894A895FC
:1036C00080916000886180936000109260000FBE5E
:1036D00080E890E00FB6F8948093610090936100C9
:1036E0000FBE0E94FE1808950E94A01D0E94FD1D9D
:1036F000E2EEF0E080818460808378940E948020F4
:1037000008958CE091E00E943717089580917E0221
:10371000853031F480917E02853019F00E9478194D
:1037200008950E944D190E940B19882399F38091E6
:103730007C02882379F30E94021C0E945906EACF7A
:1037400008959A0140918502509186020E94A91B1A
:103750000895AC01CB01D901252F33272330310542
:10376000E1F058F421303105C9F122303105D9F1A9
:1037700080E090E020E030E01EC02132310521F1F0
:1037800022323105A9F7892BC1F16130710581F72A
:1037900086EB90E02FE531E00EC0CA019927413059
:1037A00069F08230910569F0EEE0F1E0892B01F7D4
:1037B000849190E09F012D933C930895E6EFF0E013
:1037C000F7CFECEEF0E0F4CF892B91F0613071058A
:1037D00079F689E090E02DE331E0EDCF82E190E0F1
:1037E0002DE431E0E8CF8BE390E022E131E0E3CF5C
:1037F00089E090E024E231E0DECF84E490E025E14E
:1038000032E0D9CF80E189BD82E189BD09B400FEF3
:10381000FDCF8091D8008F7D8093D8008091E0000B
:1038200082608093E0008091E00081FDFCCF0895EC
:10383000AF92BF92CF92DF92FF920F931F93CF93DD
:10384000DF936C01EB018A010E946F1DF82E81113C
:1038500023C00115110539F0F80180819181C81B41
:10386000D90BC80ED91EA12CB12C2097A9F080919C
:10387000E80085FD22C08091E8008E778093E80003
:1038800001151105A1F0F801808191818A0D9B1D20
:103890009183808385E0F82E8F2DDF91CF911F914A
:1038A0000F91FF90DF90CF90BF90AF9008950E944E
:1038B0006F1D8823E1F2F82EEFCFF60181916F01A1
:1038C0008093F1002197FFEFAF1ABF0ACECFFC0122
:1038D0009B0180918502909186028617970718F0C8
:1038E000672B61F0C90140E0009771F441110CC0F1
:1038F0008091E80082FF35C080E008958091E80063
:103900008E778093E800EECF20917E022223A9F1EA
:103910002530A9F12091E80023FD2DC02091E80079
:1039200022FDE6CF2091E80020FFDECF3091F300AA
:103930002091F200009719F02830310558F041E04D
:103940002830310509F040E02091E8002E772093DF
:10395000E800CACF41914093F10001972F5F3F4F9C
:10396000E9CF80917E02882341F0853041F080913B
:10397000E80083FFBDCF81E0089582E0089583E0F1
:103980000895FC019B018091850290918602861723
:10399000970718F0672B61F0C90140E0009771F4B8
:1039A00041110CC08091E80082FF36C080E008958C
:1039B0008091E8008E778093E800EECF20917E0220
:1039C0002223B1F12530B1F12091E80023FD2EC072
:1039D0002091E80022FDE6CF2091E80020FFDECF15
:1039E0003091F3002091F200009719F02830310552
:1039F00058F041E02830310509F040E02091E8001E
:103A00002E772093E800CACF44914093F10031967D
:103A100001972F5F3F4FE8CF80917E02882341F0CE
:103A2000853041F08091E80083FFBCCF81E00895AC
:103A300082E0089583E00895982F973028F08F70E2
:103A40008093E90081E008959093E900242F762F78
:103A500050E0981731F07091EC002091ED005091FA
:103A6000F00021FD02C09F5FE8CF3091EB003E7F68
:103A70003093EB003091ED003D7F3093ED003091BD
:103A8000EB0031603093EB007093EC002093ED007D
:103A90005093F0002091EE0027FDE5CF80E00895DF
:103AA00080917F0287FF13C08091E80082FF06C0EB
:103AB0008091E8008B778093E80004C080917E02BB
:103AC0008111F2CF089580917E028823D9F38091ED
:103AD000E80080FFF8CF8091E8008E77ECCF20914E
:103AE000E4003091E50095E6A9018091EC00817039
:103AF000882331F08091E80080FF06C080E00895BF
:103B00002091E80022FD1BC080917E02882391F065
:103B1000853091F08091EB0085FD10C02091E4008C
:103B20003091E5004217530701F391509111DCCF1A
:103B300084E0089582E0089583E0089581E0089587
:103B40000E940F1E0E94171EE0EEF0E0808181604F
:103B50008083E8EDF0E080818F77808319BCA7ED4A
:103B6000B0E08C918E7F8C9380818F7E80831092C9
:103B70007D0208950F931F93CF93DF930E940F1E32
:103B80000E94171EC8EDD0E088818F7788838881D6
:103B90008068888388818F7D888319BC10927E021B
:103BA00010927A0210927C0210927B0200EE10E0DA
:103BB000F80180818B7F808388818160888342E0E7
:103BC00060E080E00E941C1DE1EEF0E080818E7FCD
:103BD0008083E2EEF0E08081816080838081886074
:103BE0008083F80180818E7F8083888180618883D3
:103BF000DF91CF911F910F910895E8EDF0E0808162
:103C00008F7E8083E7EDF0E080818160808384E0B7
:103C100082BF81E080937D020E94BA1D0895E8ED85
:103C2000F0E080818E7F80831092E20008951092F0
:103C3000DA001092E10008951F920F920FB60F92D2
:103C400011242F933F934F935F936F937F938F93A1
:103C50009F93AF93BF93EF93FF938091E10082FF17
:103C60000BC08091E20082FF07C08091E1008B7F52
:103C70008093E1000E947F208091DA0080FF19C0CC
:103C80008091D80080FF15C08091DA008E7F8093EC
:103C9000DA008091D90080FF94C080E189BD82E183
:103CA00089BD09B400FEFDCF81E080937E020E94B1
:103CB000641A8091E10080FF19C08091E20080FFCA
:103CC00015C08091E2008E7F8093E2008091E20037
:103CD00080618093E2008091D80080628093D80058
:103CE00019BC85E080937E020E94781A8091E100E1
:103CF00084FF29C08091E20084FF25C080E189BD56
:103D000082E189BD09B400FEFDCF8091D8008F7D8E
:103D10008093D8008091E1008F7E8093E1008091B4
:103D2000E2008F7E8093E2008091E20081608093C8
:103D3000E20080917A02882309F449C084E08093EC
:103D40007E020E94811A8091E10083FF29C0809148
:103D5000E20083FF25C08091E100877F8093E1002E
:103D600082E080937E0210927A028091E1008E7F41
:103D70008093E1008091E2008E7F8093E200809149
:103D8000E20080618093E20042E060E080E00E9417
:103D90001C1D8091F00088608093F0000E94751ACD
:103DA000FF91EF91BF91AF919F918F917F916F9113
:103DB0005F914F913F912F910F900FBE0F901F90E9
:103DC000189519BC10927E020E94721A72CF8091CF
:103DD000E30087FF02C083E0B2CF81E0B0CF1F9243
:103DE0000F920FB60F921124FF920F931F932F93F0
:103DF0003F934F935F936F937F938F939F93AF9373
:103E0000BF93CF93DF93EF93FF9309EE10E0F80198
:103E10008081C091EC00C795CC27C7958F70FC2E90
:103E2000F82A1082C0EFD0E08881877F8883789459
:103E30000E94381FF8011082888188608883CF2D06
:103E4000CF70C083FF91EF91DF91CF91BF91AF9180
:103E50009F918F917F916F915F914F913F912F91A2
:103E60001F910F91FF900F900FBE0F901F9018950C
:103E7000AAE2B0E0EEE3FFE10C9423218FE792E0A9
:103E8000FC0101962091F100208322E087389207FF
:103E9000B9F70E94A11A8091E80083FF38C0809191
:103EA0007F02909180029A3090F5E92FF0E0E35084
:103EB000FE4D0C94F420803889F0823841F58091D1
:103EC00083028F70873018F58093E9008091EB00B2
:103ED00085FB882780F91092E90006C080917B025B
:103EE00090917C02911182609091E800977F90936D
:103EF000E8008093F1001092F1008091E8008E7745
:103F000023C0811116C080918102813011F180910E
:103F1000E80083FF0AC08091E800877F8093E80073
:103F20008091EB0080628093EB00AA96E3E00C9412
:103F30003F21823061F780918102882389F01092BD
:103F4000E9008091E800877F8093E8000E94501D7F
:103F5000DECF81E0933009F080E080937C02EFCFE8
:103F6000809183028F702FEF280F263080F6809388
:103F7000E9002091EB0020FFE2CF933031F48091F3
:103F8000EB0080628093EB00DACF9091EB009061C0
:103F90009093EB0021E030E0A90102C0440F551FCF
:103FA0008A95E2F74093EA001092EA008091EB00D4
:103FB0008860E8CF8111ABCF109181021F7780918B
:103FC000E3008078812B8093E3008091E800877F75
:103FD0008093E8000E94501D8091E80080FFFCCF94
:103FE0008091E30080688093E30083E0111101C0B9
:103FF00082E080937E028BCF8058823008F087CF9A
:1040000080918102909182028C3D53E0950799F551
:1040100083E08A838AE289834FB7F894DE0113969E
:1040200020E03EE051E2E32FF0E05093570084910E
:1040300020FF03C082958F703F5F8F708A30C8F079
:10404000895C90E08D939D932F5F243161F74FBF82
:104050008091E800877F8093E8006AE270E0CE01FB
:1040600001960E94671C8091E8008B778093E8009E
:104070004ECF805DE6CF6091830270918402AE01E5
:104080004F5F5F4F0E94A11BBC01892B09F43FCFFA
:104090008091E800877F8093E80089819A810E945F
:1040A000C11CE1CF803809F032CF8091E800877FD2
:1040B0008093E80080917A028093F1001ECF8111F5
:1040C00026CF90918102923008F021CF8091E800B4
:1040D000877F8093E80090937A020E94501D809120
:1040E0007A02882331F084E080937E020E948C1A49
:1040F0000ECF8091E30087FDF6CF81E0F5CF0895E4
:10410000CF9380917E02882399F08091E900C0913D
:10411000EC00C795CC27C7958F70C82B1092E9008B
:104120008091E80083FD0E94381FCF70C093E900A2
:10413000CF910895DB018F939F930E940921BF9136
:10414000AF91A29F800D911DA39F900DB29F900DE6
:1041500011240895AA1BBB1B51E107C0AA1FBB1F56
:10416000A617B70710F0A61BB70B881F991F5A9503
:10417000A9F780959095BC01CD01089597FB072E76
:1041800016F4009407D077FD09D00E94AA2007FCFE
:1041900005D03EF4909581959F4F08957095619557
:1041A0007F4F0895A1E21A2EAA1BBB1BFD010DC073
:1041B000AA1FBB1FEE1FFF1FA217B307E407F507D7
:1041C00020F0A21BB30BE40BF50B661F771F881FB3
:1041D000991F1A9469F760957095809590959B0149
:1041E000AC01BD01CF010895EE0FFF1F0590F491C2
:1041F000E02D0994A29FB001B39FC001A39F700D51
:10420000811D1124911DB29F700D811D1124911DDE
:1042100008950E94FA20A59F900DB49F900DA49F31
:10422000800D911D112408952F923F924F925F921D
:104230006F927F928F929F92AF92BF92CF92DF92B6
:10424000EF92FF920F931F93CF93DF93CDB7DEB71B
:10425000CA1BDB0B0FB6F894DEBF0FBECDBF0994AF
:104260002A88398848885F846E847D848C849B8406
:10427000AA84B984C884DF80EE80FD800C811B8114
:10428000AA81B981CE0FD11D0FB6F894DEBF0FBE43
:10429000CDBFED010895FB01DC0104C08D910190BB
:1042A000801921F441505040C8F7881B990B08959C
:1042B000FB01DC0102C001900D9241505040D8F743
:1042C0000895F999FECF92BD81BDF89A992780B5DE
:1042D0000895A8E1B0E042E050E00C94A521DC0193
:1042E000A40FB51F4150504048F0CB01840F951FDB
:1042F0002E910E94802141505040D0F70895262FE2
:10430000F999FECF92BD81BDF89A019700B40216CB
:1043100039F01FBA20BD0FB6F894FA9AF99A0FBE79
:1043200008950396272F0E9480210E947F21252F28
:104330000E948021242F0C9480210196272F0E9417
:1043400080210C947F21DC01CB01FC01F999FECF87
:1043500006C0F2BDE1BDF89A319600B40D9241500D
:104360005040B8F70895F894FFCF480448048F04EC
:104370008F04F40411057704770416058D059E0556
:104380009E058213F6138A13541358138E135C136D
:1043900092139E136813EF136C13A2137013A613DA
:1043A000CE137413AA13D5137A13B013B813601372
:1043B000961364139A137E13B413C413DE13ED1310
:1043C0004E138613FD13A114A714AA14B014C51418
:1043D000C514C514C514C514C514C514C514B31427
:1043E000B814BC14C214D314D914DD14121718173E
:1043F00002170C171E1724172A175B1F811F871F10
:0E440000811F871FDA1FFC1F871F52205F20BD
:10440E000C022C02280850011E0A1401111A4D1A12
:10441E00461A3F1A381A01E200E900EA00B500B662
:10442E0000B700CD008301CC008A019201940121D6
:10443E0002230224022502260227022A02B300B416
:10444E00006F0070009F01CB019F02A002E200E905
:10445E0000EA00B500B600B700CD008301CC008A9B
:10446E000192019401210223022402250226022731
:10447E00022A02B300B4006F0070009F01CB019FAF
:0C448E0002A00267663497C6F79636005D
:00000001FF
