:020000040800F2
:1020000000040020392200083B2200083B2200087F
:102010003B2200083B2200083B2200083B2200082C
:102020003B2200083B2200083B2200089D8000085C
:102030003B2200083B2200083B220008B180000838
:102040003B2200083B2200083B2200083B220008FC
:102050003B2200083B2200083B2200083B220008EC
:102060003B2200083B2200083B2200083B220008DC
:102070003B2200083B2200083B2200083B220008CC
:102080003B2200083B2200083B2200083B220008BC
:10209000158100083B2200083B2200083B22000873
:1020A0003B2200083B2200083B2200083B2200089C
:1020B0003B2200083B2200083B2200083B2200088C
:1020C0003B2200083B2200083B2200083B2200087C
:1020D0003B2200083B2200083B2200083B2200086C
:1020E0003B2200083B2200083B2200083B2200085C
:1020F0003B2200083B2200083B2200083B2200084C
:102100003B2200083B2200083B2200083B2200083B
:102110003B2200083B2200083B2200083B2200082B
:102120003B2200083B2200083B2200083B2200081B
:102130003B2200083B2200083B2200083B2200080B
:102140003B2200083B2200083B2200083B220008FB
:102150003B2200083B2200083B2200083B220008EB
:1021600072B6264880F30888254880F309882548F8
:1021700025490860022080F31488BFF36F8F03F0B5
:1021800027F804F025FD4FF0553020491B4A9142B5
:102190003CBF41F8040BFAE71D49194A91423CBF84
:1021A00041F8040BFAE71B491B4A1C4B9A423EBFFD
:1021B00051F8040B42F8040BF8E700201849194ABB
:1021C00091423CBF41F8040BFAE704F03DFD04F0F6
:1021D00039FD154C154DAC4203DA54F8041B884701
:1021E000F9E704F04BFE124C124DAC4203DA54F8FE
:1021F000041B8847F9E704F026BD00000004002016
:10220000000C00200020000808ED00E00000002085
:1022100000040020DC950008000C0020AC11002018
:10222000B0110020841C00206021000860210008FB
:10223000602100086021000892E700F000F8FEE746
:102240002DE9F04FC1F80CD0C3689D46BDE8F08F72
:10225000002383F311882846A047002005F012FFD1
:10226000FEE704F017FD00DFFEE7000070B586070B
:1022700047D0541E002A3ED00346CAB201E0013CBA
:1022800039D303F8012B9D07F9D1032C2CD9CDB2FA
:1022900005EB05250F2C1A4605EB054534D9A4F1AD
:1022A000100C2CF00F0603F1100EB6444FEA1C1C64
:1022B000C2E90055C2E9025510327245F8D10CF15D
:1022C000010214F00C0F03EB021204F00F0C13D0F8
:1022D000ACF1040323F003030433134442F8045B1A
:1022E0009342FBD10CF003042CB1C9B21C4403F897
:1022F000011BA342FBD170BD64461346002CF4D1F0
:10230000F9E703461446C0E7A446E1E7844641EAFC
:10231000000313F0030349D1403A23D30B68036051
:102320004B6843608B688360CB68C3600B69036153
:102330004B6943618B698361CB69C3610B6A03623B
:102340004B6A43628B6A8362CB6AC3620B6B036323
:102350004B6B43638B6B8363CB6BC3634030403108
:10236000403ADBD230320BD30B6803604B684360DA
:102370008B688360CB68C36010301031103AF3D2A1
:102380000C3205D351F8043B40F8043B043AF9D22F
:10239000043208D0D2071CBF11F8013B00F8013B02
:1023A00001D30B8803806046704700BF082A13D30F
:1023B0008B07B1D010F00303AED0C3F10403D21ADF
:1023C000DB071CBF11F8013B00F8013BA4D331F837
:1023D000023B20F8023B9FE7043AD9D3013A11F8B7
:1023E000013B00F8013BF9D20B7803704B78437046
:1023F0008B78837060467047032A30B415D941EA60
:102400000004A40784460B4604D0541E0FE0043A8F
:10241000032A08D91946604653F8044B5CF8045B5C
:10242000A542F4D0F1E760461946541E7AB1431E26
:102430000139021901E09A4209D013F8010F11F88D
:1024400001CF6045F7D0A0EB0C0030BC70470020F6
:1024500030BC704753B94AB9002908BF00281CBFD7
:102460004FF0FF314FF0FF3000F00CB8ADF1080C29
:102470006DE904CE05F0BDFFDDF804E0DDE90223DF
:1024800004B07047704700BF030943EA001040B230
:102490008300C0F3850000F0330023F033030343CF
:1024A0005BB25800C3F3460303F0550300F0AA00E3
:1024B000184370470123034A834010781843107073
:1024C000704700BF331C00200123034A834010786B
:1024D00020EA030010707047331C002037B5ADF8B8
:1024E0000400C0F3072005281FD89DF80430062BF0
:1024F0001BD8C0EBC00003440120002403F00702F6
:102500009040C3F3CC030A4A03EB4303C0B2134425
:1025100013F8015F21FA04F242F300026A4002401C
:1025200001345540032C1D70F2D103B030BD00BF03
:102530000F1C002013B5ADF80400C0F307200528D8
:102540001CD89DF80430062B18D80021C0EBC00021
:10255000034408460A4A03F00704C3F3CC0303EB21
:10256000430313445A5CE24002F001028A40013105
:1025700010430329C0B2F5D102B010BD0020FBE723
:10258000101C002030B50124084D04FA01F12B780D
:1025900004FA00F00843C1B21840814204FA02F480
:1025A00006BF2343DBB2A3432B7030BD331C002096
:1025B000054B064A1B7812789A4200D170470133C6
:1025C00003F00703F8E700BF3A1C0020391C002085
:1025D00010B509490B7823EA000010F007040870D1
:1025E00009D1984207D0054B5B785B0703D5C0083B
:1025F000FFF76AFF0C7010BD341C0020361C002051
:10260000F0B5144B144E1878144B35781B781843DA
:10261000E5B1134B9B78012B19D1124B124993F959
:102620000030002B114BB2BF1E27062719460C465F
:10263000002214F8013B0BB10132D2B23B1B0B4418
:1026400013F0FF03F5D102B133702843F0BD062724
:102650000649ECE72F1C0020301C0020381C00200D
:10266000A8110020361C00205A1500205215002009
:10267000024A137823EA0003137070472F1C0020CE
:10268000E7284FD8DF2807D8312864D00ED829286A
:1026900057D02A2866D07047A0F1E003072B41D815
:1026A000DFE803F01540232831403C41392804D0AD
:1026B000822802D035283FD07047324B1A789207D3
:1026C0001FD15B7813F0080F18BF292070472D4ADF
:1026D0001378D9074DD4527812F0010F22D013F09D
:1026E000100F14BF0020E3207047264B1B7813F017
:1026F000040FF3E7234A137859073CD45278D207E2
:10270000EDD5E02070471F4B5A7891070AD51B780A
:1027100013F0100F14BF0020E7207047194B1B78EF
:102720001A07F5D47047174A1378190725D4527839
:102730009107EDD5E4207047124B1B7813F0200F62
:10274000C2E7104B1A78920619D45B7813F0080F81
:1027500018BF392070470B4B1B7813F0400F18BF80
:102760002A207047074B1B7813F0400F18BF312009
:10277000704739207047E2207047E62070473520C7
:10278000D0E700BF361C002010B52F4C21784B0736
:1027900013D500F01402A2F1040C00F01803DCF1D0
:1027A000000242EB0C02A3F1080CDCF1000343EB46
:1027B0000C039A4218BF80F00C000B0713D500F0F1
:1027C0001402A2F1140C00F01803DCF1000242EB39
:1027D0000C02A3F1180CDCF1000343EB0C039A424A
:1027E00018BF80F00C006478E30713D500F01102E5
:1027F00002F1FF3C00F01803DCF1000242EB0C0296
:10280000A3F1080CDCF1000343EB0C039A4218BF60
:1028100080F00900A30711D500F0110200F01803A1
:10282000A2F111046242A3F1180C6241DCF1000331
:1028300043EB0C039A4218BF80F00900CB0648BF57
:1028400000F0E70010BD00BF361C002038B5FFF7D0
:1028500017FFB0F5A44F044643D2B0F5A04F80F067
:10286000AE80DF2816D8CC2800F28C80A7280AD8A2
:10287000A42879D8012804D0031F9BB2A12B28BF1C
:102880000024204638BDA0F1A8039BB21A2B71D9B1
:102890000024F6E7B0F5804F19D2B0F5005F80F064
:1028A000A080E728EDD9A0F580739BB2B3F5F85F5F
:1028B000EED2C0F30720FFF767FF0546E0B2FFF74F
:1028C000DFFE2D0205F4F85540EA050450E0C0B2E1
:1028D000FFF7D6FE04F47064204340F4204084B235
:1028E000CFE7B0F5A54F22D245F25F23984253D8E7
:1028F00045F23F2398420FD845F21F23984244D80F
:10290000012300F00304C0F38502A34043EA42130D
:1029100043F40D439CB2B4E7012300F00304C0F379
:102920008202A34043EA421343F40C43F2E745F228
:10293000BF2398420AD845F29F23984200F01F0017
:1029400035D84AF2F40343EA00249AE7A0F5A543F8
:10295000403B9BB21F2B9BD8040204F4F85444F470
:10296000204444F0F0048CE7A0F1240444F48044B3
:10297000A4B286E7234B5834E4B233F8144044F44D
:1029800088447EE740F4A044F2E74AF2F10300F005
:102990001F0443EA042474E7012300F00304C0F396
:1029A0008202A34043EA421343F40A43B2E7FFF72B
:1029B000EBFE040204F4F85444F4005461E700F020
:1029C0001F00FFF7E1FE03B2C20648BF1B01C4F3BC
:1029D00043144FEA042448BF1BB21C4344F4104480
:1029E000C6E7C0F30420FFF7CFFE0546E0B2FFF7CD
:1029F00047FE2D0205F4F855054345F40055ACB2E9
:102A00003FE700BFFC9400080020704730BFFDE79F
:102A10000346DA680846511C10B4D96019698A4225
:102A200007D21C681CB15968234610BC18479B6824
:102A3000985410BC70470000014B1B68184700BF3A
:102A4000B80E00202DE9F047DDF820A005461AF069
:102A5000030F0F4614461E46D0F80C8010D03C449D
:102A6000BC420FD11AF0020F16D1BDE8F087202129
:102A70002846FFF7CDFF09F10109B145F7D3EEE78D
:102A80009146FAE7284614F8011DFFF7C1FFE7E772
:102A900020212846FFF7BCFFEB68A3EB0803B342F5
:102AA000F6D3E2E72DE9F04F0D468BB01E46DDE987
:102AB00014839446169C02A9FDB9270518D4302228
:102AC00001258DF8082024F01004A2076FD404F02B
:102AD000010243B1002A6AD0BCF1000F02D114F008
:102AE0000C0F00D0013B002A61D02A46302728E095
:102AF000102EEAD124F01004E7E714F0200F14BFE1
:102B00004FF0410E4FF0610E2A4689460025AEF186
:102B10000A0EB2FBF6FA06FB1A2B5FFA8BF7BBF133
:102B2000090F94BF30377744FFB2964205F1010593
:102B300009F8017BC9D8202DC7D05246E9E7575480
:102B40000132934201D9202AF9D1302701E05754AC
:102B50000132904501D9202AF9D1082E03D195429E
:102B600038BF24F0100442F210073C423CD0270545
:102B70001FD4F2B1904501D093421AD1954201D2AF
:102B8000013A16D02B4FF740FF0724D595424DD27E
:102B9000102E02F1FF3212D1A70632D4202A13D10F
:102BA00020220094FFF74EFF0BB0BDE8F08F2A46BD
:102BB000CBE7102EF0D0022E0DD1202AF0D002F15A
:102BC000280562266D4403E0782602F128056D444D
:102BD00005F8206C0132202AE2D0302602F12805C7
:102BE0006D4405F8206C0132202AD9D0BCF1000FC9
:102BF0000ED02D2602F128056D4405F8206C013217
:102C0000CFE7202ACCD002F1280558266D44DFE713
:102C1000660704D502F128052B266D44EDE725074C
:102C2000BFD502F1280520266D44E6E7102EC4D159
:102C3000B2E700BF0400010030B50F4C94F8043433
:102C4000BBB9302282F311880C490D48CA698B60E8
:102C500055682843506055680A48284350600A4A1E
:102C6000136102220A7183F31188012084F804049D
:102C700030BD0220FCE700BF3C160020481A0020AF
:102C800023016745AB89EFCD002002400B4A92F843
:102C9000043483B1302383F311880949C869036977
:102CA00043F08003036101200023087183F311883E
:102CB00082F8043470470220704700BF3C160020A1
:102CC000481A002013B50C4A0B46ADF806101168DF
:102CD0000A4A0144127812B1DB43ADF80630084BC2
:102CE000022218680368DC680DF10603A047B0FAF9
:102CF00080F0400902B010BDBC0E0020441A002034
:102D0000681A002038B5104B0C461D680F4B05445F
:102D1000186803685B6898470122002143690C48E2
:102D20005B5B0C4D02702D780B4A11700DB1DB43CB
:102D30009BB20170107820B10023184611702380D7
:102D400038BD0120FBE700BFBC0E0020681A002040
:102D500030160020441A00203116002000EB4003FA
:102D6000C3EB031300EB830083B200B2002807DA41
:102D7000803800B2002800DAFF3040F307207047A7
:102D800003F18000F9E70000164B1B78D90707D53F
:102D9000154B187840007F281FD800B3C0B2704789
:102DA0009A0703D5104B18788000F4E75B0703D52A
:102DB0000D4B1878C000EEE70C4B1B785BB10C4A4A
:102DC0000949127808789342F4D25843C000B0FB06
:102DD000F2F080B2DFE70820E0E77F2070470120B3
:102DE000704700BF221C0020B70E0020241C0020CA
:102DF000B60E0020144B1B78D90705D5134B187855
:102E00008008F0B1C0B270479A0703D50F4B18780D
:102E10004008F6E75B0705D50C4B18787F28F0D9FA
:102E20007F2070470A4B1B784BB10A4A074912783A
:102E3000087893423CBF5843B0FBF2F0EEE7012024
:102E4000E0E70120704700BF221C0020B50E0020E3
:102E5000231C0020B40E002008B5A0F1CD03122BD6
:102E600010D8DFE803F00A1013192E2E2E2E2E2E66
:102E70002E2E1C21252B363C4100FFF785FF4042BA
:102E80001C4BD87008BDFFF77FFFF9E7FFF77CFF09
:102E90004042184B9870F5E7FFF776FFF9E7FFF728
:102EA000A9FF144B1871EDE7FFF7A4FF4042F8E7C4
:102EB000FFF7A0FF40420F4B5871E3E7FFF79AFF7F
:102EC000F9E701230B4AD138517883400B43537003
:102ED000D8E7094A137843F001031370D2E7064A92
:102EE000137843F00203F8E7034A137843F004032E
:102EF000F3E700BF251C0020221C002030B5414B09
:102F0000CD2893F9035093F9024093F9041093F9F3
:102F1000052012D1002D01DA0022DA70D9789A78D2
:102F20000A4351B20AB9384A11701A795B791343CE
:102F30005AB20BB9354B1A7030BDCE2802D1002DD4
:102F4000EADCEBE7CF2804D1002CE7DA00229A7004
:102F5000E4E7D02802D1002CF8DCDFE7D92804D13F
:102F60000029DBDD00221A71D8E7DA2802D1002916
:102F7000D4DAF7E7DB2804D1002ACFDA00225A712D
:102F8000CCE7DC2802D1002AF8DCC7E7D1380E28CC
:102F9000C4D801A252F820F0D52F0008D52F000880
:102FA000D52F0008D52F0008D52F0008D52F0008F1
:102FB000D52F0008D52F00081D2F00081D2F000851
:102FC0001D2F00081D2F0008E32F0008EF2F000819
:102FD000F92F000801215A78814022EA01025A7033
:102FE0009CE70B490A7822F001020A7096E708492B
:102FF0000A7822F00202F8E705490A7822F0040272
:10300000F3E700BF251C0020241C0020231C002007
:10301000221C0020024B186808B10368184770474B
:10302000041C00200B4B07B51A8882420ED0188072
:10303000094B1B6853B103228DF80500000A8DF877
:1030400006001B698DF8042001A8984703B05DF8BD
:1030500004FB00BF2E160020041C00200B4B07B5FC
:103060001A8882420FD01880094B1B685BB104227A
:103070008DF80500000A8DF806001B698DF8042004
:103080000DEB0200984703B05DF804FB2C160020FE
:10309000041C0020014B5878704700BFA811002085
:1030A000302370B583F31188124B13481349DC6940
:1030B00003680A68E41AA242114A0AD9A3F58333C5
:1030C000E03B036010680F4B04F583340344E034A5
:1030D00013600C601668002181F311884FF47A7533
:1030E00009480023E4FB0501084AFFF7B3F930441F
:1030F00070BD00BF801B0020741A0020701A0020D1
:103100006C1A002088598F029F860100A08601005A
:10311000BFF34F8F0549064BCA6802F4E0621343C0
:10312000CB60BFF34F8F00BFFDE700BF00ED00E0B5
:103130000400FA050023F0B5414C89B0636090F8B3
:10314000771090F8762042EA012290F8781090F8F3
:10315000790041EA0021100A032814D00DD8012873
:1031600067D002280DD17423364A002A344808BF9C
:1031700010466260236009B0F0BD21284AD02228A1
:103180004FD01A46F1E7D3B2032B06D8DFE803F09D
:103190005402070A0C232C4AE7E70023F1E71E2319
:1031A0002A4AE2E72A4B2B4D1F7887BB01221A706F
:1031B00004AB102239461846FFF758F86E4603460E
:1031C000254A02F5FD6007C8CDE9040106920FCB40
:1031D00086E80F003946214808AB03EB610313F87A
:1031E000202C05EB41031609865D02F00F029E704C
:1031F0000026825CDE704B1C023105EB4303202964
:103200009A70DE70E8D142232B7003236B702B7809
:10321000104AAAE70329B4D8114B53F821200923F7
:10322000A3E70329ADD80F4B53F821200E4B5B5C6D
:103230009BE712230D4A98E704230D4A95E700BF48
:1032400024160020DB920008C9920008A992000809
:10325000DE150020DF15002000F0FF1F9892000807
:103260007893000868930008619300084F93000862
:10327000D792000890F87A2090F87B00084942EA3B
:103280000022022A0B7807D1012B01D0062B05D191
:103290004A78044B5A707047024A5370704700BF17
:1032A000DC150020A811002070B590F874100446B9
:1032B00001F07F03212B40F09B8011F0800F90F8EC
:1032C000753055D0022B37D0032B27D0012B4FD18F
:1032D00090F8783090F87610032B00F2AD80082932
:1032E00000F2AA80584AD25C032A00F2A5809020FE
:1032F000564B00FB0233D3F88C30002B00F09C803F
:10330000534D5E6818682A46B04705F10803A36666
:10331000AB6C0022E3662267012070BD90F8782034
:1033200090F8793052EA032262D14A494A4B8978AF
:10333000836619700123EDE790F8783090F87610E5
:10334000032B79D8082977D83F4AD25C032A73D84F
:1033500090203E4B00FB0233D3F88C30002B6BD017
:103360005A69186890473D4B1870A3660123D0E74F
:103370000A2B22D00B2B0FD0092B39D194F878309F
:1033800094F8792043EA022323F0020383BB344BF1
:10339000344AA3660223BDE794F8783094F8792084
:1033A00053EA022306D194F876302A4A003B18BF2C
:1033B000012393700023A366ABE7264B94F8772094
:1033C00094F876101A7094F87830032B34D80829C2
:1033D00032D81D48C05C03282ED890251B4B05FB16
:1033E0000033D3F88C303BB31D691868A847E1E778
:1033F00001F09F01812916D194F87530062B12D166
:1034000094F87920616894F878304D6843EA022393
:10341000204694F8772094F87610A84760B1436866
:10342000A366036875E70425084ED6F884302BB9E7
:10343000013D06F19006F8D100206EE7204698473E
:103440000028F5D068E700BF94920008680F0020BC
:103450008C150020A8110020D9150020D8150020B7
:10346000DC15002075320008302383F311880269CF
:1034700043699A420FD1C3687BB10123026F90F870
:10348000741012898B4013420CBF012000200023CE
:1034900083F3118870470020F9E71846F7E700002A
:1034A000036843B19100196003490B78002A18BFE3
:1034B00043F001030B707047781B0020006810B1C7
:1034C0000068C0F387007047036870B50BB900202F
:1034D00070BD302383F31188036800211C685B688A
:1034E00081F31188002CF2D04FF47A76074A08480D
:1034F000D569084AED1AE5FB06010023FEF7AAFF8D
:1035000084428CBF00200120E2E700BF801B002026
:103510009F860100A08601004B1E072B0BD850F898
:10352000213043B19100196003490B78002A18BF7C
:1035300043F001030B707047781B0020082906D860
:1035400050F8210020B10068C0F3870070470020C8
:1035500070470000082970B501D9002070BD50F8EF
:103560002130002BF9D0302383F3118850F821301B
:1035700000211C685B6881F31188002CEDD04FF4AA
:103580007A76074A0748D569074AED1AE5FB06012E
:103590000023FEF75FFF84428CBF00200120DDE79F
:1035A000801B00209F860100A0860100034610B505
:1035B0001B68984203D09C688A689442F8D25A6883
:1035C0000B604A601160596010BD0000302383F326
:1035D00011880D4B5B6813F4006312D0EFF309837D
:1035E0004FF08072203BDA6183F30988074A116843
:1035F000D2688968926891428CBF054A054A9A61EF
:10360000704783F31188704700ED00E0801B0020B5
:103610006322000866220008034640691A69824254
:1036200001D1DB681BB950F8043B0B6070470023E5
:103630001846FAE703691960C268013AC260C269B4
:10364000134482690361934224BF436A03610023E8
:103650008362036B03B118477047302208B582F3C9
:103660001188816A29B103690439C91A01D0FFF7A9
:10367000E1FF002383F3118808BD036810B55B6880
:103680000C469847C36813B153F8340010BD006965
:103690006043FBE790F87630074A10B580F87E303B
:1036A00043F08003D364436804461B680BB10121D7
:1036B00098470323237010BD005C004070B50124BF
:1036C000468904FA01F53543458100EB8100C56860
:1036D000A8698260002203604260C2602BB16A8ADE
:1036E000013B1344B3FBF2F39CB2084A048252F844
:1036F000213023F4904323F0700383F4405343F4C8
:10370000004343F0800342F8213070BD005C00406C
:1037100010B40346006F0278042A12D1012293F8F4
:10372000741044898A4022420BD11A695C69A24212
:1037300001D1DC682CB9DB6910BC043B0432FFF713
:10374000BDBF10BC7047406BFFF7E2BF0048704739
:10375000F0910008F7B505460079052840D004200F
:1037600028711F204FF6FF7CEC69E060206940F073
:10377000010020610AB910462AE021F00100ADF8ED
:1037800004C000F1006001F0010613F8017B083667
:103790006E44013A06F8047C01F1010101D0CF0723
:1037A000F1D4BDF804700780E668F607FCD4E6683B
:1037B00006F01F0E16F0100FC4F80CE007D17607C4
:1037C00003D4008880B28742D4D0032000E00620D2
:1037D000236923F00103236102232B7103B0F0BDA1
:1037E0000120FBE70720704710B503790446052B3D
:1037F00014D005231F220371C369DA601A6942F0ED
:1038000002021A61FFF739FFE36900F100605861B5
:1038100000201A6942F040021A6110BD0120FCE745
:103820000379052B09D1C369DA68D20707D41A696D
:1038300022F036021A61022303710020704709B199
:1038400001230B600120704710B503790446052B56
:1038500012D0FFF712FF00F100631A1F03F57F7308
:1038600052F8041F013105D19A42F9D100200223F8
:10387000237110BD0520FAE70120FAE7164BF0B5D9
:103880009F5C0023032A1D464FF008021C461E467B
:1038900008BF016111F0800F4FEA04144FEA0313CF
:1038A0004FEA06164FEA05150CBF44F00F043B43E0
:1038B00011F4004F0CBF46F00F063D43013A4FEAAA
:1038C0004101E7D1426832402A4342600268224007
:1038D00013430360F0BD00BFDC91000808B530233E
:1038E00083F31188012100F00F039940032220F097
:1038F0000F00FFF7C3FF002383F3118808BD00000A
:103900000F4B10B51B6D040103F1804303F5C04359
:1039100003EB0010E358114403F1005303F5405347
:103920005B004260002AA1EB020400DC10BD20789D
:103930006478023A40EA042043F8040BF2E700BF3F
:10394000005C004038B50C46012511460289A540AF
:103950001543058100EB8400C26800255069128A76
:1039600003609A4228BF1A46816002614560C560C3
:103970002046FFF7C5FF084A52F8243023F4F043ED
:1039800023F0400383F0300343F4004343F080030B
:1039900042F8243038BD00BF005C004037B5406BB2
:1039A000046F2378042B13D1012390F874502289DB
:1039B000AB4013420CD101A9FFF72EFE024638B1ED
:1039C00029462046019B03B0BDE83040FFF7BABF4F
:1039D00003B030BD38B590F864300446002B41D0B8
:1039E000063BDAB20F2A37D80F2B35D8DFE803F0C1
:1039F0003A343408263534343434343434343A3AAE
:103A000090F87A3090F87B20C56E43EA02239D42FD
:103A100014D2C3681B8AB5FBF3F203FB12556DB9D0
:103A2000302383F311882B462A462946FFF78AFF65
:103A300085F311880A2384F864300DE0142384F898
:103A40006430302383F31188002320461A46194638
:103A5000FFF734FE81F3118838BD036F03B1984737
:103A60000023E8E748F280010D4A136823F4F0438D
:103A700023F0400383F010030B431360136823F417
:103A8000904323F0700383F480530B431360636807
:103A90001B6813B10621204698470623CBE700BFD9
:103AA000005C004010B590F864300446142B36D00A
:103AB00024D8062B05D001D81BB110BD093B022B21
:103AC000FBD848F280011C4A136823F4F04323F02A
:103AD000400383F010030B431360136823F49043F7
:103AE00023F0700383F480530B43136063681B68F7
:103AF00013B1062120469847062319E0152BDCD187
:103B00000B2380F86430302383F3118800231A4696
:103B10001946FFF717FF002383F31188CDE7C36829
:103B20009B695B68002BC8D1036F03B198470023E2
:103B300084F86430C1E700BF005C004000EB810303
:103B4000F0B5DE68274A3368146D03F00303032BD6
:103B500018BFB3FA83F304F18044726918BF5B099C
:103B600004F5C0440CBF4FF4C0635B024FEA011C74
:103B700004EB011572B100226A60328AD0F88470B9
:103B8000013222F001023A44C0F8842043F02003BD
:103B90004CF80470B269DAB1748A43F40053621EBF
:103BA0003E2C93BF42F001020F4E520901328BBFEF
:103BB00046EA8222520292B202F47C42EA60013466
:103BC000D0F8842024F001041444C0F88440AA6092
:103BD0008A0002F1804202F5B84210680B4310607F
:103BE0001360F0BD005C00400080FFFF00218022D8
:103BF0000A4B0B4819655964DA644268D2688A42F4
:103C000014BF4FF43E424FF43C421A644023C0F8C4
:103C10008430044BC360FFF791BF00BF005C0040DD
:103C2000981A0020B89100082DE9F04F07460E467B
:103C3000154687B0317881B93B6853B93A6942B1CA
:103C4000B96831B1FB68934228BF02F1FF3300220B
:103C5000CA54F86807B0BDE8F08F252906F10106BF
:103C600003D03846FEF7D4FEE4E7002406E02D2B0F
:103C70001BD0302B25D144F001041646324612F8F1
:103C8000013B2B2B14D0F2D8202B14D0232B15D092
:103C90002A2B39D155F8048B1646B8F1000FBCBF5A
:103CA00044F00204C8F100081FE044F00204E4E715
:103CB00044F00404E1E744F00804DEE744F01004B3
:103CC000DBE7A3F130010929E2D84FF0000805E055
:103CD0000A21164601FB0833A3F13008324612F8D8
:103CE000013BA3F130010929F2D933782E2B41D1C0
:103CF0007278731CA2F13001092944F4006430D8B1
:103D00004FF0000A0A2607E04FF00008EDE70B46E7
:103D100006FB0A22A2F1300A194611F8012BA2F182
:103D200030000928F3D91E46334613F8012B6C2ABC
:103D30002AD022D8682A2ED06A2A36D016F8011B3B
:103D400078298ED8632933D8622900F0328163291B
:103D500000F0A080252984D0582982D144F0200485
:103D60006EE02A2A05D155F8043B023623EAE37AAD
:103D7000DAE71E464FF0000AD6E7742A01D07A2A05
:103D8000DCD144F400740BE072786C2AF9D144F46D
:103D9000C0640236D2E77278682A03D044F0800407
:103DA0001E46CBE744F0C004F3E744F48064F7E731
:103DB0000122A1F16403DBB29A40804B1A4013D177
:103DC000732900F0908070297FF44BAF55F8041BE5
:103DD00044F4005444F00104002940F0E0800A2338
:103DE00005227749009487E0642901D0692921D10F
:103DF00044F480440A2324F01004220548BF24F030
:103E00000104600404F4806226D5002A7FF412AF16
:103E1000A10517D5296800294FEAD1720294CDF87F
:103E20000480CDF800A0B8BF49423846FEF73AFEFC
:103E30000435FFE66F2900F0BE80DBD97829D9D19F
:103E40001023DAE7620602D595F90010E3E72006B1
:103E5000E0D5B5F90010DEE7002A7FF4EBAEA1054E
:103E600024F00C0006D50290CDF80480CDF800A017
:103E70002968DAE7620607D5297800220290CDF892
:103E80000480CDF800A0D0E7296814F0800F18BF97
:103E900089B2F2E714F0020423D04FF0010938464A
:103EA00015F8041BFEF7B4FD002C3FF4C3AEC1456A
:103EB000BFF4C0AE20213846FEF7AAFD09F1010982
:103EC000F5E720213846FEF7A3FD09F10109C845B1
:103ED000F7D8B8F1000F08F1010908BF4FF0020947
:103EE000DDE7A146F1E755F804BBBBF1000F07D1B0
:103EF00043460622334900943846FEF7A3FD99E66F
:103F0000BAF1000F14BF52466FF00042D9465A442E
:103F100099F8001009B14A450DD114F40063A9EBDA
:103F20000B09049302D0D14528BFD14614F00204F6
:103F300015D14A4609E009F10109E9E7202138468F
:103F40000592FEF765FD059A01324245F6D3A8EBCE
:103F50000902C84538BF002209F1010991440BF15B
:103F6000FF3204E038460592FEF752FD059A12F83A
:103F7000011F39B1049B002BF4D0AAEB02001BEB0C
:103F8000000FEFD1002C3FF455AEC8457FF652AE7E
:103F900020213846FEF73CFD09F10109F5E70A2327
:103FA0003846019302941023CDF800A0FEF77AFD65
:103FB00040E6022321E708231FE700BF2108120083
:103FC0009C8700089587000810B5064A064C1178B2
:103FD00024784B1C03F00F039C421EBF034C13704C
:103FE000605410BD951A0020941A0020841A0020F5
:103FF000F0B50D4B0D4C1B7826780D4CB34201D11A
:104000000020F0BD04EBC3056F788F4206D114F891
:104010003370874202D16D79954203D1013303F0A9
:104020000703EBE70120ECE73A1C0020391C0020D5
:104030003C1C0020006810B440B1054C8264E46967
:10404000083040F8044C10BCFEF760B910BC704753
:10405000801B00200168134631B18A6C03F108000F
:104060009A640831FEF752B97047000010B40C781A
:10407000082C0BD850F8240040B1054C8264E46948
:10408000083040F8044C10BCFEF740B910BC704733
:10409000801B00200829134609D850F8211031B19F
:1040A0008A6C03F108009A640831FEF72FB9704753
:1040B00038B5044618462379052B0CD003231F2559
:1040C0002371E36901F10061DD60FEF71FF902234E
:1040D0000020237138BD0120FCE70000034608469C
:1040E0009918B1F5806F03D802491944FEF70EB94B
:1040F000704700BF3C160020002307B502220420B1
:104100000DF10601ADF80630FFF7E8FFBDF8060037
:1041100003B05DF804FB002307B501220DF1070190
:104120008DF80730FFF7DAFF9DF8070003B05DF860
:1041300004FB072838B517D8052915D8062A13D83F
:104140000E23540003FB0144542303FB004404F1F9
:104150002800FFF7E0FF050204F12900FFF7DBFF6D
:10416000ADB2284380B238BD0020FCE782B0ADF884
:104170000410C1F30721052908D89DF80420062A58
:1041800004D8072802D802B0FFF7D3BF002002B03E
:10419000704700007FB507240F4BADF804001E7870
:1041A0000E4B1B781E4346FA04F3DB0705D4013C93
:1041B000F9D20025284604B070BDBDF80430E5B240
:1041C000ADF80C3003992846FFF7D0FFFEF73EFB11
:1041D00080B20128EBD0EDE7331C0020321C002018
:1041E00013B502884379ADF80420019873B169B121
:1041F000FFF7D0FF044601460198FEF76FF920460D
:10420000019902B0BDE81040FFF7B0BFFEF792F988
:104210000446F4E71FB5ADF804000198FFF7BAFFB4
:10422000BDF80430ADF80C300399FFF79FFF05B0DF
:104230005DF804EBFEF70ABB08B503460079A8B1A8
:104240001888FFF7E7FFC3B2C0F30330062813D086
:1042500094BF0E30063000F00F00012810D8F02B6C
:1042600010D004D8E72B8CBF0020012008BDF42B10
:1042700014BF00200120F9E7E72B03D9F12BF7E762
:104280000020F3E70120F1E7242008B5FFF743FF02
:10429000252801D0002008BDFFF73DFF1028F9D1E7
:1042A0002620FFF738FFA0F1270358425841F2E7D4
:1042B00008B52720FFF72FFF08BD00002DE9F347C1
:1042C00000236E4606254FF03008DFF81891464F60
:1042D0000093ADF8043059F8041B4B1C4DD088F303
:1042E00011884FF0010A21F00F0001F00F010AFAC6
:1042F00001F421460622FFF7C1FA4461002484F349
:10430000118800BF00BF00BF00BF00BF00BF00BFDB
:1043100000BF00BF00BF00BF00BF00BF00BF00BFA5
:1043200000BF00BF00BF07235246304850F8041BAF
:10433000B1F1FF3F3CD021F00F0CDCF808C001F0D8
:104340000F012CFA01F111F0010F0CBF11460021F1
:10435000013B2143520013F0FF03CCB2D2B2E5D1AE
:1043600059F8040C431C01D0FFF7B8FA7A687B684F
:104370009B1AB3F5076FFAD33470013D15F0FF05B2
:1043800006F10106A7D1062269461948FEF734F85E
:10439000184C78B1062269461548FDF7B7FF01238E
:1043A0002370FEF77DFE144B186002B0BDE8F08765
:1043B0000021CDE72378002BF7D00F4B1D68FEF7C7
:1043C0006FFE401B0428F0D9062209490B48FEF76E
:1043D00013F820B1062206490848FDF797FF00238D
:1043E0002370E2E7C8940008001000E0E0940008A1
:1043F000781A00207C15002078150020791B0020F9
:1044000010B50A4C23699A6891420CD85A688160A9
:104410000360426010609A685860521A9A604FF0C8
:10442000FF33A36110BD1B68891AECE7801B0020D5
:1044300000238268037503691B6899689142FBD267
:104440005A680360426010605860704708B50846BB
:10445000302383F311880A7D0023052A06D8DFE87C
:1044600002F00B050503120E826913604FF0FF3353
:104470008361FFF7DDFF002383F3118808BD8269A4
:104480009368013393604268036813605A60EDE7F4
:104490000346006820B100221A608161FFF7C8BF9F
:1044A000704700002DE9F04190F86430044613B1E4
:1044B000002380F86430A24B04F174021B6D04F1F8
:1044C0007C0603F1804303F5C04303EB01139B68B3
:1044D00003F1005303F540535B001968043322F8DD
:1044E000021BB242F9D163689B6823BB94F8743015
:1044F00013F0600547D048F28001914A136823F415
:10450000F04323F0400383F010030B431360136860
:1045100023F4904323F0700383F480530B43136020
:1045200063681B6813B1062120469847062384F868
:104530006430BDE8F081204698470028D6D094F832
:104540007B2094F87A3043EA0223E26E9A4288BFD5
:10455000E36694F97430E56E002B4FF0300380F27F
:104560005C81002D00F04B81092284F8642083F3E4
:1045700011880021E36E2046A26EFFF7E3F90023C5
:1045800083F31188D5E794F8752003F07F0343EA9D
:10459000022340F20232934200F00D811FD8B3F59E
:1045A000807F4BD00BD8012B42D0022B00F0AC8087
:1045B000002BA0D10222A666E2662367BFE7B3F50F
:1045C000817F00F0C780B3F5407F94D194F87630B6
:1045D000012B90D1B4F87C3043F0020337E0B3F5FF
:1045E000006F3ED01CD8B3F5A06F36D0A3F5C063E2
:1045F000012B80D894F87920616894F878304E685F
:1046000043EA0223204694F8762094F87710B047C6
:1046100000283FF470AF4368A3660368E3661AE0BE
:10462000B3F5106F22D040F6024293427FF463AF9D
:10463000444BA3660223E3660023BEE794F876307A
:10464000012B7FF458AFB4F87C3023F00203A4F8B8
:104650007C30A566E566256771E73B4BA566E56698
:10466000ABE704F17F03A3660123D7E72378042B8C
:1046700039D1302383F31188A36804F10C0603F0C9
:104680000113A36004F1280856F8047F6FB178691C
:1046900020B16FF001010C30FFF7FAFEB86920B1CC
:1046A0006FF001010C30FFF7F3FE46453560EBD1AA
:1046B000402301220021C4F88430930003F1804399
:1046C00003F5B84318680132082A18601960F4D15C
:1046D00081F3118884F87F100321636821701B68BF
:1046E0000BB12046984794F876304BB184F87F3070
:1046F0000423237063681B6813B102212046984786
:104700000023A366E36658E794F9782094F878309C
:10471000002A03F00F030A4ADBB252F8233008DA0A
:1047200013F030033FF4E7AE102B14BF074B084BD8
:104730007FE713F440533FF4DEAEB3F5805FF4E758
:10474000005C004010920008953600080C920008AA
:104750000E92000894F87630002B7FF4CCAE94F8DB
:10476000782012F00F03CBD09B0003F1804312F0AE
:10477000800F03F5B8431A6810D002F03002302AD7
:10478000BED01A6822F4F04222F0400282F02002E9
:1047900042F4004242F080021A60B1E702F4405253
:1047A000B2F5405FACD01A6822F4F04222F0400229
:1047B00042F42042EEE794F87630002B7FF49BAE73
:1047C00094F8783013F00F019AD01F4A13F0800F3D
:1047D00052F8213015BF23F4F04323F4904323F023
:1047E000400323F0700314BF83F0100383F480535D
:1047F00043F4004343F0800342F8213080E7142261
:1048000084F8642083F311882B462A460021204631
:10481000FEF754FF81F311888BE63DB1152284F831
:10482000642083F31188E36EA26EEFE70B2284F815
:10483000642083F311882B462A4629462046FFF739
:1048400081F885F3118874E6005C00400346006837
:10485000834206D002681A60536000238361FFF729
:10486000E7BD704700EB8103F7B59C6A05460E462D
:10487000002C3AD0302383F311880023226984F876
:10488000883063699A4201D1E36803BB05EB860374
:10489000DB685B691B68D3B1D4F88C7047B101A9A0
:1048A0002046FEF7B9FEBB680146019A3868984772
:1048B000E368E2690133E360636920461344A26957
:1048C0006361934224BF636A6361FFF7BFFF2046C1
:1048D00001A9FEF7A1FE024648B1019B31462846D8
:1048E000FFF730F8002383F3118803B0F0BD05EB28
:1048F0008603DB681A68022AF4D15A691268002A12
:10490000F0D01B8A013B1340ECD105F17402E5E7BE
:1049100001F1110310B550F8234034B3302383F371
:10492000118800EB8100C3689B695B68BBB194F898
:104930007420236F204603EB8203DB689B695A686F
:1049400023691A60E2680132E260E2691344A269F5
:104950002361934224BF636A2361FFF777FF2046F8
:10496000FEF7D6FE002383F3118810BD38B5044648
:104970006FF001052068844200D138BD03682360D0
:104980005C608561FFF754FDF4E7026AC260426A29
:104990004261026100228262C262FFF7E7BF00004B
:1049A00008B5064B4FF4806200211846FDF75EFC07
:1049B0004FF48162C0F8002408BD00BF3C160020FF
:1049C000084B9B78012B09D1074B93F90030002B42
:1049D00004DA1E2200210548FDF748BC062200210A
:1049E0000348F9E7A8110020361C00205A150020C2
:1049F0005215002010B50446006840B1826C0021B9
:104A00000830FDF733FC002223681A605A6010BD9D
:104A100070B50026051F00F1200455F8040F38B1C9
:104A2000826C00210830FDF721FC2B681E605E605F
:104A3000A542F2D170BD70B500EB81030546506907
:104A40000E461446DA6018B114220021FDF70EFC60
:104A5000A06918B114220021FDF708FC3146284650
:104A6000BDE87040FFF76AB8084670B5052966D8FA
:104A7000DFE801F03B65033B3B66302383F311889D
:104A800000263546374C94F87410206F04F1380234
:104A9000FFF7D1FF01362046FFF777FF042E25727E
:104AA00004F19004EFD1304C94F8741004F1380202
:104AB000206FFFF7C0FF636A204663612361E560F2
:104AC000A562E562FFF752FF20462572FEF720FE41
:104AD00085F31188254B1B7813B10520FFF774FA75
:104AE0000220BDE87040FFF76FBAFFF76DFA302380
:104AF00083F31188042501261A4C20462672FFF7FD
:104B000035FF2046FFF741FFD4F88C3013B1DA6847
:104B100018689047013D04F19004EED10123124C36
:104B200020462372FFF722FF636A2046E560636137
:104B30002361A562E562FFF719FF85F3118870BD57
:104B4000302383F311880023064A137282F89830C9
:104B500082F8283182F8B831034A137283F311883E
:104B60000520BEE7680F0020E00E0020961A002006
:104B7000054BD96808751868026853601A600122ED
:104B80000275D860FDF75CBB801B002070B5114E2C
:104B90004B1C0446F56886B019D00F4B684603934A
:104BA000002304950593FFF72BFC2046FFF7E0FF59
:104BB000009B4BB19A6802990A449A60019A13606B
:104BC0005A604FF0FF33B361A86906B070BDFFF7BC
:104BD000CFFFF9E7801B00204D44000870B5044664
:104BE0000D46104EE3683BB1236900201A1DA262F6
:104BF000E2691344E3620EE0237A6BB9F36875B19E
:104C000062681C605A602946136004206360FFF7E5
:104C1000BDFF0028E6DA70BD6FF00100FBE74FF042
:104C2000FF30F8E7801B002008B50146302383F3EE
:104C300011880820FFF7AAFF002383F3118808BD1D
:104C40002DE9F34700250124DFF868A01A4EDAF8B1
:104C50000030AB4203D8204602B0BDE8F087306890
:104C6000164B40F2E7371968036829445B69984797
:104C7000012888BF0024D6F80090DFF84480D9F8D6
:104C8000003048469B6901A99847012802D00FD8F7
:104C90000135DCE7BC46002101984FF47A72E0FB55
:104CA00008C100236046FDF7D5FBFFF7BDFFE6E72F
:104CB0000024EDE7C00E0020681A0020C40E00207A
:104CC000A08601002DE9F74FFFF7BAFF0446A0B315
:104CD000FDF7B2FFDFF8C480054600274646384698
:104CE00038F8021BFDF7EEFF0446F0B10237B7F5C6
:104CF000806FF4D140F2014000244FF0120CDFF835
:104D00009C80274BDFF89C9001381AD16C46CDE986
:104D10000039384634F8021BFDF7D4FF18B10237CA
:104D2000B7F5816FF5D14400E4B2012D01D1FDF753
:104D3000ADFF4FF48163C6F80034204603B0BDE8F0
:104D4000F08F18F8012B82EA0301A1FB0C2A0CFB5F
:104D500009AA4FEA49134FEA411B12EB0B0243EA3F
:104D6000D1634AEB030A531849EB0A024FEAC11B0D
:104D70004FEAC91A4FEA012E13EB0B034AEA516AB4
:104D80004FEA092942EB0A0249EA116913EB0E03C3
:104D900042EB0909F144E318B6E700BF3C160020D6
:104DA00025232284E49CF2CB044BD3F80034B3F5E2
:104DB000006F01D3FFF786BF012070473C1600202B
:104DC00010B5084C0146D4F80004FDF77BFF40B154
:104DD000D4F800340233C4F80034BDE81040FFF7C3
:104DE000E3BF10BD3C1600208318B3F5806F2DE99A
:104DF000F34704460E4615463DD8464F074439460C
:104E00003046FDF7F9FAB0B32A4631463846FDF789
:104E10007DFAFDF711FF824680B34FF000084FF096
:104E20000009012D30782ED0E3072CD4B4F5804F43
:104E300038D2737840EA0323012B24D8002B0CBF0F
:104E40006FF07F036FF05F03002043EA542363F3A6
:104E50000700630863F30F2080B2FFF7B1FF01285A
:104E600006D1023D02340236002DDAD1FFF79CFF55
:104E7000BAF1010F02D002B0BDE8F08702B0BDE880
:104E8000F047FDF703BF3F2C0CD844F04003DBB2E2
:104E900043EA0020FFF794FF0128E9D1013D0134E6
:104EA0000136E1E7052D2F4628BF0527C4F302434D
:104EB00043EAC703CDE900893A4631468DF8003010
:104EC0000DF10300230A8DF801308DF80240FDF743
:104ED0001DFABDF80000FFF773FF0128C8D1BDF827
:104EE0000200FFF76DFF0128C2D1012D0DD0BDF8E2
:104EF0000400FFF765FF0128BAD1032D05D9BDF8DD
:104F00000600FFF75DFF0128B2D1ED1B3C443E4493
:104F1000AAE700BF3C160020002337B50C4602224A
:104F20000DF10601ADF806300546FFF7D7F8BDF8DC
:104F300006309C4207D0022228460DF10601ADF84A
:104F40000640FFF751FF03B030BD37B50C460546AC
:104F5000FFF7E1F8A04207D0012228460DF1070132
:104F60008DF80740FFF740FF03B030BD072838B584
:104F70001D4616D8052914D8062A12D80E23540027
:104F800003FB0144542303FB0044290A04F12800D5
:104F9000FFF7DBFFE9B204F12900BDE83840FFF775
:104FA000D4BF38BD2DE9F0470024DFF848804746DC
:104FB00000265FFA84F911E0022CD4BF37F81530CF
:104FC0000123EAB2514648460135FFF7CFFF072DCE
:104FD000F2D10136062E07F10E0703D000255FFA45
:104FE00086FAE9E70134082C08F15408DFD1BDE85E
:104FF000F08700BF8893000810B54FF43274204644
:1050000000210134FFF7A1FFB4F5806FF7D110BD87
:1050100010B5041E0CBFFF2125212420FFF795FFAA
:10502000002C0CBFFF2110212520FFF78EFF002C44
:1050300008BFFF21BDE8104018BF27212620FFF739
:1050400084BF08B50020FFF7E3FF27200021FFF70A
:105050007CFFFFF7A7FFFFF7CFFFBDE80840012067
:10506000FFF7D6BF37B5042200250DEB0201044639
:105070000195FFF733F8019B33B1042220460DEB75
:1050800002010195FFF7B0FE03B030BD10B5FDF78A
:10509000D3FD044618B9BDE81040FDF7F7BDFFF792
:1050A000CFFDFFF77DFC012CF5D010BD90B585B08C
:1050B00000AFFFF7EBFF4FF6E5610020FFF72CFF95
:1050C00000210220FFF741FF0121244B032019702A
:1050D000FFF73BFF4FF4A0510420FFF71DFF002115
:1050E0000620FFF732FF00210720FFF72EFF0820E0
:1050F000FFF7B8FF00212320FFF727FF00210C2036
:10510000FFF723FF00210D20FFF71FFF00220023E0
:10511000C7E9002308221720B918FEF7DFFF08228D
:105120003846B9186C46FDF767F920B108223946B0
:105130001720FFF759FE1F20A546FFF793FF002019
:10514000FFF766FFFFF77DFF0F20FFF78BFF1320B0
:105150001437BD46BDE89040FFF784BF321C0020E5
:1051600038B5302300F10C0583F31188174B4169E2
:10517000DC6891B9236A44618361256221E08B6018
:105180000B7D7BB1062B14D10B684A6888691360CC
:105190005A60FEF70BFA8B699968A3688A68934294
:1051A000EDD806E04A680B68084613605A60FFF7BE
:1051B0003FF928462146FEF7F9F90620A561FFF7D9
:1051C000D7FC002080F3118838BD00BF801B002071
:1051D000704700007FB5084B0A46019300230293F5
:1051E000039304936FF00043014601A80593FEF773
:1051F0001BFD07B05DF804FB392A00080FB407B5A2
:1052000004A951F8040B0191FFF7E4FF03B05DF826
:1052100004EB04B0704700000E4A10B55378044602
:10522000C3F38001814213D060F3820353700420E2
:105230001188FFF771FE0220FDF7CAF9064B1B78B3
:10524000DB0705D52146BDE810400448FFF7D6BF6F
:1052500010BD00BF361C00202E1C0020A2870008B5
:10526000F8B53A4B9B78012B3FD1394B93F900307D
:10527000002B3ADAFDF7C4F9364C2022607036492B
:105280002046FDF7B9F800285FD020222146324899
:10529000FDF73CF8314B1B68002B56D00622304DF1
:1052A0009B682046227098472B7859074DD5DA071E
:1052B00003D561782B48FFF7A1FF1E24254E2A4F06
:1052C0002B78DB0703D53846B178FFF797FF013C11
:1052D00014F0FF0406F10106F2D12B78D80734D57B
:1052E000BDE8F8402148FFF789BFFDF789F9204C58
:1052F000082220701F492046FDF77EF828B30822B7
:1053000021461C48FDF702F8144B1B68EBB1144D05
:105310005B68204698472B78590716D5DA0703D5DE
:1053200021781548FFF76AFF0624114E0E4F2B789F
:10533000DB0703D53846B178FFF760FF013C14F076
:10534000FF0406F10106F2D1C7E7F8BDA81100205D
:10535000361C002058150020E21B0020041C0020F1
:105360002E1C0020B7870008CC8700085A90000840
:1053700050150020081C0020D287000828B1034BDC
:105380001A7810431870FFF76BBF70472F1C00206E
:1053900008B528B1FDF76CF9BDE80840FFF760BF1C
:1053A00008BD00001FB50A4B0A4A1B780A49029340
:1053B0000A4B0B481B7801930A4B1B7800930A4B4E
:1053C00012781B780978FFF719FF05B05DF804FB28
:1053D000B40E0020DD0E0020DC0E0020B50E0020F3
:1053E000EB870008B60E0020B70E00202D4B10B53D
:1053F0001B782D4C13F0080F39D02C48FFF7FEFE18
:1054000061782B48FFF7FAFE2A48FFF7F7FE94F978
:1054100002102948FFF7F2FE2848FFF7EFFE94F943
:1054200003102548FFF7EAFE2448FFF7E7FE94F94A
:1054300004102148FFF7E2FE2048FFF7DFFE94F951
:1054400005101D48FFF7DAFE1D48FFF7D7FE1D4B7C
:105450001D481978FFF7D2FE1C48FFF7CFFE1C4B02
:1054600019481978FFF7CAFE1A48FFF7C7FEFDF77B
:1054700017FEA378E27880B2134318BF164B627907
:1054800018BF1880237913431CBF144B1880144B8A
:105490001B6833B102222270DB680348BDE810406C
:1054A000184710BD2E1C0020251C0020688800080D
:1054B0008B8800089088000892880008158C0008E6
:1054C00095880008241C0020988800089B88000804
:1054D000221C00209D880008281B0020261B00207D
:1054E000041C002010B500240E4B1C70FFF768FA56
:1054F0002046FDF797FD2046FDF7B0FD0A4B1C70D6
:10550000FFF7AEFE214606220848FCF7AFFE084B27
:105510001C70084B1C70084B1C70BDE81040FFF756
:1055200065BF00BF2F1C0020381C0020251C002058
:10553000241C0020231C0020221C002010B5014642
:1055400004460548FFF75AFE0123044AA34013709E
:10555000BDE81040FFF7C6BFA0880008321C00203D
:10556000F0B5431F8BB03E2B00F21E81DFE813F035
:1055700098008900A3003F001C011C0185001C014C
:105580001C01CC001C01DB0003011C011C011C01DF
:105590001C01EF001C011C01EA001C01B8001C01E9
:1055A0001C011A011A011A011A011A011A011A0121
:1055B0001A011A0113011C0198007F001C011C0133
:1055C0001C011C011C011C011C011C011C011C01F3
:1055D00013011C011C0185001C0117011701170193
:1055E00017011701170117011701170113010320F4
:1055F000FEF791FD01466F48FFF700FE0220FEF71F
:105600008AFDC0F3C0030193C0F38003014600F09C
:1056100001020093C0F340036748FFF7EFFDFEF778
:105620006BFDC0F3C0230893C0F3C0130793C0F30E
:1056300080130693C0F340130593C0F30013049343
:10564000C0F3C0030393C0F380030293C0F340236D
:105650000193C0F300230146009300F00102C0F360
:1056600040035648FFF7CAFD01200BB0F0BD544877
:10567000FFF7C4FDFFF71AFDF6E75248FFF7BEFD3E
:10568000F2E7514A5148137823F00F031370FFF7E4
:10569000B5FD4F48FFF7B2FD01224E4B1A70E3E70C
:1056A0004D48FFF7ABFDFFF71DFF46F2A810FFF7CF
:1056B000BBFAFDF72DFD444C2378C3F3000282F0C2
:1056C000010262F30003DD07237001D54348D5E7EB
:1056D0004348FFF793FD237823F00E032370C3E7BD
:1056E000394C2378C3F3400282F0010262F3410394
:1056F0009807237006D53B48FFF780FD237843F0D9
:105700000103EBE73848B9E72F4C2378C3F3800255
:1057100082F0010262F382035907237001D53348F6
:10572000EAE73348AAE7284C2378C3F3C00282F0A3
:10573000010262F3C3031A07237001D52D48DBE78A
:105740002D489BE72D492E48FFF758FD8CE7FDF7C4
:1057500061FC2C4B04469E781F782B4B1D78FDF77F
:105760009FFCED0901903B463246214600952748B3
:10577000FFF744FD78E7FFF7B5FE23490B78C3F345
:10578000C01282F0010262F3C7130B701B064CBFFC
:105790001F48204872E70020FFF7D0FE64E7393841
:1057A000C0B2F9E71D38FBE71B48FFF727FD0020D3
:1057B0005BE700BFA5880008C28800080B890008C5
:1057C0000A8A00081B8A00082E1C0020D08B0008C3
:1057D000F78B00082B1C0020FB8B0008178C00089F
:1057E000238C0008308C00083D8C00084B8C00088E
:1057F0005A8C00086A8C0008768C0008838C00089C
:10580000728D0008A8110020361C0020758D00083C
:10581000F98D0008038E00084C8E000810B41B4B55
:1058200001469B78012B1AD1194A92F90020002ACF
:1058300015DAEF294FEAD00009D8164A01F007011E
:1058400002448B4091780B43937010BC7047124B0D
:105850001B78DB07F9D5114810BCFFF7CFBC00223D
:105860004FF0FF330E4810F8014FA142EDD0B3F1D5
:10587000FF3F01D104B953B20132062AF3D15A1CB9
:10588000E3D0084A13449970DFE700BFA811002055
:10589000361C0020581500202E1C00200E8E0008FB
:1058A000511500205015002010B4174B01469A786E
:1058B000012A1BD1154B93F90030002B16DAEF2982
:1058C0004FEAD0000AD8124B01F0070103448A4086
:1058D000997821EA02029A7010BC70470D4B1B7830
:1058E000DB07F9D50C4810BCFFF788BC002318462D
:1058F0000A4A12F8014F01338C42DBB208BF107024
:10590000062BF6D1E8E700BFA8110020361C0020C6
:10591000581500202E1C00202C8E00085115002048
:1059200008B50346A0B3021FD2B2A02A05D8FFF7DC
:10593000BBFFBDE80840FFF793BC00F12002D2B2E4
:10594000072A07D800F0070301209840C0B2FCF7EF
:105950008FFEEEE700F15B02D2B2022A04D8BDE866
:1059600008400020FDF75EBB00F15802D2B21A2AAF
:1059700004D8BDE808400020FDF770BB3333DBB22C
:10598000122B05D8FDF7BAFABDE80840FFF72EBD87
:1059900008BD0000292810B5624C57D02BD8132819
:1059A00061D017D8072800F095800B2836D05E48C4
:1059B000A3E001215D4B1B68002BF8D01A7811443D
:1059C000FF2900F3A5800029C0F2A480C9B258487D
:1059D000197058E0142839D0A0F11E03092BE6D81D
:1059E0001D38C0B22070013805286DD8DFE800F0FE
:1059F000414E545A6066382810D0A0F14F03032B53
:105A0000D5D85038022800F2818001A353F820F045
:105A1000015B0008075B0008B35900084548FFF721
:105A2000EDFBFFF7BFFC012208214348FFF7E6FB2F
:105A30002178002970D0BDE81040404B40481A68DA
:105A4000404B002A08BF1A46FFF7D8BB3E48FFF775
:105A5000D5FB2378002B64D00023344A23701360D5
:105A6000364A1360E4E73948FFF7C8FBFFF79AFCB2
:105A7000DEE72E4B364A1A60304B364A1A602178E0
:105A80000029D5D03448FFF7B9FBD1E7274B334A7B
:105A90001A602A4B324AF1E7244B324A1A60274BEC
:105AA000314AEBE7214B314A1A60244B304AE5E793
:105AB0001E4B304A1A60214B2F4ADFE71B4B2F4AFF
:105AC0001A601E4B2E4AD9E7002317482370FFF7B0
:105AD00095FBD4E701221E4B2A481A7014221F4B53
:105AE0001A700A221F4B1A701E22204B1A700822AD
:105AF000204B1A702822214B1A70FFF77FFB97E783
:105B00006FF0090156E74FF0FF3153E70A2151E7E3
:105B1000FF215CE700215AE71B48BDE81040FFF772
:105B20006DBB10BD88150020948F000884150020DF
:105B3000A18F00084E8E00085E8E000880150020A0
:105B4000A78F00084A8E00082A8F00082D8F0008B2
:105B5000DC0E00203B8F000807890008DD0E0020C6
:105B6000448F0008B70E0020508F0008B60E0020AA
:105B70005D8F0008B50E00206C8F0008B40E002069
:105B80007F8F0008978F0008B08F000810B504467B
:105B9000002800F09180031FDBB2A02B5DD8474B9B
:105BA0001A78012A24D0022A43D0002A3BD1444B40
:105BB0001B78222B04D12046FFF7D2FC00287BD192
:105BC000404B9B78012B38D13F4A92F90020002AA4
:105BD00033DA3E4A04F0070102EBD40292788B409C
:105BE0001A4233D02046FFF75FFEFFF739FB2DE066
:105BF000334A1278222ADED0142814D007D80B2872
:105C000009D0102812D03248FFF7F8FAD8E729282F
:105C100009D03828F7D12F48FFF7F0FABDE8104037
:105C20002D48FFF7EBBA00221A70C9E7022238208C
:105C30001A70BDE81040FFF7ADBE0023274A12F8E6
:105C4000011FA142CED00133062BF8D12046FFF729
:105C5000E5FDBDE81040FFF703BB00F12003DBB218
:105C6000072B08D80123164A00F007041178A34037
:105C70000B431370EDE700F15B03DBB2022B05D899
:105C8000BDE81040243880B2FDF7CCB900F15803CC
:105C9000DBB21A2B06D8BDE81040114A32F81300C7
:105CA000FDF7DCB93334E4B2122C05D8FDF7D4F893
:105CB000BDE81040FFF79ABB10BD00BF2B1C0020B1
:105CC0002F1C0020A8110020361C00205815002091
:105CD0004C8E0008D08B0008F78B0008511500206F
:105CE000FC94000838B50C460546FFF74FFF9CB101
:105CF00040F2E73309494FF47A72A4FB0141E018FE
:105D000041F100010023FCF7A5FBFEF78DFF2846BB
:105D1000BDE83840FFF704BE0120F6E7A086010089
:105D20002DE9F0411F460C461646254B68B1197007
:105D3000FDF7B6F9234B04F0070418800120A040BA
:105D4000C0B2BDE8F041FFF719BB1D788D422FD1DD
:105D50001C4BB3F80080FDF7A3F9A0EB080292B248
:105D6000C72A25D806F12004B542E4B211D04FF07D
:105D7000010805F0070508FA05F0C0B2FFF708FBB7
:105D8000072C06D806F0070308FA03F0C0B2FFF7A5
:105D9000F5FA00213846FFF7A5FF072C0DD80120A2
:105DA00006F00706B040C0B2BDE8F041FFF7F0BA18
:105DB000012004F00704A040F5E7BDE8F08100BF32
:105DC0002C1C00208A1500202DE9F04F0379044691
:105DD00087B0002B00F028850121FEF701FA034669
:105DE0006079002800F01481A3F5EE4292B27F2A78
:105DF00000F20285DEB20F2E64D840F2FF30FEF7CB
:105E00008AF900285ED14FF43275002E37D10DF19A
:105E100010090496C9F804602846FEF77CF90027AB
:105E200005F101088DF810008DF81170002849D097
:105E300001285BD14046FEF76EF9AE1C8DF81100CB
:105E400000283FD0431E022B24D83046FEF763F9CA
:105E500003358DF81200A8B38DF81370CB469BF86C
:105E60000060002ED8D0012E40F083809BF80130D6
:105E7000013B032B3CD8DFE803F0434F565DB5F5FB
:105E8000806F1FD02846FEF746F908B9731EDEB2B0
:105E90000135BAE7042810D102253046FEF73BF958
:105EA000013609F8050068B17C2808D105F118030E
:105EB0000DEB0305002305F8073C3546CEE7013519
:105EC000072DEAD1AE4B1B785F0700F0AD846379F4
:105ED000002B00F0A984AB4B5B785E0740F1A484F3
:105EE000022007B0BDE8F04FFCF772BB4546B5E7AE
:105EF0000BF1010B0120FEF797FE0BF1010BAEE752
:105F00009BF802000BF1020639280CBF502100213A
:105F1000FFF7E8FEB346EDE79BF802000BF102063F
:105F2000FFF734FEF6E79BF802000BF10206FFF7DD
:105F3000F7FCEFE700270A201BF8023F924AD15CEA
:105F400011F004010DD197B140F2E7308F4E4FF4BC
:105F50007A720023C7FB0601FCF77CFAFEF764FEA9
:105F6000C8E7303B00FB07371BF8013FE7E701209C
:105F7000F4E7874BF1089B5D06F007060193854B1C
:105F80005F5C854B374113F80180844B48FA06F873
:105F900017F0010713F801A008F0010809D08049A3
:105FA0000B7843F002030B70FFF75AF90120FEF75C
:105FB0003BFEB8F1000F09D079490B7843F040035C
:105FC0000B70FFF74DF90120FEF72EFE019800211E
:105FD000FFF788FE0120FEF727FEB8F1000F05D07D
:105FE000E620FFF79DFC0120FEF71EFE2FB1E12009
:105FF000FFF796FC0120FEF717FE4AFA06FA1AF0A0
:10600000010F3FF47AAF00212C20FFF76BFE71E700
:10601000A3F5F842183A062A00F22981DFE802F0D7
:106020000E12040A161A1E00E12226231146FFF75B
:1060300077FE47E72723E522E521F8E72623E1223B
:10604000E021F4E72723E522E421F0E72623E122FB
:10605000E221ECE72723E522E621E8E728230122D5
:10606000EAE700214F4AA3F5E0461170B2B2222AB6
:1060700000F2FD80FEF740F8424D013E2880212EBF
:1060800023D8DFE816F06400E4006C00320036002C
:1060900070003A00740095004600DC004A00990048
:1060A0004E009D00C3005200A100CB005800A70085
:1060B000AF003E007800420091005E00AB00BA00E5
:1060C000D500DA002D006800EC002B7843F00103C6
:1060D0002B7004202988FEF71FFFFFF703FAF1E673
:1060E0006B7843F008036B70F3E72B7843F00203FF
:1060F000EEE72B7843F00403EAE72B7843F008033C
:10610000E6E76B7843F00103EDE76B7843F00203B9
:10611000E9E72B7843F01003DAE72B7843F020030C
:10612000D6E72B7843F04003D2E7FFF7DBF92B7873
:1061300043F08003CCE72B7823F00C0343F00C03EF
:10614000C6E76B7823F0030343F00303CBE72B7818
:1061500023F00103BCE76B7823F00803C3E72B7837
:1061600023F00203B4E72B7823F00403B0E72B7885
:1061700023F00803ACE76B7823F00103B3E700BF1B
:10618000341C0020361C002095860008A0860100E3
:106190005295000842950008329500083295000893
:1061A0002F1C00202C1C00206B7823F002039AE7A0
:1061B0002B7823F010038BE72B7823F0200387E75D
:1061C0002B7823F0400383E7FFF78CF92B7823F03B
:1061D00080037DE72B7823F00C0379E76B7823F0BD
:1061E000030380E72B78C3F3800282F00102D2B26E
:1061F00062F3820362F3C3036AE76B78DA4302F067
:10620000010262F3000362F341036CE72B78C3F3EE
:10621000801282F0010262F3861359E7FFF762F9F8
:106220002B78C3F3C01282F0010262F3C7134FE769
:1062300001210E20FEF789FE4BE70021F9E72B78BC
:10624000C3F3001282F0010262F3041340E72B78DB
:10625000C3F3000282F0010262F3000338E76B78B7
:10626000C3F3C00282F0010262F3C3033BE747F6C7
:106270001642934219D1A94BA94A1B7868B103F081
:10628000AA03002B13BF01230023292035201370FC
:10629000FFF7C4FAFEF7E4FF14E61378002B0CBFF7
:1062A00029203520FFF700FBF4E747F677429342B9
:1062B00017D047F67842934221D0A3F5A542603A21
:1062C00092B21F2A20D800283ED1012503F01F03D7
:1062D0009D40EDB229460320FEF737FE914B1D701D
:1062E000F0E540B10120FCF7E5F80322022101208E
:1062F000FCF748F9E6E50120FCF7E6F8F5E708B118
:106300000220F0E70220F7E7F0B147F6034293429C
:106310000BD8B3F5F84F17D3A3F5F843013B022B85
:1063200070D8DFE803F08E77870047F65B42934230
:1063300000F09F8047F65C42934200F08D8047F664
:106340005A42934200F0938022886379ADF80C2082
:106350000398002B00F08F80FDF71CFF05460146D7
:106360000398FCF7BBF8BDF80C302846ADF81030A8
:106370000499FDF7FBFEFCF769FA6B4F94F8068071
:106380003E78054616F0070663794FEA181826D0BE
:106390001E4623B3C5F3072202F0F00140290ED0B8
:1063A000C0B200F12001C9B2072968D902F0E002A9
:1063B000202A04D1012862D9B8F1000F61D05B4ACC
:1063C000567816F004060AD002200193FCF700F973
:1063D0003A78019B12F0070F0CBF01260026C5F387
:1063E00003320B2A00F2BA80DFE812F04D004D00B4
:1063F000850085000E012501B800B8002F0181013C
:1064000093019301FFF76EF846F2A810FEF70CFC1B
:10641000FCF77EFE46490B78C3F3000282F00102CE
:1064200062F300030B70DB074CBF42484248FEF7A3
:10643000E5FE47E5FEF72AFE4FF6FF710020FEF766
:106440006BFDFFF74FF846F2A810FEF7EDFB44F2A4
:106450004D223A4B9A62DBE7344B5878C0F3800008
:1064600080F0010000F00100FEF7D6FE6CE701208D
:10647000FAE70020F8E7FCF75DF8054673E7002629
:10648000ADE74646ABE7C5F30722C5F303280F2A5D
:1064900088BF4FEA0818EDB2ABB1B8F1000F0CD0CD
:1064A00005F12003DBB2072B00D955B91B4A13783D
:1064B00048EA03031370FEF7D3FE2846FFF766FB96
:1064C0004CE01F4AF3E72846FFF72AFAB8F1000F1D
:1064D00044D005F12003DBB2072B00D91DB940469B
:1064E000FCF7C6F804E0164A137823EA0803137091
:1064F000FEF7B6FE32E0C5F3072202F0F002C5F364
:106500000320202AEDB218BF0001DDB1012D62D0B9
:10651000002B6BD0B8F1000F3BD0CEE72F1C002032
:106520002D1C0020321C0020341C0020361C0020B2
:106530002E1C0020B48F0008C58F0008006C00409E
:10654000381C00209D4A527855071ED423B128B12B
:106550009B4A13780343CAE70028C1D176B1387843
:1065600010F001030AD16371C008FBF7A3FF2046B6
:10657000FFF72AFC3878C008FBF7A6FF0021204669
:1065800007B0BDE8F04FFDF72BBE83B1B8F1000FA7
:1065900002D1FEF7F3FEE1E7B8F1010FDED1894A3F
:1065A000137830EA0301D9D003431370D6E7B8F16A
:1065B000000FD3D10190FEF7EBFE824A01981378C9
:1065C00018421CBF834313707F4A13781842C5D00A
:1065D00023EA0003E9E71BB1B8F1050FBED8D8E7FD
:1065E000B8F1040FBAD8FEF7D3FEB7E7B8F1000F41
:1065F000F9D0392D0CBF4FF4FA500120FEF714FBEF
:106600002846FFF78DF9A9E715F4406FC5F38122FD
:1066100007D0012AA2D163B1C5F30900FCF71EFD22
:106620009CE723B1C5F30900FCF7FCFC96E718468C
:10663000FAE71846F2E7E8B223B1FCF70DFCFEF7E3
:10664000D5FE8BE7FCF75AFCF9E715F4407F21D122
:106650002BBB15F0100218BF0F22C5F342114FEAF1
:106660008101C9B21CBF8A40D24305F00F0303FA6F
:1066700001F3C5F38125554918BFD2B2DBB2022D13
:106680002FD0032D31D0012D26D013430A7813408B
:106690000B7004E0C5F3012123B1C80704D4FCF753
:1066A000B9FC5BE70129FAD915F0100218BF0F22D7
:1066B000C5F342114FEA8101C9B21CBF8A40D243DF
:1066C00005F00F0303FA01F3C5F3812518BFD2B219
:1066D0003F49DBB2022DD3E7087803431A430A701F
:1066E000DDE713430A785340D2E71343D0E7E9B21A
:1066F000C5F3032533B12846FBF7DCFE0846FEF759
:106700003DFECCE70846FEF743FE2846FBF7DCFEDD
:10671000C5E75FFA85F9A9F1F002042A42D8DFE85B
:1067200002F00328131A24005BB1B8F1040FB6D8A5
:106730000123274AC5F304251178AB404B40137061
:10674000ADE7B8F1050FF2E7C5F30420002BDDD16A
:10675000FBF7B0FEA3E71E4A002BF0D00123C5F3E0
:10676000042503FA05F5157099E7144A5278510784
:1067700004D4C5F30420002BC8D0E9E743B1530784
:10678000C5F30420E4D5C30043F003033B70DFE707
:106790000120FBF71DFFB8F1010F80D90220FBF7A4
:1067A00017FF7CE7B3B1B8F1000F03D04846FFF7FD
:1067B000EDF974E7C5F30420CAE700BF361C0020DA
:1067C0002F1C0020301C0020311C0020321C002017
:1067D000331C0020B8F1000F0BD0B9F1390F0CBFFA
:1067E0004FF4FA500120FEF71FFA4846FFF798F8D9
:1067F00055E7C5F3042089E7A3F5F842183A062ABD
:106800003FF62FAC01A151F822F000BF3D60000817
:106810004560000829600008356000084D600008E8
:10682000556000085D60000807B0BDE8F08F00BF4C
:10683000194AF8B593790F2B0AD8537943B1174BFE
:1068400017491B780D7816885788164CAB4200D133
:10685000F8BD04EBC3010879D0B134F83300B0427D
:1068600016D14879A0B94888C01B80B2C7280FD874
:106870000120937960F3071393718B7960F3071309
:1068800005488B71FFF7A0FABDE8F840FBF790BE12
:10689000013303F00703D9E77C1C00203A1C0020D9
:1068A000391C00203C1C00202DE9F04F044685B027
:1068B000854D014606226846FBF728FD95F804A0A1
:1068C00094F8009061786779B4F802B094F8048085
:1068D000BAF1000F1AD1B8F1000F15D0002F00F057
:1068E000EE802046FDF7A8FC002800F0E880082292
:1068F00021462846FBF70AFDB8F1010F02D128888E
:10690000FDF788FCFFF794FF01253DE06B886E7969
:10691000ABEB03039BB2002E00F0A580C72B00F267
:106920008280B8F1000FEFD0AB7928880F2B228836
:106930004DD890420CD1002F44D10122284662F359
:106940000713AB71FFF740FAAB79A37100251BE089
:10695000002F37D13A464846FDF74AFB4846FDF737
:1069600047FB05460028F1D10098FDF753FCC0F322
:106970000332032AC3B20BD8012A13D910F4706F63
:1069800015D0A2790F2A12D8284605B0BDE8F08F9D
:10699000063202F00F02012A0ED92046FFF714FA40
:1069A0003546F1E710F4706F01D0002BECD02033A6
:1069B000DBB2072BE8D9F0E7EF2BE5D90F33DBB2D9
:1069C000022BF7E7AB7943F00103AB71BEE79042CE
:1069D0000AD14FB92046A371FFF7F6F908222146E4
:1069E0002846FBF793FC8FE72046FDF725FC00289F
:1069F00065D0002F63D0AB791F2B0ED92A8802A84F
:106A0000ADF808200022ADF80AB08DF80CA08DF882
:106A10000D208DF80E30FFF7D7F9082221462A48BD
:106A2000FBF774FC6EE7AB790F2B08D82846FFF70D
:106A3000CBF9082200212846FBF718FC86E7B8F1BD
:106A4000000F3FF461AF298822889142CCD1002FFA
:106A5000CAD12046A371FFF7B7F908223946284664
:106A6000FBF704FC50E7C72BE3D8B8F1000F3FF465
:106A70004BAF27B32A8823889A4217D1AB79DA071C
:106A800010D40F2B0ED9A37103F0F003F02B06D016
:106A9000A379C3F30312013262F30713A3712046F3
:106AA000FFF792F90822214607489AE72046FDF7AA
:106AB000C3FB0028B1D1AB7943F00103AB71204691
:106AC000FFF782F920E700BF7C1C0020F0B589B0F9
:106AD0006B4683E803009DF80510002209B129499F
:106AE0000A70ADF80E2093E80300ADF80C10C9B29F
:106AF000029002AC19B101212046FDF771FB94E828
:106B0000030004AE86E803003046FFF7CDFE1E4FBB
:106B100004461E4DC0B996E8030006AB83E80300A7
:106B20009DF8141038782A7871B1461C06F00706D3
:106B3000964210D01946164B082203EBC000FBF713
:106B4000E5FB3E70FBF734FD114C28783B7883421F
:106B50000BD109B0F0BDFEF7C5FC082221460D4857
:106B60003C702C70FBF782FBEEE704EBC000FFF7F4
:106B70009BFE0028EDD02B78013303F007032B7028
:106B8000E3E700BF381C0020391C00203A1C00201D
:106B90003C1C00207C1C002073B5FCF781FA0B4DD7
:106BA00084B22B88A3420ED00026ADF80060FCF71B
:106BB00077FAADF80460ADF8020002AB13E9030008
:106BC000FFF784FF2C8002B070BD00BFE01B0020E7
:106BD000194B1A6842F001021A601A689007FCD536
:106BE0001A6802F0F9021A6000225A605A6812F01C
:106BF0000C0FFBD11A6842F480321A601A689103B4
:106C0000FCD55A6842F4E8125A601A6842F0807261
:106C10001A601A689201FCD51221084A5A60084A83
:106C200011605A6842F002025A605A6802F00C027F
:106C3000082AFAD1704700BF0010024000641D000E
:106C4000002002407047FEE7F0B5082000261049FA
:106C500091E81C001D46043AAC4210D8E21CD21A3E
:106C6000DD1E22F00302A54288BF00221344CA6839
:106C70009A4209D8013801F11001E9D1F0BD52F86A
:106C8000047F45F8047BE7E743F8046BF0E700BFB7
:106C9000149200080C4B10B41868D968026853604D
:106CA0001A600122D860002302758A680B750B698F
:106CB0001B689C689442FBD85A680B604A6010BC01
:106CC00011605960FBF7BCBA801B0020044B1A68A6
:106CD000DB6892689B689A4201D9FFF7DBBF704777
:106CE000801B0020164A38B500F10C010346D0681D
:106CF000302282F31188DC689A69A14202621BD0BB
:106D0000446A82B98460D8680268DA605160026AB5
:106D100058619A610162FDF78BFBFFF7D7FF0020F6
:106D200080F3118838BD1568AA4203D0AD68AC4223
:106D300038BF2C46D268E4E700225A61EFE700BF73
:106D4000801B00202DE9F74F04468A46164630275F
:106D5000019387F31188036F00201B78042B04D064
:106D600080F3118803B0BDE8F08F94F88830002BD1
:106D700042F2107318BF0023009380F3118887F349
:106D800011884FF000095546CB46D4F82880B8F159
:106D9000000F0FD120460099FDF720FF50B188F376
:106DA00011884E4534D8019B13B92046FCF755FC99
:106DB0000120D7E7E26AA06AA2EB0008A6EB09026D
:106DC000904528BF9046B8F1400F18D94022294677
:106DD000FBF79CFAA26A4035403209F14009E16AAA
:106DE000A262914204D8E16920460439FCF722FCF2
:106DF0008BF311884E45D6D987F31188C5E74246F3
:106E00002946FBF783FAA26A45444244C144E6E7B7
:106E1000302282F3118894F888202046B9F1000FBF
:106E200008BF42F0010284F88820FDF79FFD20464C
:106E3000FDF7ABFD84F80880FFF748FF88F3118861
:106E40009DE70000012307B51A468DF807000DF1F4
:106E500007010348FFF776FF40B203B05DF804FB7B
:106E60008810002030B49025034C002305FB00401F
:106E700030BCFFF767BF00BF680F00204FF0FF383E
:106E800000262DE98048A54C8DB02369C4F81080F8
:106E9000236926612369E368C4F80C80E368E6602F
:106EA000E368E3699E4A43F08053E361E369E36981
:106EB000402143F00063E361E36913684FF0800A07
:106EC00043F4807313606022964B4FF4007083F894
:106ED0000623C3F8801119604FF4807183F80723EB
:106EE000C3F880A1C3F800A083F80823C3F8801179
:106EF000196083F80923C3F8800118604FF480609B
:106F000083F80A23C3F8800118604FF4000083F867
:106F10001723C3F88001186083F82823C3F884116D
:106F20005960A369804A43F07D03A361A3697F4B45
:106F3000C2F80C805360A3F56453303B136003F533
:106F40006053C2F80C84C2F804344FF088334FF019
:106F500001097749C2F80034C2F80C88C2F8041855
:106F60007449C2F80038C2F80C8CC2F8043CC2F86C
:106F7000001C02F58062C2F80C8C6F4FC2F8043C12
:106F8000C2F8003C6D4B6E483B6007F10C03FB60A0
:106F90003B616C4B3146382287F804907E61FB617F
:106FA00000F82C9BFBF762F9654B674A5E609E60B8
:106FB0005368664943F00073536044F24C22644BBB
:106FC000644D9A624FF0E02340F2CF225A610722CB
:106FD0009E611A61604A83F823AD11605F4903F531
:106FE000506351605E4A4FF0300BAE622A638BF300
:106FF000118862B6D9685B4A21F4E0610904090C82
:107000000A43DA60D3F8FC20574942F08072C3F893
:10701000FC200A68554842EA09020A602022DA7711
:1070200083F822B0EE61E96905F110030A46C5E96B
:1070300004333346C5E9082305F13403EB6000F15E
:10704000C403C0F8F4304A4BC0F8C860C0F8C4307C
:10705000484BC0F8F090C0F8E4300223C5E9005571
:10706000A0F8FC30C5E91466AE60EE62C5F8188081
:10707000EE65C5F83CA06D64C5F858A0A5F8489029
:10708000C0F8F850C0E94269C0F80461E830FDF783
:10709000CFF986F31188384B384A83F80390DFF82C
:1070A000E080384B1A60FDF77BFCC8F800708BF36A
:1070B0001188FA6987F80490136943EA0A03136197
:1070C00086F31188D8F8000003685B6898472E4B58
:1070D0002E49D3F8E0270378876803EA09030B7089
:1070E0001FB972B62A4BEB65FEE7B146294BDFF8B4
:1070F000A8B003EA822A791EA1EB0901D8F80000A2
:10710000CBF80010FCF7B9FA504547D3DBF8007014
:1071100009F10109B945EED35FE000BF001002405C
:107120000070004000E100E000080140B884888859
:107130008888388844888888481A00208494000801
:10714000981A00200020024000000140881C002006
:10715000006C0040801B00203416002000500020EE
:10716000AC9400080003FA05001000E0D0110020E4
:107170000D2A000851220008A8110020456E0008C1
:10718000681A0020B80E002000F0FF1F441A0020EB
:10719000D78F000800FCFF03C40E0020D8F80000C1
:1071A000DBF800300268019352689047C268002AF9
:1071B00000F04582019B02EBC30253681E44B6F502
:1071C000006FA5D3DBF80010C34B7F1AD8F800007E
:1071D0001F60FCF752FAC14B18604FF00008C04E18
:1071E000404606EB0801FBF78DFD002800F03087D4
:1071F00008F10208B8F5806FF2D140F201414FF07A
:10720000000B1220DFF8D8E2B64EB74F013940F03C
:1072100018820DF1100949464046FBF773FD30B165
:1072200008F10208B8F5816F09F10209F3D1DDE92F
:107230000423BB4208BFB24201D0FDF7B1FB4FF4BB
:10724000816B4FF0000ADFF8988258460DF10E016D
:10725000FBF758FD00285AD0BDF80E30002B55D052
:10726000C3F3811101290BF10206ADF81030DAB237
:1072700000F01282022900F01682002940F0CE862A
:1072800030460DF11201FBF73DFD002800F0C686E7
:107290009DF812109DF811309DF8102043EA01234B
:1072A00017045BBA9BB207F4E0271F43C2F3C2097D
:1072B00007EB0901B1F5806F0BF104064FEAD20329
:1072C00000F2AC8612F0300F0AD0304605A90193C7
:1072D000FBF718FD002800F0A186019B0BF10606C4
:1072E0005A0708D530460DF11601FBF70BFD0028B3
:1072F00000F0948602364A460DF1130108EB0700B0
:10730000FBF704F8B6F5006FB3469ED30120C8F82A
:1073100000B4002840F0D981FDF7D4FC08B9FDF78E
:107320003FFB102200217148FAF7A0FF00224FF026
:10733000010C4FF0900E164630276D4BDFF8B4A1CC
:107340001A706D4B1A706D4BDFF8B091D86F0EFB51
:10735000029903F15C01D3F87880D964D3F88010E6
:1073600004301B605B6083F808C0C9F80C8000FB28
:10737000081959611961C3F81890D861C3F82080C1
:1073800059629E62DE62C3F830A05B6387F31188A6
:10739000196F93F8740001EB80018B6283F88860A9
:1073A00086F311880132042A03F19003CCD1544BA7
:1073B00003F15C021A65DA6FD3F88010986F04321B
:1073C00083F808C002FB001CDA614E4A1B605B6058
:1073D000DE6059611961C3F818C0186259629E6273
:1073E000DE621A635B6387F3118893F87420196F68
:1073F000113241F8223083F8846086F311884248C4
:1074000006224FF48051FCF739FA4FF48053436160
:1074100087F311883D4B1B78012B18D04FF40022C5
:107420003B4BC3F88020C3F880214FF4801283F8CF
:107430001363C3F88020C3F88021032283F8146308
:10744000344B1A64E36923F40003E361E369002623
:10745000012337462D4A5660137002F1080858F888
:10746000049FB9F1000F0FD0D9F8140020B16FF0CC
:1074700001010C30FDF70CF8D9F8180020B16FF0BD
:1074800001010C30FDF704F80136082EC8F8007031
:10749000E5D1FFF71BFC87F3118841F28830FDF737
:1074A000C3FB302383F31188184A1B4B16465360E5
:1074B0000021202206F10C00FAF7D8FE3278012ACA
:1074C00046D1E369134943F40003E361E3692369A7
:1074D00043F40003236121E0C00E0020BC0E002015
:1074E0003C16002025232284E49CF2CB841A002041
:1074F000951A00209D390008941A0020680F00207A
:10750000E00E00204737000800080140981A0020CC
:1075100000E100E0005C0040B8940008236923F417
:107520000003236123690A64D022A64B83F8132346
:107530004FF40022C3F880211A60E02283F814235C
:107540004FF48012C3F880211A600F64FCF74EFBE1
:1075500002229D4B00241A7084F311884FF480514D
:107560009A48FCF78BF99A4E9A4B41F28830336077
:10757000FDF75AFB9848FDF741FE302383F311884D
:10758000964BEA691A60964B1C60964B1C6084F31C
:107590001188FCF78DFEFCF777FE08B9FDF751FD69
:1075A0000024914D55F8040B431C01D0FCF796F9CB
:1075B0000134E4B2062CF5D107248C4D55F8040BA8
:1075C000471C01D0FCF78AF9013C14F0FF04F5D107
:1075D000062221468648FAF749FE062221468548BA
:1075E000FAF744FE0222204604A9ADF81040FCF749
:1075F00075FD4FF6E563BDF810209A4268D0FDF79F
:1076000055FD0220FCF787FD7B4B7C4C1870FCF786
:1076100073FD2080FCF752FE40F6B830FDF704FB06
:10762000FCF74CFE724B1B78D80756D5FDF72EFDA4
:107630004FF6FF710020FDF76FFCFBF769FD036952
:10764000BCE51EF8013B7A017340A3FB00A900FBD7
:1076500007995E011AEB060642EAD36249EB02097A
:107660004FEAC31AF6184FEAC71247EB09094FEA67
:10767000032C16EB0A0642EA53624FEA072749EB4E
:10768000020247EA136716EB0C0642EB07020CEB0B
:1076900002071BEB0606B9E502F03F02C3F307231E
:1076A00008F802302EE6510201F478511B0A41EA33
:1076B0004303591CB1F5806F80F0B084C2F34012CF
:1076C00008F8032008F801A01CE6FDF76DFB25E68D
:1076D000FCF7DAFD002894D191E70320FCF71BFDAD
:1076E000474B18702378042043F0800323702188CF
:1076F000FDF712FC3268434B434C1A60434E444D35
:107700000027012130782B78DFF808C1984200F07B
:1077100093801CF803200133012703F00F03052A8F
:10772000F4D80FF2080E5EF822F000BFBB77000815
:107730000D7700089F770008B377000845770008A9
:10774000537700082B70344B19700323334AD370DE
:10775000D6E700272E4A13702F4B1F70304B1F7037
:10776000304B1F70FDF72CF9062239462E48FAF7E8
:107770007DFD2E4B38461F702D4B1F702D4B1F70FB
:10778000FBF750FC3846FBF769FCFBF743FC0E4B5C
:1077900093F87F30BB420CBF01230223D6E72B7046
:1077A000094B93F87F30002B08BF01221B4BDA7086
:1077B000A6E72B70194BD970A2E72B70174BD97025
:1077C00099709DE700E100E0981A00200008014050
:1077D000801A0020C80E002035900008741A00207E
:1077E000701A00206C1A0020C8940008E094000869
:1077F000791B0020781A00202E1C0020361C002047
:10780000321C0020041C0020E00E0020951A0020ED
:10781000941A0020841A0020961A0020A811002033
:107820002F1C0020381C0020251C0020241C0020B8
:10783000231C0020221C002007B128709F4B1B78BE
:10784000052B00F01B81DFF87882DFF87892FCF7D7
:1078500035FD454648460623013B13F0FF0315F866
:10786000011B10F8012B40F04B81914240F04B81FD
:10787000FFF792F9DFF850A20622514604A8FAF762
:1078800045FD00239AF902609AF903509AF90480A1
:107890009AF905708AF802308AF803308AF80430C1
:1078A0008AF8053055EA06039AF8019011D0874B03
:1078B000B3F800B0FBF7F4FBA0EB0B0384489BB2DA
:1078C0000278002A00F07B81824909788B4200F31C
:1078D000828158EA07033ED07F4BB3F800B0FBF734
:1078E000DFFB7E4AA0EB0B00137880B2002B00F088
:1078F000918350282FDDFF2B01D001331370B8F195
:10790000000F09D0FBF776FAB8F1000FD4BFFF23C0
:10791000012358438AF8040047B1FBF76BFA002FA4
:10792000D4BFFF23012358438AF805009AF90400C5
:1079300088B19AF9052072B1FBF710FA002808BF48
:1079400001208AF804001046FBF708FA002800F02E
:1079500074818AF805009AF801304B4514D19AF9E0
:1079600002300BB1B3420FD19AF9031009B1A94209
:107970000AD19AF905200AB1BA4205D19AF9040050
:1079800010B90B431A4301D0FDF730FD062204A9BC
:107990004D48FAF7BBFCFBF73DFB514B05461A7807
:1079A00082420CD01870FBF77BFB4E4B1B7803F028
:1079B0000503052B03D129464B48FDF71FFC4B4B14
:1079C0001B78002B44D000264FF0300B3746B046D2
:1079D000474B0193019BD3F88C50002D30D0002FE2
:1079E00040F02F814FF001098BF311885FFA89FA7B
:1079F00051466B6928689847002818BF46F0010671
:107A000088F311883A48FBF72FFDA0B15146AB69C6
:107A10002868984778B18BF31188364A51466B68CD
:107A20002868984788F31188324B00209A6C03F13C
:107A30000801FFF717FA09F10109B9F1090FD3D1CC
:107A4000019B01379033042F0193C3D1274B1E7044
:107A5000302686F31188236F00251B78042B00F055
:107A60002B8285F31188DFF88880D8F84831002B05
:107A700040F09E822048FBF7F0FD3FE6194B1B7853
:107A8000D90702D51D48FDF7B9FB0C4D0B4B1B78F0
:107A9000052B7FF4D8AE40F2A460FDF7C5F8FCF7E3
:107AA0000DFC0023074A12F8011B002940F0BA829E
:107AB0000133DBB2062BF6D1E8E700BF981A0020AD
:107AC000201B0020791B0020251C0020281B0020E3
:107AD000241C0020DD0E0020261B0020231C00207B
